{
  "contractName": "CollectFeesLib",
  "abi": [
    {
      "constant": false,
      "inputs": [
        {
          "name": "self",
          "type": "StructLib.Data storage"
        },
        {
          "name": "_fundNum",
          "type": "uint256"
        },
        {
          "name": "fundOwner",
          "type": "address"
        }
      ],
      "name": "collectFees",
      "outputs": [
        {
          "name": "",
          "type": "uint256"
        }
      ],
      "payable": false,
      "stateMutability": "nonpayable",
      "type": "function"
    }
  ],
  "bytecode": "0x610312610030600b82828239805160001a6073146000811461002057610022565bfe5b5030600052607381538281f3fe7300000000000000000000000000000000000000003014608060405260043610610058576000357c0100000000000000000000000000000000000000000000000000000000900463ffffffff168063ce9e5ee51461005d575b600080fd5b81801561006957600080fd5b506100c06004803603606081101561008057600080fd5b810190808035906020019092919080359060200190929190803573ffffffffffffffffffffffffffffffffffffffff1690602001909291905050506100d6565b6040518082815260200191505060405180910390f35b60008383338073ffffffffffffffffffffffffffffffffffffffff1683600001600084815260200190815260200160002060020160009054906101000a900473ffffffffffffffffffffffffffffffffffffffff1673ffffffffffffffffffffffffffffffffffffffff161415156101dc576040517f08c379a00000000000000000000000000000000000000000000000000000000081526004018080602001828103825260348152602001807f41206e6f6e2d6f776e657220697320747279696e6720746f207375626d69742081526020017f616e206f7264657220746f207468652066756e6400000000000000000000000081525060400191505060405180910390fd5b600087600001600088815260200190815260200160002060090160008773ffffffffffffffffffffffffffffffffffffffff1673ffffffffffffffffffffffffffffffffffffffff168152602001908152602001600020549050600088600001600089815260200190815260200160002060090160008873ffffffffffffffffffffffffffffffffffffffff1673ffffffffffffffffffffffffffffffffffffffff168152602001908152602001600020819055508573ffffffffffffffffffffffffffffffffffffffff166108fc829081150290604051600060405180830381858888f193505050501580156102d7573d6000803e3d6000fd5b5080945050505050939250505056fea165627a7a72305820cf886957bb56b93798f0570850853263a9d9a50a2f00dbb582cc61fe5cfcaa590029",
  "source": "pragma solidity ^0.5.0;\n\nimport \"../contracts/StructLib.sol\";\n\n/** @title CollectFeesLib\n  * @author Bryan Herbert\n  * @notice Library for collect fees functionality including verifying ownership and transfering fees\n  */\nlibrary CollectFeesLib {\n    /**@dev Modifier to verify ownership of the fund that the user is requesting to collect fees from\n      *@param self Data struct that contains all of the fund information\n      *@param _fundNum Fund number\n      *@param sender Placeholder for message sender\n     */\n    modifier verifyOwnership(StructLib.Data storage self, \n    uint _fundNum, \n    address sender) {\n        //Verify that fund exists by checking feeRate is not zero\n        require(\n            self.list[_fundNum].fundOwner == sender,\n            \"A non-owner is trying to submit an order to the fund\"\n        );\n        _;\n    }\n\n    /**@dev Allows manager of fund to make a state changes that empties his fees balance and transfer it to his account\n      *@param self Data struct with fund information\n      *@param _fundNum Fund number\n      *@param fundOwner Fund owner\n      *@return uint Fees Collected \n     */\n    function collectFees(StructLib.Data storage self, \n    uint _fundNum, \n    address payable fundOwner)\n    public\n    verifyOwnership(self, _fundNum, msg.sender)\n    returns (uint)\n    {\n        //Calculate fees\n        uint feesCollected = self.list[_fundNum].fees[fundOwner];\n        self.list[_fundNum].fees[fundOwner] = 0;\n        fundOwner.transfer(feesCollected);\n        return feesCollected;\n    }\n}",
  "sourcePath": "/home/bryan/Documents/final-project-bryanherbert/contracts/CollectFeesLib.sol",
  "compiler": {
    "name": "solc",
    "version": "0.5.0+commit.1d4f565a.Emscripten.clang"
  },
  "schemaVersion": "3.0.1",
  "updatedAt": "2019-01-28T21:09:01.234Z",
  "devdoc": {
    "author": "Bryan Herbert",
    "methods": {
      "collectFees(StructLib.Data storage,uint256,address)": {
        "details": "Allows manager of fund to make a state changes that empties his fees balance and transfer it to his account param self Data struct with fund information param _fundNum Fund number param fundOwner Fund owner return uint Fees Collected "
      }
    },
    "title": "CollectFeesLib"
  },
  "userdoc": {
    "methods": {},
    "notice": "Library for collect fees functionality including verifying ownership and transfering fees"
  }
}