{
  "contractName": "CollectFeesLib",
  "abi": [
    {
      "constant": false,
      "inputs": [
        {
          "name": "self",
          "type": "StructLib.Data storage"
        },
        {
          "name": "_name",
          "type": "bytes32"
        },
        {
          "name": "fundOwner",
          "type": "address"
        }
      ],
      "name": "collectFees",
      "outputs": [
        {
          "name": "",
          "type": "uint256"
        }
      ],
      "payable": false,
      "stateMutability": "nonpayable",
      "type": "function"
    }
  ],
  "bytecode": "0x610210610030600b82828239805160001a6073146000811461002057610022565bfe5b5030600052607381538281f3007300000000000000000000000000000000000000003014608060405260043610610058576000357c0100000000000000000000000000000000000000000000000000000000900463ffffffff16806338e4a9be1461005d575b600080fd5b81801561006957600080fd5b506100b6600480360381019080803590602001909291908035600019169060200190929190803573ffffffffffffffffffffffffffffffffffffffff1690602001909291905050506100cc565b6040518082815260200191505060405180910390f35b600080846000016000856000191660001916815260200190815260200160002060080160008473ffffffffffffffffffffffffffffffffffffffff1673ffffffffffffffffffffffffffffffffffffffff1681526020019081526020016000205490506000856000016000866000191660001916815260200190815260200160002060080160008573ffffffffffffffffffffffffffffffffffffffff1673ffffffffffffffffffffffffffffffffffffffff168152602001908152602001600020819055508273ffffffffffffffffffffffffffffffffffffffff166108fc829081150290604051600060405180830381858888f193505050501580156101d8573d6000803e3d6000fd5b508091505093925050505600a165627a7a723058200ac99d2201a5519a97865b7a53a9d230d6e7b87531f833e53214687872d013f40029",
  "source": "pragma solidity ^0.4.24;\n\nimport \"../contracts/StructLib.sol\";\n\nlibrary CollectFeesLib {\n\n    function collectFees(StructLib.Data storage self, bytes32 _name, address fundOwner)\n    public\n    returns (uint)\n    {\n        //Calculate fees\n        uint feesCollected = self.list[_name].fees[fundOwner];\n        self.list[_name].fees[fundOwner] = 0;\n        fundOwner.transfer(feesCollected);\n        return feesCollected;\n    }\n}",
  "sourcePath": "/home/bryherbz/Documents/final-project-bryanherbert/contracts/CollectFeesLib.sol",
  "compiler": {
    "name": "solc",
    "version": "0.4.24+commit.e67f0147.Emscripten.clang"
  },
  "schemaVersion": "2.0.1",
  "updatedAt": "2018-12-30T05:12:43.168Z"
}