{
  "contractName": "CollectFeesLib",
  "abi": [
    {
      "constant": false,
      "inputs": [
        {
          "name": "self",
          "type": "StructLib.Data storage"
        },
        {
          "name": "_fundNum",
          "type": "uint256"
        },
        {
          "name": "fundOwner",
          "type": "address"
        }
      ],
      "name": "collectFees",
      "outputs": [
        {
          "name": "",
          "type": "uint256"
        }
      ],
      "payable": false,
      "stateMutability": "nonpayable",
      "type": "function"
    }
  ],
  "bytecode": "0x6101fc610030600b82828239805160001a6073146000811461002057610022565bfe5b5030600052607381538281f3007300000000000000000000000000000000000000003014608060405260043610610058576000357c0100000000000000000000000000000000000000000000000000000000900463ffffffff168063ce9e5ee51461005d575b600080fd5b81801561006957600080fd5b506100b26004803603810190808035906020019092919080359060200190929190803573ffffffffffffffffffffffffffffffffffffffff1690602001909291905050506100c8565b6040518082815260200191505060405180910390f35b60008084600001600085815260200190815260200160002060090160008473ffffffffffffffffffffffffffffffffffffffff1673ffffffffffffffffffffffffffffffffffffffff168152602001908152602001600020549050600085600001600086815260200190815260200160002060090160008573ffffffffffffffffffffffffffffffffffffffff1673ffffffffffffffffffffffffffffffffffffffff168152602001908152602001600020819055508273ffffffffffffffffffffffffffffffffffffffff166108fc829081150290604051600060405180830381858888f193505050501580156101c4573d6000803e3d6000fd5b508091505093925050505600a165627a7a72305820a768b82ac2d0467c2f0cafb3bf5f5ab1aeae2eb7e42ec2f9b6149d91a316a4050029",
  "source": "pragma solidity ^0.4.24;\n\nimport \"../contracts/StructLib.sol\";\n\nlibrary CollectFeesLib {\n\n    function collectFees(StructLib.Data storage self, uint _fundNum, address fundOwner)\n    public\n    returns (uint)\n    {\n        //Calculate fees\n        uint feesCollected = self.list[_fundNum].fees[fundOwner];\n        self.list[_fundNum].fees[fundOwner] = 0;\n        fundOwner.transfer(feesCollected);\n        return feesCollected;\n    }\n}",
  "sourcePath": "/home/bryherbz/Documents/final-project-bryanherbert/contracts/CollectFeesLib.sol",
  "compiler": {
    "name": "solc",
    "version": "0.4.24+commit.e67f0147.Emscripten.clang"
  },
  "schemaVersion": "2.0.1",
  "updatedAt": "2019-01-25T07:47:50.421Z"
}