{
  "contractName": "FundMarketplace",
  "abi": [
    {
      "constant": true,
      "inputs": [],
      "name": "fundCount",
      "outputs": [
        {
          "name": "",
          "type": "uint256"
        }
      ],
      "payable": false,
      "stateMutability": "view",
      "type": "function"
    },
    {
      "constant": true,
      "inputs": [],
      "name": "countAdjustment",
      "outputs": [
        {
          "name": "",
          "type": "uint256"
        }
      ],
      "payable": false,
      "stateMutability": "view",
      "type": "function"
    },
    {
      "inputs": [],
      "payable": false,
      "stateMutability": "nonpayable",
      "type": "constructor"
    },
    {
      "anonymous": false,
      "inputs": [
        {
          "indexed": true,
          "name": "fundNum",
          "type": "uint256"
        },
        {
          "indexed": false,
          "name": "name",
          "type": "bytes32"
        },
        {
          "indexed": false,
          "name": "fundOwner",
          "type": "address"
        }
      ],
      "name": "FundCreated",
      "type": "event"
    },
    {
      "anonymous": false,
      "inputs": [
        {
          "indexed": true,
          "name": "fundNum",
          "type": "uint256"
        },
        {
          "indexed": true,
          "name": "investor",
          "type": "address"
        },
        {
          "indexed": false,
          "name": "investment",
          "type": "uint256"
        }
      ],
      "name": "Investment",
      "type": "event"
    },
    {
      "anonymous": false,
      "inputs": [
        {
          "indexed": true,
          "name": "fundNum",
          "type": "uint256"
        },
        {
          "indexed": true,
          "name": "investor",
          "type": "address"
        },
        {
          "indexed": false,
          "name": "fee",
          "type": "uint256"
        }
      ],
      "name": "FeesPaid",
      "type": "event"
    },
    {
      "anonymous": false,
      "inputs": [
        {
          "indexed": true,
          "name": "fundNum",
          "type": "uint256"
        },
        {
          "indexed": false,
          "name": "fee",
          "type": "uint256"
        }
      ],
      "name": "FeesCollected",
      "type": "event"
    },
    {
      "anonymous": false,
      "inputs": [
        {
          "indexed": true,
          "name": "fundNum",
          "type": "uint256"
        },
        {
          "indexed": false,
          "name": "investor",
          "type": "address"
        },
        {
          "indexed": false,
          "name": "investment",
          "type": "uint256"
        },
        {
          "indexed": false,
          "name": "fees",
          "type": "uint256"
        }
      ],
      "name": "FundsWithdrawn",
      "type": "event"
    },
    {
      "anonymous": false,
      "inputs": [
        {
          "indexed": true,
          "name": "fundNum",
          "type": "uint256"
        },
        {
          "indexed": false,
          "name": "action",
          "type": "bytes"
        },
        {
          "indexed": false,
          "name": "ticker",
          "type": "bytes32"
        },
        {
          "indexed": false,
          "name": "qty",
          "type": "uint256"
        },
        {
          "indexed": false,
          "name": "price",
          "type": "uint256"
        }
      ],
      "name": "OrderPlaced",
      "type": "event"
    },
    {
      "anonymous": false,
      "inputs": [
        {
          "indexed": true,
          "name": "fundNum",
          "type": "uint256"
        },
        {
          "indexed": false,
          "name": "manager",
          "type": "address"
        }
      ],
      "name": "FundClosed",
      "type": "event"
    },
    {
      "constant": false,
      "inputs": [
        {
          "name": "_name",
          "type": "bytes32"
        },
        {
          "name": "_fundOwner",
          "type": "address"
        },
        {
          "name": "_investment",
          "type": "uint256"
        },
        {
          "name": "_feeRate",
          "type": "uint256"
        },
        {
          "name": "_paymentCycle",
          "type": "uint256"
        }
      ],
      "name": "initializeFund",
      "outputs": [],
      "payable": true,
      "stateMutability": "payable",
      "type": "function"
    },
    {
      "constant": false,
      "inputs": [
        {
          "name": "_fundNum",
          "type": "uint256"
        },
        {
          "name": "_investment",
          "type": "uint256"
        }
      ],
      "name": "Invest",
      "outputs": [],
      "payable": true,
      "stateMutability": "payable",
      "type": "function"
    },
    {
      "constant": false,
      "inputs": [
        {
          "name": "_fundNum",
          "type": "uint256"
        },
        {
          "name": "_action",
          "type": "bytes"
        },
        {
          "name": "_ticker",
          "type": "bytes32"
        },
        {
          "name": "_qty",
          "type": "uint256"
        },
        {
          "name": "_price",
          "type": "uint256"
        }
      ],
      "name": "placeOrder",
      "outputs": [],
      "payable": false,
      "stateMutability": "nonpayable",
      "type": "function"
    },
    {
      "constant": true,
      "inputs": [
        {
          "name": "_fundNum",
          "type": "uint256"
        },
        {
          "name": "_qty",
          "type": "uint256"
        }
      ],
      "name": "calcQty",
      "outputs": [
        {
          "name": "",
          "type": "uint256"
        }
      ],
      "payable": false,
      "stateMutability": "view",
      "type": "function"
    },
    {
      "constant": true,
      "inputs": [
        {
          "name": "_fundNum",
          "type": "uint256"
        }
      ],
      "name": "checkFeeRate",
      "outputs": [
        {
          "name": "",
          "type": "uint256"
        }
      ],
      "payable": false,
      "stateMutability": "view",
      "type": "function"
    },
    {
      "constant": false,
      "inputs": [
        {
          "name": "_fundNum",
          "type": "uint256"
        },
        {
          "name": "_timePeriod",
          "type": "uint256"
        }
      ],
      "name": "payFee",
      "outputs": [],
      "payable": false,
      "stateMutability": "nonpayable",
      "type": "function"
    },
    {
      "constant": true,
      "inputs": [
        {
          "name": "_fundNum",
          "type": "uint256"
        },
        {
          "name": "_timePeriod",
          "type": "uint256"
        }
      ],
      "name": "checkFee",
      "outputs": [
        {
          "name": "",
          "type": "uint256"
        },
        {
          "name": "",
          "type": "bool"
        }
      ],
      "payable": false,
      "stateMutability": "view",
      "type": "function"
    },
    {
      "constant": false,
      "inputs": [
        {
          "name": "_fundNum",
          "type": "uint256"
        }
      ],
      "name": "collectFees",
      "outputs": [],
      "payable": false,
      "stateMutability": "nonpayable",
      "type": "function"
    },
    {
      "constant": false,
      "inputs": [
        {
          "name": "_fundNum",
          "type": "uint256"
        },
        {
          "name": "_amount",
          "type": "uint256"
        }
      ],
      "name": "withdrawFunds",
      "outputs": [],
      "payable": false,
      "stateMutability": "nonpayable",
      "type": "function"
    },
    {
      "constant": false,
      "inputs": [
        {
          "name": "_fundNum",
          "type": "uint256"
        }
      ],
      "name": "closeFund",
      "outputs": [],
      "payable": false,
      "stateMutability": "nonpayable",
      "type": "function"
    },
    {
      "constant": true,
      "inputs": [
        {
          "name": "_fundNum",
          "type": "uint256"
        }
      ],
      "name": "getFundDetails",
      "outputs": [
        {
          "name": "",
          "type": "bytes32"
        },
        {
          "name": "",
          "type": "address"
        },
        {
          "name": "",
          "type": "uint256"
        },
        {
          "name": "",
          "type": "uint256"
        },
        {
          "name": "",
          "type": "uint256"
        },
        {
          "name": "",
          "type": "uint256"
        }
      ],
      "payable": false,
      "stateMutability": "view",
      "type": "function"
    },
    {
      "constant": true,
      "inputs": [
        {
          "name": "_fundNum",
          "type": "uint256"
        },
        {
          "name": "_addr",
          "type": "address"
        }
      ],
      "name": "getFundDetails2",
      "outputs": [
        {
          "name": "",
          "type": "bool"
        },
        {
          "name": "",
          "type": "uint256"
        },
        {
          "name": "",
          "type": "uint256"
        }
      ],
      "payable": false,
      "stateMutability": "view",
      "type": "function"
    }
  ],
  "bytecode": "0x6080604052600060035534801561001557600080fd5b50336000806101000a81548173ffffffffffffffffffffffffffffffffffffffff021916908373ffffffffffffffffffffffffffffffffffffffff1602179055506113bc806100656000396000f3006080604052600436106100d0576000357c0100000000000000000000000000000000000000000000000000000000900463ffffffff1680631858f8d3146100d5578063316e15311461010c5780633f936ff51461016e578063609a4970146101995780636a28d575146101c65780638eee31341461022d5780638f144ea214610278578063900b7d7c14610310578063b08928601461033b578063b17acdcd14610365578063dc54380c14610392578063ddbf5c8f14610405578063e15ee3d61461045b578063e52531051461049c575b600080fd5b3480156100e157600080fd5b5061010a60048036038101908080359060200190929190803590602001909291905050506104d3565b005b61016c6004803603810190808035600019169060200190929190803573ffffffffffffffffffffffffffffffffffffffff169060200190929190803590602001909291908035906020019092919080359060200190929190505050610630565b005b34801561017a57600080fd5b506101836107a9565b6040518082815260200191505060405180910390f35b3480156101a557600080fd5b506101c4600480360381019080803590602001909291905050506107af565b005b3480156101d257600080fd5b5061022b6004803603810190808035906020019092919080359060200190820180359060200191909192939192939080356000191690602001909291908035906020019092919080359060200190929190505050610a15565b005b34801561023957600080fd5b506102626004803603810190808035906020019092919080359060200190929190505050610b4d565b6040518082815260200191505060405180910390f35b34801561028457600080fd5b506102a360048036038101908080359060200190929190505050610c0e565b6040518087600019166000191681526020018673ffffffffffffffffffffffffffffffffffffffff1673ffffffffffffffffffffffffffffffffffffffff168152602001858152602001848152602001838152602001828152602001965050505050505060405180910390f35b34801561031c57600080fd5b50610325610ce8565b6040518082815260200191505060405180910390f35b6103636004803603810190808035906020019092919080359060200190929190505050610cee565b005b34801561037157600080fd5b5061039060048036038101908080359060200190929190505050610e11565b005b34801561039e57600080fd5b506103dd60048036038101908080359060200190929190803573ffffffffffffffffffffffffffffffffffffffff169060200190929190505050610f34565b6040518084151515158152602001838152602001828152602001935050505060405180910390f35b34801561041157600080fd5b5061043a6004803603810190808035906020019092919080359060200190929190505050611058565b60405180838152602001821515151581526020019250505060405180910390f35b34801561046757600080fd5b5061048660048036038101908080359060200190929190505050611135565b6040518082815260200191505060405180910390f35b3480156104a857600080fd5b506104d160048036038101908080359060200190929190803590602001909291905050506111ed565b005b600073__PayFeeLib_____________________________6308e1bc1b600185856040518463ffffffff167c010000000000000000000000000000000000000000000000000000000002815260040180848152602001838152602001828152602001935050505060006040518083038186803b15801561055157600080fd5b505af4158015610565573d6000803e3d6000fd5b505050506105da6105d46001600001600086815260200190815260200160002060080160003373ffffffffffffffffffffffffffffffffffffffff1673ffffffffffffffffffffffffffffffffffffffff168152602001908152602001600020546105cf86611135565b611366565b83611366565b90503373ffffffffffffffffffffffffffffffffffffffff16837f8c93f5c871494af23fcf8187e4048fa7349f98ab5aa3ac95d12df81e75d93475836040518082815260200191505060405180910390a3505050565b73__InitLib_______________________________63b13c380c600160025488888888886040518863ffffffff167c01000000000000000000000000000000000000000000000000000000000281526004018088815260200187815260200186600019166000191681526020018573ffffffffffffffffffffffffffffffffffffffff1673ffffffffffffffffffffffffffffffffffffffff16815260200184815260200183815260200182815260200197505050505050505060006040518083038186803b15801561070257600080fd5b505af4158015610716573d6000803e3d6000fd5b505050506002600081548092919060010191905055506002547fc82935322ca212d902bc9f5d7749a3f6d77c1b65edc910fa76e4c71c5578936386866040518083600019166000191681526020018273ffffffffffffffffffffffffffffffffffffffff1673ffffffffffffffffffffffffffffffffffffffff1681526020019250505060405180910390a25050505050565b60025481565b6000813360006107be83610c0e565b90919293945090919250909150905050809150503373ffffffffffffffffffffffffffffffffffffffff168173ffffffffffffffffffffffffffffffffffffffff16141515610875576040517f08c379a00000000000000000000000000000000000000000000000000000000081526004018080602001828103825260208152602001807f4d6573736167652053656e64657220646f6573206e6f74206f776e2066756e6481525060200191505060405180910390fd5b6001600001600086815260200190815260200160002060090160003373ffffffffffffffffffffffffffffffffffffffff1673ffffffffffffffffffffffffffffffffffffffff1681526020019081526020016000205493503373ffffffffffffffffffffffffffffffffffffffff166108fc859081150290604051600060405180830381858888f19350505050158015610914573d6000803e3d6000fd5b506001600001600086815260200190815260200160002060008082016000905560018201600090556002820160006101000a81549073ffffffffffffffffffffffffffffffffffffffff02191690556003820160009055600482016000905560058201600090556006820160009055505060026000815480929190600190039190505550600360008154809291906001019190505550847fc645e26d39829041e2ab4544829d127df37295c8b86d8142c0f2b23f7bf7a0bb33604051808273ffffffffffffffffffffffffffffffffffffffff1673ffffffffffffffffffffffffffffffffffffffff16815260200191505060405180910390a25050505050565b73__OrderLib______________________________63c7810ad1600188888887876040518763ffffffff167c010000000000000000000000000000000000000000000000000000000002815260040180878152602001868152602001806020018481526020018381526020018281038252868682818152602001925080828437820191505097505050505050505060006040518083038186803b158015610abb57600080fd5b505af4158015610acf573d6000803e3d6000fd5b50505050857fb936d6d96884881d81b69f8bd1362e3d090780a0f7eaf43159a10f15f88e0a0986868686866040518080602001856000191660001916815260200184815260200183815260200182810382528787828181526020019250808284378201915050965050505050505060405180910390a2505050505050565b600073__OrderLib______________________________63cf3ebe5d600185856040518463ffffffff167c010000000000000000000000000000000000000000000000000000000002815260040180848152602001838152602001828152602001935050505060206040518083038186803b158015610bcb57600080fd5b505af4158015610bdf573d6000803e3d6000fd5b505050506040513d6020811015610bf557600080fd5b8101908080519060200190929190505050905092915050565b60008060008060008060016000016000888152602001908152602001600020600101546001600001600089815260200190815260200160002060020160009054906101000a900473ffffffffffffffffffffffffffffffffffffffff16600160000160008a815260200190815260200160002060030154600160000160008b815260200190815260200160002060040154600160000160008c815260200190815260200160002060050154600160000160008d81526020019081526020016000206006015495509550955095509550955091939550919395565b60035481565b73__InvestLib_____________________________637ce7feb16001848433346040518663ffffffff167c0100000000000000000000000000000000000000000000000000000000028152600401808681526020018581526020018481526020018373ffffffffffffffffffffffffffffffffffffffff1673ffffffffffffffffffffffffffffffffffffffff1681526020018281526020019550505050505060006040518083038186803b158015610da657600080fd5b505af4158015610dba573d6000803e3d6000fd5b505050503373ffffffffffffffffffffffffffffffffffffffff16827f643fc0b743f4f346ffdb759bfb92448864902674a3c483edc83c37e717991eef836040518082815260200191505060405180910390a35050565b600073__CollectFeesLib________________________63ce9e5ee5600184336040518463ffffffff167c0100000000000000000000000000000000000000000000000000000000028152600401808481526020018381526020018273ffffffffffffffffffffffffffffffffffffffff1673ffffffffffffffffffffffffffffffffffffffff168152602001935050505060206040518083038186803b158015610ebb57600080fd5b505af4158015610ecf573d6000803e3d6000fd5b505050506040513d6020811015610ee557600080fd5b81019080805190602001909291905050509050817f49d512bf9cb224241c05691e73eb9fab078cf350c7dbcbcf66788f1fc0cc8b0b826040518082815260200191505060405180910390a25050565b60008060006001600001600086815260200190815260200160002060070160008573ffffffffffffffffffffffffffffffffffffffff1673ffffffffffffffffffffffffffffffffffffffff16815260200190815260200160002060009054906101000a900460ff166001600001600087815260200190815260200160002060080160008673ffffffffffffffffffffffffffffffffffffffff1673ffffffffffffffffffffffffffffffffffffffff168152602001908152602001600020546001600001600088815260200190815260200160002060090160008773ffffffffffffffffffffffffffffffffffffffff1673ffffffffffffffffffffffffffffffffffffffff168152602001908152602001600020549250925092509250925092565b60008060008073__PayFeeLib_____________________________639f79cb56600188886040518463ffffffff167c0100000000000000000000000000000000000000000000000000000000028152600401808481526020018381526020018281526020019350505050604080518083038186803b1580156110d957600080fd5b505af41580156110ed573d6000803e3d6000fd5b505050506040513d604081101561110357600080fd5b810190808051906020019092919080519060200190929190505050809250819350505081819350935050509250929050565b600073__Misc__________________________________63a55d26f86001846040518363ffffffff167c0100000000000000000000000000000000000000000000000000000000028152600401808381526020018281526020019250505060206040518083038186803b1580156111ab57600080fd5b505af41580156111bf573d6000803e3d6000fd5b505050506040513d60208110156111d557600080fd5b81019080805190602001909291905050509050919050565b60008073__WithdrawFundsLib______________________635f03d52460018633876040518563ffffffff167c0100000000000000000000000000000000000000000000000000000000028152600401808581526020018481526020018373ffffffffffffffffffffffffffffffffffffffff1673ffffffffffffffffffffffffffffffffffffffff168152602001828152602001945050505050604080518083038186803b15801561129f57600080fd5b505af41580156112b3573d6000803e3d6000fd5b505050506040513d60408110156112c957600080fd5b8101908080519060200190929190805190602001909291905050508092508193505050837f3dbb1a26f29aef1264c12ca1285deb60cca5666d8b17100c7ea1602c0a4014f6338484604051808473ffffffffffffffffffffffffffffffffffffffff1673ffffffffffffffffffffffffffffffffffffffff168152602001838152602001828152602001935050505060405180910390a250505050565b60008060008311151561137857600080fd5b828481151561138357fe5b04905080915050929150505600a165627a7a723058209ff9bae7f1c4e51ab3c799ca4198bc1b36efdf78b43aa94f18d0f4fef0efa5b30029",
  "source": "pragma solidity ^0.4.24;\n\nimport \"../contracts/StructLib.sol\";\nimport \"../contracts/InitLib.sol\";\nimport \"../contracts/InvestLib.sol\";\nimport \"../contracts/Misc.sol\";\nimport \"../contracts/PayFeeLib.sol\";\nimport \"../contracts/CollectFeesLib.sol\";\nimport \"../contracts/WithdrawFundsLib.sol\";\nimport \"../contracts/OrderLib.sol\";\nimport \"../node_modules/openzeppelin-solidity/contracts/math/SafeMath.sol\";\n\ncontract FundMarketplace {\n    //State Variables\n    address internal admin;\n    StructLib.Data funds;\n    uint public fundCount;\n    uint public countAdjustment=0;\n\n    //Events\n    event FundCreated(\n        uint indexed fundNum,\n        bytes32 name,\n        //have to think about how to search for value vs. how to see it\n        //Probably can still index name, just can't check for it in JS\n        //bytes32 name,\n        address fundOwner\n    );\n\n    event Investment(\n        uint indexed fundNum,\n        address indexed investor,\n        // uint fundNum,\n        // address investor,\n        uint investment\n    );\n    \n    event FeesPaid(\n        uint indexed fundNum,\n        address indexed investor,\n        // uint fundNum,\n        // address investor,\n        uint fee\n    );\n\n    event FeesCollected(\n        uint indexed fundNum,\n        uint fee\n    );\n\n    event FundsWithdrawn(\n        //uint fundNum,,\n        uint indexed fundNum,\n        address investor,\n        uint investment,\n        uint fees\n    );\n\n    event OrderPlaced(\n        uint indexed fundNum,\n        bytes action,\n        bytes32 ticker,\n        uint qty,\n        uint price\n    );\n\n    event FundClosed(\n        uint indexed fundNum,\n        address manager\n    );\n\n    constructor() public {\n        admin = msg.sender;\n    }\n\n    //Modifiers\n\n    //Can replace this with ethpm code\n    modifier isOwner(uint _fundNum, address _account){\n        address fundOwner;\n        (,fundOwner,,,,) = getFundDetails(_fundNum);\n        require(\n            fundOwner == msg.sender,\n            \"Message Sender does not own fund\"\n        );\n        _;\n    }\n\n    function initializeFund(bytes32 _name, address _fundOwner, uint _investment, uint _feeRate, uint _paymentCycle) \n    external payable {\n        InitLib.initializeFund(funds, fundCount, _name, _fundOwner, _investment, _feeRate, _paymentCycle);\n        //Increment fundCount\n        fundCount++;\n        emit FundCreated(fundCount, _name, _fundOwner);\n    }\n\n    //Make investment into particular fund\n    //Must have required funds\n    function Invest(uint _fundNum, uint _investment) \n    external payable  \n    {\n        InvestLib.Invest(funds, _fundNum, _investment, msg.sender, msg.value);\n        emit Investment(_fundNum, msg.sender, _investment);\n    }\n\n    //Place order for a trade\n    //Not sure what calldata is exactly for _action\n    function placeOrder(uint _fundNum, bytes _action, bytes32 _ticker, uint _qty, uint _price)\n    external \n    {\n        OrderLib.placeOrder(funds, _fundNum, _action, _qty, _price);\n        emit OrderPlaced(_fundNum, _action, _ticker, _qty, _price);\n    }\n\n    //Calculate quantity of shares to buy based on investor's % of fund\n    //Could we have investor directly access this\n    function calcQty(uint _fundNum, uint _qty) \n    external view\n    returns (uint) {\n        return OrderLib.calcQty(funds, _fundNum, _qty);\n    }\n\n    //check Fee Rate - read operation from struct\n    //was originally \"public view\" when not in library\n    function checkFeeRate(uint _fundNum) public view returns (uint) {\n        return Misc.checkFeeRate(funds, _fundNum);\n    }\n\n    //One-time pay fee function\n    function payFee(uint _fundNum, uint _timePeriod) external\n    {\n        PayFeeLib.payFee(funds, _fundNum, _timePeriod);\n        uint payment = SafeMath.div(SafeMath.div(funds.list[_fundNum].virtualBalances[msg.sender], checkFeeRate(_fundNum)), _timePeriod);\n        emit FeesPaid (_fundNum, msg.sender, payment);\n    }\n\n    //Check whether a fee is due and how much\n    function checkFee(uint _fundNum, uint _timePeriod) external view returns (uint, bool) {\n        uint payment;\n        bool paymentDue;\n        (payment, paymentDue) = PayFeeLib.checkFee(funds, _fundNum, _timePeriod);\n        return (payment, paymentDue);\n    }\n\n    //Owner of Strategy Collects Fees\n    function collectFees(uint _fundNum) external\n    //isOwner(_name)\n    {\n        uint fees = CollectFeesLib.collectFees(funds, _fundNum, msg.sender);\n        emit FeesCollected(_fundNum, fees);\n    }\n\n    function withdrawFunds(uint _fundNum, uint _amount) public\n    //verifyInvestmentStatus(_name) \n    {\n        //Need to make sure this matches up with withdraw philosophy\n        uint investment;\n        uint fees;\n        (investment, fees) = WithdrawFundsLib.withdrawFunds(funds, _fundNum, msg.sender, _amount);\n        emit FundsWithdrawn(_fundNum, msg.sender, investment, fees);\n    }\n\n    function closeFund(uint _fundNum) public\n    isOwner(_fundNum, msg.sender)\n    {\n        //Have to work out business logic better for this button\n        //Transfer uncollected fees to manager\n        uint refund = funds.list[_fundNum].fees[msg.sender];\n        msg.sender.transfer(refund);\n        delete funds.list[_fundNum];\n        //Adjust numbering of other funds\n        fundCount--;\n        countAdjustment++;\n        emit FundClosed(_fundNum, msg.sender);\n    }\n\n    //Get fund information (for testing/verification purposes)\n    \n    function getFundDetails(uint _fundNum) public view returns (bytes32, address, uint, uint, uint, uint){\n        return (funds.list[_fundNum].name, \n        funds.list[_fundNum].fundOwner, \n        funds.list[_fundNum].totalCapital,\n        funds.list[_fundNum].capitalDeployed,\n        funds.list[_fundNum].feeRate,\n        funds.list[_fundNum].paymentCycle);\n    }\n\n    //need two functions because of stack height\n    function getFundDetails2(uint _fundNum, address _addr) public view returns (bool, uint, uint){\n        return(funds.list[_fundNum].investors[_addr], \n        funds.list[_fundNum].virtualBalances[_addr],\n        funds.list[_fundNum].fees[_addr]);\n    }\n}",
  "sourcePath": "/home/bryherbz/Documents/final-project-bryanherbert/contracts/FundMarketplace.sol",
  "compiler": {
    "name": "solc",
    "version": "0.4.24+commit.e67f0147.Emscripten.clang"
  },
  "schemaVersion": "2.0.1",
  "updatedAt": "2019-01-25T08:57:11.057Z"
}