{
  "contractName": "FundMarketplace",
  "abi": [
    {
      "constant": true,
      "inputs": [],
      "name": "fundCount",
      "outputs": [
        {
          "name": "",
          "type": "uint256"
        }
      ],
      "payable": false,
      "stateMutability": "view",
      "type": "function"
    },
    {
      "inputs": [],
      "payable": false,
      "stateMutability": "nonpayable",
      "type": "constructor"
    },
    {
      "anonymous": false,
      "inputs": [
        {
          "indexed": true,
          "name": "fundNum",
          "type": "uint256"
        },
        {
          "indexed": false,
          "name": "name",
          "type": "bytes32"
        },
        {
          "indexed": false,
          "name": "fundOwner",
          "type": "address"
        }
      ],
      "name": "FundCreated",
      "type": "event"
    },
    {
      "anonymous": false,
      "inputs": [
        {
          "indexed": true,
          "name": "fundNum",
          "type": "uint256"
        },
        {
          "indexed": true,
          "name": "investor",
          "type": "address"
        },
        {
          "indexed": false,
          "name": "investment",
          "type": "uint256"
        }
      ],
      "name": "Investment",
      "type": "event"
    },
    {
      "anonymous": false,
      "inputs": [
        {
          "indexed": true,
          "name": "fundNum",
          "type": "uint256"
        },
        {
          "indexed": true,
          "name": "investor",
          "type": "address"
        },
        {
          "indexed": false,
          "name": "fee",
          "type": "uint256"
        }
      ],
      "name": "FeesPaid",
      "type": "event"
    },
    {
      "anonymous": false,
      "inputs": [
        {
          "indexed": true,
          "name": "fundNum",
          "type": "uint256"
        },
        {
          "indexed": false,
          "name": "fee",
          "type": "uint256"
        }
      ],
      "name": "FeesCollected",
      "type": "event"
    },
    {
      "anonymous": false,
      "inputs": [
        {
          "indexed": true,
          "name": "fundNum",
          "type": "uint256"
        },
        {
          "indexed": false,
          "name": "investor",
          "type": "address"
        },
        {
          "indexed": false,
          "name": "investment",
          "type": "uint256"
        },
        {
          "indexed": false,
          "name": "fees",
          "type": "uint256"
        }
      ],
      "name": "FundsWithdrawn",
      "type": "event"
    },
    {
      "anonymous": false,
      "inputs": [
        {
          "indexed": true,
          "name": "fundNum",
          "type": "uint256"
        },
        {
          "indexed": false,
          "name": "action",
          "type": "bytes"
        },
        {
          "indexed": false,
          "name": "ticker",
          "type": "bytes32"
        },
        {
          "indexed": false,
          "name": "qty",
          "type": "uint256"
        },
        {
          "indexed": false,
          "name": "price",
          "type": "uint256"
        }
      ],
      "name": "OrderPlaced",
      "type": "event"
    },
    {
      "constant": false,
      "inputs": [
        {
          "name": "_name",
          "type": "bytes32"
        },
        {
          "name": "_fundOwner",
          "type": "address"
        },
        {
          "name": "_investment",
          "type": "uint256"
        },
        {
          "name": "_feeRate",
          "type": "uint256"
        },
        {
          "name": "_paymentCycle",
          "type": "uint256"
        }
      ],
      "name": "initializeFund",
      "outputs": [],
      "payable": true,
      "stateMutability": "payable",
      "type": "function"
    },
    {
      "constant": false,
      "inputs": [
        {
          "name": "_fundNum",
          "type": "uint256"
        },
        {
          "name": "_investment",
          "type": "uint256"
        }
      ],
      "name": "Invest",
      "outputs": [],
      "payable": true,
      "stateMutability": "payable",
      "type": "function"
    },
    {
      "constant": false,
      "inputs": [
        {
          "name": "_fundNum",
          "type": "uint256"
        },
        {
          "name": "_action",
          "type": "bytes"
        },
        {
          "name": "_ticker",
          "type": "bytes32"
        },
        {
          "name": "_qty",
          "type": "uint256"
        },
        {
          "name": "_price",
          "type": "uint256"
        }
      ],
      "name": "placeOrder",
      "outputs": [],
      "payable": false,
      "stateMutability": "nonpayable",
      "type": "function"
    },
    {
      "constant": true,
      "inputs": [
        {
          "name": "_fundNum",
          "type": "uint256"
        },
        {
          "name": "_qty",
          "type": "uint256"
        }
      ],
      "name": "calcQty",
      "outputs": [
        {
          "name": "",
          "type": "uint256"
        }
      ],
      "payable": false,
      "stateMutability": "view",
      "type": "function"
    },
    {
      "constant": true,
      "inputs": [
        {
          "name": "_fundNum",
          "type": "uint256"
        }
      ],
      "name": "checkFeeRate",
      "outputs": [
        {
          "name": "",
          "type": "uint256"
        }
      ],
      "payable": false,
      "stateMutability": "view",
      "type": "function"
    },
    {
      "constant": false,
      "inputs": [
        {
          "name": "_fundNum",
          "type": "uint256"
        },
        {
          "name": "_timePeriod",
          "type": "uint256"
        }
      ],
      "name": "payFee",
      "outputs": [],
      "payable": false,
      "stateMutability": "nonpayable",
      "type": "function"
    },
    {
      "constant": false,
      "inputs": [
        {
          "name": "_fundNum",
          "type": "uint256"
        }
      ],
      "name": "collectFees",
      "outputs": [],
      "payable": false,
      "stateMutability": "nonpayable",
      "type": "function"
    },
    {
      "constant": false,
      "inputs": [
        {
          "name": "_fundNum",
          "type": "uint256"
        },
        {
          "name": "_amount",
          "type": "uint256"
        }
      ],
      "name": "withdrawFunds",
      "outputs": [],
      "payable": false,
      "stateMutability": "nonpayable",
      "type": "function"
    },
    {
      "constant": true,
      "inputs": [
        {
          "name": "_fundNum",
          "type": "uint256"
        }
      ],
      "name": "getFundDetails",
      "outputs": [
        {
          "name": "",
          "type": "bytes32"
        },
        {
          "name": "",
          "type": "address"
        },
        {
          "name": "",
          "type": "uint256"
        },
        {
          "name": "",
          "type": "uint256"
        },
        {
          "name": "",
          "type": "uint256"
        },
        {
          "name": "",
          "type": "uint256"
        }
      ],
      "payable": false,
      "stateMutability": "view",
      "type": "function"
    },
    {
      "constant": true,
      "inputs": [
        {
          "name": "_fundNum",
          "type": "uint256"
        },
        {
          "name": "_addr",
          "type": "address"
        }
      ],
      "name": "getFundDetails2",
      "outputs": [
        {
          "name": "",
          "type": "bool"
        },
        {
          "name": "",
          "type": "uint256"
        },
        {
          "name": "",
          "type": "uint256"
        }
      ],
      "payable": false,
      "stateMutability": "view",
      "type": "function"
    }
  ],
  "bytecode": "0x608060405234801561001057600080fd5b50336000806101000a81548173ffffffffffffffffffffffffffffffffffffffff021916908373ffffffffffffffffffffffffffffffffffffffff160217905550610fa4806100606000396000f3006080604052600436106100af576000357c0100000000000000000000000000000000000000000000000000000000900463ffffffff1680631858f8d3146100b4578063316e1531146100eb5780633f936ff51461014d5780636a28d575146101785780638eee3134146101df5780638f144ea21461022a578063b0892860146102c2578063b17acdcd146102ec578063dc54380c14610319578063e15ee3d61461038c578063e5253105146103cd575b600080fd5b3480156100c057600080fd5b506100e96004803603810190808035906020019092919080359060200190929190505050610404565b005b61014b6004803603810190808035600019169060200190929190803573ffffffffffffffffffffffffffffffffffffffff169060200190929190803590602001909291908035906020019092919080359060200190929190505050610561565b005b34801561015957600080fd5b506101626106da565b6040518082815260200191505060405180910390f35b34801561018457600080fd5b506101dd60048036038101908080359060200190929190803590602001908201803590602001919091929391929390803560001916906020019092919080359060200190929190803590602001909291905050506106e0565b005b3480156101eb57600080fd5b506102146004803603810190808035906020019092919080359060200190929190505050610818565b6040518082815260200191505060405180910390f35b34801561023657600080fd5b50610255600480360381019080803590602001909291905050506108d9565b6040518087600019166000191681526020018673ffffffffffffffffffffffffffffffffffffffff1673ffffffffffffffffffffffffffffffffffffffff168152602001858152602001848152602001838152602001828152602001965050505050505060405180910390f35b6102ea60048036038101908080359060200190929190803590602001909291905050506109b3565b005b3480156102f857600080fd5b5061031760048036038101908080359060200190929190505050610ad6565b005b34801561032557600080fd5b5061036460048036038101908080359060200190929190803573ffffffffffffffffffffffffffffffffffffffff169060200190929190505050610bf9565b6040518084151515158152602001838152602001828152602001935050505060405180910390f35b34801561039857600080fd5b506103b760048036038101908080359060200190929190505050610d1d565b6040518082815260200191505060405180910390f35b3480156103d957600080fd5b506104026004803603810190808035906020019092919080359060200190929190505050610dd5565b005b600073__PayFeeLib_____________________________6308e1bc1b600185856040518463ffffffff167c010000000000000000000000000000000000000000000000000000000002815260040180848152602001838152602001828152602001935050505060006040518083038186803b15801561048257600080fd5b505af4158015610496573d6000803e3d6000fd5b5050505061050b6105056001600001600086815260200190815260200160002060080160003373ffffffffffffffffffffffffffffffffffffffff1673ffffffffffffffffffffffffffffffffffffffff1681526020019081526020016000205461050086610d1d565b610f4e565b83610f4e565b90503373ffffffffffffffffffffffffffffffffffffffff16837f8c93f5c871494af23fcf8187e4048fa7349f98ab5aa3ac95d12df81e75d93475836040518082815260200191505060405180910390a3505050565b73__InitLib_______________________________63b13c380c600160025488888888886040518863ffffffff167c01000000000000000000000000000000000000000000000000000000000281526004018088815260200187815260200186600019166000191681526020018573ffffffffffffffffffffffffffffffffffffffff1673ffffffffffffffffffffffffffffffffffffffff16815260200184815260200183815260200182815260200197505050505050505060006040518083038186803b15801561063357600080fd5b505af4158015610647573d6000803e3d6000fd5b505050506002600081548092919060010191905055506002547fc82935322ca212d902bc9f5d7749a3f6d77c1b65edc910fa76e4c71c5578936386866040518083600019166000191681526020018273ffffffffffffffffffffffffffffffffffffffff1673ffffffffffffffffffffffffffffffffffffffff1681526020019250505060405180910390a25050505050565b60025481565b73__OrderLib______________________________63c7810ad1600188888887876040518763ffffffff167c010000000000000000000000000000000000000000000000000000000002815260040180878152602001868152602001806020018481526020018381526020018281038252868682818152602001925080828437820191505097505050505050505060006040518083038186803b15801561078657600080fd5b505af415801561079a573d6000803e3d6000fd5b50505050857fb936d6d96884881d81b69f8bd1362e3d090780a0f7eaf43159a10f15f88e0a0986868686866040518080602001856000191660001916815260200184815260200183815260200182810382528787828181526020019250808284378201915050965050505050505060405180910390a2505050505050565b600073__OrderLib______________________________63cf3ebe5d600185856040518463ffffffff167c010000000000000000000000000000000000000000000000000000000002815260040180848152602001838152602001828152602001935050505060206040518083038186803b15801561089657600080fd5b505af41580156108aa573d6000803e3d6000fd5b505050506040513d60208110156108c057600080fd5b8101908080519060200190929190505050905092915050565b60008060008060008060016000016000888152602001908152602001600020600101546001600001600089815260200190815260200160002060020160009054906101000a900473ffffffffffffffffffffffffffffffffffffffff16600160000160008a815260200190815260200160002060030154600160000160008b815260200190815260200160002060040154600160000160008c815260200190815260200160002060050154600160000160008d81526020019081526020016000206006015495509550955095509550955091939550919395565b73__InvestLib_____________________________637ce7feb16001848433346040518663ffffffff167c0100000000000000000000000000000000000000000000000000000000028152600401808681526020018581526020018481526020018373ffffffffffffffffffffffffffffffffffffffff1673ffffffffffffffffffffffffffffffffffffffff1681526020018281526020019550505050505060006040518083038186803b158015610a6b57600080fd5b505af4158015610a7f573d6000803e3d6000fd5b505050503373ffffffffffffffffffffffffffffffffffffffff16827f643fc0b743f4f346ffdb759bfb92448864902674a3c483edc83c37e717991eef836040518082815260200191505060405180910390a35050565b600073__CollectFeesLib________________________63ce9e5ee5600184336040518463ffffffff167c0100000000000000000000000000000000000000000000000000000000028152600401808481526020018381526020018273ffffffffffffffffffffffffffffffffffffffff1673ffffffffffffffffffffffffffffffffffffffff168152602001935050505060206040518083038186803b158015610b8057600080fd5b505af4158015610b94573d6000803e3d6000fd5b505050506040513d6020811015610baa57600080fd5b81019080805190602001909291905050509050817f49d512bf9cb224241c05691e73eb9fab078cf350c7dbcbcf66788f1fc0cc8b0b826040518082815260200191505060405180910390a25050565b60008060006001600001600086815260200190815260200160002060070160008573ffffffffffffffffffffffffffffffffffffffff1673ffffffffffffffffffffffffffffffffffffffff16815260200190815260200160002060009054906101000a900460ff166001600001600087815260200190815260200160002060080160008673ffffffffffffffffffffffffffffffffffffffff1673ffffffffffffffffffffffffffffffffffffffff168152602001908152602001600020546001600001600088815260200190815260200160002060090160008773ffffffffffffffffffffffffffffffffffffffff1673ffffffffffffffffffffffffffffffffffffffff168152602001908152602001600020549250925092509250925092565b600073__Misc__________________________________63a55d26f86001846040518363ffffffff167c0100000000000000000000000000000000000000000000000000000000028152600401808381526020018281526020019250505060206040518083038186803b158015610d9357600080fd5b505af4158015610da7573d6000803e3d6000fd5b505050506040513d6020811015610dbd57600080fd5b81019080805190602001909291905050509050919050565b60008073__WithdrawFundsLib______________________635f03d52460018633876040518563ffffffff167c0100000000000000000000000000000000000000000000000000000000028152600401808581526020018481526020018373ffffffffffffffffffffffffffffffffffffffff1673ffffffffffffffffffffffffffffffffffffffff168152602001828152602001945050505050604080518083038186803b158015610e8757600080fd5b505af4158015610e9b573d6000803e3d6000fd5b505050506040513d6040811015610eb157600080fd5b8101908080519060200190929190805190602001909291905050508092508193505050837f3dbb1a26f29aef1264c12ca1285deb60cca5666d8b17100c7ea1602c0a4014f6338484604051808473ffffffffffffffffffffffffffffffffffffffff1673ffffffffffffffffffffffffffffffffffffffff168152602001838152602001828152602001935050505060405180910390a250505050565b600080600083111515610f6057600080fd5b8284811515610f6b57fe5b04905080915050929150505600a165627a7a7230582016306068553cd7117ea8937745d52e206087e52409188fd59330e83da96abf5d0029",
  "source": "pragma solidity ^0.4.24;\n\nimport \"../contracts/StructLib.sol\";\nimport \"../contracts/InitLib.sol\";\nimport \"../contracts/InvestLib.sol\";\nimport \"../contracts/Misc.sol\";\nimport \"../contracts/PayFeeLib.sol\";\nimport \"../contracts/CollectFeesLib.sol\";\nimport \"../contracts/WithdrawFundsLib.sol\";\nimport \"../contracts/OrderLib.sol\";\nimport \"../node_modules/openzeppelin-solidity/contracts/math/SafeMath.sol\";\n\ncontract FundMarketplace {\n    //State Variables\n    address internal admin;\n    StructLib.Data funds;\n    uint public fundCount;\n\n    //Events\n    event FundCreated(\n        uint indexed fundNum,\n        bytes32 name,\n        //have to think about how to search for value vs. how to see it\n        //Probably can still index name, just can't check for it in JS\n        //bytes32 name,\n        address fundOwner\n    );\n\n    event Investment(\n        uint indexed fundNum,\n        address indexed investor,\n        // uint fundNum,\n        // address investor,\n        uint investment\n    );\n    \n    event FeesPaid(\n        uint indexed fundNum,\n        address indexed investor,\n        // uint fundNum,\n        // address investor,\n        uint fee\n    );\n\n    event FeesCollected(\n        uint indexed fundNum,\n        uint fee\n    );\n\n    event FundsWithdrawn(\n        //uint fundNum,,\n        uint indexed fundNum,\n        address investor,\n        uint investment,\n        uint fees\n    );\n\n    event OrderPlaced(\n        uint indexed fundNum,\n        bytes action,\n        bytes32 ticker,\n        uint qty,\n        uint price\n    );\n\n    constructor() public {\n        admin = msg.sender;\n    }\n\n    //Modifiers\n\n    // //Can replace this with ethpm code\n    // modifier isOwner(bytes32 _name){\n    //     address _fundOwner;\n    //     (,_fundOwner,,) = getFundDetails(_name);\n    //     require(\n    //         _fundOwner == msg.sender,\n    //         \"Message Sender does not own strategy\"\n    //     );\n    //     _;\n    // }\n\n    function initializeFund(bytes32 _name, address _fundOwner, uint _investment, uint _feeRate, uint _paymentCycle) \n    external payable {\n        InitLib.initializeFund(funds, fundCount, _name, _fundOwner, _investment, _feeRate, _paymentCycle);\n        //Increment fundCount\n        fundCount++;\n        emit FundCreated(fundCount, _name, _fundOwner);\n    }\n\n    //Make investment into particular fund\n    //Must have required funds\n    function Invest(uint _fundNum, uint _investment) \n    external payable  \n    {\n        InvestLib.Invest(funds, _fundNum, _investment, msg.sender, msg.value);\n        emit Investment(_fundNum, msg.sender, _investment);\n    }\n\n    //Place order for a trade\n    //Not sure what calldata is exactly for _action\n    function placeOrder(uint _fundNum, bytes _action, bytes32 _ticker, uint _qty, uint _price)\n    external \n    {\n        OrderLib.placeOrder(funds, _fundNum, _action, _qty, _price);\n        emit OrderPlaced(_fundNum, _action, _ticker, _qty, _price);\n    }\n\n    //Calculate quantity of shares to buy based on investor's % of fund\n    //Could we have investor directly access this\n    function calcQty(uint _fundNum, uint _qty) \n    external view\n    returns (uint) {\n        return OrderLib.calcQty(funds, _fundNum, _qty);\n    }\n\n    //check Fee Rate - read operation from struct\n    //was originally \"public view\" when not in library\n    function checkFeeRate(uint _fundNum) public view returns (uint) {\n        return Misc.checkFeeRate(funds, _fundNum);\n    }\n\n    //One-time pay fee function\n    function payFee(uint _fundNum, uint _timePeriod) external\n    {\n        PayFeeLib.payFee(funds, _fundNum, _timePeriod);\n        uint payment = SafeMath.div(SafeMath.div(funds.list[_fundNum].virtualBalances[msg.sender], checkFeeRate(_fundNum)), _timePeriod);\n        emit FeesPaid (_fundNum, msg.sender, payment);\n    }\n\n    //Owner of Strategy Collects Fees\n    function collectFees(uint _fundNum) external\n    //isOwner(_name)\n    {\n        uint fees = CollectFeesLib.collectFees(funds, _fundNum, msg.sender);\n        emit FeesCollected(_fundNum, fees);\n    }\n\n    function withdrawFunds(uint _fundNum, uint _amount) public\n    //verifyInvestmentStatus(_name) \n    {\n        //Need to make sure this matches up with withdraw philosophy\n        uint investment;\n        uint fees;\n        (investment, fees) = WithdrawFundsLib.withdrawFunds(funds, _fundNum, msg.sender, _amount);\n        emit FundsWithdrawn(_fundNum, msg.sender, investment, fees);\n    }\n\n    //Get fund information (for testing/verification purposes)\n    \n    function getFundDetails(uint _fundNum) external view returns (bytes32, address, uint, uint, uint, uint){\n        return (funds.list[_fundNum].name, \n        funds.list[_fundNum].fundOwner, \n        funds.list[_fundNum].totalCapital,\n        funds.list[_fundNum].capitalDeployed,\n        funds.list[_fundNum].feeRate,\n        funds.list[_fundNum].paymentCycle);\n    }\n\n    //need two functions because of stack height\n    function getFundDetails2(uint _fundNum, address _addr) external view returns (bool, uint, uint){\n        return(funds.list[_fundNum].investors[_addr], \n        funds.list[_fundNum].virtualBalances[_addr],\n        funds.list[_fundNum].fees[_addr]);\n    }\n}",
  "sourcePath": "/home/bryherbz/Documents/final-project-bryanherbert/contracts/FundMarketplace.sol",
  "compiler": {
    "name": "solc",
    "version": "0.4.24+commit.e67f0147.Emscripten.clang"
  },
  "schemaVersion": "2.0.1",
  "updatedAt": "2019-01-22T18:07:12.909Z"
}