{
  "contractName": "FundList",
  "abi": [
    {
      "inputs": [],
      "payable": false,
      "stateMutability": "nonpayable",
      "type": "constructor"
    },
    {
      "anonymous": false,
      "inputs": [
        {
          "indexed": false,
          "name": "name",
          "type": "bytes32"
        },
        {
          "indexed": false,
          "name": "investor",
          "type": "address"
        },
        {
          "indexed": false,
          "name": "fee",
          "type": "uint256"
        }
      ],
      "name": "FeesPaid",
      "type": "event"
    },
    {
      "constant": false,
      "inputs": [
        {
          "name": "_name",
          "type": "bytes32"
        },
        {
          "name": "_fundOwner",
          "type": "address"
        },
        {
          "name": "_investment",
          "type": "uint256"
        },
        {
          "name": "_feeRate",
          "type": "uint256"
        },
        {
          "name": "_paymentCycle",
          "type": "uint256"
        }
      ],
      "name": "initializeFund",
      "outputs": [
        {
          "name": "",
          "type": "bytes32"
        },
        {
          "name": "",
          "type": "uint256"
        },
        {
          "name": "",
          "type": "address"
        }
      ],
      "payable": true,
      "stateMutability": "payable",
      "type": "function"
    },
    {
      "constant": true,
      "inputs": [
        {
          "name": "_name",
          "type": "bytes32"
        },
        {
          "name": "_investor",
          "type": "address"
        }
      ],
      "name": "isInvestor",
      "outputs": [
        {
          "name": "",
          "type": "bool"
        }
      ],
      "payable": false,
      "stateMutability": "view",
      "type": "function"
    },
    {
      "constant": false,
      "inputs": [
        {
          "name": "_name",
          "type": "bytes32"
        },
        {
          "name": "_investment",
          "type": "uint256"
        },
        {
          "name": "_investor",
          "type": "address"
        }
      ],
      "name": "Invest",
      "outputs": [
        {
          "name": "",
          "type": "bytes32"
        },
        {
          "name": "",
          "type": "address"
        },
        {
          "name": "",
          "type": "uint256"
        }
      ],
      "payable": true,
      "stateMutability": "payable",
      "type": "function"
    },
    {
      "constant": true,
      "inputs": [
        {
          "name": "_name",
          "type": "bytes32"
        }
      ],
      "name": "checkFeeRate",
      "outputs": [
        {
          "name": "",
          "type": "uint256"
        }
      ],
      "payable": false,
      "stateMutability": "view",
      "type": "function"
    },
    {
      "constant": false,
      "inputs": [
        {
          "name": "_name",
          "type": "bytes32"
        },
        {
          "name": "_timePeriod",
          "type": "uint256"
        },
        {
          "name": "_investor",
          "type": "address"
        }
      ],
      "name": "payFee",
      "outputs": [],
      "payable": false,
      "stateMutability": "nonpayable",
      "type": "function"
    },
    {
      "constant": true,
      "inputs": [
        {
          "name": "_name",
          "type": "bytes32"
        },
        {
          "name": "_investor",
          "type": "address"
        }
      ],
      "name": "checkPaymentCycleStart",
      "outputs": [
        {
          "name": "",
          "type": "uint256"
        }
      ],
      "payable": false,
      "stateMutability": "view",
      "type": "function"
    },
    {
      "constant": true,
      "inputs": [
        {
          "name": "_name",
          "type": "bytes32"
        }
      ],
      "name": "getFundDetails",
      "outputs": [
        {
          "name": "",
          "type": "bytes32"
        },
        {
          "name": "",
          "type": "address"
        },
        {
          "name": "",
          "type": "uint256"
        },
        {
          "name": "",
          "type": "uint256"
        }
      ],
      "payable": false,
      "stateMutability": "view",
      "type": "function"
    },
    {
      "constant": true,
      "inputs": [
        {
          "name": "_name",
          "type": "bytes32"
        },
        {
          "name": "_addr",
          "type": "address"
        }
      ],
      "name": "getFundDetails2",
      "outputs": [
        {
          "name": "",
          "type": "uint256"
        },
        {
          "name": "",
          "type": "bool"
        },
        {
          "name": "",
          "type": "uint256"
        },
        {
          "name": "",
          "type": "uint256"
        }
      ],
      "payable": false,
      "stateMutability": "view",
      "type": "function"
    }
  ],
  "bytecode": "0x608060405234801561001057600080fd5b50336000806101000a81548173ffffffffffffffffffffffffffffffffffffffff021916908373ffffffffffffffffffffffffffffffffffffffff1602179055506000600281905550611187806100686000396000f30060806040526004361061008e576000357c0100000000000000000000000000000000000000000000000000000000900463ffffffff16806313c4267614610093578063316e153114610137578063628a0a87146101ef5780636ca0b5c81461026d578063a7365174146102d6578063b893565d14610364578063cfe9b4e7146103c9578063d30b53861461040e575b600080fd5b6100df600480360381019080803560001916906020019092919080359060200190929190803573ffffffffffffffffffffffffffffffffffffffff169060200190929190505050610469565b6040518084600019166000191681526020018373ffffffffffffffffffffffffffffffffffffffff1673ffffffffffffffffffffffffffffffffffffffff168152602001828152602001935050505060405180910390f35b6101976004803603810190808035600019169060200190929190803573ffffffffffffffffffffffffffffffffffffffff1690602001909291908035906020019092919080359060200190929190803590602001909291905050506107a2565b6040518084600019166000191681526020018381526020018273ffffffffffffffffffffffffffffffffffffffff1673ffffffffffffffffffffffffffffffffffffffff168152602001935050505060405180910390f35b3480156101fb57600080fd5b5061023e6004803603810190808035600019169060200190929190803573ffffffffffffffffffffffffffffffffffffffff169060200190929190505050610b39565b604051808581526020018415151515815260200183815260200182815260200194505050505060405180910390f35b34801561027957600080fd5b506102bc6004803603810190808035600019169060200190929190803573ffffffffffffffffffffffffffffffffffffffff169060200190929190505050610c90565b604051808215151515815260200191505060405180910390f35b3480156102e257600080fd5b506103056004803603810190808035600019169060200190929190505050610cb2565b6040518085600019166000191681526020018473ffffffffffffffffffffffffffffffffffffffff1673ffffffffffffffffffffffffffffffffffffffff16815260200183815260200182815260200194505050505060405180910390f35b34801561037057600080fd5b506103b36004803603810190808035600019169060200190929190803573ffffffffffffffffffffffffffffffffffffffff169060200190929190505050610d63565b6040518082815260200191505060405180910390f35b3480156103d557600080fd5b506103f86004803603810190808035600019169060200190929190505050610dc9565b6040518082815260200191505060405180910390f35b34801561041a57600080fd5b50610467600480360381019080803560001916906020019092919080359060200190929190803573ffffffffffffffffffffffffffffffffffffffff169060200190929190505050610dfd565b005b60008060008060009054906101000a900473ffffffffffffffffffffffffffffffffffffffff1673ffffffffffffffffffffffffffffffffffffffff163373ffffffffffffffffffffffffffffffffffffffff16141515610558576040517f08c379a00000000000000000000000000000000000000000000000000000000081526004018080602001828103825260238152602001807f4d6573736167652053656e646572206973206e6f742041646d696e697374726181526020017f746f72000000000000000000000000000000000000000000000000000000000081525060400191505060405180910390fd5b84600160008860001916600019168152602001908152602001600020600201600082825401925050819055506001806000886000191660001916815260200190815260200160002060050160008673ffffffffffffffffffffffffffffffffffffffff1673ffffffffffffffffffffffffffffffffffffffff16815260200190815260200160002060006101000a81548160ff0219169083151502179055508460016000886000191660001916815260200190815260200160002060060160008673ffffffffffffffffffffffffffffffffffffffff1673ffffffffffffffffffffffffffffffffffffffff168152602001908152602001600020819055503460016000886000191660001916815260200190815260200160002060070160008673ffffffffffffffffffffffffffffffffffffffff1673ffffffffffffffffffffffffffffffffffffffff168152602001908152602001600020819055504260016000886000191660001916815260200190815260200160002060080160008673ffffffffffffffffffffffffffffffffffffffff1673ffffffffffffffffffffffffffffffffffffffff16815260200190815260200160002081905550600160008760001916600019168152602001908152602001600020600001548460016000896000191660001916815260200190815260200160002060060160008773ffffffffffffffffffffffffffffffffffffffff1673ffffffffffffffffffffffffffffffffffffffff1681526020019081526020016000205492509250925093509350939050565b60008060008060009054906101000a900473ffffffffffffffffffffffffffffffffffffffff1673ffffffffffffffffffffffffffffffffffffffff163373ffffffffffffffffffffffffffffffffffffffff16141515610891576040517f08c379a00000000000000000000000000000000000000000000000000000000081526004018080602001828103825260238152602001807f4d6573736167652053656e646572206973206e6f742041646d696e697374726181526020017f746f72000000000000000000000000000000000000000000000000000000000081525060400191505060405180910390fd5b87600160008a60001916600019168152602001908152602001600020600001816000191690555086600160008a6000191660001916815260200190815260200160002060010160006101000a81548173ffffffffffffffffffffffffffffffffffffffff021916908373ffffffffffffffffffffffffffffffffffffffff16021790555085600160008a600019166000191681526020019081526020016000206002018190555084600160008a600019166000191681526020019081526020016000206003018190555083600160008a600019166000191681526020019081526020016000206004018190555060018060008a6000191660001916815260200190815260200160002060050160008973ffffffffffffffffffffffffffffffffffffffff1673ffffffffffffffffffffffffffffffffffffffff16815260200190815260200160002060006101000a81548160ff02191690831515021790555085600160008a6000191660001916815260200190815260200160002060060160008973ffffffffffffffffffffffffffffffffffffffff1673ffffffffffffffffffffffffffffffffffffffff168152602001908152602001600020819055506000600160008a6000191660001916815260200190815260200160002060070160008973ffffffffffffffffffffffffffffffffffffffff1673ffffffffffffffffffffffffffffffffffffffff1681526020019081526020016000208190555060026000815480929190600101919050555060016000896000191660001916815260200190815260200160002060000154600160025403600160008b6000191660001916815260200190815260200160002060010160009054906101000a900473ffffffffffffffffffffffffffffffffffffffff16925092509250955095509592505050565b6000806000806001600087600019166000191681526020019081526020016000206004015460016000886000191660001916815260200190815260200160002060050160008773ffffffffffffffffffffffffffffffffffffffff1673ffffffffffffffffffffffffffffffffffffffff16815260200190815260200160002060009054906101000a900460ff1660016000896000191660001916815260200190815260200160002060060160008873ffffffffffffffffffffffffffffffffffffffff1673ffffffffffffffffffffffffffffffffffffffff16815260200190815260200160002054600160008a6000191660001916815260200190815260200160002060070160008973ffffffffffffffffffffffffffffffffffffffff1673ffffffffffffffffffffffffffffffffffffffff16815260200190815260200160002054935093509350935092959194509250565b600080610c9d8484610b39565b90919250905050809150508091505092915050565b6000806000806001600086600019166000191681526020019081526020016000206000015460016000876000191660001916815260200190815260200160002060010160009054906101000a900473ffffffffffffffffffffffffffffffffffffffff16600160008860001916600019168152602001908152602001600020600201546001600089600019166000191681526020019081526020016000206003015493509350935093509193509193565b600060016000846000191660001916815260200190815260200160002060080160008373ffffffffffffffffffffffffffffffffffffffff1673ffffffffffffffffffffffffffffffffffffffff16815260200190815260200160002054905092915050565b6000600160008360001916600019168152602001908152602001600020600301546064811515610df557fe5b049050919050565b6000806000809054906101000a900473ffffffffffffffffffffffffffffffffffffffff1673ffffffffffffffffffffffffffffffffffffffff163373ffffffffffffffffffffffffffffffffffffffff16141515610eea576040517f08c379a00000000000000000000000000000000000000000000000000000000081526004018080602001828103825260238152602001807f4d6573736167652053656e646572206973206e6f742041646d696e697374726181526020017f746f72000000000000000000000000000000000000000000000000000000000081525060400191505060405180910390fd5b83610ef486610dc9565b60016000886000191660001916815260200190815260200160002060060160008673ffffffffffffffffffffffffffffffffffffffff1673ffffffffffffffffffffffffffffffffffffffff16815260200190815260200160002054811515610f5957fe5b04811515610f6357fe5b04915060016000866000191660001916815260200190815260200160002060010160009054906101000a900473ffffffffffffffffffffffffffffffffffffffff1690508160016000876000191660001916815260200190815260200160002060070160008573ffffffffffffffffffffffffffffffffffffffff1673ffffffffffffffffffffffffffffffffffffffff168152602001908152602001600020600082825403925050819055508160016000876000191660001916815260200190815260200160002060070160008373ffffffffffffffffffffffffffffffffffffffff1673ffffffffffffffffffffffffffffffffffffffff168152602001908152602001600020600082825401925050819055504260016000876000191660001916815260200190815260200160002060080160008573ffffffffffffffffffffffffffffffffffffffff1673ffffffffffffffffffffffffffffffffffffffff168152602001908152602001600020819055507fcdaf268fff4093ca2f3a0c5457f2a78a56c4da37c292d3a66a9d8e645d2b78018584846040518084600019166000191681526020018373ffffffffffffffffffffffffffffffffffffffff1673ffffffffffffffffffffffffffffffffffffffff168152602001828152602001935050505060405180910390a150505050505600a165627a7a7230582006633ded453ade3b9a0c7d1d44c6a2d36fb706e16c4d7e35f517aa71b0a6c8e00029",
  "source": "pragma solidity ^0.4.24;\n\ncontract FundList {\n    //State Variables\n    address internal admin;\n    mapping(bytes32 => Fund) internal funds;\n    uint fundCount;\n\n    struct Fund {\n        //Name of fund\n        bytes32 name;\n        //Partner who initialized the strategy\n        //Could be a multisig wallet\n        address fundOwner;\n        //amount of funds the strategy is virtually managing\n        uint totalBalance;\n        //Add fee that quant can set- in whole number, i.e. 2% is represented as 2\n        uint feeRate;\n        //Number of days in Payment Cycle\n        uint paymentCycle;\n        //maps investors to investment status- current investors return true, non-investors return false\n        mapping (address => bool) investors;\n        //maps investors to their virtual balances in the strategy\n        mapping (address => uint) virtualBalances;\n        //maps investors to the actual fee they have stored in the Strategy Hub contract\n        //fees are paid into stratOwner fee account and paid from investor fee account\n        mapping (address => uint) fees;\n        //Adoption Times for each investor\n        mapping(address => uint) paymentCycleStart;\n        //will need to add IPFS hash eventually to verify code\n    }\n\n    //events\n        event FeesPaid(\n        bytes32 name,\n        address investor,\n        uint fee\n    );\n\n    //Administrative control\n    //Any write functions must be completed by the administrator\n    modifier isAdmin{\n        require(\n            msg.sender == admin,\n            \"Message Sender is not Administrator\"\n        );\n        _;\n    }\n\n    constructor() public {\n        admin = msg.sender;\n        //initialize strategy count to 0\n        fundCount = 0;\n    }\n\n    function initializeFund(bytes32 _name, address _fundOwner, uint _investment, uint _feeRate, uint _paymentCycle) \n    external payable\n    isAdmin()\n    returns(bytes32, uint, address) {\n        //initialize strat name to _name\n        funds[_name].name = _name;\n        //Strat owner is message sender\n        //Be careful of message sender here - might be the Fund Marketplace contract - might have to use delegatecall\n        funds[_name].fundOwner = _fundOwner;\n        //Initial funds are the msg.value\n        funds[_name].totalBalance = _investment;\n        //Set fee rate\n        funds[_name].feeRate = _feeRate;\n        //Set payment cycle\n        funds[_name].paymentCycle = _paymentCycle;\n        //set fundOwner to also be an investor\n        funds[_name].investors[_fundOwner] = true;\n        //set fundOwner's investor balance to the msg.value\n        funds[_name].virtualBalances[_fundOwner] = _investment;\n        //set fundOwner's fees to zero\n        funds[_name].fees[_fundOwner] = 0;\n        //Increment fundCount\n        fundCount++;\n        return (funds[_name].name, fundCount-1, funds[_name].fundOwner);\n    }\n\n    //Check to see if an account is an investor in a strategy\n    //eventually change to only one parameter and use delegate call instead\n    function isInvestor(bytes32 _name, address _investor) external view returns (bool) {\n        bool result;\n        (,result,,) = getFundDetails2(_name, _investor);\n        return result;\n    }\n\n    //Make investment into particular fund\n    //Must have required funds\n    function Invest(bytes32 _name, uint _investment, address _investor) external payable\n    isAdmin()\n    returns (bytes32, address, uint) \n    {\n        funds[_name].totalBalance += _investment;\n        funds[_name].investors[_investor] = true;\n        funds[_name].virtualBalances[_investor] = _investment;\n        funds[_name].fees[_investor] = msg.value;\n        funds[_name].paymentCycleStart[_investor] = now;\n        return (funds[_name].name, _investor, funds[_name].virtualBalances[_investor]);\n    }\n    \n    //check Fee Rate - read operation from struct\n    function checkFeeRate(bytes32 _name) public view returns (uint) {\n        return 100/funds[_name].feeRate;\n    }\n\n    //One-time pay fee function\n    function payFee(bytes32 _name, uint _timePeriod, address _investor) external\n    isAdmin()\n    {\n        //Calculate payment\n        uint payment = (funds[_name].virtualBalances[_investor]/checkFeeRate(_name))/_timePeriod;\n        //Owner fees account\n        address fundOwner = funds[_name].fundOwner;\n        //Subtract payment from investor fees\n        funds[_name].fees[_investor] -= payment;\n        funds[_name].fees[fundOwner] += payment;\n        funds[_name].paymentCycleStart[_investor] = now;\n        emit FeesPaid(_name, _investor, payment);\n    }\n\n    function checkPaymentCycleStart(bytes32 _name, address _investor) external view\n    returns (uint)\n    {\n        return funds[_name].paymentCycleStart[_investor];\n    }\n\n    // //Owner of Strategy Collects Fees\n    // function collectFees(bytes32 _name, address fundOwner) external\n    // isAdmin()\n    // returns(uint)\n    // {\n    //     uint feesCollected = funds[_name].fees[fundOwner];\n    //     funds[_name].fees[fundOwner] = 0;\n    //     fundOwner.transfer(feesCollected);\n    //     return (feesCollected);\n    // }\n\n    //Get fund information (for testing/verification purposes)\n    function getFundDetails(bytes32 _name) public view returns (bytes32, address, uint, uint){\n        return (funds[_name].name, \n        funds[_name].fundOwner, \n        funds[_name].totalBalance, \n        funds[_name].feeRate);\n    }\n    //need two functions because of stack height\n    function getFundDetails2(bytes32 _name, address _addr) public view returns (uint, bool, uint, uint){\n        return(funds[_name].paymentCycle,\n        funds[_name].investors[_addr], \n        funds[_name].virtualBalances[_addr],\n        funds[_name].fees[_addr]);\n    }\n}",
  "sourcePath": "/home/bryherbz/Documents/final-project-bryanherbert/contracts/FundList.sol",
  "compiler": {
    "name": "solc",
    "version": "0.4.24+commit.e67f0147.Emscripten.clang"
  },
  "schemaVersion": "2.0.1",
  "updatedAt": "2018-12-27T23:58:19.152Z"
}