{
  "contractName": "FundMarketplace",
  "abi": [
    {
      "inputs": [],
      "payable": false,
      "stateMutability": "nonpayable",
      "type": "constructor"
    },
    {
      "anonymous": false,
      "inputs": [
        {
          "indexed": true,
          "name": "name",
          "type": "bytes32"
        },
        {
          "indexed": false,
          "name": "fundCount",
          "type": "uint256"
        },
        {
          "indexed": false,
          "name": "fundOwner",
          "type": "address"
        }
      ],
      "name": "FundCreated",
      "type": "event"
    },
    {
      "anonymous": false,
      "inputs": [
        {
          "indexed": true,
          "name": "name",
          "type": "bytes32"
        },
        {
          "indexed": true,
          "name": "investor",
          "type": "address"
        },
        {
          "indexed": false,
          "name": "investment",
          "type": "uint256"
        }
      ],
      "name": "Investment",
      "type": "event"
    },
    {
      "anonymous": false,
      "inputs": [
        {
          "indexed": true,
          "name": "name",
          "type": "bytes32"
        },
        {
          "indexed": true,
          "name": "investor",
          "type": "address"
        },
        {
          "indexed": false,
          "name": "fee",
          "type": "uint256"
        }
      ],
      "name": "FeesPaid",
      "type": "event"
    },
    {
      "anonymous": false,
      "inputs": [
        {
          "indexed": true,
          "name": "name",
          "type": "bytes32"
        },
        {
          "indexed": false,
          "name": "fee",
          "type": "uint256"
        }
      ],
      "name": "FeesCollected",
      "type": "event"
    },
    {
      "anonymous": false,
      "inputs": [
        {
          "indexed": false,
          "name": "name",
          "type": "bytes32"
        },
        {
          "indexed": false,
          "name": "investor",
          "type": "address"
        },
        {
          "indexed": false,
          "name": "investment",
          "type": "uint256"
        },
        {
          "indexed": false,
          "name": "fees",
          "type": "uint256"
        }
      ],
      "name": "FundsWithdrawn",
      "type": "event"
    },
    {
      "anonymous": false,
      "inputs": [
        {
          "indexed": true,
          "name": "name",
          "type": "bytes32"
        },
        {
          "indexed": false,
          "name": "action",
          "type": "bytes"
        },
        {
          "indexed": false,
          "name": "ticker",
          "type": "bytes32"
        },
        {
          "indexed": false,
          "name": "qty",
          "type": "uint256"
        },
        {
          "indexed": false,
          "name": "price",
          "type": "uint256"
        }
      ],
      "name": "OrderPlaced",
      "type": "event"
    },
    {
      "constant": false,
      "inputs": [
        {
          "name": "_name",
          "type": "bytes32"
        },
        {
          "name": "_fundOwner",
          "type": "address"
        },
        {
          "name": "_investment",
          "type": "uint256"
        },
        {
          "name": "_feeRate",
          "type": "uint256"
        },
        {
          "name": "_paymentCycle",
          "type": "uint256"
        }
      ],
      "name": "initializeFund",
      "outputs": [],
      "payable": true,
      "stateMutability": "payable",
      "type": "function"
    },
    {
      "constant": false,
      "inputs": [
        {
          "name": "_name",
          "type": "bytes32"
        },
        {
          "name": "_investment",
          "type": "uint256"
        }
      ],
      "name": "Invest",
      "outputs": [],
      "payable": true,
      "stateMutability": "payable",
      "type": "function"
    },
    {
      "constant": false,
      "inputs": [
        {
          "name": "_name",
          "type": "bytes32"
        },
        {
          "name": "_action",
          "type": "bytes"
        },
        {
          "name": "_ticker",
          "type": "bytes32"
        },
        {
          "name": "_qty",
          "type": "uint256"
        },
        {
          "name": "_price",
          "type": "uint256"
        }
      ],
      "name": "placeOrder",
      "outputs": [],
      "payable": false,
      "stateMutability": "nonpayable",
      "type": "function"
    },
    {
      "constant": true,
      "inputs": [
        {
          "name": "_name",
          "type": "bytes32"
        },
        {
          "name": "qty",
          "type": "uint256"
        }
      ],
      "name": "calcQty",
      "outputs": [
        {
          "name": "",
          "type": "uint256"
        }
      ],
      "payable": false,
      "stateMutability": "view",
      "type": "function"
    },
    {
      "constant": true,
      "inputs": [
        {
          "name": "_name",
          "type": "bytes32"
        }
      ],
      "name": "checkFeeRate",
      "outputs": [
        {
          "name": "",
          "type": "uint256"
        }
      ],
      "payable": false,
      "stateMutability": "view",
      "type": "function"
    },
    {
      "constant": false,
      "inputs": [
        {
          "name": "_name",
          "type": "bytes32"
        },
        {
          "name": "_timePeriod",
          "type": "uint256"
        }
      ],
      "name": "payFee",
      "outputs": [],
      "payable": false,
      "stateMutability": "nonpayable",
      "type": "function"
    },
    {
      "constant": false,
      "inputs": [
        {
          "name": "_name",
          "type": "bytes32"
        }
      ],
      "name": "collectFees",
      "outputs": [],
      "payable": false,
      "stateMutability": "nonpayable",
      "type": "function"
    },
    {
      "constant": false,
      "inputs": [
        {
          "name": "_name",
          "type": "bytes32"
        },
        {
          "name": "_amount",
          "type": "uint256"
        }
      ],
      "name": "withdrawFunds",
      "outputs": [],
      "payable": false,
      "stateMutability": "nonpayable",
      "type": "function"
    },
    {
      "constant": true,
      "inputs": [
        {
          "name": "_name",
          "type": "bytes32"
        }
      ],
      "name": "getFundDetails",
      "outputs": [
        {
          "name": "",
          "type": "bytes32"
        },
        {
          "name": "",
          "type": "address"
        },
        {
          "name": "",
          "type": "uint256"
        },
        {
          "name": "",
          "type": "uint256"
        },
        {
          "name": "",
          "type": "uint256"
        },
        {
          "name": "",
          "type": "uint256"
        }
      ],
      "payable": false,
      "stateMutability": "view",
      "type": "function"
    },
    {
      "constant": true,
      "inputs": [
        {
          "name": "_name",
          "type": "bytes32"
        },
        {
          "name": "_addr",
          "type": "address"
        }
      ],
      "name": "getFundDetails2",
      "outputs": [
        {
          "name": "",
          "type": "bool"
        },
        {
          "name": "",
          "type": "uint256"
        },
        {
          "name": "",
          "type": "uint256"
        }
      ],
      "payable": false,
      "stateMutability": "view",
      "type": "function"
    }
  ],
  "bytecode": "0x608060405234801561001057600080fd5b50336000806101000a81548173ffffffffffffffffffffffffffffffffffffffff021916908373ffffffffffffffffffffffffffffffffffffffff160217905550611025806100606000396000f3006080604052600436106100a4576000357c0100000000000000000000000000000000000000000000000000000000900463ffffffff16806310c8d9b9146100a9578063316e153114610114578063628a0a8714610176578063817db73b146101ed57806381bb2b201461021e578063a736517414610259578063ccbdbf1b146102f5578063cfe9b4e714610344578063ef68de4914610389578063fb0c50e0146103c4575b600080fd5b3480156100b557600080fd5b506101126004803603810190808035600019169060200190929190803590602001908201803590602001919091929391929390803560001916906020019092919080359060200190929190803590602001909291905050506103f2565b005b6101746004803603810190808035600019169060200190929190803573ffffffffffffffffffffffffffffffffffffffff169060200190929190803590602001909291908035906020019092919080359060200190929190505050610536565b005b34801561018257600080fd5b506101c56004803603810190808035600019169060200190929190803573ffffffffffffffffffffffffffffffffffffffff1690602001909291905050506106a1565b6040518084151515158152602001838152602001828152602001935050505060405180910390f35b3480156101f957600080fd5b5061021c60048036038101908080356000191690602001909291905050506107dd565b005b34801561022a57600080fd5b5061025760048036038101908080356000191690602001909291908035906020019092919050505061090c565b005b34801561026557600080fd5b506102886004803603810190808035600019169060200190929190505050610a7d565b6040518087600019166000191681526020018673ffffffffffffffffffffffffffffffffffffffff1673ffffffffffffffffffffffffffffffffffffffff168152602001858152602001848152602001838152602001828152602001965050505050505060405180910390f35b34801561030157600080fd5b5061032e600480360381019080803560001916906020019092919080359060200190929190505050610b87565b6040518082815260200191505060405180910390f35b34801561035057600080fd5b506103736004803603810190808035600019169060200190929190505050610c50565b6040518082815260200191505060405180910390f35b34801561039557600080fd5b506103c2600480360381019080803560001916906020019092919080359060200190929190505050610d10565b005b6103f0600480360381019080803560001916906020019092919080359060200190929190505050610ea0565b005b73__OrderLib______________________________636d7411ca600188888887876040518763ffffffff167c0100000000000000000000000000000000000000000000000000000000028152600401808781526020018660001916600019168152602001806020018481526020018381526020018281038252868682818152602001925080828437820191505097505050505050505060006040518083038186803b1580156104a057600080fd5b505af41580156104b4573d6000803e3d6000fd5b5050505085600019167fc4939c03756cf98d09121c2051879b86e66488062e1f834ef9c113c156b9820b86868686866040518080602001856000191660001916815260200184815260200183815260200182810382528787828181526020019250808284378201915050965050505050505060405180910390a2505050505050565b73__InitLib_______________________________63e92b8cfe600187878787876040518763ffffffff167c01000000000000000000000000000000000000000000000000000000000281526004018087815260200186600019166000191681526020018573ffffffffffffffffffffffffffffffffffffffff1673ffffffffffffffffffffffffffffffffffffffff168152602001848152602001838152602001828152602001965050505050505060006040518083038186803b1580156105fe57600080fd5b505af4158015610612573d6000803e3d6000fd5b5050505060026000815480929190600101919050555084600019167f1936274dd5f17a14226bac98f04da5d53136534654cd5e659d4f20b2fa09a85e60025486604051808381526020018273ffffffffffffffffffffffffffffffffffffffff1673ffffffffffffffffffffffffffffffffffffffff1681526020019250505060405180910390a25050505050565b600080600060016000016000866000191660001916815260200190815260200160002060060160008573ffffffffffffffffffffffffffffffffffffffff1673ffffffffffffffffffffffffffffffffffffffff16815260200190815260200160002060009054906101000a900460ff1660016000016000876000191660001916815260200190815260200160002060070160008673ffffffffffffffffffffffffffffffffffffffff1673ffffffffffffffffffffffffffffffffffffffff1681526020019081526020016000205460016000016000886000191660001916815260200190815260200160002060080160008773ffffffffffffffffffffffffffffffffffffffff1673ffffffffffffffffffffffffffffffffffffffff168152602001908152602001600020549250925092509250925092565b600073__CollectFeesLib________________________6338e4a9be600184336040518463ffffffff167c01000000000000000000000000000000000000000000000000000000000281526004018084815260200183600019166000191681526020018273ffffffffffffffffffffffffffffffffffffffff1673ffffffffffffffffffffffffffffffffffffffff168152602001935050505060206040518083038186803b15801561088f57600080fd5b505af41580156108a3573d6000803e3d6000fd5b505050506040513d60208110156108b957600080fd5b8101908080519060200190929190505050905081600019167f381ff38e2fec0d64b5d6f95156decdb3e229ef47c184126bbb5511a7bf32cf10826040518082815260200191505060405180910390a25050565b600073__PayFeeLib_____________________________637e7e0f67600185856040518463ffffffff167c0100000000000000000000000000000000000000000000000000000000028152600401808481526020018360001916600019168152602001828152602001935050505060006040518083038186803b15801561099257600080fd5b505af41580156109a6573d6000803e3d6000fd5b50505050610a23610a1d60016000016000866000191660001916815260200190815260200160002060070160003373ffffffffffffffffffffffffffffffffffffffff1673ffffffffffffffffffffffffffffffffffffffff16815260200190815260200160002054610a1886610c50565b610fcf565b83610fcf565b90503373ffffffffffffffffffffffffffffffffffffffff1683600019167fcdaf268fff4093ca2f3a0c5457f2a78a56c4da37c292d3a66a9d8e645d2b7801836040518082815260200191505060405180910390a3505050565b6000806000806000806001600001600088600019166000191681526020019081526020016000206000015460016000016000896000191660001916815260200190815260200160002060010160009054906101000a900473ffffffffffffffffffffffffffffffffffffffff16600160000160008a6000191660001916815260200190815260200160002060020154600160000160008b6000191660001916815260200190815260200160002060030154600160000160008c6000191660001916815260200190815260200160002060040154600160000160008d600019166000191681526020019081526020016000206005015495509550955095509550955091939550919395565b600073__OrderLib______________________________63025c2e40600185856040518463ffffffff167c0100000000000000000000000000000000000000000000000000000000028152600401808481526020018360001916600019168152602001828152602001935050505060206040518083038186803b158015610c0d57600080fd5b505af4158015610c21573d6000803e3d6000fd5b505050506040513d6020811015610c3757600080fd5b8101908080519060200190929190505050905092915050565b600073__Misc__________________________________6384a76e426001846040518363ffffffff167c01000000000000000000000000000000000000000000000000000000000281526004018083815260200182600019166000191681526020019250505060206040518083038186803b158015610cce57600080fd5b505af4158015610ce2573d6000803e3d6000fd5b505050506040513d6020811015610cf857600080fd5b81019080805190602001909291905050509050919050565b60008073__WithdrawFundsLib______________________636a2e5b8860018633876040518563ffffffff167c01000000000000000000000000000000000000000000000000000000000281526004018085815260200184600019166000191681526020018373ffffffffffffffffffffffffffffffffffffffff1673ffffffffffffffffffffffffffffffffffffffff168152602001828152602001945050505050604080518083038186803b158015610dca57600080fd5b505af4158015610dde573d6000803e3d6000fd5b505050506040513d6040811015610df457600080fd5b81019080805190602001909291908051906020019092919050505080925081935050507f37daaf23d820d50582a4a4cd7248e83c1dfb8d1369a837254b34c62378139017843384846040518085600019166000191681526020018473ffffffffffffffffffffffffffffffffffffffff1673ffffffffffffffffffffffffffffffffffffffff16815260200183815260200182815260200194505050505060405180910390a150505050565b73__InvestLib_____________________________6358c1d3b06001848433346040518663ffffffff167c01000000000000000000000000000000000000000000000000000000000281526004018086815260200185600019166000191681526020018481526020018373ffffffffffffffffffffffffffffffffffffffff1673ffffffffffffffffffffffffffffffffffffffff1681526020018281526020019550505050505060006040518083038186803b158015610f6057600080fd5b505af4158015610f74573d6000803e3d6000fd5b505050503373ffffffffffffffffffffffffffffffffffffffff1682600019167f2b158127221737cd431395104f48aa6534ed782d1c9c8b2ac852d925c0c1e9c1836040518082815260200191505060405180910390a35050565b600080600083111515610fe157600080fd5b8284811515610fec57fe5b04905080915050929150505600a165627a7a72305820f2f349895622591efec037d3b6214bb53ceab4333713c12683575a048b2729810029",
  "source": "pragma solidity ^0.4.24;\n\nimport \"../contracts/StructLib.sol\";\nimport \"../contracts/InitLib.sol\";\nimport \"../contracts/InvestLib.sol\";\nimport \"../contracts/Misc.sol\";\nimport \"../contracts/PayFeeLib.sol\";\nimport \"../contracts/CollectFeesLib.sol\";\nimport \"../contracts/WithdrawFundsLib.sol\";\nimport \"../contracts/OrderLib.sol\";\nimport \"../node_modules/openzeppelin-solidity/contracts/math/SafeMath.sol\";\n\ncontract FundMarketplace {\n    //State Variables\n    address internal admin;\n    StructLib.Data funds;\n    uint fundCount;\n\n    //Events\n    event FundCreated(\n        bytes32 indexed name,\n        //have to think about how to search for value vs. how to see it\n        //Probably can still index name, just can't check for it in JS\n        //bytes32 name,\n        uint fundCount,\n        address fundOwner\n    );\n\n    event Investment(\n        bytes32 indexed name,\n        address indexed investor,\n        // bytes32 name,\n        // address investor,\n        uint investment\n    );\n    \n    event FeesPaid(\n        bytes32 indexed name,\n        address indexed investor,\n        // bytes32 name,\n        // address investor,\n        uint fee\n    );\n\n    event FeesCollected(\n        bytes32 indexed name,\n        uint fee\n    );\n\n    event FundsWithdrawn(\n        //bytes32 indexed name,\n        bytes32 name,\n        address investor,\n        uint investment,\n        uint fees\n    );\n\n    event OrderPlaced(\n        bytes32 indexed name,\n        bytes action,\n        bytes32 ticker,\n        uint qty,\n        uint price\n    );\n\n    constructor() public {\n        admin = msg.sender;\n    }\n\n    //Modifiers\n\n    // //Can replace this with ethpm code\n    // modifier isOwner(bytes32 _name){\n    //     address _fundOwner;\n    //     (,_fundOwner,,) = getFundDetails(_name);\n    //     require(\n    //         _fundOwner == msg.sender,\n    //         \"Message Sender does not own strategy\"\n    //     );\n    //     _;\n    // }\n\n    function initializeFund(bytes32 _name, address _fundOwner, uint _investment, uint _feeRate, uint _paymentCycle) \n    external payable {\n        InitLib.initializeFund(funds, _name, _fundOwner, _investment, _feeRate, _paymentCycle);\n        //Increment fundCount\n        fundCount++;\n        emit FundCreated(_name, fundCount, _fundOwner);\n    }\n\n    //Make investment into particular fund\n    //Must have required funds\n    function Invest(bytes32 _name, uint _investment) \n    external payable  \n    {\n        InvestLib.Invest(funds, _name, _investment, msg.sender, msg.value);\n        emit Investment(_name, msg.sender, _investment);\n    }\n\n    //Place order for a trade\n    //Not sure what calldata is exactly for _action\n    function placeOrder(bytes32 _name, bytes _action, bytes32 _ticker, uint _qty, uint _price)\n    external \n    {\n        OrderLib.placeOrder(funds, _name, _action, _qty, _price);\n        emit OrderPlaced(_name, _action, _ticker, _qty, _price);\n    }\n\n    //Calculate quantity of shares to buy based on investor's % of fund\n    //Could we have investor directly access this\n    function calcQty(bytes32 _name, uint qty) \n    external view\n    returns (uint) {\n        return OrderLib.calcQty(funds, _name, qty);\n    }\n\n    //check Fee Rate - read operation from struct\n    //was originally \"public view\" when not in library\n    function checkFeeRate(bytes32 _name) public view returns (uint) {\n        return Misc.checkFeeRate(funds, _name);\n    }\n\n    //One-time pay fee function\n    function payFee(bytes32 _name, uint _timePeriod) external\n    {\n        PayFeeLib.payFee(funds, _name, _timePeriod);\n        uint payment = SafeMath.div(SafeMath.div(funds.list[_name].virtualBalances[msg.sender], checkFeeRate(_name)), _timePeriod);\n        emit FeesPaid (_name, msg.sender, payment);\n    }\n\n    //Owner of Strategy Collects Fees\n    function collectFees(bytes32 _name) external\n    //isOwner(_name)\n    {\n        uint fees = CollectFeesLib.collectFees(funds, _name, msg.sender);\n        emit FeesCollected(_name, fees);\n    }\n\n    function withdrawFunds(bytes32 _name, uint _amount) public\n    //verifyInvestmentStatus(_name) \n    {\n        //Need to make sure this matches up with withdraw philosophy\n        uint investment;\n        uint fees;\n        (investment, fees) = WithdrawFundsLib.withdrawFunds(funds, _name, msg.sender, _amount);\n        emit FundsWithdrawn(_name, msg.sender, investment, fees);\n    }\n\n    //Get fund information (for testing/verification purposes)\n    \n    function getFundDetails(bytes32 _name) external view returns (bytes32, address, uint, uint, uint, uint){\n        return (funds.list[_name].name, \n        funds.list[_name].fundOwner, \n        funds.list[_name].totalCapital,\n        funds.list[_name].capitalDeployed,\n        funds.list[_name].feeRate,\n        funds.list[_name].paymentCycle);\n    }\n\n    //need two functions because of stack height\n    function getFundDetails2(bytes32 _name, address _addr) external view returns (bool, uint, uint){\n        return(funds.list[_name].investors[_addr], \n        funds.list[_name].virtualBalances[_addr],\n        funds.list[_name].fees[_addr]);\n    }\n}",
  "sourcePath": "/home/bryherbz/Documents/final-project-bryanherbert/contracts/FundMarketplace.sol",
  "compiler": {
    "name": "solc",
    "version": "0.4.24+commit.e67f0147.Emscripten.clang"
  },
  "schemaVersion": "2.0.1",
  "updatedAt": "2019-01-09T16:57:09.012Z"
}