{
  "contractName": "FundList",
  "abi": [
    {
      "constant": true,
      "inputs": [
        {
          "name": "",
          "type": "bytes32"
        }
      ],
      "name": "funds",
      "outputs": [
        {
          "name": "name",
          "type": "bytes32"
        },
        {
          "name": "fundOwner",
          "type": "address"
        },
        {
          "name": "totalBalance",
          "type": "uint256"
        },
        {
          "name": "feeRate",
          "type": "uint256"
        },
        {
          "name": "paymentCycle",
          "type": "uint256"
        }
      ],
      "payable": false,
      "stateMutability": "view",
      "type": "function"
    },
    {
      "inputs": [],
      "payable": false,
      "stateMutability": "nonpayable",
      "type": "constructor"
    },
    {
      "constant": false,
      "inputs": [
        {
          "name": "_name",
          "type": "bytes32"
        },
        {
          "name": "_fundOwner",
          "type": "address"
        },
        {
          "name": "_investment",
          "type": "uint256"
        },
        {
          "name": "_feeRate",
          "type": "uint256"
        },
        {
          "name": "_paymentCycle",
          "type": "uint256"
        }
      ],
      "name": "initializeFund",
      "outputs": [
        {
          "name": "",
          "type": "bytes32"
        },
        {
          "name": "",
          "type": "uint256"
        },
        {
          "name": "",
          "type": "address"
        }
      ],
      "payable": true,
      "stateMutability": "payable",
      "type": "function"
    },
    {
      "constant": true,
      "inputs": [
        {
          "name": "_name",
          "type": "bytes32"
        },
        {
          "name": "_investor",
          "type": "address"
        }
      ],
      "name": "isInvestor",
      "outputs": [
        {
          "name": "",
          "type": "bool"
        }
      ],
      "payable": false,
      "stateMutability": "view",
      "type": "function"
    },
    {
      "constant": false,
      "inputs": [
        {
          "name": "_name",
          "type": "bytes32"
        },
        {
          "name": "_investment",
          "type": "uint256"
        },
        {
          "name": "_investor",
          "type": "address"
        }
      ],
      "name": "Invest",
      "outputs": [
        {
          "name": "",
          "type": "bytes32"
        },
        {
          "name": "",
          "type": "address"
        },
        {
          "name": "",
          "type": "uint256"
        }
      ],
      "payable": true,
      "stateMutability": "payable",
      "type": "function"
    },
    {
      "constant": true,
      "inputs": [
        {
          "name": "_name",
          "type": "bytes32"
        }
      ],
      "name": "checkFeeRate",
      "outputs": [
        {
          "name": "",
          "type": "uint256"
        }
      ],
      "payable": false,
      "stateMutability": "view",
      "type": "function"
    },
    {
      "constant": false,
      "inputs": [
        {
          "name": "_name",
          "type": "bytes32"
        },
        {
          "name": "_timePeriod",
          "type": "uint256"
        },
        {
          "name": "_investor",
          "type": "address"
        }
      ],
      "name": "payFee",
      "outputs": [
        {
          "name": "",
          "type": "bytes32"
        },
        {
          "name": "",
          "type": "address"
        },
        {
          "name": "",
          "type": "uint256"
        }
      ],
      "payable": false,
      "stateMutability": "nonpayable",
      "type": "function"
    },
    {
      "constant": true,
      "inputs": [
        {
          "name": "_name",
          "type": "bytes32"
        },
        {
          "name": "_investor",
          "type": "address"
        }
      ],
      "name": "checkPaymentCycleStart",
      "outputs": [
        {
          "name": "",
          "type": "uint256"
        }
      ],
      "payable": false,
      "stateMutability": "view",
      "type": "function"
    },
    {
      "constant": false,
      "inputs": [
        {
          "name": "_name",
          "type": "bytes32"
        },
        {
          "name": "fundOwner",
          "type": "address"
        }
      ],
      "name": "collectFees",
      "outputs": [
        {
          "name": "",
          "type": "uint256"
        }
      ],
      "payable": false,
      "stateMutability": "nonpayable",
      "type": "function"
    },
    {
      "constant": true,
      "inputs": [
        {
          "name": "_name",
          "type": "bytes32"
        }
      ],
      "name": "getFundDetails",
      "outputs": [
        {
          "name": "",
          "type": "bytes32"
        },
        {
          "name": "",
          "type": "address"
        },
        {
          "name": "",
          "type": "uint256"
        },
        {
          "name": "",
          "type": "uint256"
        }
      ],
      "payable": false,
      "stateMutability": "view",
      "type": "function"
    },
    {
      "constant": true,
      "inputs": [
        {
          "name": "_name",
          "type": "bytes32"
        },
        {
          "name": "_addr",
          "type": "address"
        }
      ],
      "name": "getFundDetails2",
      "outputs": [
        {
          "name": "",
          "type": "uint256"
        },
        {
          "name": "",
          "type": "bool"
        },
        {
          "name": "",
          "type": "uint256"
        },
        {
          "name": "",
          "type": "uint256"
        }
      ],
      "payable": false,
      "stateMutability": "view",
      "type": "function"
    }
  ],
  "bytecode": "0x608060405234801561001057600080fd5b50336000806101000a81548173ffffffffffffffffffffffffffffffffffffffff021916908373ffffffffffffffffffffffffffffffffffffffff16021790555060006002819055506114d7806100686000396000f3006080604052600436106100a4576000357c0100000000000000000000000000000000000000000000000000000000900463ffffffff16806313c42676146100a9578063316e15311461014d578063628a0a87146102055780636a29a620146102835780636ca0b5c814610318578063a736517414610381578063b893565d1461040f578063cfe9b4e714610474578063d30b5386146104b9578063da7646091461056a575b600080fd5b6100f5600480360381019080803560001916906020019092919080359060200190929190803573ffffffffffffffffffffffffffffffffffffffff1690602001909291905050506105cf565b6040518084600019166000191681526020018373ffffffffffffffffffffffffffffffffffffffff1673ffffffffffffffffffffffffffffffffffffffff168152602001828152602001935050505060405180910390f35b6101ad6004803603810190808035600019169060200190929190803573ffffffffffffffffffffffffffffffffffffffff169060200190929190803590602001909291908035906020019092919080359060200190929190505050610908565b6040518084600019166000191681526020018381526020018273ffffffffffffffffffffffffffffffffffffffff1673ffffffffffffffffffffffffffffffffffffffff168152602001935050505060405180910390f35b34801561021157600080fd5b506102546004803603810190808035600019169060200190929190803573ffffffffffffffffffffffffffffffffffffffff169060200190929190505050610c9f565b604051808581526020018415151515815260200183815260200182815260200194505050505060405180910390f35b34801561028f57600080fd5b506102b26004803603810190808035600019169060200190929190505050610df6565b6040518086600019166000191681526020018573ffffffffffffffffffffffffffffffffffffffff1673ffffffffffffffffffffffffffffffffffffffff1681526020018481526020018381526020018281526020019550505050505060405180910390f35b34801561032457600080fd5b506103676004803603810190808035600019169060200190929190803573ffffffffffffffffffffffffffffffffffffffff169060200190929190505050610e4c565b604051808215151515815260200191505060405180910390f35b34801561038d57600080fd5b506103b06004803603810190808035600019169060200190929190505050610e6e565b6040518085600019166000191681526020018473ffffffffffffffffffffffffffffffffffffffff1673ffffffffffffffffffffffffffffffffffffffff16815260200183815260200182815260200194505050505060405180910390f35b34801561041b57600080fd5b5061045e6004803603810190808035600019169060200190929190803573ffffffffffffffffffffffffffffffffffffffff169060200190929190505050610f1f565b6040518082815260200191505060405180910390f35b34801561048057600080fd5b506104a36004803603810190808035600019169060200190929190505050610f85565b6040518082815260200191505060405180910390f35b3480156104c557600080fd5b50610512600480360381019080803560001916906020019092919080359060200190929190803573ffffffffffffffffffffffffffffffffffffffff169060200190929190505050610fb9565b6040518084600019166000191681526020018373ffffffffffffffffffffffffffffffffffffffff1673ffffffffffffffffffffffffffffffffffffffff168152602001828152602001935050505060405180910390f35b34801561057657600080fd5b506105b96004803603810190808035600019169060200190929190803573ffffffffffffffffffffffffffffffffffffffff1690602001909291905050506112ae565b6040518082815260200191505060405180910390f35b60008060008060009054906101000a900473ffffffffffffffffffffffffffffffffffffffff1673ffffffffffffffffffffffffffffffffffffffff163373ffffffffffffffffffffffffffffffffffffffff161415156106be576040517f08c379a00000000000000000000000000000000000000000000000000000000081526004018080602001828103825260238152602001807f4d6573736167652053656e646572206973206e6f742041646d696e697374726181526020017f746f72000000000000000000000000000000000000000000000000000000000081525060400191505060405180910390fd5b84600160008860001916600019168152602001908152602001600020600201600082825401925050819055506001806000886000191660001916815260200190815260200160002060050160008673ffffffffffffffffffffffffffffffffffffffff1673ffffffffffffffffffffffffffffffffffffffff16815260200190815260200160002060006101000a81548160ff0219169083151502179055508460016000886000191660001916815260200190815260200160002060060160008673ffffffffffffffffffffffffffffffffffffffff1673ffffffffffffffffffffffffffffffffffffffff168152602001908152602001600020819055503460016000886000191660001916815260200190815260200160002060070160008673ffffffffffffffffffffffffffffffffffffffff1673ffffffffffffffffffffffffffffffffffffffff168152602001908152602001600020819055504260016000886000191660001916815260200190815260200160002060080160008673ffffffffffffffffffffffffffffffffffffffff1673ffffffffffffffffffffffffffffffffffffffff16815260200190815260200160002081905550600160008760001916600019168152602001908152602001600020600001548460016000896000191660001916815260200190815260200160002060060160008773ffffffffffffffffffffffffffffffffffffffff1673ffffffffffffffffffffffffffffffffffffffff1681526020019081526020016000205492509250925093509350939050565b60008060008060009054906101000a900473ffffffffffffffffffffffffffffffffffffffff1673ffffffffffffffffffffffffffffffffffffffff163373ffffffffffffffffffffffffffffffffffffffff161415156109f7576040517f08c379a00000000000000000000000000000000000000000000000000000000081526004018080602001828103825260238152602001807f4d6573736167652053656e646572206973206e6f742041646d696e697374726181526020017f746f72000000000000000000000000000000000000000000000000000000000081525060400191505060405180910390fd5b87600160008a60001916600019168152602001908152602001600020600001816000191690555086600160008a6000191660001916815260200190815260200160002060010160006101000a81548173ffffffffffffffffffffffffffffffffffffffff021916908373ffffffffffffffffffffffffffffffffffffffff16021790555085600160008a600019166000191681526020019081526020016000206002018190555084600160008a600019166000191681526020019081526020016000206003018190555083600160008a600019166000191681526020019081526020016000206004018190555060018060008a6000191660001916815260200190815260200160002060050160008973ffffffffffffffffffffffffffffffffffffffff1673ffffffffffffffffffffffffffffffffffffffff16815260200190815260200160002060006101000a81548160ff02191690831515021790555085600160008a6000191660001916815260200190815260200160002060060160008973ffffffffffffffffffffffffffffffffffffffff1673ffffffffffffffffffffffffffffffffffffffff168152602001908152602001600020819055506000600160008a6000191660001916815260200190815260200160002060070160008973ffffffffffffffffffffffffffffffffffffffff1673ffffffffffffffffffffffffffffffffffffffff1681526020019081526020016000208190555060026000815480929190600101919050555060016000896000191660001916815260200190815260200160002060000154600160025403600160008b6000191660001916815260200190815260200160002060010160009054906101000a900473ffffffffffffffffffffffffffffffffffffffff16925092509250955095509592505050565b6000806000806001600087600019166000191681526020019081526020016000206004015460016000886000191660001916815260200190815260200160002060050160008773ffffffffffffffffffffffffffffffffffffffff1673ffffffffffffffffffffffffffffffffffffffff16815260200190815260200160002060009054906101000a900460ff1660016000896000191660001916815260200190815260200160002060060160008873ffffffffffffffffffffffffffffffffffffffff1673ffffffffffffffffffffffffffffffffffffffff16815260200190815260200160002054600160008a6000191660001916815260200190815260200160002060070160008973ffffffffffffffffffffffffffffffffffffffff1673ffffffffffffffffffffffffffffffffffffffff16815260200190815260200160002054935093509350935092959194509250565b60016020528060005260406000206000915090508060000154908060010160009054906101000a900473ffffffffffffffffffffffffffffffffffffffff16908060020154908060030154908060040154905085565b600080610e598484610c9f565b90919250905050809150508091505092915050565b6000806000806001600086600019166000191681526020019081526020016000206000015460016000876000191660001916815260200190815260200160002060010160009054906101000a900473ffffffffffffffffffffffffffffffffffffffff16600160008860001916600019168152602001908152602001600020600201546001600089600019166000191681526020019081526020016000206003015493509350935093509193509193565b600060016000846000191660001916815260200190815260200160002060080160008373ffffffffffffffffffffffffffffffffffffffff1673ffffffffffffffffffffffffffffffffffffffff16815260200190815260200160002054905092915050565b6000600160008360001916600019168152602001908152602001600020600301546064811515610fb157fe5b049050919050565b60008060008060008060009054906101000a900473ffffffffffffffffffffffffffffffffffffffff1673ffffffffffffffffffffffffffffffffffffffff163373ffffffffffffffffffffffffffffffffffffffff161415156110ab576040517f08c379a00000000000000000000000000000000000000000000000000000000081526004018080602001828103825260238152602001807f4d6573736167652053656e646572206973206e6f742041646d696e697374726181526020017f746f72000000000000000000000000000000000000000000000000000000000081525060400191505060405180910390fd5b866110b589610f85565b600160008b6000191660001916815260200190815260200160002060060160008973ffffffffffffffffffffffffffffffffffffffff1673ffffffffffffffffffffffffffffffffffffffff1681526020019081526020016000205481151561111a57fe5b0481151561112457fe5b04915060016000896000191660001916815260200190815260200160002060010160009054906101000a900473ffffffffffffffffffffffffffffffffffffffff16905081600160008a6000191660001916815260200190815260200160002060070160008873ffffffffffffffffffffffffffffffffffffffff1673ffffffffffffffffffffffffffffffffffffffff1681526020019081526020016000206000828254039250508190555081600160008a6000191660001916815260200190815260200160002060070160008373ffffffffffffffffffffffffffffffffffffffff1673ffffffffffffffffffffffffffffffffffffffff1681526020019081526020016000206000828254019250508190555042600160008a6000191660001916815260200190815260200160002060080160008873ffffffffffffffffffffffffffffffffffffffff1673ffffffffffffffffffffffffffffffffffffffff16815260200190815260200160002081905550878683945094509450505093509350939050565b6000806000809054906101000a900473ffffffffffffffffffffffffffffffffffffffff1673ffffffffffffffffffffffffffffffffffffffff163373ffffffffffffffffffffffffffffffffffffffff1614151561139b576040517f08c379a00000000000000000000000000000000000000000000000000000000081526004018080602001828103825260238152602001807f4d6573736167652053656e646572206973206e6f742041646d696e697374726181526020017f746f72000000000000000000000000000000000000000000000000000000000081525060400191505060405180910390fd5b60016000856000191660001916815260200190815260200160002060070160008473ffffffffffffffffffffffffffffffffffffffff1673ffffffffffffffffffffffffffffffffffffffff168152602001908152602001600020549050600060016000866000191660001916815260200190815260200160002060070160008573ffffffffffffffffffffffffffffffffffffffff1673ffffffffffffffffffffffffffffffffffffffff168152602001908152602001600020819055508273ffffffffffffffffffffffffffffffffffffffff166108fc829081150290604051600060405180830381858888f193505050501580156114a0573d6000803e3d6000fd5b5080915050929150505600a165627a7a7230582055c0607ecf13ee986fbd636c501c094fe08743cbff8c2f9bc2f1f4c5c9c4c35a0029",
  "source": "pragma solidity ^0.4.24;\n\ncontract FundList {\n    //State Variables\n    address admin;\n    mapping(bytes32 => Fund) public funds;\n    uint fundCount;\n\n    struct Fund {\n        //Name of fund\n        bytes32 name;\n        //Partner who initialized the strategy\n        //Could be a multisig wallet\n        address fundOwner;\n        //amount of funds the strategy is virtually managing\n        uint totalBalance;\n        //Add fee that quant can set- in whole number, i.e. 2% is represented as 2\n        uint feeRate;\n        //Number of days in Payment Cycle\n        uint paymentCycle;\n        //maps investors to investment status- current investors return true, non-investors return false\n        mapping (address => bool) investors;\n        //maps investors to their virtual balances in the strategy\n        mapping (address => uint) virtualBalances;\n        //maps investors to the actual fee they have stored in the Strategy Hub contract\n        //fees are paid into stratOwner fee account and paid from investor fee account\n        mapping (address => uint) fees;\n        //Adoption Times for each investor\n        mapping(address => uint) paymentCycleStart;\n        //will need to add IPFS hash eventually to verify code\n    }\n\n    //Administrative control\n    //Any write functions must be completed by the administrator\n    modifier isAdmin{\n        require(\n            msg.sender == admin,\n            \"Message Sender is not Administrator\"\n        );\n        _;\n    }\n\n    constructor() public {\n        admin = msg.sender;\n        //initialize strategy count to 0\n        fundCount = 0;\n    }\n\n    function initializeFund(bytes32 _name, address _fundOwner, uint _investment, uint _feeRate, uint _paymentCycle) \n    public payable\n    isAdmin()\n    returns(bytes32, uint, address) {\n        //initialize strat name to _name\n        funds[_name].name = _name;\n        //Strat owner is message sender\n        //Be careful of message sender here - might be the Fund Marketplace contract - might have to use delegatecall\n        funds[_name].fundOwner = _fundOwner;\n        //Initial funds are the msg.value\n        funds[_name].totalBalance = _investment;\n        //Set fee rate\n        funds[_name].feeRate = _feeRate;\n        //Set payment cycle\n        funds[_name].paymentCycle = _paymentCycle;\n        //set fundOwner to also be an investor\n        funds[_name].investors[_fundOwner] = true;\n        //set fundOwner's investor balance to the msg.value\n        funds[_name].virtualBalances[_fundOwner] = _investment;\n        //set fundOwner's fees to zero\n        funds[_name].fees[_fundOwner] = 0;\n        //Increment fundCount\n        fundCount++;\n        return (funds[_name].name, fundCount-1, funds[_name].fundOwner);\n    }\n\n    //Check to see if an account is an investor in a strategy\n    //eventually change to only one parameter and use delegate call instead\n    function isInvestor(bytes32 _name, address _investor) public view returns (bool) {\n        bool result;\n        (,result,,) = getFundDetails2(_name, _investor);\n        return result;\n    }\n\n    //Make investment into particular fund\n    //Must have required funds\n    function Invest(bytes32 _name, uint _investment, address _investor) public payable\n    isAdmin()\n    returns (bytes32, address, uint) \n    {\n        funds[_name].totalBalance += _investment;\n        funds[_name].investors[_investor] = true;\n        funds[_name].virtualBalances[_investor] = _investment;\n        funds[_name].fees[_investor] = msg.value;\n        funds[_name].paymentCycleStart[_investor] = now;\n        return (funds[_name].name, _investor, funds[_name].virtualBalances[_investor]);\n    }\n    \n    //check Fee Rate - read operation from struct\n    function checkFeeRate(bytes32 _name) public view returns (uint) {\n        return 100/funds[_name].feeRate;\n    }\n\n    //One-time pay fee function\n    function payFee(bytes32 _name, uint _timePeriod, address _investor) public\n    isAdmin()\n    returns (bytes32, address, uint)\n    {\n        //Calculate payment\n        uint payment = (funds[_name].virtualBalances[_investor]/checkFeeRate(_name))/_timePeriod;\n        //Owner fees account\n        address fundOwner = funds[_name].fundOwner;\n        //Subtract payment from investor fees\n        funds[_name].fees[_investor] -= payment;\n        funds[_name].fees[fundOwner] += payment;\n        funds[_name].paymentCycleStart[_investor] = now;\n        return (_name, _investor, payment);\n    }\n\n    function checkPaymentCycleStart(bytes32 _name, address _investor) public view\n    returns (uint)\n    {\n        return funds[_name].paymentCycleStart[_investor];\n    }\n\n    //Owner of Strategy Collects Fees\n    function collectFees(bytes32 _name, address fundOwner) public\n    isAdmin()\n    returns(uint)\n    {\n        uint feesCollected = funds[_name].fees[fundOwner];\n        funds[_name].fees[fundOwner] = 0;\n        fundOwner.transfer(feesCollected);\n        return (feesCollected);\n    }\n\n    //Get fund information (for testing/verification purposes)\n    function getFundDetails(bytes32 _name) public view returns (bytes32, address, uint, uint){\n        return (funds[_name].name, \n        funds[_name].fundOwner, \n        funds[_name].totalBalance, \n        funds[_name].feeRate);\n    }\n    //need two functions because of stack height\n    function getFundDetails2(bytes32 _name, address _addr) public view returns (uint, bool, uint, uint){\n        return(funds[_name].paymentCycle,\n        funds[_name].investors[_addr], \n        funds[_name].virtualBalances[_addr],\n        funds[_name].fees[_addr]);\n    }\n}",
  "sourcePath": "/home/bryherbz/Documents/final-project-bryanherbert/contracts/FundList.sol",
  "compiler": {
    "name": "solc",
    "version": "0.4.24+commit.e67f0147.Emscripten.clang"
  },
  "schemaVersion": "2.0.1",
  "updatedAt": "2018-12-27T22:23:31.403Z"
}