{
  "contractName": "FundMarketplace",
  "abi": [
    {
      "inputs": [],
      "payable": false,
      "stateMutability": "nonpayable",
      "type": "constructor"
    },
    {
      "anonymous": false,
      "inputs": [
        {
          "indexed": false,
          "name": "name",
          "type": "bytes32"
        },
        {
          "indexed": false,
          "name": "fundCount",
          "type": "uint256"
        },
        {
          "indexed": false,
          "name": "stratOwner",
          "type": "address"
        }
      ],
      "name": "FundCreated",
      "type": "event"
    },
    {
      "anonymous": false,
      "inputs": [
        {
          "indexed": false,
          "name": "name",
          "type": "bytes32"
        },
        {
          "indexed": false,
          "name": "investor",
          "type": "address"
        },
        {
          "indexed": false,
          "name": "investment",
          "type": "uint256"
        }
      ],
      "name": "Investment",
      "type": "event"
    },
    {
      "anonymous": false,
      "inputs": [
        {
          "indexed": false,
          "name": "name",
          "type": "bytes32"
        },
        {
          "indexed": false,
          "name": "investor",
          "type": "address"
        },
        {
          "indexed": false,
          "name": "fee",
          "type": "uint256"
        }
      ],
      "name": "FeesPaid",
      "type": "event"
    },
    {
      "constant": true,
      "inputs": [],
      "name": "getFundList",
      "outputs": [
        {
          "name": "",
          "type": "address"
        }
      ],
      "payable": false,
      "stateMutability": "view",
      "type": "function"
    },
    {
      "constant": false,
      "inputs": [
        {
          "name": "_name",
          "type": "bytes32"
        },
        {
          "name": "_fundOwner",
          "type": "address"
        },
        {
          "name": "_investment",
          "type": "uint256"
        },
        {
          "name": "_feeRate",
          "type": "uint256"
        },
        {
          "name": "_paymentCycle",
          "type": "uint256"
        }
      ],
      "name": "initializeFund",
      "outputs": [],
      "payable": true,
      "stateMutability": "payable",
      "type": "function"
    },
    {
      "constant": false,
      "inputs": [
        {
          "name": "_name",
          "type": "bytes32"
        },
        {
          "name": "_investment",
          "type": "uint256"
        }
      ],
      "name": "Invest",
      "outputs": [],
      "payable": true,
      "stateMutability": "payable",
      "type": "function"
    },
    {
      "constant": false,
      "inputs": [
        {
          "name": "_name",
          "type": "bytes32"
        },
        {
          "name": "_timePeriod",
          "type": "uint256"
        }
      ],
      "name": "payFee",
      "outputs": [],
      "payable": false,
      "stateMutability": "nonpayable",
      "type": "function"
    }
  ],
  "bytecode": "0x608060405234801561001057600080fd5b50336000806101000a81548173ffffffffffffffffffffffffffffffffffffffff021916908373ffffffffffffffffffffffffffffffffffffffff1602179055506100596100bb565b604051809103906000f080158015610075573d6000803e3d6000fd5b50600160006101000a81548173ffffffffffffffffffffffffffffffffffffffff021916908373ffffffffffffffffffffffffffffffffffffffff1602179055506100cb565b6040516112d28061126d83390190565b611193806100da6000396000f300608060405260043610610062576000357c0100000000000000000000000000000000000000000000000000000000900463ffffffff168063316e15311461006757806371a01643146100c957806381bb2b2014610120578063fb0c50e01461015b575b600080fd5b6100c76004803603810190808035600019169060200190929190803573ffffffffffffffffffffffffffffffffffffffff169060200190929190803590602001909291908035906020019092919080359060200190929190505050610189565b005b3480156100d557600080fd5b506100de610353565b604051808273ffffffffffffffffffffffffffffffffffffffff1673ffffffffffffffffffffffffffffffffffffffff16815260200191505060405180910390f35b34801561012c57600080fd5b5061015960048036038101908080356000191690602001909291908035906020019092919050505061037d565b005b610187600480360381019080803560001916906020019092919080359060200190929190505050610cb5565b005b6000806000600160009054906101000a900473ffffffffffffffffffffffffffffffffffffffff1673ffffffffffffffffffffffffffffffffffffffff1663316e153189898989896040518663ffffffff167c01000000000000000000000000000000000000000000000000000000000281526004018086600019166000191681526020018573ffffffffffffffffffffffffffffffffffffffff1673ffffffffffffffffffffffffffffffffffffffff16815260200184815260200183815260200182815260200195505050505050606060405180830381600087803b15801561027357600080fd5b505af1158015610287573d6000803e3d6000fd5b505050506040513d606081101561029d57600080fd5b810190808051906020019092919080519060200190929190805190602001909291905050508093508194508295505050507f1936274dd5f17a14226bac98f04da5d53136534654cd5e659d4f20b2fa09a85e8383836040518084600019166000191681526020018381526020018273ffffffffffffffffffffffffffffffffffffffff1673ffffffffffffffffffffffffffffffffffffffff168152602001935050505060405180910390a15050505050505050565b6000600160009054906101000a900473ffffffffffffffffffffffffffffffffffffffff16905090565b60008060008460011515600160009054906101000a900473ffffffffffffffffffffffffffffffffffffffff1673ffffffffffffffffffffffffffffffffffffffff16636ca0b5c883336040518363ffffffff167c01000000000000000000000000000000000000000000000000000000000281526004018083600019166000191681526020018273ffffffffffffffffffffffffffffffffffffffff1673ffffffffffffffffffffffffffffffffffffffff16815260200192505050602060405180830381600087803b15801561045457600080fd5b505af1158015610468573d6000803e3d6000fd5b505050506040513d602081101561047e57600080fd5b8101908080519060200190929190505050151514151561052c576040517f08c379a00000000000000000000000000000000000000000000000000000000081526004018080602001828103825260218152602001807f4d6573736167652053656e646572206973206e6f7420616e20696e766573746f81526020017f720000000000000000000000000000000000000000000000000000000000000081525060400191505060405180910390fd5b85856000806000600160009054906101000a900473ffffffffffffffffffffffffffffffffffffffff1673ffffffffffffffffffffffffffffffffffffffff1663628a0a8786336040518363ffffffff167c01000000000000000000000000000000000000000000000000000000000281526004018083600019166000191681526020018273ffffffffffffffffffffffffffffffffffffffff1673ffffffffffffffffffffffffffffffffffffffff16815260200192505050608060405180830381600087803b15801561060057600080fd5b505af1158015610614573d6000803e3d6000fd5b505050506040513d608081101561062a57600080fd5b810190808051906020019092919080519060200190929190805190602001909291908051906020019092919050505090919250909150809350819450505083600160009054906101000a900473ffffffffffffffffffffffffffffffffffffffff1673ffffffffffffffffffffffffffffffffffffffff1663cfe9b4e7876040518263ffffffff167c0100000000000000000000000000000000000000000000000000000000028152600401808260001916600019168152602001915050602060405180830381600087803b15801561070257600080fd5b505af1158015610716573d6000803e3d6000fd5b505050506040513d602081101561072c57600080fd5b81019080805190602001909291905050508481151561074757fe5b0481151561075157fe5b0490508082111515610817576040517f08c379a000000000000000000000000000000000000000000000000000000000815260040180806020018281038252604c8152602001807f4665652062616c616e636520697320696e73756666696369656e7420746f206d81526020017f616b65207061796d656e74206f72207061796d656e74206379636c652069732081526020017f6e6f7420636f6d706c657465000000000000000000000000000000000000000081525060600191505060405180910390fd5b8a600080600160009054906101000a900473ffffffffffffffffffffffffffffffffffffffff1673ffffffffffffffffffffffffffffffffffffffff1663b893565d84336040518363ffffffff167c01000000000000000000000000000000000000000000000000000000000281526004018083600019166000191681526020018273ffffffffffffffffffffffffffffffffffffffff1673ffffffffffffffffffffffffffffffffffffffff16815260200192505050602060405180830381600087803b1580156108e857600080fd5b505af11580156108fc573d6000803e3d6000fd5b505050506040513d602081101561091257600080fd5b81019080805190602001909291905050509150600160009054906101000a900473ffffffffffffffffffffffffffffffffffffffff1673ffffffffffffffffffffffffffffffffffffffff1663628a0a8784336040518363ffffffff167c01000000000000000000000000000000000000000000000000000000000281526004018083600019166000191681526020018273ffffffffffffffffffffffffffffffffffffffff1673ffffffffffffffffffffffffffffffffffffffff16815260200192505050608060405180830381600087803b1580156109f257600080fd5b505af1158015610a06573d6000803e3d6000fd5b505050506040513d6080811015610a1c57600080fd5b81019080805190602001909291908051906020019092919080519060200190929190805190602001909291905050509091509050508091505062015180810282014210151515610afa576040517f08c379a00000000000000000000000000000000000000000000000000000000081526004018080602001828103825260218152602001807f4379636c65206973206e6f7420636f6d706c6574652c206e6f2066656520647581526020017f650000000000000000000000000000000000000000000000000000000000000081525060400191505060405180910390fd5b600160009054906101000a900473ffffffffffffffffffffffffffffffffffffffff1673ffffffffffffffffffffffffffffffffffffffff1663d30b53868f8f336040518463ffffffff167c01000000000000000000000000000000000000000000000000000000000281526004018084600019166000191681526020018381526020018273ffffffffffffffffffffffffffffffffffffffff1673ffffffffffffffffffffffffffffffffffffffff1681526020019350505050606060405180830381600087803b158015610bcf57600080fd5b505af1158015610be3573d6000803e3d6000fd5b505050506040513d6060811015610bf957600080fd5b81019080805190602001909291908051906020019092919080519060200190929190505050809c50819d50829e505050507fcdaf268fff4093ca2f3a0c5457f2a78a56c4da37c292d3a66a9d8e645d2b78018c8c8c6040518084600019166000191681526020018373ffffffffffffffffffffffffffffffffffffffff1673ffffffffffffffffffffffffffffffffffffffff168152602001828152602001935050505060405180910390a15050505050505050505050505050565b600080600084846000600160009054906101000a900473ffffffffffffffffffffffffffffffffffffffff1673ffffffffffffffffffffffffffffffffffffffff1663cfe9b4e7846040518263ffffffff167c0100000000000000000000000000000000000000000000000000000000028152600401808260001916600019168152602001915050602060405180830381600087803b158015610d5757600080fd5b505af1158015610d6b573d6000803e3d6000fd5b505050506040513d6020811015610d8157600080fd5b810190808051906020019092919050505082811515610d9c57fe5b0490508082013373ffffffffffffffffffffffffffffffffffffffff1631111515610e55576040517f08c379a000000000000000000000000000000000000000000000000000000000815260040180806020018281038252602d8152602001807f53656e64657220646f6573206e6f74206861766520656e6f7567682062616c6181526020017f6e636520746f20696e766573740000000000000000000000000000000000000081525060400191505060405180910390fd5b878734600160009054906101000a900473ffffffffffffffffffffffffffffffffffffffff1673ffffffffffffffffffffffffffffffffffffffff1663cfe9b4e7846040518263ffffffff167c0100000000000000000000000000000000000000000000000000000000028152600401808260001916600019168152602001915050602060405180830381600087803b158015610ef157600080fd5b505af1158015610f05573d6000803e3d6000fd5b505050506040513d6020811015610f1b57600080fd5b810190808051906020019092919050505082811515610f3657fe5b048110151515610fae576040517f08c379a00000000000000000000000000000000000000000000000000000000081526004018080602001828103825260128152602001807f46656520697320696e737566666963656e74000000000000000000000000000081525060200191505060405180910390fd5b600160009054906101000a900473ffffffffffffffffffffffffffffffffffffffff1673ffffffffffffffffffffffffffffffffffffffff166313c42676348d8d336040518563ffffffff167c01000000000000000000000000000000000000000000000000000000000281526004018084600019166000191681526020018381526020018273ffffffffffffffffffffffffffffffffffffffff1673ffffffffffffffffffffffffffffffffffffffff16815260200193505050506060604051808303818588803b15801561108357600080fd5b505af1158015611097573d6000803e3d6000fd5b50505050506040513d60608110156110ae57600080fd5b81019080805190602001909291908051906020019092919080519060200190929190505050809950819a50829b505050507f2b158127221737cd431395104f48aa6534ed782d1c9c8b2ac852d925c0c1e9c18b338c6040518084600019166000191681526020018373ffffffffffffffffffffffffffffffffffffffff1673ffffffffffffffffffffffffffffffffffffffff168152602001828152602001935050505060405180910390a150505050505050505050505600a165627a7a723058205fe2cb88ff786ebb601e854abb16d5f40500d0d091ee2e99d81657352c2fb5b20029608060405234801561001057600080fd5b50336000806101000a81548173ffffffffffffffffffffffffffffffffffffffff021916908373ffffffffffffffffffffffffffffffffffffffff160217905550600060028190555061126a806100686000396000f300608060405260043610610099576000357c0100000000000000000000000000000000000000000000000000000000900463ffffffff16806313c426761461009e578063316e153114610142578063628a0a87146101fa5780636a29a620146102785780636ca0b5c81461030d578063a736517414610376578063b893565d14610404578063cfe9b4e714610469578063d30b5386146104ae575b600080fd5b6100ea600480360381019080803560001916906020019092919080359060200190929190803573ffffffffffffffffffffffffffffffffffffffff16906020019092919050505061055f565b6040518084600019166000191681526020018373ffffffffffffffffffffffffffffffffffffffff1673ffffffffffffffffffffffffffffffffffffffff168152602001828152602001935050505060405180910390f35b6101a26004803603810190808035600019169060200190929190803573ffffffffffffffffffffffffffffffffffffffff169060200190929190803590602001909291908035906020019092919080359060200190929190505050610898565b6040518084600019166000191681526020018381526020018273ffffffffffffffffffffffffffffffffffffffff1673ffffffffffffffffffffffffffffffffffffffff168152602001935050505060405180910390f35b34801561020657600080fd5b506102496004803603810190808035600019169060200190929190803573ffffffffffffffffffffffffffffffffffffffff169060200190929190505050610c2f565b604051808581526020018415151515815260200183815260200182815260200194505050505060405180910390f35b34801561028457600080fd5b506102a76004803603810190808035600019169060200190929190505050610d86565b6040518086600019166000191681526020018573ffffffffffffffffffffffffffffffffffffffff1673ffffffffffffffffffffffffffffffffffffffff1681526020018481526020018381526020018281526020019550505050505060405180910390f35b34801561031957600080fd5b5061035c6004803603810190808035600019169060200190929190803573ffffffffffffffffffffffffffffffffffffffff169060200190929190505050610ddc565b604051808215151515815260200191505060405180910390f35b34801561038257600080fd5b506103a56004803603810190808035600019169060200190929190505050610dfe565b6040518085600019166000191681526020018473ffffffffffffffffffffffffffffffffffffffff1673ffffffffffffffffffffffffffffffffffffffff16815260200183815260200182815260200194505050505060405180910390f35b34801561041057600080fd5b506104536004803603810190808035600019169060200190929190803573ffffffffffffffffffffffffffffffffffffffff169060200190929190505050610eaf565b6040518082815260200191505060405180910390f35b34801561047557600080fd5b506104986004803603810190808035600019169060200190929190505050610f15565b6040518082815260200191505060405180910390f35b3480156104ba57600080fd5b50610507600480360381019080803560001916906020019092919080359060200190929190803573ffffffffffffffffffffffffffffffffffffffff169060200190929190505050610f49565b6040518084600019166000191681526020018373ffffffffffffffffffffffffffffffffffffffff1673ffffffffffffffffffffffffffffffffffffffff168152602001828152602001935050505060405180910390f35b60008060008060009054906101000a900473ffffffffffffffffffffffffffffffffffffffff1673ffffffffffffffffffffffffffffffffffffffff163373ffffffffffffffffffffffffffffffffffffffff1614151561064e576040517f08c379a00000000000000000000000000000000000000000000000000000000081526004018080602001828103825260238152602001807f4d6573736167652053656e646572206973206e6f742041646d696e697374726181526020017f746f72000000000000000000000000000000000000000000000000000000000081525060400191505060405180910390fd5b84600160008860001916600019168152602001908152602001600020600201600082825401925050819055506001806000886000191660001916815260200190815260200160002060050160008673ffffffffffffffffffffffffffffffffffffffff1673ffffffffffffffffffffffffffffffffffffffff16815260200190815260200160002060006101000a81548160ff0219169083151502179055508460016000886000191660001916815260200190815260200160002060060160008673ffffffffffffffffffffffffffffffffffffffff1673ffffffffffffffffffffffffffffffffffffffff168152602001908152602001600020819055503460016000886000191660001916815260200190815260200160002060070160008673ffffffffffffffffffffffffffffffffffffffff1673ffffffffffffffffffffffffffffffffffffffff168152602001908152602001600020819055504260016000886000191660001916815260200190815260200160002060080160008673ffffffffffffffffffffffffffffffffffffffff1673ffffffffffffffffffffffffffffffffffffffff16815260200190815260200160002081905550600160008760001916600019168152602001908152602001600020600001548460016000896000191660001916815260200190815260200160002060060160008773ffffffffffffffffffffffffffffffffffffffff1673ffffffffffffffffffffffffffffffffffffffff1681526020019081526020016000205492509250925093509350939050565b60008060008060009054906101000a900473ffffffffffffffffffffffffffffffffffffffff1673ffffffffffffffffffffffffffffffffffffffff163373ffffffffffffffffffffffffffffffffffffffff16141515610987576040517f08c379a00000000000000000000000000000000000000000000000000000000081526004018080602001828103825260238152602001807f4d6573736167652053656e646572206973206e6f742041646d696e697374726181526020017f746f72000000000000000000000000000000000000000000000000000000000081525060400191505060405180910390fd5b87600160008a60001916600019168152602001908152602001600020600001816000191690555086600160008a6000191660001916815260200190815260200160002060010160006101000a81548173ffffffffffffffffffffffffffffffffffffffff021916908373ffffffffffffffffffffffffffffffffffffffff16021790555085600160008a600019166000191681526020019081526020016000206002018190555084600160008a600019166000191681526020019081526020016000206003018190555083600160008a600019166000191681526020019081526020016000206004018190555060018060008a6000191660001916815260200190815260200160002060050160008973ffffffffffffffffffffffffffffffffffffffff1673ffffffffffffffffffffffffffffffffffffffff16815260200190815260200160002060006101000a81548160ff02191690831515021790555085600160008a6000191660001916815260200190815260200160002060060160008973ffffffffffffffffffffffffffffffffffffffff1673ffffffffffffffffffffffffffffffffffffffff168152602001908152602001600020819055506000600160008a6000191660001916815260200190815260200160002060070160008973ffffffffffffffffffffffffffffffffffffffff1673ffffffffffffffffffffffffffffffffffffffff1681526020019081526020016000208190555060026000815480929190600101919050555060016000896000191660001916815260200190815260200160002060000154600160025403600160008b6000191660001916815260200190815260200160002060010160009054906101000a900473ffffffffffffffffffffffffffffffffffffffff16925092509250955095509592505050565b6000806000806001600087600019166000191681526020019081526020016000206004015460016000886000191660001916815260200190815260200160002060050160008773ffffffffffffffffffffffffffffffffffffffff1673ffffffffffffffffffffffffffffffffffffffff16815260200190815260200160002060009054906101000a900460ff1660016000896000191660001916815260200190815260200160002060060160008873ffffffffffffffffffffffffffffffffffffffff1673ffffffffffffffffffffffffffffffffffffffff16815260200190815260200160002054600160008a6000191660001916815260200190815260200160002060070160008973ffffffffffffffffffffffffffffffffffffffff1673ffffffffffffffffffffffffffffffffffffffff16815260200190815260200160002054935093509350935092959194509250565b60016020528060005260406000206000915090508060000154908060010160009054906101000a900473ffffffffffffffffffffffffffffffffffffffff16908060020154908060030154908060040154905085565b600080610de98484610c2f565b90919250905050809150508091505092915050565b6000806000806001600086600019166000191681526020019081526020016000206000015460016000876000191660001916815260200190815260200160002060010160009054906101000a900473ffffffffffffffffffffffffffffffffffffffff16600160008860001916600019168152602001908152602001600020600201546001600089600019166000191681526020019081526020016000206003015493509350935093509193509193565b600060016000846000191660001916815260200190815260200160002060080160008373ffffffffffffffffffffffffffffffffffffffff1673ffffffffffffffffffffffffffffffffffffffff16815260200190815260200160002054905092915050565b6000600160008360001916600019168152602001908152602001600020600301546064811515610f4157fe5b049050919050565b60008060008060008060009054906101000a900473ffffffffffffffffffffffffffffffffffffffff1673ffffffffffffffffffffffffffffffffffffffff163373ffffffffffffffffffffffffffffffffffffffff1614151561103b576040517f08c379a00000000000000000000000000000000000000000000000000000000081526004018080602001828103825260238152602001807f4d6573736167652053656e646572206973206e6f742041646d696e697374726181526020017f746f72000000000000000000000000000000000000000000000000000000000081525060400191505060405180910390fd5b8661104589610f15565b600160008b6000191660001916815260200190815260200160002060060160008973ffffffffffffffffffffffffffffffffffffffff1673ffffffffffffffffffffffffffffffffffffffff168152602001908152602001600020548115156110aa57fe5b048115156110b457fe5b04915060016000896000191660001916815260200190815260200160002060010160009054906101000a900473ffffffffffffffffffffffffffffffffffffffff16905081600160008a6000191660001916815260200190815260200160002060070160008873ffffffffffffffffffffffffffffffffffffffff1673ffffffffffffffffffffffffffffffffffffffff1681526020019081526020016000206000828254039250508190555081600160008a6000191660001916815260200190815260200160002060070160008373ffffffffffffffffffffffffffffffffffffffff1673ffffffffffffffffffffffffffffffffffffffff1681526020019081526020016000206000828254019250508190555042600160008a6000191660001916815260200190815260200160002060080160008873ffffffffffffffffffffffffffffffffffffffff1673ffffffffffffffffffffffffffffffffffffffff168152602001908152602001600020819055508786839450945094505050935093509390505600a165627a7a7230582030b286bc87beb2e280a9c34782bab63672cadfc6719ccd2864e900cd9c974ab10029",
  "source": "pragma solidity ^0.4.24;\n\ncontract FundMarketplace {\n    //State Variables\n    address admin;\n    //FundList Contract\n    FundList fl;\n\n    //Events\n    event FundCreated(\n        bytes32 name,\n        uint fundCount,\n        address stratOwner\n    );\n\n    event Investment(\n        bytes32 name,\n        address investor,\n        uint investment\n    );\n    \n    event FeesPaid(\n        bytes32 name,\n        address investor,\n        uint fee\n    );\n\n    // event FeesCollected(\n    //     bytes32 name,\n    //     uint fee\n    // );\n\n    // event FundsWithdrawn(\n    //     bytes32 name,\n    //     address investor,\n    //     uint investment,\n    //     uint fees\n    // );\n\n    //Modifiers\n    modifier verifyBalance(bytes32 _name, uint _investment){\n        //Account Balance must be greater than investment + Fees\n        //Not sure this correct- want it to represent ~2%\n        uint fee = _investment/fl.checkFeeRate(_name);\n        require(\n            msg.sender.balance > _investment + fee,\n            \"Sender does not have enough balance to invest\"\n        );\n        _;\n    }\n\n    modifier verifyFee(bytes32 _name, uint _investment, uint _proposedFee) {\n        //Verify that the msg.value > fee\n        require(\n            _proposedFee >= _investment/fl.checkFeeRate(_name),\n            \"Fee is insufficent\"\n        );\n        _;\n    }\n\n    modifier checkFeePayment(bytes32 _name, uint _timePeriod) {\n        uint virtualBalance;\n        uint fees;\n        //Get investor's virtual balance and fees deposited\n        (,,virtualBalance,fees) = fl.getFundDetails2(_name, msg.sender);\n        uint payment = (virtualBalance/fl.checkFeeRate(_name))/_timePeriod;\n        require(\n            //Check that msg.sender has enough in fees to make payment installment\n            fees > payment,\n            \"Fee balance is insufficient to make payment or payment cycle is not complete\"\n        );\n        _;\n    }\n\n    modifier verifyInvestmentStatus(bytes32 _name){\n        //check that msg.sender is an investor\n        require(\n            fl.isInvestor(_name, msg.sender) == true,\n            \"Message Sender is not an investor\"\n        );\n        _;\n    }\n\n    // //Can replace this with ethpm code\n    // modifier isOwner(bytes32 _name){\n    //     require(\n    //         strategies[_name].stratOwner == msg.sender,\n    //         \"Message Sender does not own strategy\"\n    //     );\n    //     _;\n    // }\n\n    modifier cycleComplete(bytes32 _name){\n        uint paymentCycleStart = fl.checkPaymentCycleStart(_name, msg.sender);\n        uint paymentCycle;\n        (paymentCycle,,,) = fl.getFundDetails2(_name, msg.sender);\n\n        require(\n            now >= paymentCycleStart + paymentCycle * 1 days,\n            \"Cycle is not complete, no fee due\"\n        );\n        _;\n    }\n\n    constructor() public {\n        admin = msg.sender;\n        //Need to initialize a new contract instance of FundList\n        //Attempt may be wrong\n        fl = new FundList();\n    }\n\n    function getFundList() public view returns (FundList) {\n        return fl;\n    }\n\n    function initializeFund(bytes32 _name, address _fundOwner, uint _investment, uint _feeRate, uint _paymentCycle) public payable {\n        bytes32 fundName;\n        uint fundCount;\n        address fundOwner;\n        (fundName, fundCount, fundOwner) = fl.initializeFund(_name, _fundOwner, _investment, _feeRate, _paymentCycle);\n        //Emit Event\n        emit FundCreated(fundName, fundCount, fundOwner);\n    }\n\n\n    //Make investment into particular fund\n    //Must have required funds\n    function Invest(bytes32 _name, uint _investment) public payable \n    verifyBalance(_name, _investment) \n    verifyFee(_name, _investment, msg.value) {\n        bytes32 fundName;\n        address newInvestor;\n        uint newInvestment;\n        (fundName, newInvestor, newInvestment) = fl.Invest.value(msg.value)(_name, _investment, msg.sender);\n        //Emit event\n        emit Investment(_name, msg.sender, _investment);\n    }\n\n\n    //One-time pay fee function\n    function payFee(bytes32 _name, uint _timePeriod) public\n    verifyInvestmentStatus(_name)\n    checkFeePayment(_name, _timePeriod)\n    cycleComplete(_name)\n    {\n        bytes32 fundName;\n        address investor;\n        uint feePayment;\n        (fundName, investor, feePayment) = fl.payFee(_name, _timePeriod, msg.sender);\n        emit FeesPaid(fundName, investor, feePayment);\n    }\n\n/*\n\n    //Owner of Strategy Collects Fees\n    function collectFees(bytes32 _name) public\n    isOwner(_name)\n    {\n        uint feesCollected = strategies[_name].fees[msg.sender];\n        strategies[_name].fees[msg.sender] = 0;\n        msg.sender.transfer(feesCollected);\n        emit FeesCollected(_name, feesCollected);\n    }\n\n    function withdrawFunds(bytes32 _name) public\n    verifyInvestmentStatus(_name) \n    {\n        //Need to make sure this matches up with withdraw philosophy\n        //Temporary Balance and Fees\n        uint bal = strategies[_name].virtualBalances[msg.sender];\n        uint fees = strategies[_name].fees[msg.sender];\n        //subtract virtual balance from total funds\n        strategies[_name].funds -= bal;\n        //zero out virtual Balance\n        strategies[_name].virtualBalances[msg.sender] = 0;\n        //transfer fees back to investor\n        msg.sender.transfer(fees);\n        //Zero out fees\n        strategies[_name].fees[msg.sender] = 0;\n        //set investor status to faslse\n        strategies[_name].investors[msg.sender] = false;\n        emit FundsWithdrawn(_name, msg.sender, bal, fees);\n    }\n*/\n}\n\ncontract FundList {\n    //State Variables\n    address admin;\n    mapping(bytes32 => Fund) public funds;\n    uint fundCount;\n\n    struct Fund {\n        //Name of fund\n        bytes32 name;\n        //Partner who initialized the strategy\n        //Could be a multisig wallet\n        address fundOwner;\n        //amount of funds the strategy is virtually managing\n        uint totalBalance;\n        //Add fee that quant can set- in whole number, i.e. 2% is represented as 2\n        uint feeRate;\n        //Number of days in Payment Cycle\n        uint paymentCycle;\n        //maps investors to investment status- current investors return true, non-investors return false\n        mapping (address => bool) investors;\n        //maps investors to their virtual balances in the strategy\n        mapping (address => uint) virtualBalances;\n        //maps investors to the actual fee they have stored in the Strategy Hub contract\n        //fees are paid into stratOwner fee account and paid from investor fee account\n        mapping (address => uint) fees;\n        //Adoption Times for each investor\n        mapping(address => uint) paymentCycleStart;\n        //will need to add IPFS hash eventually to verify code\n    }\n\n    //Administrative control\n    //Any write functions must be completed by the administrator\n    modifier isAdmin{\n        require(\n            msg.sender == admin,\n            \"Message Sender is not Administrator\"\n        );\n        _;\n    }\n\n    constructor() public {\n        admin = msg.sender;\n        //initialize strategy count to 0\n        fundCount = 0;\n    }\n\n    function initializeFund(bytes32 _name, address _fundOwner, uint _investment, uint _feeRate, uint _paymentCycle) \n    public payable\n    isAdmin()\n    returns(bytes32, uint, address) {\n        //initialize strat name to _name\n        funds[_name].name = _name;\n        //Strat owner is message sender\n        //Be careful of message sender here - might be the Fund Marketplace contract - might have to use delegatecall\n        funds[_name].fundOwner = _fundOwner;\n        //Initial funds are the msg.value\n        funds[_name].totalBalance = _investment;\n        //Set fee rate\n        funds[_name].feeRate = _feeRate;\n        //Set payment cycle\n        funds[_name].paymentCycle = _paymentCycle;\n        //set fundOwner to also be an investor\n        funds[_name].investors[_fundOwner] = true;\n        //set fundOwner's investor balance to the msg.value\n        funds[_name].virtualBalances[_fundOwner] = _investment;\n        //set fundOwner's fees to zero\n        funds[_name].fees[_fundOwner] = 0;\n        //Increment fundCount\n        fundCount++;\n        return (funds[_name].name, fundCount-1, funds[_name].fundOwner);\n    }\n\n    //Check to see if an account is an investor in a strategy\n    //eventually change to only one parameter and use delegate call instead\n    function isInvestor(bytes32 _name, address _investor) public view returns (bool) {\n        bool result;\n        (,result,,) = getFundDetails2(_name, _investor);\n        return result;\n    }\n\n    //Make investment into particular fund\n    //Must have required funds\n    function Invest(bytes32 _name, uint _investment, address _investor) public payable\n    isAdmin()\n    returns (bytes32, address, uint) \n    {\n        funds[_name].totalBalance += _investment;\n        funds[_name].investors[_investor] = true;\n        funds[_name].virtualBalances[_investor] = _investment;\n        funds[_name].fees[_investor] = msg.value;\n        funds[_name].paymentCycleStart[_investor] = now;\n        return (funds[_name].name, _investor, funds[_name].virtualBalances[_investor]);\n    }\n    \n    //check Fee Rate - read operation from struct\n    function checkFeeRate(bytes32 _name) public view returns (uint) {\n        return 100/funds[_name].feeRate;\n    }\n\n    //One-time pay fee function\n    function payFee(bytes32 _name, uint _timePeriod, address _investor) public\n    isAdmin()\n    returns (bytes32, address, uint)\n    {\n        //Calculate payment\n        uint payment = (funds[_name].virtualBalances[_investor]/checkFeeRate(_name))/_timePeriod;\n        //Owner fees account\n        address fundOwner = funds[_name].fundOwner;\n        //Subtract payment from investor fees\n        funds[_name].fees[_investor] -= payment;\n        funds[_name].fees[fundOwner] += payment;\n        funds[_name].paymentCycleStart[_investor] = now;\n        return (_name, _investor, payment);\n    }\n\n    function checkPaymentCycleStart(bytes32 _name, address _investor) public view\n    returns (uint)\n    {\n        return funds[_name].paymentCycleStart[_investor];\n    }\n\n    //Get fund information (for testing/verification purposes)\n    function getFundDetails(bytes32 _name) public view returns (bytes32, address, uint, uint){\n        return (funds[_name].name, \n        funds[_name].fundOwner, \n        funds[_name].totalBalance, \n        funds[_name].feeRate);\n    }\n    //need two functions because of stack height\n    function getFundDetails2(bytes32 _name, address _addr) public view returns (uint, bool, uint, uint){\n        return(funds[_name].paymentCycle,\n        funds[_name].investors[_addr], \n        funds[_name].virtualBalances[_addr],\n        funds[_name].fees[_addr]);\n    }\n}",
  "sourcePath": "/home/bryherbz/Documents/final-project-bryanherbert/contracts/FundMarketplace.sol",
  "compiler": {
    "name": "solc",
    "version": "0.4.24+commit.e67f0147.Emscripten.clang"
  },
  "schemaVersion": "2.0.1",
  "updatedAt": "2018-12-27T21:18:42.640Z"
}