{
  "contractName": "FundMarketplace",
  "abi": [
    {
      "constant": true,
      "inputs": [],
      "name": "lifetimeCount",
      "outputs": [
        {
          "name": "",
          "type": "uint256"
        }
      ],
      "payable": false,
      "stateMutability": "view",
      "type": "function",
      "signature": "0x1148c9cf"
    },
    {
      "constant": true,
      "inputs": [],
      "name": "fundCount",
      "outputs": [
        {
          "name": "",
          "type": "uint256"
        }
      ],
      "payable": false,
      "stateMutability": "view",
      "type": "function",
      "signature": "0x3f936ff5"
    },
    {
      "constant": true,
      "inputs": [],
      "name": "stopped",
      "outputs": [
        {
          "name": "",
          "type": "bool"
        }
      ],
      "payable": false,
      "stateMutability": "view",
      "type": "function",
      "signature": "0x75f12b21"
    },
    {
      "inputs": [],
      "payable": false,
      "stateMutability": "nonpayable",
      "type": "constructor",
      "signature": "constructor"
    },
    {
      "anonymous": false,
      "inputs": [
        {
          "indexed": true,
          "name": "fundNum",
          "type": "uint256"
        },
        {
          "indexed": false,
          "name": "name",
          "type": "bytes32"
        },
        {
          "indexed": false,
          "name": "fundOwner",
          "type": "address"
        }
      ],
      "name": "FundCreated",
      "type": "event",
      "signature": "0xc82935322ca212d902bc9f5d7749a3f6d77c1b65edc910fa76e4c71c55789363"
    },
    {
      "anonymous": false,
      "inputs": [
        {
          "indexed": true,
          "name": "fundNum",
          "type": "uint256"
        },
        {
          "indexed": true,
          "name": "investor",
          "type": "address"
        },
        {
          "indexed": false,
          "name": "investment",
          "type": "uint256"
        }
      ],
      "name": "Investment",
      "type": "event",
      "signature": "0x643fc0b743f4f346ffdb759bfb92448864902674a3c483edc83c37e717991eef"
    },
    {
      "anonymous": false,
      "inputs": [
        {
          "indexed": true,
          "name": "fundNum",
          "type": "uint256"
        },
        {
          "indexed": true,
          "name": "investor",
          "type": "address"
        },
        {
          "indexed": false,
          "name": "fee",
          "type": "uint256"
        }
      ],
      "name": "FeesPaid",
      "type": "event",
      "signature": "0x8c93f5c871494af23fcf8187e4048fa7349f98ab5aa3ac95d12df81e75d93475"
    },
    {
      "anonymous": false,
      "inputs": [
        {
          "indexed": true,
          "name": "fundNum",
          "type": "uint256"
        },
        {
          "indexed": false,
          "name": "fee",
          "type": "uint256"
        }
      ],
      "name": "FeesCollected",
      "type": "event",
      "signature": "0x49d512bf9cb224241c05691e73eb9fab078cf350c7dbcbcf66788f1fc0cc8b0b"
    },
    {
      "anonymous": false,
      "inputs": [
        {
          "indexed": true,
          "name": "fundNum",
          "type": "uint256"
        },
        {
          "indexed": false,
          "name": "investor",
          "type": "address"
        },
        {
          "indexed": false,
          "name": "investment",
          "type": "uint256"
        },
        {
          "indexed": false,
          "name": "fees",
          "type": "uint256"
        }
      ],
      "name": "FundsWithdrawn",
      "type": "event",
      "signature": "0x3dbb1a26f29aef1264c12ca1285deb60cca5666d8b17100c7ea1602c0a4014f6"
    },
    {
      "anonymous": false,
      "inputs": [
        {
          "indexed": true,
          "name": "fundNum",
          "type": "uint256"
        },
        {
          "indexed": false,
          "name": "action",
          "type": "bytes32"
        },
        {
          "indexed": false,
          "name": "ticker",
          "type": "bytes32"
        },
        {
          "indexed": false,
          "name": "qty",
          "type": "uint256"
        },
        {
          "indexed": false,
          "name": "price",
          "type": "uint256"
        }
      ],
      "name": "OrderPlaced",
      "type": "event",
      "signature": "0x85322d03fb8f4402a5c3587e0fe70baa47437cb0d0c3422a1499e151bd3bd030"
    },
    {
      "anonymous": false,
      "inputs": [
        {
          "indexed": true,
          "name": "fundNum",
          "type": "uint256"
        },
        {
          "indexed": false,
          "name": "manager",
          "type": "address"
        }
      ],
      "name": "FundClosed",
      "type": "event",
      "signature": "0xc645e26d39829041e2ab4544829d127df37295c8b86d8142c0f2b23f7bf7a0bb"
    },
    {
      "anonymous": false,
      "inputs": [
        {
          "indexed": true,
          "name": "fundNum",
          "type": "uint256"
        },
        {
          "indexed": false,
          "name": "manager",
          "type": "address"
        }
      ],
      "name": "FundraisingOver",
      "type": "event",
      "signature": "0xabcd9a323cc1e68fee9470acf60406543f894449f198aaf3b26897c793fd2ca6"
    },
    {
      "constant": false,
      "inputs": [],
      "name": "setStopped",
      "outputs": [],
      "payable": false,
      "stateMutability": "nonpayable",
      "type": "function",
      "signature": "0x71135f8b"
    },
    {
      "constant": false,
      "inputs": [
        {
          "name": "_name",
          "type": "bytes32"
        },
        {
          "name": "_fundOwner",
          "type": "address"
        },
        {
          "name": "_investment",
          "type": "uint256"
        },
        {
          "name": "_feeRate",
          "type": "uint256"
        },
        {
          "name": "_paymentCycle",
          "type": "uint256"
        },
        {
          "name": "_ipfsHash",
          "type": "bytes32"
        },
        {
          "name": "_hash_function",
          "type": "uint8"
        },
        {
          "name": "_size",
          "type": "uint8"
        }
      ],
      "name": "initializeFund",
      "outputs": [],
      "payable": true,
      "stateMutability": "payable",
      "type": "function",
      "signature": "0x4bc07f12"
    },
    {
      "constant": false,
      "inputs": [
        {
          "name": "_fundNum",
          "type": "uint256"
        },
        {
          "name": "_investment",
          "type": "uint256"
        }
      ],
      "name": "Invest",
      "outputs": [],
      "payable": true,
      "stateMutability": "payable",
      "type": "function",
      "signature": "0xb0892860"
    },
    {
      "constant": false,
      "inputs": [
        {
          "name": "_fundNum",
          "type": "uint256"
        },
        {
          "name": "_action",
          "type": "bytes32"
        },
        {
          "name": "_ticker",
          "type": "bytes32"
        },
        {
          "name": "_qty",
          "type": "uint256"
        },
        {
          "name": "_price",
          "type": "uint256"
        }
      ],
      "name": "placeOrder",
      "outputs": [],
      "payable": false,
      "stateMutability": "nonpayable",
      "type": "function",
      "signature": "0x97f90e64"
    },
    {
      "constant": true,
      "inputs": [
        {
          "name": "_fundNum",
          "type": "uint256"
        },
        {
          "name": "_qty",
          "type": "uint256"
        }
      ],
      "name": "calcQty",
      "outputs": [
        {
          "name": "",
          "type": "uint256"
        }
      ],
      "payable": false,
      "stateMutability": "view",
      "type": "function",
      "signature": "0x8eee3134"
    },
    {
      "constant": true,
      "inputs": [
        {
          "name": "_fundNum",
          "type": "uint256"
        }
      ],
      "name": "checkFeeRate",
      "outputs": [
        {
          "name": "",
          "type": "uint256"
        }
      ],
      "payable": false,
      "stateMutability": "view",
      "type": "function",
      "signature": "0xe15ee3d6"
    },
    {
      "constant": false,
      "inputs": [
        {
          "name": "_fundNum",
          "type": "uint256"
        }
      ],
      "name": "payFee",
      "outputs": [],
      "payable": false,
      "stateMutability": "nonpayable",
      "type": "function",
      "signature": "0xd289ade2"
    },
    {
      "constant": false,
      "inputs": [
        {
          "name": "_fundNum",
          "type": "uint256"
        }
      ],
      "name": "checkFee",
      "outputs": [
        {
          "name": "",
          "type": "uint256"
        },
        {
          "name": "",
          "type": "bool"
        }
      ],
      "payable": false,
      "stateMutability": "nonpayable",
      "type": "function",
      "signature": "0x8e03165d"
    },
    {
      "constant": false,
      "inputs": [
        {
          "name": "_fundNum",
          "type": "uint256"
        }
      ],
      "name": "collectFees",
      "outputs": [],
      "payable": false,
      "stateMutability": "nonpayable",
      "type": "function",
      "signature": "0xb17acdcd"
    },
    {
      "constant": false,
      "inputs": [
        {
          "name": "_fundNum",
          "type": "uint256"
        },
        {
          "name": "_amount",
          "type": "uint256"
        }
      ],
      "name": "withdrawFunds",
      "outputs": [],
      "payable": false,
      "stateMutability": "nonpayable",
      "type": "function",
      "signature": "0xe5253105"
    },
    {
      "constant": false,
      "inputs": [
        {
          "name": "_fundNum",
          "type": "uint256"
        }
      ],
      "name": "closeFund",
      "outputs": [],
      "payable": false,
      "stateMutability": "nonpayable",
      "type": "function",
      "signature": "0x609a4970"
    },
    {
      "constant": false,
      "inputs": [
        {
          "name": "_fundNum",
          "type": "uint256"
        }
      ],
      "name": "endFundraising",
      "outputs": [],
      "payable": false,
      "stateMutability": "nonpayable",
      "type": "function",
      "signature": "0x0473e260"
    },
    {
      "constant": true,
      "inputs": [
        {
          "name": "_fundNum",
          "type": "uint256"
        }
      ],
      "name": "getFundDetails",
      "outputs": [
        {
          "name": "",
          "type": "bytes32"
        },
        {
          "name": "",
          "type": "address"
        },
        {
          "name": "",
          "type": "uint256"
        },
        {
          "name": "",
          "type": "uint256"
        },
        {
          "name": "",
          "type": "uint256"
        },
        {
          "name": "",
          "type": "uint256"
        }
      ],
      "payable": false,
      "stateMutability": "view",
      "type": "function",
      "signature": "0x8f144ea2"
    },
    {
      "constant": true,
      "inputs": [
        {
          "name": "_fundNum",
          "type": "uint256"
        },
        {
          "name": "_addr",
          "type": "address"
        }
      ],
      "name": "getFundDetails2",
      "outputs": [
        {
          "name": "",
          "type": "bool"
        },
        {
          "name": "",
          "type": "uint256"
        },
        {
          "name": "",
          "type": "uint256"
        }
      ],
      "payable": false,
      "stateMutability": "view",
      "type": "function",
      "signature": "0xdc54380c"
    },
    {
      "constant": true,
      "inputs": [
        {
          "name": "_fundNum",
          "type": "uint256"
        }
      ],
      "name": "checkFundStatus",
      "outputs": [
        {
          "name": "",
          "type": "bool"
        },
        {
          "name": "",
          "type": "bool"
        }
      ],
      "payable": false,
      "stateMutability": "view",
      "type": "function",
      "signature": "0x522a33d9"
    },
    {
      "constant": true,
      "inputs": [
        {
          "name": "_fundNum",
          "type": "uint256"
        }
      ],
      "name": "getIpfsHash",
      "outputs": [
        {
          "name": "ipfsHash",
          "type": "bytes32"
        },
        {
          "name": "hash_function",
          "type": "uint8"
        },
        {
          "name": "size",
          "type": "uint8"
        }
      ],
      "payable": false,
      "stateMutability": "view",
      "type": "function",
      "signature": "0xd450fbc9"
    }
  ],
  "bytecode": "0x60806040526000600460006101000a81548160ff02191690831515021790555034801561002b57600080fd5b50336000806101000a81548173ffffffffffffffffffffffffffffffffffffffff021916908373ffffffffffffffffffffffffffffffffffffffff160217905550611dca8061007b6000396000f3fe608060405260043610610107576000357c0100000000000000000000000000000000000000000000000000000000900463ffffffff1680630473e2601461010c5780631148c9cf146101475780633f936ff5146101725780634bc07f121461019d578063522a33d91461022e578063609a49701461028c57806371135f8b146102c757806375f12b21146102de5780638e03165d1461030d5780638eee3134146103675780638f144ea2146103c057806397f90e641461045e578063b0892860146104c1578063b17acdcd146104f9578063d289ade214610534578063d450fbc91461056f578063dc54380c146105d8578063e15ee3d614610659578063e5253105146106a8575b600080fd5b34801561011857600080fd5b506101456004803603602081101561012f57600080fd5b81019080803590602001909291905050506106ed565b005b34801561015357600080fd5b5061015c6108f8565b6040518082815260200191505060405180910390f35b34801561017e57600080fd5b506101876108fe565b6040518082815260200191505060405180910390f35b61022c60048036036101008110156101b457600080fd5b8101908080359060200190929190803573ffffffffffffffffffffffffffffffffffffffff16906020019092919080359060200190929190803590602001909291908035906020019092919080359060200190929190803560ff169060200190929190803560ff169060200190929190505050610904565b005b34801561023a57600080fd5b506102676004803603602081101561025157600080fd5b8101908080359060200190929190505050610b51565b6040518083151515158152602001821515151581526020019250505060405180910390f35b34801561029857600080fd5b506102c5600480360360208110156102af57600080fd5b8101908080359060200190929190505050610bab565b005b3480156102d357600080fd5b506102dc610e6b565b005b3480156102ea57600080fd5b506102f3610f81565b604051808215151515815260200191505060405180910390f35b34801561031957600080fd5b506103466004803603602081101561033057600080fd5b8101908080359060200190929190505050610f94565b60405180838152602001821515151581526020019250505060405180910390f35b34801561037357600080fd5b506103aa6004803603604081101561038a57600080fd5b810190808035906020019092919080359060200190929190505050611133565b6040518082815260200191505060405180910390f35b3480156103cc57600080fd5b506103f9600480360360208110156103e357600080fd5b81019080803590602001909291905050506111f4565b604051808781526020018673ffffffffffffffffffffffffffffffffffffffff1673ffffffffffffffffffffffffffffffffffffffff168152602001858152602001848152602001838152602001828152602001965050505050505060405180910390f35b34801561046a57600080fd5b506104bf600480360360a081101561048157600080fd5b8101908080359060200190929190803590602001909291908035906020019092919080359060200190929190803590602001909291905050506112ce565b005b6104f7600480360360408110156104d757600080fd5b810190808035906020019092919080359060200190929190505050611474565b005b34801561050557600080fd5b506105326004803603602081101561051c57600080fd5b8101908080359060200190929190505050611642565b005b34801561054057600080fd5b5061056d6004803603602081101561055757600080fd5b8101908080359060200190929190505050611765565b005b34801561057b57600080fd5b506105a86004803603602081101561059257600080fd5b810190808035906020019092919050505061199c565b604051808481526020018360ff1660ff1681526020018260ff1660ff168152602001935050505060405180910390f35b3480156105e457600080fd5b50610631600480360360408110156105fb57600080fd5b8101908080359060200190929190803573ffffffffffffffffffffffffffffffffffffffff169060200190929190505050611a1f565b6040518084151515158152602001838152602001828152602001935050505060405180910390f35b34801561066557600080fd5b506106926004803603602081101561067c57600080fd5b8101908080359060200190929190505050611b43565b6040518082815260200191505060405180910390f35b3480156106b457600080fd5b506106eb600480360360408110156106cb57600080fd5b810190808035906020019092919080359060200190929190505050611bfb565b005b803360006106fa836111f4565b90919293945090919250909150905050809150503373ffffffffffffffffffffffffffffffffffffffff168173ffffffffffffffffffffffffffffffffffffffff161415156107b1576040517f08c379a00000000000000000000000000000000000000000000000000000000081526004018080602001828103825260208152602001807f4d6573736167652053656e64657220646f6573206e6f74206f776e2066756e6481525060200191505060405180910390fd5b600460009054906101000a900460ff1615151561085c576040517f08c379a00000000000000000000000000000000000000000000000000000000081526004018080602001828103825260278152602001807f456d657267656e63792053746174653a2056756c6e65726162696c697479204481526020017f657465637465640000000000000000000000000000000000000000000000000081525060400191505060405180910390fd5b600060016000016000868152602001908152602001600020600b0160006101000a81548160ff021916908315150217905550837fabcd9a323cc1e68fee9470acf60406543f894449f198aaf3b26897c793fd2ca633604051808273ffffffffffffffffffffffffffffffffffffffff1673ffffffffffffffffffffffffffffffffffffffff16815260200191505060405180910390a250505050565b60035481565b60025481565b600460009054906101000a900460ff161515156109af576040517f08c379a00000000000000000000000000000000000000000000000000000000081526004018080602001828103825260278152602001807f456d657267656e63792053746174653a2056756c6e65726162696c697479204481526020017f657465637465640000000000000000000000000000000000000000000000000081525060400191505060405180910390fd5b73__InitLib_______________________________633070cf2360016003548b8b8b8b8b8b8b8b6040518b63ffffffff167c0100000000000000000000000000000000000000000000000000000000028152600401808b81526020018a81526020018981526020018873ffffffffffffffffffffffffffffffffffffffff1673ffffffffffffffffffffffffffffffffffffffff1681526020018781526020018681526020018581526020018481526020018360ff1660ff1681526020018260ff1660ff1681526020019a505050505050505050505060006040518083038186803b158015610a9d57600080fd5b505af4158015610ab1573d6000803e3d6000fd5b505050506002600081548092919060010191905055506003600081548092919060010191905055506002547fc82935322ca212d902bc9f5d7749a3f6d77c1b65edc910fa76e4c71c557893638989604051808381526020018273ffffffffffffffffffffffffffffffffffffffff1673ffffffffffffffffffffffffffffffffffffffff1681526020019250505060405180910390a25050505050505050565b60008060016000016000848152602001908152602001600020600b0160009054906101000a900460ff1660016000016000858152602001908152602001600020600b0160019054906101000a900460ff1691509150915091565b80336000610bb8836111f4565b90919293945090919250909150905050809150503373ffffffffffffffffffffffffffffffffffffffff168173ffffffffffffffffffffffffffffffffffffffff16141515610c6f576040517f08c379a00000000000000000000000000000000000000000000000000000000081526004018080602001828103825260208152602001807f4d6573736167652053656e64657220646f6573206e6f74206f776e2066756e6481525060200191505060405180910390fd5b600460009054906101000a900460ff16151515610d1a576040517f08c379a00000000000000000000000000000000000000000000000000000000081526004018080602001828103825260278152602001807f456d657267656e63792053746174653a2056756c6e65726162696c697479204481526020017f657465637465640000000000000000000000000000000000000000000000000081525060400191505060405180910390fd5b60006001600001600086815260200190815260200160002060090160003373ffffffffffffffffffffffffffffffffffffffff1673ffffffffffffffffffffffffffffffffffffffff1681526020019081526020016000205490503373ffffffffffffffffffffffffffffffffffffffff166108fc829081150290604051600060405180830381858888f19350505050158015610dbb573d6000803e3d6000fd5b506001806000016000878152602001908152602001600020600b0160016101000a81548160ff02191690831515021790555060026000815480929190600190039190505550847fc645e26d39829041e2ab4544829d127df37295c8b86d8142c0f2b23f7bf7a0bb33604051808273ffffffffffffffffffffffffffffffffffffffff1673ffffffffffffffffffffffffffffffffffffffff16815260200191505060405180910390a25050505050565b6000809054906101000a900473ffffffffffffffffffffffffffffffffffffffff1673ffffffffffffffffffffffffffffffffffffffff163373ffffffffffffffffffffffffffffffffffffffff16141515610f55576040517f08c379a00000000000000000000000000000000000000000000000000000000081526004018080602001828103825260238152602001807f4d6573736167652053656e646572206973206e6f742061646d696e697374726181526020017f746f72000000000000000000000000000000000000000000000000000000000081525060400191505060405180910390fd5b600460009054906101000a900460ff1615600460006101000a81548160ff021916908315150217905550565b600460009054906101000a900460ff1681565b6000806000600160000160008581526020019081526020016000206006015490506000610fc361016d83611d74565b905073__PayFeeLib_____________________________6308e1bc1b600187846040518463ffffffff167c010000000000000000000000000000000000000000000000000000000002815260040180848152602001838152602001828152602001935050505060006040518083038186803b15801561104157600080fd5b505af4158015611055573d6000803e3d6000fd5b5050505060008073__PayFeeLib_____________________________639f79cb56600189866040518463ffffffff167c0100000000000000000000000000000000000000000000000000000000028152600401808481526020018381526020018281526020019350505050604080518083038186803b1580156110d757600080fd5b505af41580156110eb573d6000803e3d6000fd5b505050506040513d604081101561110157600080fd5b810190808051906020019092919080519060200190929190505050809250819350505081819550955050505050915091565b600073__OrderLib______________________________63cf3ebe5d600185856040518463ffffffff167c010000000000000000000000000000000000000000000000000000000002815260040180848152602001838152602001828152602001935050505060206040518083038186803b1580156111b157600080fd5b505af41580156111c5573d6000803e3d6000fd5b505050506040513d60208110156111db57600080fd5b8101908080519060200190929190505050905092915050565b60008060008060008060016000016000888152602001908152602001600020600101546001600001600089815260200190815260200160002060020160009054906101000a900473ffffffffffffffffffffffffffffffffffffffff16600160000160008a815260200190815260200160002060030154600160000160008b815260200190815260200160002060040154600160000160008c815260200190815260200160002060050154600160000160008d81526020019081526020016000206006015495509550955095509550955091939550919395565b600460009054906101000a900460ff16151515611379576040517f08c379a00000000000000000000000000000000000000000000000000000000081526004018080602001828103825260278152602001807f456d657267656e63792053746174653a2056756c6e65726162696c697479204481526020017f657465637465640000000000000000000000000000000000000000000000000081525060400191505060405180910390fd5b73__OrderLib______________________________638a03547e6001878786866040518663ffffffff167c0100000000000000000000000000000000000000000000000000000000028152600401808681526020018581526020018481526020018381526020018281526020019550505050505060006040518083038186803b15801561140557600080fd5b505af4158015611419573d6000803e3d6000fd5b50505050847f85322d03fb8f4402a5c3587e0fe70baa47437cb0d0c3422a1499e151bd3bd030858585856040518085815260200184815260200183815260200182815260200194505050505060405180910390a25050505050565b600460009054906101000a900460ff1615151561151f576040517f08c379a00000000000000000000000000000000000000000000000000000000081526004018080602001828103825260278152602001807f456d657267656e63792053746174653a2056756c6e65726162696c697479204481526020017f657465637465640000000000000000000000000000000000000000000000000081525060400191505060405180910390fd5b73__InvestLib_____________________________637ce7feb16001848433346040518663ffffffff167c0100000000000000000000000000000000000000000000000000000000028152600401808681526020018581526020018481526020018373ffffffffffffffffffffffffffffffffffffffff1673ffffffffffffffffffffffffffffffffffffffff1681526020018281526020019550505050505060006040518083038186803b1580156115d757600080fd5b505af41580156115eb573d6000803e3d6000fd5b505050503373ffffffffffffffffffffffffffffffffffffffff16827f643fc0b743f4f346ffdb759bfb92448864902674a3c483edc83c37e717991eef836040518082815260200191505060405180910390a35050565b600073__CollectFeesLib________________________63ce9e5ee5600184336040518463ffffffff167c0100000000000000000000000000000000000000000000000000000000028152600401808481526020018381526020018273ffffffffffffffffffffffffffffffffffffffff1673ffffffffffffffffffffffffffffffffffffffff168152602001935050505060206040518083038186803b1580156116ec57600080fd5b505af4158015611700573d6000803e3d6000fd5b505050506040513d602081101561171657600080fd5b81019080805190602001909291905050509050817f49d512bf9cb224241c05691e73eb9fab078cf350c7dbcbcf66788f1fc0cc8b0b826040518082815260200191505060405180910390a25050565b600460009054906101000a900460ff16151515611810576040517f08c379a00000000000000000000000000000000000000000000000000000000081526004018080602001828103825260278152602001807f456d657267656e63792053746174653a2056756c6e65726162696c697479204481526020017f657465637465640000000000000000000000000000000000000000000000000081525060400191505060405180910390fd5b600060016000016000838152602001908152602001600020600601549050600061183c61016d83611d74565b905073__PayFeeLib_____________________________6308e1bc1b600185846040518463ffffffff167c010000000000000000000000000000000000000000000000000000000002815260040180848152602001838152602001828152602001935050505060006040518083038186803b1580156118ba57600080fd5b505af41580156118ce573d6000803e3d6000fd5b50505050600061194561193f6001600001600087815260200190815260200160002060080160003373ffffffffffffffffffffffffffffffffffffffff1673ffffffffffffffffffffffffffffffffffffffff1681526020019081526020016000205461193a87611b43565b611d74565b83611d74565b90503373ffffffffffffffffffffffffffffffffffffffff16847f8c93f5c871494af23fcf8187e4048fa7349f98ab5aa3ac95d12df81e75d93475836040518082815260200191505060405180910390a350505050565b600080600060016000016000858152602001908152602001600020600c016000015460016000016000868152602001908152602001600020600c0160010160009054906101000a900460ff1660016000016000878152602001908152602001600020600c0160010160019054906101000a900460ff169250925092509193909250565b60008060006001600001600086815260200190815260200160002060070160008573ffffffffffffffffffffffffffffffffffffffff1673ffffffffffffffffffffffffffffffffffffffff16815260200190815260200160002060009054906101000a900460ff166001600001600087815260200190815260200160002060080160008673ffffffffffffffffffffffffffffffffffffffff1673ffffffffffffffffffffffffffffffffffffffff168152602001908152602001600020546001600001600088815260200190815260200160002060090160008773ffffffffffffffffffffffffffffffffffffffff1673ffffffffffffffffffffffffffffffffffffffff168152602001908152602001600020549250925092509250925092565b600073__Misc__________________________________63a55d26f86001846040518363ffffffff167c0100000000000000000000000000000000000000000000000000000000028152600401808381526020018281526020019250505060206040518083038186803b158015611bb957600080fd5b505af4158015611bcd573d6000803e3d6000fd5b505050506040513d6020811015611be357600080fd5b81019080805190602001909291905050509050919050565b60008073__WithdrawFundsLib______________________635f03d52460018633876040518563ffffffff167c0100000000000000000000000000000000000000000000000000000000028152600401808581526020018481526020018373ffffffffffffffffffffffffffffffffffffffff1673ffffffffffffffffffffffffffffffffffffffff168152602001828152602001945050505050604080518083038186803b158015611cad57600080fd5b505af4158015611cc1573d6000803e3d6000fd5b505050506040513d6040811015611cd757600080fd5b8101908080519060200190929190805190602001909291905050508092508193505050837f3dbb1a26f29aef1264c12ca1285deb60cca5666d8b17100c7ea1602c0a4014f6338484604051808473ffffffffffffffffffffffffffffffffffffffff1673ffffffffffffffffffffffffffffffffffffffff168152602001838152602001828152602001935050505060405180910390a250505050565b60008082111515611d8457600080fd5b60008284811515611d9157fe5b049050809150509291505056fea165627a7a723058208dbe785f23472d4dec57f5bc3daf3a2719e6fea790dbbb4d352a3bdc2c9ad8ac0029",
  "source": "pragma solidity ^0.5.0;\n\nimport \"../contracts/StructLib.sol\";\nimport \"../contracts/InitLib.sol\";\nimport \"../contracts/InvestLib.sol\";\nimport \"../contracts/Misc.sol\";\nimport \"../contracts/PayFeeLib.sol\";\nimport \"../contracts/CollectFeesLib.sol\";\nimport \"../contracts/WithdrawFundsLib.sol\";\nimport \"../contracts/OrderLib.sol\";\nimport \"../node_modules/openzeppelin-solidity/contracts/math/SafeMath.sol\";\n\n/** @title Fund Marketplace\n  * @author Bryan Herbert\n  * @notice Executes functionality for Mimic dApp \n  */\ncontract FundMarketplace {\n    //State Variables\n    //Administrator of contract, can call setStopped()\n    address internal admin;\n    //Data struct that stores information about the funds\n    StructLib.Data funds;\n    //Active Fund Count\n    uint public fundCount;\n    //Total funds to have existed during lifetime of contract \n    uint public lifetimeCount;\n    //Circuit breaker variable\n    bool public stopped = false;\n\n    //Events\n\n    /**@dev Event that emits that a fund has been created */\n    event FundCreated(\n        uint indexed fundNum,\n        bytes32 name,\n        address fundOwner\n    );\n\n    /**@dev Event that emits that an investment has been made */\n    event Investment(\n        uint indexed fundNum,\n        address indexed investor,\n        uint investment\n    );\n    \n    /**@dev Event that emits when the state has changed and fees have been credited from an investor's account */\n    event FeesPaid(\n        uint indexed fundNum,\n        address indexed investor,\n        uint fee\n    );\n\n    /**@dev Events that emits when that the manager has collected fees */\n    event FeesCollected(\n        uint indexed fundNum,\n        uint fee\n    );\n\n    /**@dev Event that emits when an investor has withdrawn capital from a fund */\n    event FundsWithdrawn(\n        uint indexed fundNum,\n        address investor,\n        uint investment,\n        uint fees\n    );\n\n    /**@dev Event that emits when a manager has placed an order for the fund */\n    event OrderPlaced(\n        uint indexed fundNum,\n        bytes32 action,\n        bytes32 ticker,\n        uint qty,\n        uint price\n    );\n\n    /**@dev Event that emits a manager has closed a fund */\n    event FundClosed(\n        uint indexed fundNum,\n        address manager\n    );\n\n    /**@dev Event that emits when a manager ends a fundraising period */\n    event FundraisingOver(\n        uint indexed fundNum,\n        address manager\n    );\n\n    /**@dev Constructor for the contract\n      *@dev sets the admin variable equal to the address that initialized the contract\n     */\n    constructor() public {\n        admin = msg.sender;\n    }\n\n    //Modifiers\n\n    /**@dev Modifier that checks if msg.sender is the owner of the fund\n      *@param _fundNum Fund Number\n      *@param _account Parameter for msg.sender\n     */\n    modifier isOwner(uint _fundNum, address _account){\n        address fundOwner;\n        (,fundOwner,,,,) = getFundDetails(_fundNum);\n        require(\n            fundOwner == msg.sender,\n            \"Message Sender does not own fund\"\n        );\n        _;\n    }\n\n    /**@dev Modifier that checks if the msg.sender is the admin\n     */\n    modifier isAdmin () {\n        require(\n            msg.sender == admin,\n            \"Message Sender is not administrator\"\n        );\n        _;\n    }\n\n    /**@dev Modifier that checks if the circuit breaker bool is false\n     */\n    modifier stopInEmergency () {\n        require(\n            !stopped,\n            \"Emergency State: Vulnerability Detected\"\n        );\n        _;\n    }\n\n    /**@dev Toggles the stopped state variable\n     */\n    function setStopped ()\n    public \n    isAdmin()\n    {\n        stopped = !stopped;\n    }\n    \n    /**@dev Initializes a fund with the given arguments and stores it in a Fund Struct within a Data Struct\n      *@param _name Fund name\n      *@param _fundOwner Fund owner\n      *@param _investment Initial investment committed\n      *@param _feeRate Annual fee rate\n      *@param _paymentCycle Payment Cycle (in days)\n      *@param _ipfsHash Digest of ipfs hash\n      *@param _hash_function Hash function of ipfs hash\n      *@param _size size of ipfs hash\n      *@dev uses stopInEmergency() modifier\n      *@dev lifetimeCount is used in InitLib.initializeFund because current implementation makes it difficult to delete and replace fund data\n     */\n    function initializeFund(bytes32 _name, \n    address _fundOwner, \n    uint _investment, \n    uint _feeRate, \n    uint _paymentCycle,\n    bytes32 _ipfsHash,\n    uint8 _hash_function,\n    uint8 _size) \n    external payable \n    stopInEmergency()\n    {\n        InitLib.initializeFund(funds, \n        lifetimeCount, \n        _name, \n        _fundOwner, \n        _investment, \n        _feeRate,\n        _paymentCycle,\n        _ipfsHash,\n        _hash_function,\n        _size);\n        fundCount++;\n        lifetimeCount++;\n        emit FundCreated(fundCount, _name, _fundOwner);\n    }\n\n    /**@dev Allows an investor to commit an amount of virtual capital to the fund\n      *@dev Also takes care of fee payment up front\n      *@param _fundNum Fund number\n      *@param _investment Virtual capital committed\n      *@dev Uses stopInEmergency() modifier\n     */\n    function Invest(uint _fundNum, \n    uint _investment) \n    external payable \n    stopInEmergency() \n    {\n        InvestLib.Invest(funds, _fundNum, _investment, msg.sender, msg.value);\n        emit Investment(_fundNum, msg.sender, _investment);\n    }\n\n    /**@dev Takes order information and passes it to OrderLib.placeOrder() for error checking\n      *@param _fundNum Fund number\n      *@param _action Type of order: buy or sell\n      *@param _ticker String representation of stock ticker\n      *@param _qty Quantity of shares\n      *@param _price Price per share in wei\n      *@dev Uses stopInEmergency modifier\n      *@dev Emits OrderPlaced event\n     */\n    function placeOrder(uint _fundNum, \n    bytes32 _action, \n    bytes32 _ticker, \n    uint _qty, \n    uint _price)\n    external \n    stopInEmergency()\n    {\n        OrderLib.placeOrder(funds, _fundNum, _action, _qty, _price);\n        emit OrderPlaced(_fundNum, _action, _ticker, _qty, _price);\n    }\n\n    /**@dev Calculates the quantity of shares for an investor's order\n      *@param _fundNum Fund number\n      *@param _qty Quantity of shares\n      *@return uint Number of shares\n     */\n    function calcQty(uint _fundNum, uint _qty) \n    external view\n    returns (uint) {\n        return OrderLib.calcQty(funds, _fundNum, _qty);\n    }\n\n    /**@dev Passes arguments to checkFeeRate() in Misc.sol\n      *@param _fundNum Fund Number\n      *@return uint Fee Rate\n     */\n    function checkFeeRate(uint _fundNum) public view returns (uint) {\n        return Misc.checkFeeRate(funds, _fundNum);\n    }\n\n    /**@dev One-time pay fee function\n      *@param _fundNum Fund number\n      *@dev Uses stopInEmergency modifier\n     */\n    function payFee(uint _fundNum) \n    external\n    stopInEmergency()\n    {\n        uint paymentCycle = funds.list[_fundNum].paymentCycle;\n        //Payment periods equal 1 year / number of days in cycle\n        uint _timePeriod = SafeMath.div(365,paymentCycle);\n        PayFeeLib.payFee(funds, _fundNum, _timePeriod);\n        uint payment = SafeMath.div(SafeMath.div(funds.list[_fundNum].virtualBalances[msg.sender], checkFeeRate(_fundNum)), _timePeriod);\n        emit FeesPaid (_fundNum, msg.sender, payment);\n    }\n\n    /**@dev Checks whether a payment is due and how much\n      *@param  _fundNun Fund number\n      *@return payment uint that returns the payment due\n      *@return paymentDue bool that represents whether a payment is due\n     */\n    function checkFee(uint _fundNum) external returns (uint, bool) {\n        uint paymentCycle = funds.list[_fundNum].paymentCycle;\n        //Payment periods equal 1 year / number of days in cycle\n        uint _timePeriod = SafeMath.div(365,paymentCycle);\n        PayFeeLib.payFee(funds, _fundNum, _timePeriod);\n        uint payment;\n        bool paymentDue;\n        (payment, paymentDue) = PayFeeLib.checkFee(funds, _fundNum, _timePeriod);\n        return (payment, paymentDue);\n    }\n\n    /**@dev Owner of fund collects fees from smart contract\n      *@param _fundNum FundNumber\n     */\n    function collectFees(uint _fundNum) \n    external\n    {\n        uint fees = CollectFeesLib.collectFees(funds, _fundNum, msg.sender);\n        emit FeesCollected(_fundNum, fees);\n    }\n\n    /**@dev Allows an investor to withdraw virtual balance and unearned fees\n      *@param _fundNum Fund Number\n      *@param _amound Amount to be withdrawn\n     */\n    function withdrawFunds(uint _fundNum, uint _amount) \n    public \n    {\n        uint investment;\n        uint fees;\n        (investment, fees) = WithdrawFundsLib.withdrawFunds(funds, _fundNum, msg.sender, _amount);\n        emit FundsWithdrawn(_fundNum, msg.sender, investment, fees);\n    }\n\n    /**@dev Allows manager to shut down a fund's operations\n      *@param  _fundNum Fund Number\n      *@dev Uses isOwner() and stopInEmergency modifiers\n     */\n    function closeFund(uint _fundNum) public\n    isOwner(_fundNum, msg.sender)\n    stopInEmergency()\n    {\n        uint refund = funds.list[_fundNum].fees[msg.sender];\n        msg.sender.transfer(refund);\n        funds.list[_fundNum].closed = true;\n        fundCount--;\n        emit FundClosed(_fundNum, msg.sender);\n    }\n\n    /**@dev Allows manager to end the fundraising period\n      *@param _fundNum Fund number\n      *@dev Uses isOwner() and stopinEmergency() modifiers\n     */\n    function endFundraising(uint _fundNum) \n    public\n    isOwner(_fundNum, msg.sender)\n    stopInEmergency()\n    {\n        funds.list[_fundNum].fundraising = false;\n        emit FundraisingOver(_fundNum, msg.sender);\n    }\n    \n    /**@dev Get non-user specific fund Information\n      *@param _fundNum Fund number\n      *@return bytes32 Fund name\n      *@return address Fund owner\n      *@return uint Total Capital\n      *@return uint Capital Deployed\n      *@return uint Fee Rate\n      *@return uint Payment Cycle\n     */\n    function getFundDetails(uint _fundNum) public view \n    returns (bytes32, \n    address, \n    uint, \n    uint, \n    uint, \n    uint){\n        return (funds.list[_fundNum].name, \n        funds.list[_fundNum].fundOwner, \n        funds.list[_fundNum].totalCapital,\n        funds.list[_fundNum].capitalDeployed,\n        funds.list[_fundNum].feeRate,\n        funds.list[_fundNum].paymentCycle);\n    }\n\n    /**@dev Get user specific fund information\n      *@param _fundNum Fund number\n      *@param _addr Address of interest\n      *@return bool Investor Status\n      *@return uint Virtual balance\n      *@return uint Fees in Escrow\n     */\n    function getFundDetails2(uint _fundNum, address _addr) \n    public view \n    returns (bool, \n    uint, \n    uint){\n        return(funds.list[_fundNum].investors[_addr], \n        funds.list[_fundNum].virtualBalances[_addr],\n        funds.list[_fundNum].fees[_addr]);\n    }\n\n    function checkFundStatus(uint _fundNum) external view returns (bool, bool){\n        return(funds.list[_fundNum].fundraising,\n        funds.list[_fundNum].closed\n        );\n    }\n\n    /** @dev Returns the members of the Multihash struct\n      * @param _fundNum Fund Number\n      * @return ipfsHash 32-byte hexadecimal representation of ipfsHash digest\n      * @return hash_function type of hash_function used for encoding\n      * @return size of the length of the digest\n      */\n    function getIpfsHash (uint _fundNum) public view returns (bytes32 ipfsHash, uint8 hash_function, uint8 size){\n        return(funds.list[_fundNum].investHash.ipfsHash,\n        funds.list[_fundNum].investHash.hash_function,\n        funds.list[_fundNum].investHash.size\n        );\n    }\n}",
  "sourcePath": "/home/bryan/final-project-bryanherbert/contracts/FundMarketplace.sol",
  "compiler": {
    "name": "solc",
    "version": "0.5.0+commit.1d4f565a.Emscripten.clang"
  },
  "schemaVersion": "3.0.1",
  "updatedAt": "2019-01-28T11:18:26.857Z",
  "devdoc": {
    "author": "Bryan Herbert",
    "methods": {
      "Invest(uint256,uint256)": {
        "details": "Allows an investor to commit an amount of virtual capital to the fund dev Also takes care of fee payment up front param _fundNum Fund number param _investment Virtual capital committed dev Uses stopInEmergency() modifier"
      },
      "calcQty(uint256,uint256)": {
        "details": "Calculates the quantity of shares for an investor's order param _fundNum Fund number param _qty Quantity of shares return uint Number of shares"
      },
      "checkFee(uint256)": {
        "details": "Checks whether a payment is due and how much param  _fundNun Fund number return payment uint that returns the payment due return paymentDue bool that represents whether a payment is due"
      },
      "checkFeeRate(uint256)": {
        "details": "Passes arguments to checkFeeRate() in Misc.sol param _fundNum Fund Number return uint Fee Rate"
      },
      "closeFund(uint256)": {
        "details": "Allows manager to shut down a fund's operations param  _fundNum Fund Number dev Uses isOwner() and stopInEmergency modifiers"
      },
      "collectFees(uint256)": {
        "details": "Owner of fund collects fees from smart contract param _fundNum FundNumber"
      },
      "constructor": {
        "details": "Constructor for the contract dev sets the admin variable equal to the address that initialized the contract"
      },
      "endFundraising(uint256)": {
        "details": "Allows manager to end the fundraising period param _fundNum Fund number dev Uses isOwner() and stopinEmergency() modifiers"
      },
      "getFundDetails(uint256)": {
        "details": "Get non-user specific fund Information param _fundNum Fund number return bytes32 Fund name return address Fund owner return uint Total Capital return uint Capital Deployed return uint Fee Rate return uint Payment Cycle"
      },
      "getFundDetails2(uint256,address)": {
        "details": "Get user specific fund information param _fundNum Fund number param _addr Address of interest return bool Investor Status return uint Virtual balance return uint Fees in Escrow"
      },
      "getIpfsHash(uint256)": {
        "details": "Returns the members of the Multihash struct",
        "params": {
          "_fundNum": "Fund Number"
        },
        "return": "ipfsHash 32-byte hexadecimal representation of ipfsHash digesthash_function type of hash_function used for encodingsize of the length of the digest"
      },
      "initializeFund(bytes32,address,uint256,uint256,uint256,bytes32,uint8,uint8)": {
        "details": "Initializes a fund with the given arguments and stores it in a Fund Struct within a Data Struct param _name Fund name param _fundOwner Fund owner param _investment Initial investment committed param _feeRate Annual fee rate param _paymentCycle Payment Cycle (in days) param _ipfsHash Digest of ipfs hash param _hash_function Hash function of ipfs hash param _size size of ipfs hash dev uses stopInEmergency() modifier dev lifetimeCount is used in InitLib.initializeFund because current implementation makes it difficult to delete and replace fund data"
      },
      "payFee(uint256)": {
        "details": "One-time pay fee function param _fundNum Fund number dev Uses stopInEmergency modifier"
      },
      "placeOrder(uint256,bytes32,bytes32,uint256,uint256)": {
        "details": "Takes order information and passes it to OrderLib.placeOrder() for error checking param _fundNum Fund number param _action Type of order: buy or sell param _ticker String representation of stock ticker param _qty Quantity of shares param _price Price per share in wei dev Uses stopInEmergency modifier dev Emits OrderPlaced event"
      },
      "setStopped()": {
        "details": "Toggles the stopped state variable"
      },
      "withdrawFunds(uint256,uint256)": {
        "details": "Allows an investor to withdraw virtual balance and unearned fees param _fundNum Fund Number param _amound Amount to be withdrawn"
      }
    },
    "title": "Fund Marketplace"
  },
  "userdoc": {
    "methods": {},
    "notice": "Executes functionality for Mimic dApp "
  }
}