{
  "contractName": "FundMarketplace",
  "abi": [
    {
      "constant": true,
      "inputs": [],
      "name": "lifetimeCount",
      "outputs": [
        {
          "name": "",
          "type": "uint256"
        }
      ],
      "payable": false,
      "stateMutability": "view",
      "type": "function"
    },
    {
      "constant": true,
      "inputs": [],
      "name": "fundCount",
      "outputs": [
        {
          "name": "",
          "type": "uint256"
        }
      ],
      "payable": false,
      "stateMutability": "view",
      "type": "function"
    },
    {
      "constant": true,
      "inputs": [],
      "name": "stopped",
      "outputs": [
        {
          "name": "",
          "type": "bool"
        }
      ],
      "payable": false,
      "stateMutability": "view",
      "type": "function"
    },
    {
      "inputs": [],
      "payable": false,
      "stateMutability": "nonpayable",
      "type": "constructor"
    },
    {
      "anonymous": false,
      "inputs": [
        {
          "indexed": true,
          "name": "fundNum",
          "type": "uint256"
        },
        {
          "indexed": false,
          "name": "name",
          "type": "bytes32"
        },
        {
          "indexed": false,
          "name": "fundOwner",
          "type": "address"
        }
      ],
      "name": "FundCreated",
      "type": "event"
    },
    {
      "anonymous": false,
      "inputs": [
        {
          "indexed": true,
          "name": "fundNum",
          "type": "uint256"
        },
        {
          "indexed": true,
          "name": "investor",
          "type": "address"
        },
        {
          "indexed": false,
          "name": "investment",
          "type": "uint256"
        }
      ],
      "name": "Investment",
      "type": "event"
    },
    {
      "anonymous": false,
      "inputs": [
        {
          "indexed": true,
          "name": "fundNum",
          "type": "uint256"
        },
        {
          "indexed": true,
          "name": "investor",
          "type": "address"
        },
        {
          "indexed": false,
          "name": "fee",
          "type": "uint256"
        }
      ],
      "name": "FeesPaid",
      "type": "event"
    },
    {
      "anonymous": false,
      "inputs": [
        {
          "indexed": true,
          "name": "fundNum",
          "type": "uint256"
        },
        {
          "indexed": false,
          "name": "fee",
          "type": "uint256"
        }
      ],
      "name": "FeesCollected",
      "type": "event"
    },
    {
      "anonymous": false,
      "inputs": [
        {
          "indexed": true,
          "name": "fundNum",
          "type": "uint256"
        },
        {
          "indexed": false,
          "name": "investor",
          "type": "address"
        },
        {
          "indexed": false,
          "name": "investment",
          "type": "uint256"
        },
        {
          "indexed": false,
          "name": "fees",
          "type": "uint256"
        }
      ],
      "name": "FundsWithdrawn",
      "type": "event"
    },
    {
      "anonymous": false,
      "inputs": [
        {
          "indexed": true,
          "name": "fundNum",
          "type": "uint256"
        },
        {
          "indexed": false,
          "name": "action",
          "type": "bytes32"
        },
        {
          "indexed": false,
          "name": "ticker",
          "type": "bytes32"
        },
        {
          "indexed": false,
          "name": "qty",
          "type": "uint256"
        },
        {
          "indexed": false,
          "name": "price",
          "type": "uint256"
        }
      ],
      "name": "OrderPlaced",
      "type": "event"
    },
    {
      "anonymous": false,
      "inputs": [
        {
          "indexed": true,
          "name": "fundNum",
          "type": "uint256"
        },
        {
          "indexed": false,
          "name": "manager",
          "type": "address"
        }
      ],
      "name": "FundClosed",
      "type": "event"
    },
    {
      "anonymous": false,
      "inputs": [
        {
          "indexed": true,
          "name": "fundNum",
          "type": "uint256"
        },
        {
          "indexed": false,
          "name": "manager",
          "type": "address"
        }
      ],
      "name": "FundraisingOver",
      "type": "event"
    },
    {
      "constant": false,
      "inputs": [],
      "name": "setStopped",
      "outputs": [],
      "payable": false,
      "stateMutability": "nonpayable",
      "type": "function"
    },
    {
      "constant": false,
      "inputs": [
        {
          "name": "_name",
          "type": "bytes32"
        },
        {
          "name": "_fundOwner",
          "type": "address"
        },
        {
          "name": "_investment",
          "type": "uint256"
        },
        {
          "name": "_feeRate",
          "type": "uint256"
        },
        {
          "name": "_paymentCycle",
          "type": "uint256"
        }
      ],
      "name": "initializeFund",
      "outputs": [],
      "payable": true,
      "stateMutability": "payable",
      "type": "function"
    },
    {
      "constant": false,
      "inputs": [
        {
          "name": "_fundNum",
          "type": "uint256"
        },
        {
          "name": "_investment",
          "type": "uint256"
        }
      ],
      "name": "Invest",
      "outputs": [],
      "payable": true,
      "stateMutability": "payable",
      "type": "function"
    },
    {
      "constant": false,
      "inputs": [
        {
          "name": "_fundNum",
          "type": "uint256"
        },
        {
          "name": "_action",
          "type": "bytes32"
        },
        {
          "name": "_ticker",
          "type": "bytes32"
        },
        {
          "name": "_qty",
          "type": "uint256"
        },
        {
          "name": "_price",
          "type": "uint256"
        }
      ],
      "name": "placeOrder",
      "outputs": [],
      "payable": false,
      "stateMutability": "nonpayable",
      "type": "function"
    },
    {
      "constant": true,
      "inputs": [
        {
          "name": "_fundNum",
          "type": "uint256"
        },
        {
          "name": "_qty",
          "type": "uint256"
        }
      ],
      "name": "calcQty",
      "outputs": [
        {
          "name": "",
          "type": "uint256"
        }
      ],
      "payable": false,
      "stateMutability": "view",
      "type": "function"
    },
    {
      "constant": true,
      "inputs": [
        {
          "name": "_fundNum",
          "type": "uint256"
        }
      ],
      "name": "checkFeeRate",
      "outputs": [
        {
          "name": "",
          "type": "uint256"
        }
      ],
      "payable": false,
      "stateMutability": "view",
      "type": "function"
    },
    {
      "constant": false,
      "inputs": [
        {
          "name": "_fundNum",
          "type": "uint256"
        },
        {
          "name": "_timePeriod",
          "type": "uint256"
        }
      ],
      "name": "payFee",
      "outputs": [],
      "payable": false,
      "stateMutability": "nonpayable",
      "type": "function"
    },
    {
      "constant": true,
      "inputs": [
        {
          "name": "_fundNum",
          "type": "uint256"
        },
        {
          "name": "_timePeriod",
          "type": "uint256"
        }
      ],
      "name": "checkFee",
      "outputs": [
        {
          "name": "",
          "type": "uint256"
        },
        {
          "name": "",
          "type": "bool"
        }
      ],
      "payable": false,
      "stateMutability": "view",
      "type": "function"
    },
    {
      "constant": false,
      "inputs": [
        {
          "name": "_fundNum",
          "type": "uint256"
        }
      ],
      "name": "collectFees",
      "outputs": [],
      "payable": false,
      "stateMutability": "nonpayable",
      "type": "function"
    },
    {
      "constant": false,
      "inputs": [
        {
          "name": "_fundNum",
          "type": "uint256"
        },
        {
          "name": "_amount",
          "type": "uint256"
        }
      ],
      "name": "withdrawFunds",
      "outputs": [],
      "payable": false,
      "stateMutability": "nonpayable",
      "type": "function"
    },
    {
      "constant": false,
      "inputs": [
        {
          "name": "_fundNum",
          "type": "uint256"
        }
      ],
      "name": "closeFund",
      "outputs": [],
      "payable": false,
      "stateMutability": "nonpayable",
      "type": "function"
    },
    {
      "constant": false,
      "inputs": [
        {
          "name": "_fundNum",
          "type": "uint256"
        }
      ],
      "name": "endFundraising",
      "outputs": [],
      "payable": false,
      "stateMutability": "nonpayable",
      "type": "function"
    },
    {
      "constant": true,
      "inputs": [
        {
          "name": "_fundNum",
          "type": "uint256"
        }
      ],
      "name": "getFundDetails",
      "outputs": [
        {
          "name": "",
          "type": "bytes32"
        },
        {
          "name": "",
          "type": "address"
        },
        {
          "name": "",
          "type": "uint256"
        },
        {
          "name": "",
          "type": "uint256"
        },
        {
          "name": "",
          "type": "uint256"
        },
        {
          "name": "",
          "type": "uint256"
        }
      ],
      "payable": false,
      "stateMutability": "view",
      "type": "function"
    },
    {
      "constant": true,
      "inputs": [
        {
          "name": "_fundNum",
          "type": "uint256"
        },
        {
          "name": "_addr",
          "type": "address"
        }
      ],
      "name": "getFundDetails2",
      "outputs": [
        {
          "name": "",
          "type": "bool"
        },
        {
          "name": "",
          "type": "uint256"
        },
        {
          "name": "",
          "type": "uint256"
        }
      ],
      "payable": false,
      "stateMutability": "view",
      "type": "function"
    },
    {
      "constant": true,
      "inputs": [
        {
          "name": "_fundNum",
          "type": "uint256"
        }
      ],
      "name": "checkFundStatus",
      "outputs": [
        {
          "name": "",
          "type": "bool"
        },
        {
          "name": "",
          "type": "bool"
        }
      ],
      "payable": false,
      "stateMutability": "view",
      "type": "function"
    }
  ],
  "bytecode": "0x60806040526000600460006101000a81548160ff02191690831515021790555034801561002b57600080fd5b50336000806101000a81548173ffffffffffffffffffffffffffffffffffffffff021916908373ffffffffffffffffffffffffffffffffffffffff160217905550611c558061007b6000396000f3fe6080604052600436106100fc576000357c0100000000000000000000000000000000000000000000000000000000900463ffffffff1680630473e260146101015780631148c9cf1461013c5780631858f8d314610167578063316e1531146101ac5780633f936ff514610218578063522a33d914610243578063609a4970146102a157806371135f8b146102dc57806375f12b21146102f35780638eee3134146103225780638f144ea21461037b57806397f90e6414610419578063b08928601461047c578063b17acdcd146104b4578063dc54380c146104ef578063ddbf5c8f14610570578063e15ee3d6146105d4578063e525310514610623575b600080fd5b34801561010d57600080fd5b5061013a6004803603602081101561012457600080fd5b8101908080359060200190929190505050610668565b005b34801561014857600080fd5b50610151610873565b6040518082815260200191505060405180910390f35b34801561017357600080fd5b506101aa6004803603604081101561018a57600080fd5b810190808035906020019092919080359060200190929190505050610879565b005b610216600480360360a08110156101c257600080fd5b8101908080359060200190929190803573ffffffffffffffffffffffffffffffffffffffff169060200190929190803590602001909291908035906020019092919080359060200190929190505050610a81565b005b34801561022457600080fd5b5061022d610ca7565b6040518082815260200191505060405180910390f35b34801561024f57600080fd5b5061027c6004803603602081101561026657600080fd5b8101908080359060200190929190505050610cad565b6040518083151515158152602001821515151581526020019250505060405180910390f35b3480156102ad57600080fd5b506102da600480360360208110156102c457600080fd5b8101908080359060200190929190505050610d07565b005b3480156102e857600080fd5b506102f1610fc7565b005b3480156102ff57600080fd5b506103086110dd565b604051808215151515815260200191505060405180910390f35b34801561032e57600080fd5b506103656004803603604081101561034557600080fd5b8101908080359060200190929190803590602001909291905050506110f0565b6040518082815260200191505060405180910390f35b34801561038757600080fd5b506103b46004803603602081101561039e57600080fd5b81019080803590602001909291905050506111b1565b604051808781526020018673ffffffffffffffffffffffffffffffffffffffff1673ffffffffffffffffffffffffffffffffffffffff168152602001858152602001848152602001838152602001828152602001965050505050505060405180910390f35b34801561042557600080fd5b5061047a600480360360a081101561043c57600080fd5b81019080803590602001909291908035906020019092919080359060200190929190803590602001909291908035906020019092919050505061128b565b005b6104b26004803603604081101561049257600080fd5b810190808035906020019092919080359060200190929190505050611431565b005b3480156104c057600080fd5b506104ed600480360360208110156104d757600080fd5b81019080803590602001909291905050506115ff565b005b3480156104fb57600080fd5b506105486004803603604081101561051257600080fd5b8101908080359060200190929190803573ffffffffffffffffffffffffffffffffffffffff1690602001909291905050506117cd565b6040518084151515158152602001838152602001828152602001935050505060405180910390f35b34801561057c57600080fd5b506105b36004803603604081101561059357600080fd5b8101908080359060200190929190803590602001909291905050506118f1565b60405180838152602001821515151581526020019250505060405180910390f35b3480156105e057600080fd5b5061060d600480360360208110156105f757600080fd5b81019080803590602001909291905050506119ce565b6040518082815260200191505060405180910390f35b34801561062f57600080fd5b506106666004803603604081101561064657600080fd5b810190808035906020019092919080359060200190929190505050611a86565b005b80336000610675836111b1565b90919293945090919250909150905050809150503373ffffffffffffffffffffffffffffffffffffffff168173ffffffffffffffffffffffffffffffffffffffff1614151561072c576040517f08c379a00000000000000000000000000000000000000000000000000000000081526004018080602001828103825260208152602001807f4d6573736167652053656e64657220646f6573206e6f74206f776e2066756e6481525060200191505060405180910390fd5b600460009054906101000a900460ff161515156107d7576040517f08c379a00000000000000000000000000000000000000000000000000000000081526004018080602001828103825260278152602001807f456d657267656e63792053746174653a2056756c6e65726162696c697479204481526020017f657465637465640000000000000000000000000000000000000000000000000081525060400191505060405180910390fd5b600060016000016000868152602001908152602001600020600b0160006101000a81548160ff021916908315150217905550837fabcd9a323cc1e68fee9470acf60406543f894449f198aaf3b26897c793fd2ca633604051808273ffffffffffffffffffffffffffffffffffffffff1673ffffffffffffffffffffffffffffffffffffffff16815260200191505060405180910390a250505050565b60035481565b600460009054906101000a900460ff16151515610924576040517f08c379a00000000000000000000000000000000000000000000000000000000081526004018080602001828103825260278152602001807f456d657267656e63792053746174653a2056756c6e65726162696c697479204481526020017f657465637465640000000000000000000000000000000000000000000000000081525060400191505060405180910390fd5b73__PayFeeLib_____________________________6308e1bc1b600184846040518463ffffffff167c010000000000000000000000000000000000000000000000000000000002815260040180848152602001838152602001828152602001935050505060006040518083038186803b1580156109a057600080fd5b505af41580156109b4573d6000803e3d6000fd5b505050506000610a2b610a256001600001600086815260200190815260200160002060080160003373ffffffffffffffffffffffffffffffffffffffff1673ffffffffffffffffffffffffffffffffffffffff16815260200190815260200160002054610a20866119ce565b611bff565b83611bff565b90503373ffffffffffffffffffffffffffffffffffffffff16837f8c93f5c871494af23fcf8187e4048fa7349f98ab5aa3ac95d12df81e75d93475836040518082815260200191505060405180910390a3505050565b600460009054906101000a900460ff16151515610b2c576040517f08c379a00000000000000000000000000000000000000000000000000000000081526004018080602001828103825260278152602001807f456d657267656e63792053746174653a2056756c6e65726162696c697479204481526020017f657465637465640000000000000000000000000000000000000000000000000081525060400191505060405180910390fd5b73__InitLib_______________________________63b13c380c600160035488888888886040518863ffffffff167c0100000000000000000000000000000000000000000000000000000000028152600401808881526020018781526020018681526020018573ffffffffffffffffffffffffffffffffffffffff1673ffffffffffffffffffffffffffffffffffffffff16815260200184815260200183815260200182815260200197505050505050505060006040518083038186803b158015610bf657600080fd5b505af4158015610c0a573d6000803e3d6000fd5b505050506002600081548092919060010191905055506003600081548092919060010191905055506002547fc82935322ca212d902bc9f5d7749a3f6d77c1b65edc910fa76e4c71c557893638686604051808381526020018273ffffffffffffffffffffffffffffffffffffffff1673ffffffffffffffffffffffffffffffffffffffff1681526020019250505060405180910390a25050505050565b60025481565b60008060016000016000848152602001908152602001600020600b0160009054906101000a900460ff1660016000016000858152602001908152602001600020600b0160019054906101000a900460ff1691509150915091565b80336000610d14836111b1565b90919293945090919250909150905050809150503373ffffffffffffffffffffffffffffffffffffffff168173ffffffffffffffffffffffffffffffffffffffff16141515610dcb576040517f08c379a00000000000000000000000000000000000000000000000000000000081526004018080602001828103825260208152602001807f4d6573736167652053656e64657220646f6573206e6f74206f776e2066756e6481525060200191505060405180910390fd5b600460009054906101000a900460ff16151515610e76576040517f08c379a00000000000000000000000000000000000000000000000000000000081526004018080602001828103825260278152602001807f456d657267656e63792053746174653a2056756c6e65726162696c697479204481526020017f657465637465640000000000000000000000000000000000000000000000000081525060400191505060405180910390fd5b60006001600001600086815260200190815260200160002060090160003373ffffffffffffffffffffffffffffffffffffffff1673ffffffffffffffffffffffffffffffffffffffff1681526020019081526020016000205490503373ffffffffffffffffffffffffffffffffffffffff166108fc829081150290604051600060405180830381858888f19350505050158015610f17573d6000803e3d6000fd5b506001806000016000878152602001908152602001600020600b0160016101000a81548160ff02191690831515021790555060026000815480929190600190039190505550847fc645e26d39829041e2ab4544829d127df37295c8b86d8142c0f2b23f7bf7a0bb33604051808273ffffffffffffffffffffffffffffffffffffffff1673ffffffffffffffffffffffffffffffffffffffff16815260200191505060405180910390a25050505050565b6000809054906101000a900473ffffffffffffffffffffffffffffffffffffffff1673ffffffffffffffffffffffffffffffffffffffff163373ffffffffffffffffffffffffffffffffffffffff161415156110b1576040517f08c379a00000000000000000000000000000000000000000000000000000000081526004018080602001828103825260238152602001807f4d6573736167652053656e646572206973206e6f742061646d696e697374726181526020017f746f72000000000000000000000000000000000000000000000000000000000081525060400191505060405180910390fd5b600460009054906101000a900460ff1615600460006101000a81548160ff021916908315150217905550565b600460009054906101000a900460ff1681565b600073__OrderLib______________________________63cf3ebe5d600185856040518463ffffffff167c010000000000000000000000000000000000000000000000000000000002815260040180848152602001838152602001828152602001935050505060206040518083038186803b15801561116e57600080fd5b505af4158015611182573d6000803e3d6000fd5b505050506040513d602081101561119857600080fd5b8101908080519060200190929190505050905092915050565b60008060008060008060016000016000888152602001908152602001600020600101546001600001600089815260200190815260200160002060020160009054906101000a900473ffffffffffffffffffffffffffffffffffffffff16600160000160008a815260200190815260200160002060030154600160000160008b815260200190815260200160002060040154600160000160008c815260200190815260200160002060050154600160000160008d81526020019081526020016000206006015495509550955095509550955091939550919395565b600460009054906101000a900460ff16151515611336576040517f08c379a00000000000000000000000000000000000000000000000000000000081526004018080602001828103825260278152602001807f456d657267656e63792053746174653a2056756c6e65726162696c697479204481526020017f657465637465640000000000000000000000000000000000000000000000000081525060400191505060405180910390fd5b73__OrderLib______________________________638a03547e6001878786866040518663ffffffff167c0100000000000000000000000000000000000000000000000000000000028152600401808681526020018581526020018481526020018381526020018281526020019550505050505060006040518083038186803b1580156113c257600080fd5b505af41580156113d6573d6000803e3d6000fd5b50505050847f85322d03fb8f4402a5c3587e0fe70baa47437cb0d0c3422a1499e151bd3bd030858585856040518085815260200184815260200183815260200182815260200194505050505060405180910390a25050505050565b600460009054906101000a900460ff161515156114dc576040517f08c379a00000000000000000000000000000000000000000000000000000000081526004018080602001828103825260278152602001807f456d657267656e63792053746174653a2056756c6e65726162696c697479204481526020017f657465637465640000000000000000000000000000000000000000000000000081525060400191505060405180910390fd5b73__InvestLib_____________________________637ce7feb16001848433346040518663ffffffff167c0100000000000000000000000000000000000000000000000000000000028152600401808681526020018581526020018481526020018373ffffffffffffffffffffffffffffffffffffffff1673ffffffffffffffffffffffffffffffffffffffff1681526020018281526020019550505050505060006040518083038186803b15801561159457600080fd5b505af41580156115a8573d6000803e3d6000fd5b505050503373ffffffffffffffffffffffffffffffffffffffff16827f643fc0b743f4f346ffdb759bfb92448864902674a3c483edc83c37e717991eef836040518082815260200191505060405180910390a35050565b600460009054906101000a900460ff161515156116aa576040517f08c379a00000000000000000000000000000000000000000000000000000000081526004018080602001828103825260278152602001807f456d657267656e63792053746174653a2056756c6e65726162696c697479204481526020017f657465637465640000000000000000000000000000000000000000000000000081525060400191505060405180910390fd5b600073__CollectFeesLib________________________63ce9e5ee5600184336040518463ffffffff167c0100000000000000000000000000000000000000000000000000000000028152600401808481526020018381526020018273ffffffffffffffffffffffffffffffffffffffff1673ffffffffffffffffffffffffffffffffffffffff168152602001935050505060206040518083038186803b15801561175457600080fd5b505af4158015611768573d6000803e3d6000fd5b505050506040513d602081101561177e57600080fd5b81019080805190602001909291905050509050817f49d512bf9cb224241c05691e73eb9fab078cf350c7dbcbcf66788f1fc0cc8b0b826040518082815260200191505060405180910390a25050565b60008060006001600001600086815260200190815260200160002060070160008573ffffffffffffffffffffffffffffffffffffffff1673ffffffffffffffffffffffffffffffffffffffff16815260200190815260200160002060009054906101000a900460ff166001600001600087815260200190815260200160002060080160008673ffffffffffffffffffffffffffffffffffffffff1673ffffffffffffffffffffffffffffffffffffffff168152602001908152602001600020546001600001600088815260200190815260200160002060090160008773ffffffffffffffffffffffffffffffffffffffff1673ffffffffffffffffffffffffffffffffffffffff168152602001908152602001600020549250925092509250925092565b60008060008073__PayFeeLib_____________________________639f79cb56600188886040518463ffffffff167c0100000000000000000000000000000000000000000000000000000000028152600401808481526020018381526020018281526020019350505050604080518083038186803b15801561197257600080fd5b505af4158015611986573d6000803e3d6000fd5b505050506040513d604081101561199c57600080fd5b810190808051906020019092919080519060200190929190505050809250819350505081819350935050509250929050565b600073__Misc__________________________________63a55d26f86001846040518363ffffffff167c0100000000000000000000000000000000000000000000000000000000028152600401808381526020018281526020019250505060206040518083038186803b158015611a4457600080fd5b505af4158015611a58573d6000803e3d6000fd5b505050506040513d6020811015611a6e57600080fd5b81019080805190602001909291905050509050919050565b60008073__WithdrawFundsLib______________________635f03d52460018633876040518563ffffffff167c0100000000000000000000000000000000000000000000000000000000028152600401808581526020018481526020018373ffffffffffffffffffffffffffffffffffffffff1673ffffffffffffffffffffffffffffffffffffffff168152602001828152602001945050505050604080518083038186803b158015611b3857600080fd5b505af4158015611b4c573d6000803e3d6000fd5b505050506040513d6040811015611b6257600080fd5b8101908080519060200190929190805190602001909291905050508092508193505050837f3dbb1a26f29aef1264c12ca1285deb60cca5666d8b17100c7ea1602c0a4014f6338484604051808473ffffffffffffffffffffffffffffffffffffffff1673ffffffffffffffffffffffffffffffffffffffff168152602001838152602001828152602001935050505060405180910390a250505050565b60008082111515611c0f57600080fd5b60008284811515611c1c57fe5b049050809150509291505056fea165627a7a72305820250a27ea99e6bed8a83592da31108793a5d13290ba110a8214713ade5865e7510029",
  "source": "pragma solidity ^0.5.0;\n\nimport \"../contracts/StructLib.sol\";\nimport \"../contracts/InitLib.sol\";\nimport \"../contracts/InvestLib.sol\";\nimport \"../contracts/Misc.sol\";\nimport \"../contracts/PayFeeLib.sol\";\nimport \"../contracts/CollectFeesLib.sol\";\nimport \"../contracts/WithdrawFundsLib.sol\";\nimport \"../contracts/OrderLib.sol\";\nimport \"../node_modules/openzeppelin-solidity/contracts/math/SafeMath.sol\";\n\ncontract FundMarketplace {\n    //State Variables\n    address internal admin;\n    StructLib.Data funds;\n    uint public fundCount;\n    uint public lifetimeCount;\n    bool public stopped = false;\n\n    //Events\n    event FundCreated(\n        uint indexed fundNum,\n        bytes32 name,\n        //have to think about how to search for value vs. how to see it\n        //Probably can still index name, just can't check for it in JS\n        //bytes32 name,\n        address fundOwner\n    );\n\n    event Investment(\n        uint indexed fundNum,\n        address indexed investor,\n        // uint fundNum,\n        // address investor,\n        uint investment\n    );\n    \n    event FeesPaid(\n        uint indexed fundNum,\n        address indexed investor,\n        // uint fundNum,\n        // address investor,\n        uint fee\n    );\n\n    event FeesCollected(\n        uint indexed fundNum,\n        uint fee\n    );\n\n    event FundsWithdrawn(\n        //uint fundNum,,\n        uint indexed fundNum,\n        address investor,\n        uint investment,\n        uint fees\n    );\n\n    event OrderPlaced(\n        uint indexed fundNum,\n        bytes32 action,\n        bytes32 ticker,\n        uint qty,\n        uint price\n    );\n\n    event FundClosed(\n        uint indexed fundNum,\n        address manager\n    );\n\n    event FundraisingOver(\n        uint indexed fundNum,\n        address manager\n    );\n\n    constructor() public {\n        admin = msg.sender;\n    }\n\n    //Modifiers\n\n    //Can replace this with ethpm code\n    modifier isOwner(uint _fundNum, address _account){\n        address fundOwner;\n        (,fundOwner,,,,) = getFundDetails(_fundNum);\n        require(\n            fundOwner == msg.sender,\n            \"Message Sender does not own fund\"\n        );\n        _;\n    }\n\n    modifier isAdmin () {\n        require(\n            msg.sender == admin,\n            \"Message Sender is not administrator\"\n        );\n        _;\n    }\n\n    modifier stopInEmergency () {\n        require(\n            !stopped,\n            \"Emergency State: Vulnerability Detected\"\n        );\n        _;\n    }\n\n    function setStopped ()\n    public \n    isAdmin()\n    {\n        stopped = !stopped;\n    }\n\n    function initializeFund(bytes32 _name, address _fundOwner, uint _investment, uint _feeRate, uint _paymentCycle) \n    external payable \n    stopInEmergency()\n    {\n        //Changed fundCount to lifetimeCount in arguments\n        InitLib.initializeFund(funds, lifetimeCount, _name, _fundOwner, _investment, _feeRate, _paymentCycle);\n        //Increment fundCount\n        fundCount++;\n        lifetimeCount++;\n        emit FundCreated(fundCount, _name, _fundOwner);\n    }\n\n    //Make investment into particular fund\n    //Must have required funds\n    function Invest(uint _fundNum, uint _investment) \n    external payable \n    stopInEmergency() \n    {\n        InvestLib.Invest(funds, _fundNum, _investment, msg.sender, msg.value);\n        emit Investment(_fundNum, msg.sender, _investment);\n    }\n\n    //Place order for a trade\n    //Not sure what calldata is exactly for _action\n    function placeOrder(uint _fundNum, bytes32 _action, bytes32 _ticker, uint _qty, uint _price)\n    external \n    stopInEmergency()\n    {\n        OrderLib.placeOrder(funds, _fundNum, _action, _qty, _price);\n        emit OrderPlaced(_fundNum, _action, _ticker, _qty, _price);\n    }\n\n    //Calculate quantity of shares to buy based on investor's % of fund\n    //Could we have investor directly access this\n    function calcQty(uint _fundNum, uint _qty) \n    external view\n    returns (uint) {\n        return OrderLib.calcQty(funds, _fundNum, _qty);\n    }\n\n    //check Fee Rate - read operation from struct\n    //was originally \"public view\" when not in library\n    function checkFeeRate(uint _fundNum) public view returns (uint) {\n        return Misc.checkFeeRate(funds, _fundNum);\n    }\n\n    //One-time pay fee function\n    function payFee(uint _fundNum, uint _timePeriod) \n    external\n    stopInEmergency()\n    {\n        PayFeeLib.payFee(funds, _fundNum, _timePeriod);\n        uint payment = SafeMath.div(SafeMath.div(funds.list[_fundNum].virtualBalances[msg.sender], checkFeeRate(_fundNum)), _timePeriod);\n        emit FeesPaid (_fundNum, msg.sender, payment);\n    }\n\n    //Check whether a fee is due and how much\n    function checkFee(uint _fundNum, uint _timePeriod) external view returns (uint, bool) {\n        uint payment;\n        bool paymentDue;\n        (payment, paymentDue) = PayFeeLib.checkFee(funds, _fundNum, _timePeriod);\n        return (payment, paymentDue);\n    }\n\n    //Owner of Strategy Collects Fees\n    function collectFees(uint _fundNum) \n    external\n    stopInEmergency()\n    //isOwner(_name)\n    {\n        uint fees = CollectFeesLib.collectFees(funds, _fundNum, msg.sender);\n        emit FeesCollected(_fundNum, fees);\n    }\n\n    function withdrawFunds(uint _fundNum, uint _amount) \n    public\n    //verifyInvestmentStatus(_name) \n    {\n        //Need to make sure this matches up with withdraw philosophy\n        uint investment;\n        uint fees;\n        (investment, fees) = WithdrawFundsLib.withdrawFunds(funds, _fundNum, msg.sender, _amount);\n        emit FundsWithdrawn(_fundNum, msg.sender, investment, fees);\n    }\n\n    function closeFund(uint _fundNum) public\n    isOwner(_fundNum, msg.sender)\n    stopInEmergency()\n    {\n        //Have to work out business logic better for this button\n        //Transfer uncollected fees to manager\n        uint refund = funds.list[_fundNum].fees[msg.sender];\n        msg.sender.transfer(refund);\n        //Set fund to closed\n        funds.list[_fundNum].closed = true;\n        //Adjust numbering of other funds\n        fundCount--;\n        emit FundClosed(_fundNum, msg.sender);\n    }\n\n    function endFundraising(uint _fundNum) \n    public\n    isOwner(_fundNum, msg.sender)\n    stopInEmergency()\n    {\n        funds.list[_fundNum].fundraising = false;\n        emit FundraisingOver(_fundNum, msg.sender);\n    }\n\n    //Get fund information (for testing/verification purposes)\n    \n    function getFundDetails(uint _fundNum) public view returns (bytes32, address, uint, uint, uint, uint){\n        return (funds.list[_fundNum].name, \n        funds.list[_fundNum].fundOwner, \n        funds.list[_fundNum].totalCapital,\n        funds.list[_fundNum].capitalDeployed,\n        funds.list[_fundNum].feeRate,\n        funds.list[_fundNum].paymentCycle);\n    }\n\n    //need two functions because of stack height\n    function getFundDetails2(uint _fundNum, address _addr) public view returns (bool, uint, uint){\n        return(funds.list[_fundNum].investors[_addr], \n        funds.list[_fundNum].virtualBalances[_addr],\n        funds.list[_fundNum].fees[_addr]);\n    }\n\n    function checkFundStatus(uint _fundNum) external view returns (bool, bool){\n        return(funds.list[_fundNum].fundraising,\n        funds.list[_fundNum].closed\n        );\n    }\n}",
  "sourcePath": "/home/bryan/final-project-bryanherbert/contracts/FundMarketplace.sol",
  "compiler": {
    "name": "solc",
    "version": "0.5.0+commit.1d4f565a.Emscripten.clang"
  },
  "schemaVersion": "3.0.1",
  "updatedAt": "2019-01-27T04:44:41.944Z",
  "devdoc": {
    "methods": {}
  },
  "userdoc": {
    "methods": {}
  }
}