{
  "contractName": "FundMarketplace",
  "abi": [
    {
      "inputs": [],
      "payable": false,
      "stateMutability": "nonpayable",
      "type": "constructor"
    },
    {
      "anonymous": false,
      "inputs": [
        {
          "indexed": false,
          "name": "name",
          "type": "bytes32"
        },
        {
          "indexed": false,
          "name": "fundCount",
          "type": "uint256"
        },
        {
          "indexed": false,
          "name": "fundOwner",
          "type": "address"
        }
      ],
      "name": "FundCreated",
      "type": "event"
    },
    {
      "anonymous": false,
      "inputs": [
        {
          "indexed": false,
          "name": "name",
          "type": "bytes32"
        },
        {
          "indexed": false,
          "name": "investor",
          "type": "address"
        },
        {
          "indexed": false,
          "name": "investment",
          "type": "uint256"
        }
      ],
      "name": "Investment",
      "type": "event"
    },
    {
      "anonymous": false,
      "inputs": [
        {
          "indexed": false,
          "name": "name",
          "type": "bytes32"
        },
        {
          "indexed": false,
          "name": "investor",
          "type": "address"
        },
        {
          "indexed": false,
          "name": "fee",
          "type": "uint256"
        }
      ],
      "name": "FeesPaid",
      "type": "event"
    },
    {
      "anonymous": false,
      "inputs": [
        {
          "indexed": false,
          "name": "name",
          "type": "bytes32"
        },
        {
          "indexed": false,
          "name": "fee",
          "type": "uint256"
        }
      ],
      "name": "FeesCollected",
      "type": "event"
    },
    {
      "anonymous": false,
      "inputs": [
        {
          "indexed": false,
          "name": "name",
          "type": "bytes32"
        },
        {
          "indexed": false,
          "name": "investor",
          "type": "address"
        },
        {
          "indexed": false,
          "name": "investment",
          "type": "uint256"
        },
        {
          "indexed": false,
          "name": "fees",
          "type": "uint256"
        }
      ],
      "name": "FundsWithdrawn",
      "type": "event"
    },
    {
      "constant": false,
      "inputs": [
        {
          "name": "_name",
          "type": "bytes32"
        },
        {
          "name": "_fundOwner",
          "type": "address"
        },
        {
          "name": "_investment",
          "type": "uint256"
        },
        {
          "name": "_feeRate",
          "type": "uint256"
        },
        {
          "name": "_paymentCycle",
          "type": "uint256"
        }
      ],
      "name": "initializeFund",
      "outputs": [],
      "payable": true,
      "stateMutability": "payable",
      "type": "function"
    },
    {
      "constant": true,
      "inputs": [
        {
          "name": "_name",
          "type": "bytes32"
        },
        {
          "name": "_investor",
          "type": "address"
        }
      ],
      "name": "isInvestor",
      "outputs": [
        {
          "name": "",
          "type": "bool"
        }
      ],
      "payable": false,
      "stateMutability": "view",
      "type": "function"
    },
    {
      "constant": false,
      "inputs": [
        {
          "name": "_name",
          "type": "bytes32"
        },
        {
          "name": "_investment",
          "type": "uint256"
        }
      ],
      "name": "Invest",
      "outputs": [],
      "payable": true,
      "stateMutability": "payable",
      "type": "function"
    },
    {
      "constant": true,
      "inputs": [
        {
          "name": "_name",
          "type": "bytes32"
        }
      ],
      "name": "checkFeeRate",
      "outputs": [
        {
          "name": "",
          "type": "uint256"
        }
      ],
      "payable": false,
      "stateMutability": "view",
      "type": "function"
    },
    {
      "constant": false,
      "inputs": [
        {
          "name": "_name",
          "type": "bytes32"
        },
        {
          "name": "_timePeriod",
          "type": "uint256"
        }
      ],
      "name": "payFee",
      "outputs": [],
      "payable": false,
      "stateMutability": "nonpayable",
      "type": "function"
    },
    {
      "constant": true,
      "inputs": [
        {
          "name": "_name",
          "type": "bytes32"
        },
        {
          "name": "_investor",
          "type": "address"
        }
      ],
      "name": "checkPaymentCycleStart",
      "outputs": [
        {
          "name": "",
          "type": "uint256"
        }
      ],
      "payable": false,
      "stateMutability": "view",
      "type": "function"
    },
    {
      "constant": false,
      "inputs": [
        {
          "name": "_name",
          "type": "bytes32"
        }
      ],
      "name": "collectFees",
      "outputs": [],
      "payable": false,
      "stateMutability": "nonpayable",
      "type": "function"
    },
    {
      "constant": false,
      "inputs": [
        {
          "name": "_name",
          "type": "bytes32"
        }
      ],
      "name": "withdrawFunds",
      "outputs": [],
      "payable": false,
      "stateMutability": "nonpayable",
      "type": "function"
    },
    {
      "constant": true,
      "inputs": [
        {
          "name": "_name",
          "type": "bytes32"
        }
      ],
      "name": "getFundDetails",
      "outputs": [
        {
          "name": "",
          "type": "bytes32"
        },
        {
          "name": "",
          "type": "address"
        },
        {
          "name": "",
          "type": "uint256"
        },
        {
          "name": "",
          "type": "uint256"
        }
      ],
      "payable": false,
      "stateMutability": "view",
      "type": "function"
    },
    {
      "constant": true,
      "inputs": [
        {
          "name": "_name",
          "type": "bytes32"
        },
        {
          "name": "_addr",
          "type": "address"
        }
      ],
      "name": "getFundDetails2",
      "outputs": [
        {
          "name": "",
          "type": "uint256"
        },
        {
          "name": "",
          "type": "bool"
        },
        {
          "name": "",
          "type": "uint256"
        },
        {
          "name": "",
          "type": "uint256"
        }
      ],
      "payable": false,
      "stateMutability": "view",
      "type": "function"
    }
  ],
  "bytecode": "0x608060405234801561001057600080fd5b50336000806101000a81548173ffffffffffffffffffffffffffffffffffffffff021916908373ffffffffffffffffffffffffffffffffffffffff160217905550611566806100606000396000f3006080604052600436106100a4576000357c0100000000000000000000000000000000000000000000000000000000900463ffffffff168063316e1531146100a9578063628a0a871461010b5780636ca0b5c8146101895780636e2b54ee146101f2578063817db73b1461022357806381bb2b2014610254578063a73651741461028f578063b893565d1461031d578063cfe9b4e714610382578063fb0c50e0146103c7575b600080fd5b6101096004803603810190808035600019169060200190929190803573ffffffffffffffffffffffffffffffffffffffff1690602001909291908035906020019092919080359060200190929190803590602001909291905050506103f5565b005b34801561011757600080fd5b5061015a6004803603810190808035600019169060200190929190803573ffffffffffffffffffffffffffffffffffffffff16906020019092919050505061056b565b604051808581526020018415151515815260200183815260200182815260200194505050505060405180910390f35b34801561019557600080fd5b506101d86004803603810190808035600019169060200190929190803573ffffffffffffffffffffffffffffffffffffffff1690602001909291905050506106ce565b604051808215151515815260200191505060405180910390f35b3480156101fe57600080fd5b5061022160048036038101908080356000191690602001909291905050506106f0565b005b34801561022f57600080fd5b50610252600480360381019080803560001916906020019092919050505061078f565b005b34801561026057600080fd5b5061028d6004803603810190808035600019169060200190929190803590602001909291905050506107ea565b005b34801561029b57600080fd5b506102be60048036038101908080356000191690602001909291905050506108f7565b6040518085600019166000191681526020018473ffffffffffffffffffffffffffffffffffffffff1673ffffffffffffffffffffffffffffffffffffffff16815260200183815260200182815260200194505050505060405180910390f35b34801561032957600080fd5b5061036c6004803603810190808035600019169060200190929190803573ffffffffffffffffffffffffffffffffffffffff1690602001909291905050506109b4565b6040518082815260200191505060405180910390f35b34801561038e57600080fd5b506103b16004803603810190808035600019169060200190929190505050610a1d565b6040518082815260200191505060405180910390f35b6103f3600480360381019080803560001916906020019092919080359060200190929190505050610a31565b005b73__InitLib_______________________________63e92b8cfe600187878787876040518763ffffffff167c01000000000000000000000000000000000000000000000000000000000281526004018087815260200186600019166000191681526020018573ffffffffffffffffffffffffffffffffffffffff1673ffffffffffffffffffffffffffffffffffffffff168152602001848152602001838152602001828152602001965050505050505060006040518083038186803b1580156104bd57600080fd5b505af41580156104d1573d6000803e3d6000fd5b505050506002600081548092919060010191905055507f1936274dd5f17a14226bac98f04da5d53136534654cd5e659d4f20b2fa09a85e85600254866040518084600019166000191681526020018381526020018273ffffffffffffffffffffffffffffffffffffffff1673ffffffffffffffffffffffffffffffffffffffff168152602001935050505060405180910390a15050505050565b6000806000806001600001600087600019166000191681526020019081526020016000206004015460016000016000886000191660001916815260200190815260200160002060050160008773ffffffffffffffffffffffffffffffffffffffff1673ffffffffffffffffffffffffffffffffffffffff16815260200190815260200160002060009054906101000a900460ff1660016000016000896000191660001916815260200190815260200160002060060160008873ffffffffffffffffffffffffffffffffffffffff1673ffffffffffffffffffffffffffffffffffffffff16815260200190815260200160002054600160000160008a6000191660001916815260200190815260200160002060070160008973ffffffffffffffffffffffffffffffffffffffff1673ffffffffffffffffffffffffffffffffffffffff16815260200190815260200160002054935093509350935092959194509250565b6000806106db848461056b565b90919250905050809150508091505092915050565b6000806106ff60018433610b88565b80925081935050507f37daaf23d820d50582a4a4cd7248e83c1dfb8d1369a837254b34c62378139017833384846040518085600019166000191681526020018473ffffffffffffffffffffffffffffffffffffffff1673ffffffffffffffffffffffffffffffffffffffff16815260200183815260200182815260200194505050505060405180910390a1505050565b600061079d60018333610e0f565b90507f381ff38e2fec0d64b5d6f95156decdb3e229ef47c184126bbb5511a7bf32cf1082826040518083600019166000191681526020018281526020019250505060405180910390a15050565b60006107f860018484610f27565b8161080284610a1d565b60016000016000866000191660001916815260200190815260200160002060060160003373ffffffffffffffffffffffffffffffffffffffff1673ffffffffffffffffffffffffffffffffffffffff1681526020019081526020016000205481151561086a57fe5b0481151561087457fe5b0490507fcdaf268fff4093ca2f3a0c5457f2a78a56c4da37c292d3a66a9d8e645d2b78018333836040518084600019166000191681526020018373ffffffffffffffffffffffffffffffffffffffff1673ffffffffffffffffffffffffffffffffffffffff168152602001828152602001935050505060405180910390a1505050565b6000806000806001600001600086600019166000191681526020019081526020016000206000015460016000016000876000191660001916815260200190815260200160002060010160009054906101000a900473ffffffffffffffffffffffffffffffffffffffff16600160000160008860001916600019168152602001908152602001600020600201546001600001600089600019166000191681526020019081526020016000206003015493509350935093509193509193565b600060016000016000846000191660001916815260200190815260200160002060080160008373ffffffffffffffffffffffffffffffffffffffff1673ffffffffffffffffffffffffffffffffffffffff16815260200190815260200160002054905092915050565b6000610a2a600183611503565b9050919050565b73__InvestLib_____________________________6358c1d3b06001848433346040518663ffffffff167c01000000000000000000000000000000000000000000000000000000000281526004018086815260200185600019166000191681526020018481526020018373ffffffffffffffffffffffffffffffffffffffff1673ffffffffffffffffffffffffffffffffffffffff1681526020018281526020019550505050505060006040518083038186803b158015610af157600080fd5b505af4158015610b05573d6000803e3d6000fd5b505050507f2b158127221737cd431395104f48aa6534ed782d1c9c8b2ac852d925c0c1e9c18233836040518084600019166000191681526020018373ffffffffffffffffffffffffffffffffffffffff1673ffffffffffffffffffffffffffffffffffffffff168152602001828152602001935050505060405180910390a15050565b600080600080866000016000876000191660001916815260200190815260200160002060060160008673ffffffffffffffffffffffffffffffffffffffff1673ffffffffffffffffffffffffffffffffffffffff168152602001908152602001600020549150866000016000876000191660001916815260200190815260200160002060070160008673ffffffffffffffffffffffffffffffffffffffff1673ffffffffffffffffffffffffffffffffffffffff168152602001908152602001600020549050818760000160008860001916600019168152602001908152602001600020600201600082825403925050819055506000876000016000886000191660001916815260200190815260200160002060060160008773ffffffffffffffffffffffffffffffffffffffff1673ffffffffffffffffffffffffffffffffffffffff168152602001908152602001600020819055508473ffffffffffffffffffffffffffffffffffffffff166108fc829081150290604051600060405180830381858888f19350505050158015610d25573d6000803e3d6000fd5b506000876000016000886000191660001916815260200190815260200160002060070160008773ffffffffffffffffffffffffffffffffffffffff1673ffffffffffffffffffffffffffffffffffffffff168152602001908152602001600020819055506000876000016000886000191660001916815260200190815260200160002060050160008773ffffffffffffffffffffffffffffffffffffffff1673ffffffffffffffffffffffffffffffffffffffff16815260200190815260200160002060006101000a81548160ff0219169083151502179055508181935093505050935093915050565b600080846000016000856000191660001916815260200190815260200160002060070160008473ffffffffffffffffffffffffffffffffffffffff1673ffffffffffffffffffffffffffffffffffffffff1681526020019081526020016000205490506000856000016000866000191660001916815260200190815260200160002060070160008573ffffffffffffffffffffffffffffffffffffffff1673ffffffffffffffffffffffffffffffffffffffff168152602001908152602001600020819055508273ffffffffffffffffffffffffffffffffffffffff166108fc829081150290604051600060405180830381858888f19350505050158015610f1b573d6000803e3d6000fd5b50809150509392505050565b600080848460011515826000016000836000191660001916815260200190815260200160002060050160003373ffffffffffffffffffffffffffffffffffffffff1673ffffffffffffffffffffffffffffffffffffffff16815260200190815260200160002060009054906101000a900460ff161515141515611038576040517f08c379a00000000000000000000000000000000000000000000000000000000081526004018080602001828103825260218152602001807f4d6573736167652053656e646572206973206e6f7420616e20696e766573746f81526020017f720000000000000000000000000000000000000000000000000000000000000081525060400191505060405180910390fd5b868686806110468484611503565b846000016000856000191660001916815260200190815260200160002060060160003373ffffffffffffffffffffffffffffffffffffffff1673ffffffffffffffffffffffffffffffffffffffff168152602001908152602001600020548115156110ad57fe5b048115156110b757fe5b04836000016000846000191660001916815260200190815260200160002060070160003373ffffffffffffffffffffffffffffffffffffffff1673ffffffffffffffffffffffffffffffffffffffff168152602001908152602001600020541115156111d7576040517f08c379a000000000000000000000000000000000000000000000000000000000815260040180806020018281038252604c8152602001807f4665652062616c616e636520697320696e73756666696369656e7420746f206d81526020017f616b65207061796d656e74206f72207061796d656e74206379636c652069732081526020017f6e6f7420636f6d706c657465000000000000000000000000000000000000000081525060600191505060405180910390fd5b89896201518082600001600083600019166000191681526020019081526020016000206004015402826000016000836000191660001916815260200190815260200160002060080160003373ffffffffffffffffffffffffffffffffffffffff1673ffffffffffffffffffffffffffffffffffffffff168152602001908152602001600020540142101515156112fb576040517f08c379a00000000000000000000000000000000000000000000000000000000081526004018080602001828103825260218152602001807f4379636c65206973206e6f7420636f6d706c6574652c206e6f2066656520647581526020017f650000000000000000000000000000000000000000000000000000000000000081525060400191505060405180910390fd5b896113068d8d611503565b8d60000160008e6000191660001916815260200190815260200160002060060160003373ffffffffffffffffffffffffffffffffffffffff1673ffffffffffffffffffffffffffffffffffffffff1681526020019081526020016000205481151561136d57fe5b0481151561137757fe5b0498508b60000160008c6000191660001916815260200190815260200160002060010160009054906101000a900473ffffffffffffffffffffffffffffffffffffffff169750888c60000160008d6000191660001916815260200190815260200160002060070160003373ffffffffffffffffffffffffffffffffffffffff1673ffffffffffffffffffffffffffffffffffffffff16815260200190815260200160002060008282540392505081905550888c60000160008d6000191660001916815260200190815260200160002060070160008a73ffffffffffffffffffffffffffffffffffffffff1673ffffffffffffffffffffffffffffffffffffffff16815260200190815260200160002060008282540192505081905550428c60000160008d6000191660001916815260200190815260200160002060080160003373ffffffffffffffffffffffffffffffffffffffff1673ffffffffffffffffffffffffffffffffffffffff16815260200190815260200160002081905550505050505050505050505050565b6000826000016000836000191660001916815260200190815260200160002060030154606481151561153157fe5b049050929150505600a165627a7a72305820794fa4de1c4426585dec60aa02ee68735c6ea28187214cd9179d57b7419da3480029",
  "source": "pragma solidity ^0.4.24;\n\nimport \"../contracts/StructLib.sol\";\nimport \"../contracts/InitLib.sol\";\nimport \"../contracts/InvestLib.sol\";\n\nlibrary PayFeeLib {\n    //Modifiers\n    modifier verifyInvestmentStatus(StructLib.Data storage self, bytes32 _name){\n        //check that msg.sender is an investor\n        require(\n            //isInvestor(_name, msg.sender) == true,\n            self.list[_name].investors[msg.sender] == true,\n            \"Message Sender is not an investor\"\n        );\n        _;\n    }\n\n    modifier checkFeePayment(StructLib.Data storage self, bytes32 _name, uint _timePeriod) {\n        //uint virtualBalance = self.list[_name].virtualBalances[msg.sender];\n        //uint fees = self.list[_name].fees[msg.sender];\n        //Get investor's virtual balance and fees deposited\n        //(,,virtualBalance,fees) = getFundDetails2(_name, msg.sender);\n        //uint payment = (self.list[_name].virtualBalances[msg.sender]/checkFeeRate(self, _name))/_timePeriod;\n        require(\n            //Check that msg.sender has enough in fees to make payment installment\n            self.list[_name].fees[msg.sender] > (self.list[_name].virtualBalances[msg.sender]/Misc.checkFeeRate(self, _name))/_timePeriod,\n            \"Fee balance is insufficient to make payment or payment cycle is not complete\"\n        );\n        _;\n    }\n\n    modifier cycleComplete(StructLib.Data storage self, bytes32 _name){\n        //uint paymentCycleStart = self.list[_name].paymentCycleStart[msg.sender];\n        //uint paymentCycle = self.list[_name].paymentCycle;\n        require(\n            now >= self.list[_name].paymentCycleStart[msg.sender] + self.list[_name].paymentCycle * 1 days,\n            \"Cycle is not complete, no fee due\"\n        );\n        _;\n    }\n\n    function payFee(StructLib.Data storage self, bytes32 _name, uint _timePeriod) \n    internal\n    verifyInvestmentStatus(self, _name)\n    checkFeePayment(self, _name, _timePeriod)\n    cycleComplete(self, _name)\n    {\n        //Calculate payment\n        uint payment = (self.list[_name].virtualBalances[msg.sender]/Misc.checkFeeRate(self, _name))/_timePeriod;\n        //Owner fees account\n        address fundOwner = self.list[_name].fundOwner;\n        //Subtract payment from investor fees\n        self.list[_name].fees[msg.sender] -= payment;\n        self.list[_name].fees[fundOwner] += payment;\n        self.list[_name].paymentCycleStart[msg.sender] = now;\n    }\n}\n\nlibrary Init {\n    //Modifiers\n\n    // //Can replace this with ethpm code\n    // modifier isOwner(bytes32 _name){\n    //     address _fundOwner;\n    //     (,_fundOwner,,) = getFundDetails(_name);\n    //     require(\n    //         _fundOwner == msg.sender,\n    //         \"Message Sender does not own strategy\"\n    //     );\n    //     _;\n    // }\n\n    function collectFees(StructLib.Data storage self, bytes32 _name, address fundOwner)\n    internal\n    returns (uint)\n    {\n        //Calculate fees\n        uint feesCollected = self.list[_name].fees[fundOwner];\n        self.list[_name].fees[fundOwner] = 0;\n        fundOwner.transfer(feesCollected);\n        return feesCollected;\n    }\n\n    function withdrawFunds(StructLib.Data storage self, bytes32 _name, address _investor)\n    internal\n    returns (uint, uint)\n    {\n        //Need to make sure this matches up with withdraw philosophy\n        //Temporary Balance and Fees\n        uint bal = self.list[_name].virtualBalances[_investor];\n        uint fees = self.list[_name].fees[_investor];\n        //subtract virtual balance from total funds\n        self.list[_name].totalBalance -= bal;\n        //zero out virtual Balance\n        self.list[_name].virtualBalances[_investor] = 0;\n        //transfer fees back to investor\n        _investor.transfer(fees);\n        //Zero out fees\n        self.list[_name].fees[_investor] = 0;\n        //set investor status to faslse\n        self.list[_name].investors[_investor] = false;\n        return (bal, fees);\n    }\n}\n\n\n\ncontract FundMarketplace {\n    //State Variables\n    address internal admin;\n    StructLib.Data funds;\n    uint fundCount;\n\n    //Events\n    event FundCreated(\n        bytes32 name,\n        uint fundCount,\n        address fundOwner\n    );\n\n    event Investment(\n        bytes32 name,\n        address investor,\n        uint investment\n    );\n    \n    event FeesPaid(\n        bytes32 name,\n        address investor,\n        uint fee\n    );\n\n    event FeesCollected(\n        bytes32 name,\n        uint fee\n    );\n\n    event FundsWithdrawn(\n        bytes32 name,\n        address investor,\n        uint investment,\n        uint fees\n    );\n\n    constructor() public {\n        admin = msg.sender;\n    }\n\n    function initializeFund(bytes32 _name, address _fundOwner, uint _investment, uint _feeRate, uint _paymentCycle) \n    external payable {\n        InitLib.initializeFund(funds, _name, _fundOwner, _investment, _feeRate, _paymentCycle);\n        //Increment fundCount\n        fundCount++;\n        emit FundCreated(_name, fundCount, _fundOwner);\n    }\n\n    //Check to see if an account is an investor in a strategy\n    //eventually change to only one parameter and use delegate call instead\n    function isInvestor(bytes32 _name, address _investor) public view returns (bool) {\n        bool result;\n        (,result,,) = getFundDetails2(_name, _investor);\n        return result;\n    }\n\n    //Make investment into particular fund\n    //Must have required funds\n    function Invest(bytes32 _name, uint _investment) \n    external payable  \n    {\n        InvestLib.Invest(funds, _name, _investment, msg.sender, msg.value);\n        emit Investment(_name, msg.sender, _investment);\n    }\n\n    //check Fee Rate - read operation from struct\n    //was originally \"public view\" when not in library\n    function checkFeeRate(bytes32 _name) public view returns (uint) {\n        return Misc.checkFeeRate(funds, _name);\n    }\n\n    //One-time pay fee function\n    function payFee(bytes32 _name, uint _timePeriod) external\n    {\n        PayFeeLib.payFee(funds, _name, _timePeriod);\n        uint payment = (funds.list[_name].virtualBalances[msg.sender]/checkFeeRate(_name))/_timePeriod;\n        emit FeesPaid (_name, msg.sender, payment);\n    }\n\n    function checkPaymentCycleStart(bytes32 _name, address _investor) public view\n    returns (uint)\n    {\n        return funds.list[_name].paymentCycleStart[_investor];\n    }\n\n    //Owner of Strategy Collects Fees\n    function collectFees(bytes32 _name) external\n    //isOwner(_name)\n    {\n        uint fees = Init.collectFees(funds, _name, msg.sender);\n        emit FeesCollected(_name, fees);\n    }\n\n    function withdrawFunds(bytes32 _name) public\n    //verifyInvestmentStatus(_name) \n    {\n        //Need to make sure this matches up with withdraw philosophy\n        uint investment;\n        uint fees;\n        (investment, fees) = Init.withdrawFunds(funds, _name, msg.sender);\n        emit FundsWithdrawn(_name, msg.sender, investment, fees);\n    }\n\n    //Get fund information (for testing/verification purposes)\n    function getFundDetails(bytes32 _name) public view returns (bytes32, address, uint, uint){\n        return (funds.list[_name].name, \n        funds.list[_name].fundOwner, \n        funds.list[_name].totalBalance, \n        funds.list[_name].feeRate);\n    }\n    //need two functions because of stack height\n    function getFundDetails2(bytes32 _name, address _addr) public view returns (uint, bool, uint, uint){\n        return(funds.list[_name].paymentCycle,\n        funds.list[_name].investors[_addr], \n        funds.list[_name].virtualBalances[_addr],\n        funds.list[_name].fees[_addr]);\n    }\n}",
  "sourcePath": "/home/bryherbz/Documents/final-project-bryanherbert/contracts/FundMarketplace.sol",
  "compiler": {
    "name": "solc",
    "version": "0.4.24+commit.e67f0147.Emscripten.clang"
  },
  "schemaVersion": "2.0.1",
  "updatedAt": "2018-12-29T22:57:28.662Z"
}