{
  "contractName": "FundMarketplace",
  "abi": [
    {
      "inputs": [],
      "payable": false,
      "stateMutability": "nonpayable",
      "type": "constructor"
    },
    {
      "anonymous": false,
      "inputs": [
        {
          "indexed": false,
          "name": "name",
          "type": "bytes32"
        },
        {
          "indexed": false,
          "name": "fundCount",
          "type": "uint256"
        },
        {
          "indexed": false,
          "name": "stratOwner",
          "type": "address"
        }
      ],
      "name": "FundCreated",
      "type": "event"
    },
    {
      "anonymous": false,
      "inputs": [
        {
          "indexed": false,
          "name": "name",
          "type": "bytes32"
        },
        {
          "indexed": false,
          "name": "investor",
          "type": "address"
        },
        {
          "indexed": false,
          "name": "investment",
          "type": "uint256"
        }
      ],
      "name": "Investment",
      "type": "event"
    },
    {
      "anonymous": false,
      "inputs": [
        {
          "indexed": false,
          "name": "name",
          "type": "bytes32"
        },
        {
          "indexed": false,
          "name": "investor",
          "type": "address"
        },
        {
          "indexed": false,
          "name": "fee",
          "type": "uint256"
        }
      ],
      "name": "FeesPaid",
      "type": "event"
    },
    {
      "anonymous": false,
      "inputs": [
        {
          "indexed": false,
          "name": "name",
          "type": "bytes32"
        },
        {
          "indexed": false,
          "name": "fee",
          "type": "uint256"
        }
      ],
      "name": "FeesCollected",
      "type": "event"
    },
    {
      "constant": true,
      "inputs": [],
      "name": "getFundList",
      "outputs": [
        {
          "name": "",
          "type": "address"
        }
      ],
      "payable": false,
      "stateMutability": "view",
      "type": "function"
    },
    {
      "constant": false,
      "inputs": [
        {
          "name": "_name",
          "type": "bytes32"
        },
        {
          "name": "_fundOwner",
          "type": "address"
        },
        {
          "name": "_investment",
          "type": "uint256"
        },
        {
          "name": "_feeRate",
          "type": "uint256"
        },
        {
          "name": "_paymentCycle",
          "type": "uint256"
        }
      ],
      "name": "initializeFund",
      "outputs": [],
      "payable": true,
      "stateMutability": "payable",
      "type": "function"
    },
    {
      "constant": false,
      "inputs": [
        {
          "name": "_name",
          "type": "bytes32"
        },
        {
          "name": "_investment",
          "type": "uint256"
        }
      ],
      "name": "Invest",
      "outputs": [],
      "payable": true,
      "stateMutability": "payable",
      "type": "function"
    },
    {
      "constant": false,
      "inputs": [
        {
          "name": "_name",
          "type": "bytes32"
        },
        {
          "name": "_timePeriod",
          "type": "uint256"
        }
      ],
      "name": "payFee",
      "outputs": [],
      "payable": false,
      "stateMutability": "nonpayable",
      "type": "function"
    },
    {
      "constant": false,
      "inputs": [
        {
          "name": "_name",
          "type": "bytes32"
        }
      ],
      "name": "collectFees",
      "outputs": [],
      "payable": false,
      "stateMutability": "nonpayable",
      "type": "function"
    }
  ],
  "bytecode": "0x608060405234801561001057600080fd5b50336000806101000a81548173ffffffffffffffffffffffffffffffffffffffff021916908373ffffffffffffffffffffffffffffffffffffffff1602179055506100596100bb565b604051809103906000f080158015610075573d6000803e3d6000fd5b50600160006101000a81548173ffffffffffffffffffffffffffffffffffffffff021916908373ffffffffffffffffffffffffffffffffffffffff1602179055506100cb565b60405161153f806115cb83390190565b6114f1806100da6000396000f30060806040526004361061006d576000357c0100000000000000000000000000000000000000000000000000000000900463ffffffff168063316e15311461007257806371a01643146100d4578063817db73b1461012b57806381bb2b201461015c578063fb0c50e014610197575b600080fd5b6100d26004803603810190808035600019169060200190929190803573ffffffffffffffffffffffffffffffffffffffff1690602001909291908035906020019092919080359060200190929190803590602001909291905050506101c5565b005b3480156100e057600080fd5b506100e961038f565b604051808273ffffffffffffffffffffffffffffffffffffffff1673ffffffffffffffffffffffffffffffffffffffff16815260200191505060405180910390f35b34801561013757600080fd5b5061015a60048036038101908080356000191690602001909291905050506103b9565b005b34801561016857600080fd5b506101956004803603810190808035600019169060200190929190803590602001909291905050506106db565b005b6101c3600480360381019080803560001916906020019092919080359060200190929190505050611013565b005b6000806000600160009054906101000a900473ffffffffffffffffffffffffffffffffffffffff1673ffffffffffffffffffffffffffffffffffffffff1663316e153189898989896040518663ffffffff167c01000000000000000000000000000000000000000000000000000000000281526004018086600019166000191681526020018573ffffffffffffffffffffffffffffffffffffffff1673ffffffffffffffffffffffffffffffffffffffff16815260200184815260200183815260200182815260200195505050505050606060405180830381600087803b1580156102af57600080fd5b505af11580156102c3573d6000803e3d6000fd5b505050506040513d60608110156102d957600080fd5b810190808051906020019092919080519060200190929190805190602001909291905050508093508194508295505050507f1936274dd5f17a14226bac98f04da5d53136534654cd5e659d4f20b2fa09a85e8383836040518084600019166000191681526020018381526020018273ffffffffffffffffffffffffffffffffffffffff1673ffffffffffffffffffffffffffffffffffffffff168152602001935050505060405180910390a15050505050505050565b6000600160009054906101000a900473ffffffffffffffffffffffffffffffffffffffff16905090565b6000816000600160009054906101000a900473ffffffffffffffffffffffffffffffffffffffff1673ffffffffffffffffffffffffffffffffffffffff1663a7365174836040518263ffffffff167c0100000000000000000000000000000000000000000000000000000000028152600401808260001916600019168152602001915050608060405180830381600087803b15801561045757600080fd5b505af115801561046b573d6000803e3d6000fd5b505050506040513d608081101561048157600080fd5b810190808051906020019092919080519060200190929190805190602001909291908051906020019092919050505090919250905050809150503373ffffffffffffffffffffffffffffffffffffffff168173ffffffffffffffffffffffffffffffffffffffff16141515610584576040517f08c379a00000000000000000000000000000000000000000000000000000000081526004018080602001828103825260248152602001807f4d6573736167652053656e64657220646f6573206e6f74206f776e207374726181526020017f746567790000000000000000000000000000000000000000000000000000000081525060400191505060405180910390fd5b600160009054906101000a900473ffffffffffffffffffffffffffffffffffffffff1673ffffffffffffffffffffffffffffffffffffffff1663da76460985336040518363ffffffff167c01000000000000000000000000000000000000000000000000000000000281526004018083600019166000191681526020018273ffffffffffffffffffffffffffffffffffffffff1673ffffffffffffffffffffffffffffffffffffffff16815260200192505050602060405180830381600087803b15801561065157600080fd5b505af1158015610665573d6000803e3d6000fd5b505050506040513d602081101561067b57600080fd5b810190808051906020019092919050505092507f381ff38e2fec0d64b5d6f95156decdb3e229ef47c184126bbb5511a7bf32cf1084846040518083600019166000191681526020018281526020019250505060405180910390a150505050565b60008060008460011515600160009054906101000a900473ffffffffffffffffffffffffffffffffffffffff1673ffffffffffffffffffffffffffffffffffffffff16636ca0b5c883336040518363ffffffff167c01000000000000000000000000000000000000000000000000000000000281526004018083600019166000191681526020018273ffffffffffffffffffffffffffffffffffffffff1673ffffffffffffffffffffffffffffffffffffffff16815260200192505050602060405180830381600087803b1580156107b257600080fd5b505af11580156107c6573d6000803e3d6000fd5b505050506040513d60208110156107dc57600080fd5b8101908080519060200190929190505050151514151561088a576040517f08c379a00000000000000000000000000000000000000000000000000000000081526004018080602001828103825260218152602001807f4d6573736167652053656e646572206973206e6f7420616e20696e766573746f81526020017f720000000000000000000000000000000000000000000000000000000000000081525060400191505060405180910390fd5b85856000806000600160009054906101000a900473ffffffffffffffffffffffffffffffffffffffff1673ffffffffffffffffffffffffffffffffffffffff1663628a0a8786336040518363ffffffff167c01000000000000000000000000000000000000000000000000000000000281526004018083600019166000191681526020018273ffffffffffffffffffffffffffffffffffffffff1673ffffffffffffffffffffffffffffffffffffffff16815260200192505050608060405180830381600087803b15801561095e57600080fd5b505af1158015610972573d6000803e3d6000fd5b505050506040513d608081101561098857600080fd5b810190808051906020019092919080519060200190929190805190602001909291908051906020019092919050505090919250909150809350819450505083600160009054906101000a900473ffffffffffffffffffffffffffffffffffffffff1673ffffffffffffffffffffffffffffffffffffffff1663cfe9b4e7876040518263ffffffff167c0100000000000000000000000000000000000000000000000000000000028152600401808260001916600019168152602001915050602060405180830381600087803b158015610a6057600080fd5b505af1158015610a74573d6000803e3d6000fd5b505050506040513d6020811015610a8a57600080fd5b810190808051906020019092919050505084811515610aa557fe5b04811515610aaf57fe5b0490508082111515610b75576040517f08c379a000000000000000000000000000000000000000000000000000000000815260040180806020018281038252604c8152602001807f4665652062616c616e636520697320696e73756666696369656e7420746f206d81526020017f616b65207061796d656e74206f72207061796d656e74206379636c652069732081526020017f6e6f7420636f6d706c657465000000000000000000000000000000000000000081525060600191505060405180910390fd5b8a600080600160009054906101000a900473ffffffffffffffffffffffffffffffffffffffff1673ffffffffffffffffffffffffffffffffffffffff1663b893565d84336040518363ffffffff167c01000000000000000000000000000000000000000000000000000000000281526004018083600019166000191681526020018273ffffffffffffffffffffffffffffffffffffffff1673ffffffffffffffffffffffffffffffffffffffff16815260200192505050602060405180830381600087803b158015610c4657600080fd5b505af1158015610c5a573d6000803e3d6000fd5b505050506040513d6020811015610c7057600080fd5b81019080805190602001909291905050509150600160009054906101000a900473ffffffffffffffffffffffffffffffffffffffff1673ffffffffffffffffffffffffffffffffffffffff1663628a0a8784336040518363ffffffff167c01000000000000000000000000000000000000000000000000000000000281526004018083600019166000191681526020018273ffffffffffffffffffffffffffffffffffffffff1673ffffffffffffffffffffffffffffffffffffffff16815260200192505050608060405180830381600087803b158015610d5057600080fd5b505af1158015610d64573d6000803e3d6000fd5b505050506040513d6080811015610d7a57600080fd5b81019080805190602001909291908051906020019092919080519060200190929190805190602001909291905050509091509050508091505062015180810282014210151515610e58576040517f08c379a00000000000000000000000000000000000000000000000000000000081526004018080602001828103825260218152602001807f4379636c65206973206e6f7420636f6d706c6574652c206e6f2066656520647581526020017f650000000000000000000000000000000000000000000000000000000000000081525060400191505060405180910390fd5b600160009054906101000a900473ffffffffffffffffffffffffffffffffffffffff1673ffffffffffffffffffffffffffffffffffffffff1663d30b53868f8f336040518463ffffffff167c01000000000000000000000000000000000000000000000000000000000281526004018084600019166000191681526020018381526020018273ffffffffffffffffffffffffffffffffffffffff1673ffffffffffffffffffffffffffffffffffffffff1681526020019350505050606060405180830381600087803b158015610f2d57600080fd5b505af1158015610f41573d6000803e3d6000fd5b505050506040513d6060811015610f5757600080fd5b81019080805190602001909291908051906020019092919080519060200190929190505050809c50819d50829e505050507fcdaf268fff4093ca2f3a0c5457f2a78a56c4da37c292d3a66a9d8e645d2b78018c8c8c6040518084600019166000191681526020018373ffffffffffffffffffffffffffffffffffffffff1673ffffffffffffffffffffffffffffffffffffffff168152602001828152602001935050505060405180910390a15050505050505050505050505050565b600080600084846000600160009054906101000a900473ffffffffffffffffffffffffffffffffffffffff1673ffffffffffffffffffffffffffffffffffffffff1663cfe9b4e7846040518263ffffffff167c0100000000000000000000000000000000000000000000000000000000028152600401808260001916600019168152602001915050602060405180830381600087803b1580156110b557600080fd5b505af11580156110c9573d6000803e3d6000fd5b505050506040513d60208110156110df57600080fd5b8101908080519060200190929190505050828115156110fa57fe5b0490508082013373ffffffffffffffffffffffffffffffffffffffff16311115156111b3576040517f08c379a000000000000000000000000000000000000000000000000000000000815260040180806020018281038252602d8152602001807f53656e64657220646f6573206e6f74206861766520656e6f7567682062616c6181526020017f6e636520746f20696e766573740000000000000000000000000000000000000081525060400191505060405180910390fd5b878734600160009054906101000a900473ffffffffffffffffffffffffffffffffffffffff1673ffffffffffffffffffffffffffffffffffffffff1663cfe9b4e7846040518263ffffffff167c0100000000000000000000000000000000000000000000000000000000028152600401808260001916600019168152602001915050602060405180830381600087803b15801561124f57600080fd5b505af1158015611263573d6000803e3d6000fd5b505050506040513d602081101561127957600080fd5b81019080805190602001909291905050508281151561129457fe5b04811015151561130c576040517f08c379a00000000000000000000000000000000000000000000000000000000081526004018080602001828103825260128152602001807f46656520697320696e737566666963656e74000000000000000000000000000081525060200191505060405180910390fd5b600160009054906101000a900473ffffffffffffffffffffffffffffffffffffffff1673ffffffffffffffffffffffffffffffffffffffff166313c42676348d8d336040518563ffffffff167c01000000000000000000000000000000000000000000000000000000000281526004018084600019166000191681526020018381526020018273ffffffffffffffffffffffffffffffffffffffff1673ffffffffffffffffffffffffffffffffffffffff16815260200193505050506060604051808303818588803b1580156113e157600080fd5b505af11580156113f5573d6000803e3d6000fd5b50505050506040513d606081101561140c57600080fd5b81019080805190602001909291908051906020019092919080519060200190929190505050809950819a50829b505050507f2b158127221737cd431395104f48aa6534ed782d1c9c8b2ac852d925c0c1e9c18b338c6040518084600019166000191681526020018373ffffffffffffffffffffffffffffffffffffffff1673ffffffffffffffffffffffffffffffffffffffff168152602001828152602001935050505060405180910390a150505050505050505050505600a165627a7a723058200b21e1fc8ea3ad67d2bf6be549adc162a0f1e1d29ef57c53cc9b301396db4a310029608060405234801561001057600080fd5b50336000806101000a81548173ffffffffffffffffffffffffffffffffffffffff021916908373ffffffffffffffffffffffffffffffffffffffff16021790555060006002819055506114d7806100686000396000f3006080604052600436106100a4576000357c0100000000000000000000000000000000000000000000000000000000900463ffffffff16806313c42676146100a9578063316e15311461014d578063628a0a87146102055780636a29a620146102835780636ca0b5c814610318578063a736517414610381578063b893565d1461040f578063cfe9b4e714610474578063d30b5386146104b9578063da7646091461056a575b600080fd5b6100f5600480360381019080803560001916906020019092919080359060200190929190803573ffffffffffffffffffffffffffffffffffffffff1690602001909291905050506105cf565b6040518084600019166000191681526020018373ffffffffffffffffffffffffffffffffffffffff1673ffffffffffffffffffffffffffffffffffffffff168152602001828152602001935050505060405180910390f35b6101ad6004803603810190808035600019169060200190929190803573ffffffffffffffffffffffffffffffffffffffff169060200190929190803590602001909291908035906020019092919080359060200190929190505050610908565b6040518084600019166000191681526020018381526020018273ffffffffffffffffffffffffffffffffffffffff1673ffffffffffffffffffffffffffffffffffffffff168152602001935050505060405180910390f35b34801561021157600080fd5b506102546004803603810190808035600019169060200190929190803573ffffffffffffffffffffffffffffffffffffffff169060200190929190505050610c9f565b604051808581526020018415151515815260200183815260200182815260200194505050505060405180910390f35b34801561028f57600080fd5b506102b26004803603810190808035600019169060200190929190505050610df6565b6040518086600019166000191681526020018573ffffffffffffffffffffffffffffffffffffffff1673ffffffffffffffffffffffffffffffffffffffff1681526020018481526020018381526020018281526020019550505050505060405180910390f35b34801561032457600080fd5b506103676004803603810190808035600019169060200190929190803573ffffffffffffffffffffffffffffffffffffffff169060200190929190505050610e4c565b604051808215151515815260200191505060405180910390f35b34801561038d57600080fd5b506103b06004803603810190808035600019169060200190929190505050610e6e565b6040518085600019166000191681526020018473ffffffffffffffffffffffffffffffffffffffff1673ffffffffffffffffffffffffffffffffffffffff16815260200183815260200182815260200194505050505060405180910390f35b34801561041b57600080fd5b5061045e6004803603810190808035600019169060200190929190803573ffffffffffffffffffffffffffffffffffffffff169060200190929190505050610f1f565b6040518082815260200191505060405180910390f35b34801561048057600080fd5b506104a36004803603810190808035600019169060200190929190505050610f85565b6040518082815260200191505060405180910390f35b3480156104c557600080fd5b50610512600480360381019080803560001916906020019092919080359060200190929190803573ffffffffffffffffffffffffffffffffffffffff169060200190929190505050610fb9565b6040518084600019166000191681526020018373ffffffffffffffffffffffffffffffffffffffff1673ffffffffffffffffffffffffffffffffffffffff168152602001828152602001935050505060405180910390f35b34801561057657600080fd5b506105b96004803603810190808035600019169060200190929190803573ffffffffffffffffffffffffffffffffffffffff1690602001909291905050506112ae565b6040518082815260200191505060405180910390f35b60008060008060009054906101000a900473ffffffffffffffffffffffffffffffffffffffff1673ffffffffffffffffffffffffffffffffffffffff163373ffffffffffffffffffffffffffffffffffffffff161415156106be576040517f08c379a00000000000000000000000000000000000000000000000000000000081526004018080602001828103825260238152602001807f4d6573736167652053656e646572206973206e6f742041646d696e697374726181526020017f746f72000000000000000000000000000000000000000000000000000000000081525060400191505060405180910390fd5b84600160008860001916600019168152602001908152602001600020600201600082825401925050819055506001806000886000191660001916815260200190815260200160002060050160008673ffffffffffffffffffffffffffffffffffffffff1673ffffffffffffffffffffffffffffffffffffffff16815260200190815260200160002060006101000a81548160ff0219169083151502179055508460016000886000191660001916815260200190815260200160002060060160008673ffffffffffffffffffffffffffffffffffffffff1673ffffffffffffffffffffffffffffffffffffffff168152602001908152602001600020819055503460016000886000191660001916815260200190815260200160002060070160008673ffffffffffffffffffffffffffffffffffffffff1673ffffffffffffffffffffffffffffffffffffffff168152602001908152602001600020819055504260016000886000191660001916815260200190815260200160002060080160008673ffffffffffffffffffffffffffffffffffffffff1673ffffffffffffffffffffffffffffffffffffffff16815260200190815260200160002081905550600160008760001916600019168152602001908152602001600020600001548460016000896000191660001916815260200190815260200160002060060160008773ffffffffffffffffffffffffffffffffffffffff1673ffffffffffffffffffffffffffffffffffffffff1681526020019081526020016000205492509250925093509350939050565b60008060008060009054906101000a900473ffffffffffffffffffffffffffffffffffffffff1673ffffffffffffffffffffffffffffffffffffffff163373ffffffffffffffffffffffffffffffffffffffff161415156109f7576040517f08c379a00000000000000000000000000000000000000000000000000000000081526004018080602001828103825260238152602001807f4d6573736167652053656e646572206973206e6f742041646d696e697374726181526020017f746f72000000000000000000000000000000000000000000000000000000000081525060400191505060405180910390fd5b87600160008a60001916600019168152602001908152602001600020600001816000191690555086600160008a6000191660001916815260200190815260200160002060010160006101000a81548173ffffffffffffffffffffffffffffffffffffffff021916908373ffffffffffffffffffffffffffffffffffffffff16021790555085600160008a600019166000191681526020019081526020016000206002018190555084600160008a600019166000191681526020019081526020016000206003018190555083600160008a600019166000191681526020019081526020016000206004018190555060018060008a6000191660001916815260200190815260200160002060050160008973ffffffffffffffffffffffffffffffffffffffff1673ffffffffffffffffffffffffffffffffffffffff16815260200190815260200160002060006101000a81548160ff02191690831515021790555085600160008a6000191660001916815260200190815260200160002060060160008973ffffffffffffffffffffffffffffffffffffffff1673ffffffffffffffffffffffffffffffffffffffff168152602001908152602001600020819055506000600160008a6000191660001916815260200190815260200160002060070160008973ffffffffffffffffffffffffffffffffffffffff1673ffffffffffffffffffffffffffffffffffffffff1681526020019081526020016000208190555060026000815480929190600101919050555060016000896000191660001916815260200190815260200160002060000154600160025403600160008b6000191660001916815260200190815260200160002060010160009054906101000a900473ffffffffffffffffffffffffffffffffffffffff16925092509250955095509592505050565b6000806000806001600087600019166000191681526020019081526020016000206004015460016000886000191660001916815260200190815260200160002060050160008773ffffffffffffffffffffffffffffffffffffffff1673ffffffffffffffffffffffffffffffffffffffff16815260200190815260200160002060009054906101000a900460ff1660016000896000191660001916815260200190815260200160002060060160008873ffffffffffffffffffffffffffffffffffffffff1673ffffffffffffffffffffffffffffffffffffffff16815260200190815260200160002054600160008a6000191660001916815260200190815260200160002060070160008973ffffffffffffffffffffffffffffffffffffffff1673ffffffffffffffffffffffffffffffffffffffff16815260200190815260200160002054935093509350935092959194509250565b60016020528060005260406000206000915090508060000154908060010160009054906101000a900473ffffffffffffffffffffffffffffffffffffffff16908060020154908060030154908060040154905085565b600080610e598484610c9f565b90919250905050809150508091505092915050565b6000806000806001600086600019166000191681526020019081526020016000206000015460016000876000191660001916815260200190815260200160002060010160009054906101000a900473ffffffffffffffffffffffffffffffffffffffff16600160008860001916600019168152602001908152602001600020600201546001600089600019166000191681526020019081526020016000206003015493509350935093509193509193565b600060016000846000191660001916815260200190815260200160002060080160008373ffffffffffffffffffffffffffffffffffffffff1673ffffffffffffffffffffffffffffffffffffffff16815260200190815260200160002054905092915050565b6000600160008360001916600019168152602001908152602001600020600301546064811515610fb157fe5b049050919050565b60008060008060008060009054906101000a900473ffffffffffffffffffffffffffffffffffffffff1673ffffffffffffffffffffffffffffffffffffffff163373ffffffffffffffffffffffffffffffffffffffff161415156110ab576040517f08c379a00000000000000000000000000000000000000000000000000000000081526004018080602001828103825260238152602001807f4d6573736167652053656e646572206973206e6f742041646d696e697374726181526020017f746f72000000000000000000000000000000000000000000000000000000000081525060400191505060405180910390fd5b866110b589610f85565b600160008b6000191660001916815260200190815260200160002060060160008973ffffffffffffffffffffffffffffffffffffffff1673ffffffffffffffffffffffffffffffffffffffff1681526020019081526020016000205481151561111a57fe5b0481151561112457fe5b04915060016000896000191660001916815260200190815260200160002060010160009054906101000a900473ffffffffffffffffffffffffffffffffffffffff16905081600160008a6000191660001916815260200190815260200160002060070160008873ffffffffffffffffffffffffffffffffffffffff1673ffffffffffffffffffffffffffffffffffffffff1681526020019081526020016000206000828254039250508190555081600160008a6000191660001916815260200190815260200160002060070160008373ffffffffffffffffffffffffffffffffffffffff1673ffffffffffffffffffffffffffffffffffffffff1681526020019081526020016000206000828254019250508190555042600160008a6000191660001916815260200190815260200160002060080160008873ffffffffffffffffffffffffffffffffffffffff1673ffffffffffffffffffffffffffffffffffffffff16815260200190815260200160002081905550878683945094509450505093509350939050565b6000806000809054906101000a900473ffffffffffffffffffffffffffffffffffffffff1673ffffffffffffffffffffffffffffffffffffffff163373ffffffffffffffffffffffffffffffffffffffff1614151561139b576040517f08c379a00000000000000000000000000000000000000000000000000000000081526004018080602001828103825260238152602001807f4d6573736167652053656e646572206973206e6f742041646d696e697374726181526020017f746f72000000000000000000000000000000000000000000000000000000000081525060400191505060405180910390fd5b60016000856000191660001916815260200190815260200160002060070160008473ffffffffffffffffffffffffffffffffffffffff1673ffffffffffffffffffffffffffffffffffffffff168152602001908152602001600020549050600060016000866000191660001916815260200190815260200160002060070160008573ffffffffffffffffffffffffffffffffffffffff1673ffffffffffffffffffffffffffffffffffffffff168152602001908152602001600020819055508273ffffffffffffffffffffffffffffffffffffffff166108fc829081150290604051600060405180830381858888f193505050501580156114a0573d6000803e3d6000fd5b5080915050929150505600a165627a7a7230582055c0607ecf13ee986fbd636c501c094fe08743cbff8c2f9bc2f1f4c5c9c4c35a0029",
  "source": "pragma solidity ^0.4.24;\n\nimport \"../contracts/FundList.sol\";\n\ncontract FundMarketplace {\n    //State Variables\n    address admin;\n    //FundList Contract\n    FundList fl;\n\n    //Events\n    event FundCreated(\n        bytes32 name,\n        uint fundCount,\n        address stratOwner\n    );\n\n    event Investment(\n        bytes32 name,\n        address investor,\n        uint investment\n    );\n    \n    event FeesPaid(\n        bytes32 name,\n        address investor,\n        uint fee\n    );\n\n    event FeesCollected(\n        bytes32 name,\n        uint fee\n    );\n\n    // event FundsWithdrawn(\n    //     bytes32 name,\n    //     address investor,\n    //     uint investment,\n    //     uint fees\n    // );\n\n    //Modifiers\n    modifier verifyBalance(bytes32 _name, uint _investment){\n        //Account Balance must be greater than investment + Fees\n        //Not sure this correct- want it to represent ~2%\n        uint fee = _investment/fl.checkFeeRate(_name);\n        require(\n            msg.sender.balance > _investment + fee,\n            \"Sender does not have enough balance to invest\"\n        );\n        _;\n    }\n\n    modifier verifyFee(bytes32 _name, uint _investment, uint _proposedFee) {\n        //Verify that the msg.value > fee\n        require(\n            _proposedFee >= _investment/fl.checkFeeRate(_name),\n            \"Fee is insufficent\"\n        );\n        _;\n    }\n\n    modifier checkFeePayment(bytes32 _name, uint _timePeriod) {\n        uint virtualBalance;\n        uint fees;\n        //Get investor's virtual balance and fees deposited\n        (,,virtualBalance,fees) = fl.getFundDetails2(_name, msg.sender);\n        uint payment = (virtualBalance/fl.checkFeeRate(_name))/_timePeriod;\n        require(\n            //Check that msg.sender has enough in fees to make payment installment\n            fees > payment,\n            \"Fee balance is insufficient to make payment or payment cycle is not complete\"\n        );\n        _;\n    }\n\n    modifier verifyInvestmentStatus(bytes32 _name){\n        //check that msg.sender is an investor\n        require(\n            fl.isInvestor(_name, msg.sender) == true,\n            \"Message Sender is not an investor\"\n        );\n        _;\n    }\n\n    //Can replace this with ethpm code\n    modifier isOwner(bytes32 _name){\n        address _fundOwner;\n        (,_fundOwner,,) = fl.getFundDetails(_name);\n        require(\n            _fundOwner == msg.sender,\n            \"Message Sender does not own strategy\"\n        );\n        _;\n    }\n\n    modifier cycleComplete(bytes32 _name){\n        uint paymentCycleStart = fl.checkPaymentCycleStart(_name, msg.sender);\n        uint paymentCycle;\n        (paymentCycle,,,) = fl.getFundDetails2(_name, msg.sender);\n\n        require(\n            now >= paymentCycleStart + paymentCycle * 1 days,\n            \"Cycle is not complete, no fee due\"\n        );\n        _;\n    }\n\n    constructor() public {\n        admin = msg.sender;\n        //Need to initialize a new contract instance of FundList\n        //Attempt may be wrong\n        fl = new FundList();\n    }\n\n    function getFundList() public view returns (FundList) {\n        return fl;\n    }\n\n    function initializeFund(bytes32 _name, address _fundOwner, uint _investment, uint _feeRate, uint _paymentCycle) public payable {\n        bytes32 fundName;\n        uint fundCount;\n        address fundOwner;\n        (fundName, fundCount, fundOwner) = fl.initializeFund(_name, _fundOwner, _investment, _feeRate, _paymentCycle);\n        //Emit Event\n        emit FundCreated(fundName, fundCount, fundOwner);\n    }\n\n\n    //Make investment into particular fund\n    //Must have required funds\n    function Invest(bytes32 _name, uint _investment) public payable \n    verifyBalance(_name, _investment) \n    verifyFee(_name, _investment, msg.value) {\n        bytes32 fundName;\n        address newInvestor;\n        uint newInvestment;\n        (fundName, newInvestor, newInvestment) = fl.Invest.value(msg.value)(_name, _investment, msg.sender);\n        //Emit event\n        emit Investment(_name, msg.sender, _investment);\n    }\n\n\n    //One-time pay fee function\n    function payFee(bytes32 _name, uint _timePeriod) public\n    verifyInvestmentStatus(_name)\n    checkFeePayment(_name, _timePeriod)\n    cycleComplete(_name)\n    {\n        bytes32 fundName;\n        address investor;\n        uint feePayment;\n        (fundName, investor, feePayment) = fl.payFee(_name, _timePeriod, msg.sender);\n        emit FeesPaid(fundName, investor, feePayment);\n    }\n\n    //Owner of Strategy Collects Fees\n    function collectFees(bytes32 _name) public\n    isOwner(_name)\n    {\n        uint feesCollected = fl.collectFees(_name, msg.sender);\n        emit FeesCollected(_name, feesCollected);\n    }\n/*\n    function withdrawFunds(bytes32 _name) public\n    verifyInvestmentStatus(_name) \n    {\n        //Need to make sure this matches up with withdraw philosophy\n        //Temporary Balance and Fees\n        uint bal = strategies[_name].virtualBalances[msg.sender];\n        uint fees = strategies[_name].fees[msg.sender];\n        //subtract virtual balance from total funds\n        strategies[_name].funds -= bal;\n        //zero out virtual Balance\n        strategies[_name].virtualBalances[msg.sender] = 0;\n        //transfer fees back to investor\n        msg.sender.transfer(fees);\n        //Zero out fees\n        strategies[_name].fees[msg.sender] = 0;\n        //set investor status to faslse\n        strategies[_name].investors[msg.sender] = false;\n        emit FundsWithdrawn(_name, msg.sender, bal, fees);\n    }\n*/\n}",
  "sourcePath": "/home/bryherbz/Documents/final-project-bryanherbert/contracts/FundMarketplace.sol",
  "compiler": {
    "name": "solc",
    "version": "0.4.24+commit.e67f0147.Emscripten.clang"
  },
  "schemaVersion": "2.0.1",
  "updatedAt": "2018-12-27T22:23:54.166Z"
}