{
  "contractName": "FundMarketplace",
  "abi": [
    {
      "inputs": [],
      "payable": false,
      "stateMutability": "nonpayable",
      "type": "constructor"
    },
    {
      "anonymous": false,
      "inputs": [
        {
          "indexed": false,
          "name": "name",
          "type": "bytes32"
        },
        {
          "indexed": false,
          "name": "fundCount",
          "type": "uint256"
        },
        {
          "indexed": false,
          "name": "stratOwner",
          "type": "address"
        }
      ],
      "name": "FundCreated",
      "type": "event"
    },
    {
      "constant": true,
      "inputs": [],
      "name": "getFundList",
      "outputs": [
        {
          "name": "",
          "type": "address"
        }
      ],
      "payable": false,
      "stateMutability": "view",
      "type": "function"
    },
    {
      "constant": false,
      "inputs": [
        {
          "name": "_name",
          "type": "bytes32"
        },
        {
          "name": "_fundOwner",
          "type": "address"
        },
        {
          "name": "_investment",
          "type": "uint256"
        },
        {
          "name": "_feeRate",
          "type": "uint256"
        },
        {
          "name": "_paymentCycle",
          "type": "uint256"
        }
      ],
      "name": "initializeFund",
      "outputs": [],
      "payable": true,
      "stateMutability": "payable",
      "type": "function"
    }
  ],
  "bytecode": "0x608060405234801561001057600080fd5b50336000806101000a81548173ffffffffffffffffffffffffffffffffffffffff021916908373ffffffffffffffffffffffffffffffffffffffff1602179055506100596100bb565b604051809103906000f080158015610075573d6000803e3d6000fd5b50600160006101000a81548173ffffffffffffffffffffffffffffffffffffffff021916908373ffffffffffffffffffffffffffffffffffffffff1602179055506100cb565b6040516109498061040483390190565b61032a806100da6000396000f30060806040526004361061004c576000357c0100000000000000000000000000000000000000000000000000000000900463ffffffff168063316e15311461005157806371a01643146100b3575b600080fd5b6100b16004803603810190808035600019169060200190929190803573ffffffffffffffffffffffffffffffffffffffff16906020019092919080359060200190929190803590602001909291908035906020019092919050505061010a565b005b3480156100bf57600080fd5b506100c86102d4565b604051808273ffffffffffffffffffffffffffffffffffffffff1673ffffffffffffffffffffffffffffffffffffffff16815260200191505060405180910390f35b6000806000600160009054906101000a900473ffffffffffffffffffffffffffffffffffffffff1673ffffffffffffffffffffffffffffffffffffffff1663316e153189898989896040518663ffffffff167c01000000000000000000000000000000000000000000000000000000000281526004018086600019166000191681526020018573ffffffffffffffffffffffffffffffffffffffff1673ffffffffffffffffffffffffffffffffffffffff16815260200184815260200183815260200182815260200195505050505050606060405180830381600087803b1580156101f457600080fd5b505af1158015610208573d6000803e3d6000fd5b505050506040513d606081101561021e57600080fd5b810190808051906020019092919080519060200190929190805190602001909291905050508093508194508295505050507f1936274dd5f17a14226bac98f04da5d53136534654cd5e659d4f20b2fa09a85e8383836040518084600019166000191681526020018381526020018273ffffffffffffffffffffffffffffffffffffffff1673ffffffffffffffffffffffffffffffffffffffff168152602001935050505060405180910390a15050505050505050565b6000600160009054906101000a900473ffffffffffffffffffffffffffffffffffffffff169050905600a165627a7a7230582079845823d1b2bd4fcbde905b0cfdeddbc480b845d4b782c5d42ffa995f0fd04e0029608060405234801561001057600080fd5b50336000806101000a81548173ffffffffffffffffffffffffffffffffffffffff021916908373ffffffffffffffffffffffffffffffffffffffff16021790555060006002819055506108e1806100686000396000f300608060405260043610610062576000357c0100000000000000000000000000000000000000000000000000000000900463ffffffff168063316e153114610067578063628a0a871461011f5780636a29a6201461019d578063a736517414610232575b600080fd5b6100c76004803603810190808035600019169060200190929190803573ffffffffffffffffffffffffffffffffffffffff1690602001909291908035906020019092919080359060200190929190803590602001909291905050506102c0565b6040518084600019166000191681526020018381526020018273ffffffffffffffffffffffffffffffffffffffff1673ffffffffffffffffffffffffffffffffffffffff168152602001935050505060405180910390f35b34801561012b57600080fd5b5061016e6004803603810190808035600019169060200190929190803573ffffffffffffffffffffffffffffffffffffffff169060200190929190505050610657565b604051808581526020018415151515815260200183815260200182815260200194505050505060405180910390f35b3480156101a957600080fd5b506101cc60048036038101908080356000191690602001909291905050506107ae565b6040518086600019166000191681526020018573ffffffffffffffffffffffffffffffffffffffff1673ffffffffffffffffffffffffffffffffffffffff1681526020018481526020018381526020018281526020019550505050505060405180910390f35b34801561023e57600080fd5b506102616004803603810190808035600019169060200190929190505050610804565b6040518085600019166000191681526020018473ffffffffffffffffffffffffffffffffffffffff1673ffffffffffffffffffffffffffffffffffffffff16815260200183815260200182815260200194505050505060405180910390f35b60008060008060009054906101000a900473ffffffffffffffffffffffffffffffffffffffff1673ffffffffffffffffffffffffffffffffffffffff163373ffffffffffffffffffffffffffffffffffffffff161415156103af576040517f08c379a00000000000000000000000000000000000000000000000000000000081526004018080602001828103825260238152602001807f4d6573736167652053656e646572206973206e6f742041646d696e697374726181526020017f746f72000000000000000000000000000000000000000000000000000000000081525060400191505060405180910390fd5b87600160008a60001916600019168152602001908152602001600020600001816000191690555086600160008a6000191660001916815260200190815260200160002060010160006101000a81548173ffffffffffffffffffffffffffffffffffffffff021916908373ffffffffffffffffffffffffffffffffffffffff16021790555085600160008a600019166000191681526020019081526020016000206002018190555084600160008a600019166000191681526020019081526020016000206003018190555083600160008a600019166000191681526020019081526020016000206004018190555060018060008a6000191660001916815260200190815260200160002060050160008973ffffffffffffffffffffffffffffffffffffffff1673ffffffffffffffffffffffffffffffffffffffff16815260200190815260200160002060006101000a81548160ff02191690831515021790555085600160008a6000191660001916815260200190815260200160002060060160008973ffffffffffffffffffffffffffffffffffffffff1673ffffffffffffffffffffffffffffffffffffffff168152602001908152602001600020819055506000600160008a6000191660001916815260200190815260200160002060070160008973ffffffffffffffffffffffffffffffffffffffff1673ffffffffffffffffffffffffffffffffffffffff1681526020019081526020016000208190555060026000815480929190600101919050555060016000896000191660001916815260200190815260200160002060000154600160025403600160008b6000191660001916815260200190815260200160002060010160009054906101000a900473ffffffffffffffffffffffffffffffffffffffff16925092509250955095509592505050565b6000806000806001600087600019166000191681526020019081526020016000206004015460016000886000191660001916815260200190815260200160002060050160008773ffffffffffffffffffffffffffffffffffffffff1673ffffffffffffffffffffffffffffffffffffffff16815260200190815260200160002060009054906101000a900460ff1660016000896000191660001916815260200190815260200160002060060160008873ffffffffffffffffffffffffffffffffffffffff1673ffffffffffffffffffffffffffffffffffffffff16815260200190815260200160002054600160008a6000191660001916815260200190815260200160002060070160008973ffffffffffffffffffffffffffffffffffffffff1673ffffffffffffffffffffffffffffffffffffffff16815260200190815260200160002054935093509350935092959194509250565b60016020528060005260406000206000915090508060000154908060010160009054906101000a900473ffffffffffffffffffffffffffffffffffffffff16908060020154908060030154908060040154905085565b6000806000806001600086600019166000191681526020019081526020016000206000015460016000876000191660001916815260200190815260200160002060010160009054906101000a900473ffffffffffffffffffffffffffffffffffffffff166001600088600019166000191681526020019081526020016000206002015460016000896000191660001916815260200190815260200160002060030154935093509350935091935091935600a165627a7a72305820edf1b0eef6e70bb96c0ee6acfb9eff5ea821dcacd33c90be83c0ed7e446c45b50029",
  "source": "pragma solidity ^0.4.24;\n\ncontract FundMarketplace {\n    //State Variables\n    address admin;\n    //FundList Contract\n    FundList f;\n\n    //Events\n    event FundCreated(\n        bytes32 name,\n        uint fundCount,\n        address stratOwner\n    );\n\n    // event Investment(\n    //     bytes32 name,\n    //     address investor,\n    //     uint investment\n    // );\n    \n    // event FeesPaid(\n    //     bytes32 name,\n    //     address investor,\n    //     uint fee\n    // );\n\n    // event FeesCollected(\n    //     bytes32 name,\n    //     uint fee\n    // );\n\n    // event FundsWithdrawn(\n    //     bytes32 name,\n    //     address investor,\n    //     uint investment,\n    //     uint fees\n    // );\n\n    // //Modifiers\n    // modifier verifyBalance(bytes32 _name, uint _investment){\n    //     //Account Balance must be greater than investment + Fees\n    //     //Not sure this correct- want it to represent ~2%\n    //     uint fee = _investment/checkFeeRate(_name);\n    //     require(\n    //         msg.sender.balance > _investment + fee,\n    //         \"Sender does not have enough balance to invest\"\n    //     );\n    //     _;\n    // }\n\n    // modifier verifyFee(bytes32 _name, uint _investment, uint _proposedFee) {\n    //     //Verify that the msg.value > fee\n    //     require(\n    //         _proposedFee >= _investment/checkFeeRate(_name),\n    //         \"Fee is insufficent\"\n    //     );\n    //     _;\n    // }\n\n    // modifier checkFeePayment(bytes32 _name, uint _timePeriod) {\n    //     uint payment = (strategies[_name].virtualBalances[msg.sender]/checkFeeRate(_name))/_timePeriod;\n    //     require(\n    //         //Check that msg.sender has enough in fees to make payment installment\n    //         strategies[_name].fees[msg.sender] > payment,\n    //         \"Fee balance is insufficient to make payment or payment cycle is not complete\"\n    //     );\n    //     _;\n    // }\n\n    // modifier verifyInvestmentStatus(bytes32 _name){\n    //     //check that msg.sender is an investor\n    //     require(\n    //         strategies[_name].investors[msg.sender] = true,\n    //         \"Message Sender is not an investor\"\n    //     );\n    //     _;\n    // }\n\n    // //Can replace this with ethpm code\n    // modifier isOwner(bytes32 _name){\n    //     require(\n    //         strategies[_name].stratOwner == msg.sender,\n    //         \"Message Sender does not own strategy\"\n    //     );\n    //     _;\n    // }\n\n    // modifier cycleComplete(bytes32 _name){\n    //     require(\n    //         now >= strategies[_name].paymentCycleStart[msg.sender] + strategies[_name].paymentCycle * 1 days,\n    //         \"Cycle is not complete, no fee due\"\n    //     );\n    //     _;\n    // }\n\n    constructor() public {\n        admin = msg.sender;\n        //Need to initialize a new contract instance of FundList\n        //Attempt may be wrong\n        f = new FundList();\n    }\n\n    function getFundList() public view returns (address) {\n        return address(f);\n    }\n\n    function initializeFund(bytes32 _name, address _fundOwner, uint _investment, uint _feeRate, uint _paymentCycle) public payable {\n        bytes32 fundName;\n        uint fundCount;\n        address fundOwner;\n        (fundName, fundCount, fundOwner) = f.initializeFund(_name, _fundOwner, _investment, _feeRate, _paymentCycle);\n        //Emit Event\n        emit FundCreated(fundName, fundCount, fundOwner);\n    }\n/*\n    //Check to see if an account is an investor in a strategy\n    function isInvestor(bytes32 _name) public view returns (bool) {\n        bool result;\n        (,result,,) = f.getFundDetails2(_name, msg.sender);\n        return result;\n    }\n\n    //Make investment into particular fund\n    //Must have required funds\n    function Invest(bytes32 _name, uint _investment) public payable \n    verifyBalance(_name, _investment) \n    verifyFee(_name, _investment, msg.value) \n    returns (bool) {\n        strategies[_name].funds += _investment;\n        strategies[_name].investors[msg.sender] = true;\n        strategies[_name].virtualBalances[msg.sender] = _investment;\n        strategies[_name].fees[msg.sender] = msg.value;\n        strategies[_name].paymentCycleStart[msg.sender] = now;\n        //Emit event\n        emit Investment(_name, msg.sender, _investment);\n        return strategies[_name].investors[msg.sender];\n    }\n\n\n    //check fee rate\n    function checkFeeRate(bytes32 _name) public view returns (uint) {\n        return 100/strategies[_name].feeRate;\n    }\n\n    //One-time pay fee function\n    function payFee(bytes32 _name, uint _timePeriod) public\n    verifyInvestmentStatus(_name)\n    checkFeePayment(_name, _timePeriod)\n    cycleComplete(_name)\n    {\n        //Calculate payment\n        uint payment = (strategies[_name].virtualBalances[msg.sender]/checkFeeRate(_name))/_timePeriod;\n        //Owner fees account\n        address stratOwner = strategies[_name].stratOwner;\n        //Subtract payment from investor fees\n        strategies[_name].fees[msg.sender] -= payment;\n        strategies[_name].fees[stratOwner] += payment;\n        strategies[_name].paymentCycleStart[msg.sender] = now;\n        emit FeesPaid(_name, msg.sender, payment);\n    }\n\n    //Owner of Strategy Collects Fees\n    function collectFees(bytes32 _name) public\n    isOwner(_name)\n    {\n        uint feesCollected = strategies[_name].fees[msg.sender];\n        strategies[_name].fees[msg.sender] = 0;\n        msg.sender.transfer(feesCollected);\n        emit FeesCollected(_name, feesCollected);\n    }\n\n    function withdrawFunds(bytes32 _name) public\n    verifyInvestmentStatus(_name) \n    {\n        //Need to make sure this matches up with withdraw philosophy\n        //Temporary Balance and Fees\n        uint bal = strategies[_name].virtualBalances[msg.sender];\n        uint fees = strategies[_name].fees[msg.sender];\n        //subtract virtual balance from total funds\n        strategies[_name].funds -= bal;\n        //zero out virtual Balance\n        strategies[_name].virtualBalances[msg.sender] = 0;\n        //transfer fees back to investor\n        msg.sender.transfer(fees);\n        //Zero out fees\n        strategies[_name].fees[msg.sender] = 0;\n        //set investor status to faslse\n        strategies[_name].investors[msg.sender] = false;\n        emit FundsWithdrawn(_name, msg.sender, bal, fees);\n    }\n*/\n}\n\ncontract FundList {\n    //State Variables\n    address admin;\n    mapping(bytes32 => Fund) public funds;\n    uint fundCount;\n\n    struct Fund {\n        //Name of fund\n        bytes32 name;\n        //Partner who initialized the strategy\n        //Could be a multisig wallet\n        address fundOwner;\n        //amount of funds the strategy is virtually managing\n        uint totalBalance;\n        //Add fee that quant can set- in whole number, i.e. 2% is represented as 2\n        uint feeRate;\n        //Number of days in Payment Cycle\n        uint paymentCycle;\n        //maps investors to investment status- current investors return true, non-investors return false\n        mapping (address => bool) investors;\n        //maps investors to their virtual balances in the strategy\n        mapping (address => uint) virtualBalances;\n        //maps investors to the actual fee they have stored in the Strategy Hub contract\n        //fees are paid into stratOwner fee account and paid from investor fee account\n        mapping (address => uint) fees;\n        //Adoption Times for each investor\n        mapping(address => uint) paymentCycleStart;\n        //will need to add IPFS hash eventually to verify code\n    }\n\n    //Administrative control\n    //Any write functions must be completed by the administrator\n    modifier isAdmin{\n        require(\n            msg.sender == admin,\n            \"Message Sender is not Administrator\"\n        );\n        _;\n    }\n\n    constructor() public {\n        admin = msg.sender;\n        //initialize strategy count to 0\n        fundCount = 0;\n    }\n\n    function initializeFund(bytes32 _name, address _fundOwner, uint _investment, uint _feeRate, uint _paymentCycle) \n    public payable\n    isAdmin()\n    returns(bytes32, uint, address) {\n        //initialize strat name to _name\n        funds[_name].name = _name;\n        //Strat owner is message sender\n        //Be careful of message sender here - might be the Fund Marketplace contract - might have to use delegatecall\n        funds[_name].fundOwner = _fundOwner;\n        //Initial funds are the msg.value\n        funds[_name].totalBalance = _investment;\n        //Set fee rate\n        funds[_name].feeRate = _feeRate;\n        //Set payment cycle\n        funds[_name].paymentCycle = _paymentCycle;\n        //set fundOwner to also be an investor\n        funds[_name].investors[_fundOwner] = true;\n        //set fundOwner's investor balance to the msg.value\n        funds[_name].virtualBalances[_fundOwner] = _investment;\n        //set fundOwner's fees to zero\n        funds[_name].fees[_fundOwner] = 0;\n        //Increment fundCount\n        fundCount++;\n        return (funds[_name].name, fundCount-1, funds[_name].fundOwner);\n    }\n\n    //Get fund information (for testing/verification purposes)\n    function getFundDetails(bytes32 _name) public view returns (bytes32, address, uint, uint){\n        return (funds[_name].name, \n        funds[_name].fundOwner, \n        funds[_name].totalBalance, \n        funds[_name].feeRate);\n    }\n    //need two functions because of stack height\n    function getFundDetails2(bytes32 _name, address _addr) public view returns (uint, bool, uint, uint){\n        return(funds[_name].paymentCycle,\n        funds[_name].investors[_addr], \n        funds[_name].virtualBalances[_addr],\n        funds[_name].fees[_addr]);\n    }\n}",
  "sourcePath": "/home/bryherbz/Documents/final-project-bryanherbert/contracts/FundMarketplace.sol",
  "compiler": {
    "name": "solc",
    "version": "0.4.24+commit.e67f0147.Emscripten.clang"
  },
  "schemaVersion": "2.0.1",
  "updatedAt": "2018-12-20T21:59:31.365Z"
}