{
  "contractName": "FundMarketplace",
  "abi": [
    {
      "inputs": [],
      "payable": false,
      "stateMutability": "nonpayable",
      "type": "constructor"
    },
    {
      "anonymous": false,
      "inputs": [
        {
          "indexed": false,
          "name": "name",
          "type": "bytes32"
        },
        {
          "indexed": false,
          "name": "fundCount",
          "type": "uint256"
        },
        {
          "indexed": false,
          "name": "stratOwner",
          "type": "address"
        }
      ],
      "name": "FundCreated",
      "type": "event"
    },
    {
      "anonymous": false,
      "inputs": [
        {
          "indexed": false,
          "name": "name",
          "type": "bytes32"
        },
        {
          "indexed": false,
          "name": "investor",
          "type": "address"
        },
        {
          "indexed": false,
          "name": "investment",
          "type": "uint256"
        }
      ],
      "name": "Investment",
      "type": "event"
    },
    {
      "anonymous": false,
      "inputs": [
        {
          "indexed": false,
          "name": "name",
          "type": "bytes32"
        },
        {
          "indexed": false,
          "name": "fee",
          "type": "uint256"
        }
      ],
      "name": "FeesCollected",
      "type": "event"
    },
    {
      "anonymous": false,
      "inputs": [
        {
          "indexed": false,
          "name": "name",
          "type": "bytes32"
        },
        {
          "indexed": false,
          "name": "investor",
          "type": "address"
        },
        {
          "indexed": false,
          "name": "investment",
          "type": "uint256"
        },
        {
          "indexed": false,
          "name": "fees",
          "type": "uint256"
        }
      ],
      "name": "FundsWithdrawn",
      "type": "event"
    },
    {
      "constant": true,
      "inputs": [],
      "name": "getFundList",
      "outputs": [
        {
          "name": "",
          "type": "address"
        }
      ],
      "payable": false,
      "stateMutability": "view",
      "type": "function"
    },
    {
      "constant": false,
      "inputs": [
        {
          "name": "_name",
          "type": "bytes32"
        },
        {
          "name": "_fundOwner",
          "type": "address"
        },
        {
          "name": "_investment",
          "type": "uint256"
        },
        {
          "name": "_feeRate",
          "type": "uint256"
        },
        {
          "name": "_paymentCycle",
          "type": "uint256"
        }
      ],
      "name": "initializeFund",
      "outputs": [],
      "payable": true,
      "stateMutability": "payable",
      "type": "function"
    },
    {
      "constant": false,
      "inputs": [
        {
          "name": "_name",
          "type": "bytes32"
        },
        {
          "name": "_investment",
          "type": "uint256"
        }
      ],
      "name": "Invest",
      "outputs": [],
      "payable": true,
      "stateMutability": "payable",
      "type": "function"
    },
    {
      "constant": false,
      "inputs": [
        {
          "name": "_name",
          "type": "bytes32"
        },
        {
          "name": "_timePeriod",
          "type": "uint256"
        }
      ],
      "name": "payFee",
      "outputs": [],
      "payable": false,
      "stateMutability": "nonpayable",
      "type": "function"
    }
  ],
  "bytecode": "0x608060405234801561001057600080fd5b50336000806101000a81548173ffffffffffffffffffffffffffffffffffffffff021916908373ffffffffffffffffffffffffffffffffffffffff1602179055506100596100bb565b604051809103906000f080158015610075573d6000803e3d6000fd5b50600160006101000a81548173ffffffffffffffffffffffffffffffffffffffff021916908373ffffffffffffffffffffffffffffffffffffffff1602179055506100cb565b6040516111ef806111d983390190565b6110ff806100da6000396000f300608060405260043610610062576000357c0100000000000000000000000000000000000000000000000000000000900463ffffffff168063316e15311461006757806371a01643146100c957806381bb2b2014610120578063fb0c50e01461015b575b600080fd5b6100c76004803603810190808035600019169060200190929190803573ffffffffffffffffffffffffffffffffffffffff169060200190929190803590602001909291908035906020019092919080359060200190929190505050610189565b005b3480156100d557600080fd5b506100de610353565b604051808273ffffffffffffffffffffffffffffffffffffffff1673ffffffffffffffffffffffffffffffffffffffff16815260200191505060405180910390f35b34801561012c57600080fd5b5061015960048036038101908080356000191690602001909291908035906020019092919050505061037d565b005b610187600480360381019080803560001916906020019092919080359060200190929190505050610c21565b005b6000806000600160009054906101000a900473ffffffffffffffffffffffffffffffffffffffff1673ffffffffffffffffffffffffffffffffffffffff1663316e153189898989896040518663ffffffff167c01000000000000000000000000000000000000000000000000000000000281526004018086600019166000191681526020018573ffffffffffffffffffffffffffffffffffffffff1673ffffffffffffffffffffffffffffffffffffffff16815260200184815260200183815260200182815260200195505050505050606060405180830381600087803b15801561027357600080fd5b505af1158015610287573d6000803e3d6000fd5b505050506040513d606081101561029d57600080fd5b810190808051906020019092919080519060200190929190805190602001909291905050508093508194508295505050507f1936274dd5f17a14226bac98f04da5d53136534654cd5e659d4f20b2fa09a85e8383836040518084600019166000191681526020018381526020018273ffffffffffffffffffffffffffffffffffffffff1673ffffffffffffffffffffffffffffffffffffffff168152602001935050505060405180910390a15050505050505050565b6000600160009054906101000a900473ffffffffffffffffffffffffffffffffffffffff16905090565b8160011515600160009054906101000a900473ffffffffffffffffffffffffffffffffffffffff1673ffffffffffffffffffffffffffffffffffffffff16636ca0b5c883336040518363ffffffff167c01000000000000000000000000000000000000000000000000000000000281526004018083600019166000191681526020018273ffffffffffffffffffffffffffffffffffffffff1673ffffffffffffffffffffffffffffffffffffffff16815260200192505050602060405180830381600087803b15801561044f57600080fd5b505af1158015610463573d6000803e3d6000fd5b505050506040513d602081101561047957600080fd5b81019080805190602001909291905050501515141515610527576040517f08c379a00000000000000000000000000000000000000000000000000000000081526004018080602001828103825260218152602001807f4d6573736167652053656e646572206973206e6f7420616e20696e766573746f81526020017f720000000000000000000000000000000000000000000000000000000000000081525060400191505060405180910390fd5b82826000806000600160009054906101000a900473ffffffffffffffffffffffffffffffffffffffff1673ffffffffffffffffffffffffffffffffffffffff1663628a0a8786336040518363ffffffff167c01000000000000000000000000000000000000000000000000000000000281526004018083600019166000191681526020018273ffffffffffffffffffffffffffffffffffffffff1673ffffffffffffffffffffffffffffffffffffffff16815260200192505050608060405180830381600087803b1580156105fb57600080fd5b505af115801561060f573d6000803e3d6000fd5b505050506040513d608081101561062557600080fd5b810190808051906020019092919080519060200190929190805190602001909291908051906020019092919050505090919250909150809350819450505083600160009054906101000a900473ffffffffffffffffffffffffffffffffffffffff1673ffffffffffffffffffffffffffffffffffffffff1663cfe9b4e7876040518263ffffffff167c0100000000000000000000000000000000000000000000000000000000028152600401808260001916600019168152602001915050602060405180830381600087803b1580156106fd57600080fd5b505af1158015610711573d6000803e3d6000fd5b505050506040513d602081101561072757600080fd5b81019080805190602001909291905050508481151561074257fe5b0481151561074c57fe5b0490508082111515610812576040517f08c379a000000000000000000000000000000000000000000000000000000000815260040180806020018281038252604c8152602001807f4665652062616c616e636520697320696e73756666696369656e7420746f206d81526020017f616b65207061796d656e74206f72207061796d656e74206379636c652069732081526020017f6e6f7420636f6d706c657465000000000000000000000000000000000000000081525060600191505060405180910390fd5b87600080600160009054906101000a900473ffffffffffffffffffffffffffffffffffffffff1673ffffffffffffffffffffffffffffffffffffffff1663b893565d84336040518363ffffffff167c01000000000000000000000000000000000000000000000000000000000281526004018083600019166000191681526020018273ffffffffffffffffffffffffffffffffffffffff1673ffffffffffffffffffffffffffffffffffffffff16815260200192505050602060405180830381600087803b1580156108e357600080fd5b505af11580156108f7573d6000803e3d6000fd5b505050506040513d602081101561090d57600080fd5b81019080805190602001909291905050509150600160009054906101000a900473ffffffffffffffffffffffffffffffffffffffff1673ffffffffffffffffffffffffffffffffffffffff1663628a0a8784336040518363ffffffff167c01000000000000000000000000000000000000000000000000000000000281526004018083600019166000191681526020018273ffffffffffffffffffffffffffffffffffffffff1673ffffffffffffffffffffffffffffffffffffffff16815260200192505050608060405180830381600087803b1580156109ed57600080fd5b505af1158015610a01573d6000803e3d6000fd5b505050506040513d6080811015610a1757600080fd5b81019080805190602001909291908051906020019092919080519060200190929190805190602001909291905050509091509050508091505062015180810282014210151515610af5576040517f08c379a00000000000000000000000000000000000000000000000000000000081526004018080602001828103825260218152602001807f4379636c65206973206e6f7420636f6d706c6574652c206e6f2066656520647581526020017f650000000000000000000000000000000000000000000000000000000000000081525060400191505060405180910390fd5b600160009054906101000a900473ffffffffffffffffffffffffffffffffffffffff1673ffffffffffffffffffffffffffffffffffffffff1660405180807f70617946656528627974657333322c2075696e742c2061646472657373290000815250601e01905060405180910390207c010000000000000000000000000000000000000000000000000000000090048c8c336040518463ffffffff167c01000000000000000000000000000000000000000000000000000000000281526004018084600019166000191681526020018381526020018273ffffffffffffffffffffffffffffffffffffffff1673ffffffffffffffffffffffffffffffffffffffff16815260200193505050506000604051808303816000875af192505050505050505050505050505050565b600080600084846000600160009054906101000a900473ffffffffffffffffffffffffffffffffffffffff1673ffffffffffffffffffffffffffffffffffffffff1663cfe9b4e7846040518263ffffffff167c0100000000000000000000000000000000000000000000000000000000028152600401808260001916600019168152602001915050602060405180830381600087803b158015610cc357600080fd5b505af1158015610cd7573d6000803e3d6000fd5b505050506040513d6020811015610ced57600080fd5b810190808051906020019092919050505082811515610d0857fe5b0490508082013373ffffffffffffffffffffffffffffffffffffffff1631111515610dc1576040517f08c379a000000000000000000000000000000000000000000000000000000000815260040180806020018281038252602d8152602001807f53656e64657220646f6573206e6f74206861766520656e6f7567682062616c6181526020017f6e636520746f20696e766573740000000000000000000000000000000000000081525060400191505060405180910390fd5b878734600160009054906101000a900473ffffffffffffffffffffffffffffffffffffffff1673ffffffffffffffffffffffffffffffffffffffff1663cfe9b4e7846040518263ffffffff167c0100000000000000000000000000000000000000000000000000000000028152600401808260001916600019168152602001915050602060405180830381600087803b158015610e5d57600080fd5b505af1158015610e71573d6000803e3d6000fd5b505050506040513d6020811015610e8757600080fd5b810190808051906020019092919050505082811515610ea257fe5b048110151515610f1a576040517f08c379a00000000000000000000000000000000000000000000000000000000081526004018080602001828103825260128152602001807f46656520697320696e737566666963656e74000000000000000000000000000081525060200191505060405180910390fd5b600160009054906101000a900473ffffffffffffffffffffffffffffffffffffffff1673ffffffffffffffffffffffffffffffffffffffff166313c42676348d8d336040518563ffffffff167c01000000000000000000000000000000000000000000000000000000000281526004018084600019166000191681526020018381526020018273ffffffffffffffffffffffffffffffffffffffff1673ffffffffffffffffffffffffffffffffffffffff16815260200193505050506060604051808303818588803b158015610fef57600080fd5b505af1158015611003573d6000803e3d6000fd5b50505050506040513d606081101561101a57600080fd5b81019080805190602001909291908051906020019092919080519060200190929190505050809950819a50829b505050507f2b158127221737cd431395104f48aa6534ed782d1c9c8b2ac852d925c0c1e9c18b338c6040518084600019166000191681526020018373ffffffffffffffffffffffffffffffffffffffff1673ffffffffffffffffffffffffffffffffffffffff168152602001828152602001935050505060405180910390a150505050505050505050505600a165627a7a7230582011bfcbfc18a9fdbc42009bcf2cecbac7d312ecb65b9cfc37b4ca1a91acc27c1a0029608060405234801561001057600080fd5b50336000806101000a81548173ffffffffffffffffffffffffffffffffffffffff021916908373ffffffffffffffffffffffffffffffffffffffff1602179055506000600281905550611187806100686000396000f30060806040526004361061008e576000357c0100000000000000000000000000000000000000000000000000000000900463ffffffff16806313c4267614610093578063316e153114610137578063628a0a87146101ef5780636ca0b5c81461026d578063a7365174146102d6578063b893565d14610364578063cfe9b4e7146103c9578063d30b53861461040e575b600080fd5b6100df600480360381019080803560001916906020019092919080359060200190929190803573ffffffffffffffffffffffffffffffffffffffff169060200190929190505050610469565b6040518084600019166000191681526020018373ffffffffffffffffffffffffffffffffffffffff1673ffffffffffffffffffffffffffffffffffffffff168152602001828152602001935050505060405180910390f35b6101976004803603810190808035600019169060200190929190803573ffffffffffffffffffffffffffffffffffffffff1690602001909291908035906020019092919080359060200190929190803590602001909291905050506107a2565b6040518084600019166000191681526020018381526020018273ffffffffffffffffffffffffffffffffffffffff1673ffffffffffffffffffffffffffffffffffffffff168152602001935050505060405180910390f35b3480156101fb57600080fd5b5061023e6004803603810190808035600019169060200190929190803573ffffffffffffffffffffffffffffffffffffffff169060200190929190505050610b39565b604051808581526020018415151515815260200183815260200182815260200194505050505060405180910390f35b34801561027957600080fd5b506102bc6004803603810190808035600019169060200190929190803573ffffffffffffffffffffffffffffffffffffffff169060200190929190505050610c90565b604051808215151515815260200191505060405180910390f35b3480156102e257600080fd5b506103056004803603810190808035600019169060200190929190505050610cb2565b6040518085600019166000191681526020018473ffffffffffffffffffffffffffffffffffffffff1673ffffffffffffffffffffffffffffffffffffffff16815260200183815260200182815260200194505050505060405180910390f35b34801561037057600080fd5b506103b36004803603810190808035600019169060200190929190803573ffffffffffffffffffffffffffffffffffffffff169060200190929190505050610d63565b6040518082815260200191505060405180910390f35b3480156103d557600080fd5b506103f86004803603810190808035600019169060200190929190505050610dc9565b6040518082815260200191505060405180910390f35b34801561041a57600080fd5b50610467600480360381019080803560001916906020019092919080359060200190929190803573ffffffffffffffffffffffffffffffffffffffff169060200190929190505050610dfd565b005b60008060008060009054906101000a900473ffffffffffffffffffffffffffffffffffffffff1673ffffffffffffffffffffffffffffffffffffffff163373ffffffffffffffffffffffffffffffffffffffff16141515610558576040517f08c379a00000000000000000000000000000000000000000000000000000000081526004018080602001828103825260238152602001807f4d6573736167652053656e646572206973206e6f742041646d696e697374726181526020017f746f72000000000000000000000000000000000000000000000000000000000081525060400191505060405180910390fd5b84600160008860001916600019168152602001908152602001600020600201600082825401925050819055506001806000886000191660001916815260200190815260200160002060050160008673ffffffffffffffffffffffffffffffffffffffff1673ffffffffffffffffffffffffffffffffffffffff16815260200190815260200160002060006101000a81548160ff0219169083151502179055508460016000886000191660001916815260200190815260200160002060060160008673ffffffffffffffffffffffffffffffffffffffff1673ffffffffffffffffffffffffffffffffffffffff168152602001908152602001600020819055503460016000886000191660001916815260200190815260200160002060070160008673ffffffffffffffffffffffffffffffffffffffff1673ffffffffffffffffffffffffffffffffffffffff168152602001908152602001600020819055504260016000886000191660001916815260200190815260200160002060080160008673ffffffffffffffffffffffffffffffffffffffff1673ffffffffffffffffffffffffffffffffffffffff16815260200190815260200160002081905550600160008760001916600019168152602001908152602001600020600001548460016000896000191660001916815260200190815260200160002060060160008773ffffffffffffffffffffffffffffffffffffffff1673ffffffffffffffffffffffffffffffffffffffff1681526020019081526020016000205492509250925093509350939050565b60008060008060009054906101000a900473ffffffffffffffffffffffffffffffffffffffff1673ffffffffffffffffffffffffffffffffffffffff163373ffffffffffffffffffffffffffffffffffffffff16141515610891576040517f08c379a00000000000000000000000000000000000000000000000000000000081526004018080602001828103825260238152602001807f4d6573736167652053656e646572206973206e6f742041646d696e697374726181526020017f746f72000000000000000000000000000000000000000000000000000000000081525060400191505060405180910390fd5b87600160008a60001916600019168152602001908152602001600020600001816000191690555086600160008a6000191660001916815260200190815260200160002060010160006101000a81548173ffffffffffffffffffffffffffffffffffffffff021916908373ffffffffffffffffffffffffffffffffffffffff16021790555085600160008a600019166000191681526020019081526020016000206002018190555084600160008a600019166000191681526020019081526020016000206003018190555083600160008a600019166000191681526020019081526020016000206004018190555060018060008a6000191660001916815260200190815260200160002060050160008973ffffffffffffffffffffffffffffffffffffffff1673ffffffffffffffffffffffffffffffffffffffff16815260200190815260200160002060006101000a81548160ff02191690831515021790555085600160008a6000191660001916815260200190815260200160002060060160008973ffffffffffffffffffffffffffffffffffffffff1673ffffffffffffffffffffffffffffffffffffffff168152602001908152602001600020819055506000600160008a6000191660001916815260200190815260200160002060070160008973ffffffffffffffffffffffffffffffffffffffff1673ffffffffffffffffffffffffffffffffffffffff1681526020019081526020016000208190555060026000815480929190600101919050555060016000896000191660001916815260200190815260200160002060000154600160025403600160008b6000191660001916815260200190815260200160002060010160009054906101000a900473ffffffffffffffffffffffffffffffffffffffff16925092509250955095509592505050565b6000806000806001600087600019166000191681526020019081526020016000206004015460016000886000191660001916815260200190815260200160002060050160008773ffffffffffffffffffffffffffffffffffffffff1673ffffffffffffffffffffffffffffffffffffffff16815260200190815260200160002060009054906101000a900460ff1660016000896000191660001916815260200190815260200160002060060160008873ffffffffffffffffffffffffffffffffffffffff1673ffffffffffffffffffffffffffffffffffffffff16815260200190815260200160002054600160008a6000191660001916815260200190815260200160002060070160008973ffffffffffffffffffffffffffffffffffffffff1673ffffffffffffffffffffffffffffffffffffffff16815260200190815260200160002054935093509350935092959194509250565b600080610c9d8484610b39565b90919250905050809150508091505092915050565b6000806000806001600086600019166000191681526020019081526020016000206000015460016000876000191660001916815260200190815260200160002060010160009054906101000a900473ffffffffffffffffffffffffffffffffffffffff16600160008860001916600019168152602001908152602001600020600201546001600089600019166000191681526020019081526020016000206003015493509350935093509193509193565b600060016000846000191660001916815260200190815260200160002060080160008373ffffffffffffffffffffffffffffffffffffffff1673ffffffffffffffffffffffffffffffffffffffff16815260200190815260200160002054905092915050565b6000600160008360001916600019168152602001908152602001600020600301546064811515610df557fe5b049050919050565b6000806000809054906101000a900473ffffffffffffffffffffffffffffffffffffffff1673ffffffffffffffffffffffffffffffffffffffff163373ffffffffffffffffffffffffffffffffffffffff16141515610eea576040517f08c379a00000000000000000000000000000000000000000000000000000000081526004018080602001828103825260238152602001807f4d6573736167652053656e646572206973206e6f742041646d696e697374726181526020017f746f72000000000000000000000000000000000000000000000000000000000081525060400191505060405180910390fd5b83610ef486610dc9565b60016000886000191660001916815260200190815260200160002060060160008673ffffffffffffffffffffffffffffffffffffffff1673ffffffffffffffffffffffffffffffffffffffff16815260200190815260200160002054811515610f5957fe5b04811515610f6357fe5b04915060016000866000191660001916815260200190815260200160002060010160009054906101000a900473ffffffffffffffffffffffffffffffffffffffff1690508160016000876000191660001916815260200190815260200160002060070160008573ffffffffffffffffffffffffffffffffffffffff1673ffffffffffffffffffffffffffffffffffffffff168152602001908152602001600020600082825403925050819055508160016000876000191660001916815260200190815260200160002060070160008373ffffffffffffffffffffffffffffffffffffffff1673ffffffffffffffffffffffffffffffffffffffff168152602001908152602001600020600082825401925050819055504260016000876000191660001916815260200190815260200160002060080160008573ffffffffffffffffffffffffffffffffffffffff1673ffffffffffffffffffffffffffffffffffffffff168152602001908152602001600020819055507fcdaf268fff4093ca2f3a0c5457f2a78a56c4da37c292d3a66a9d8e645d2b78018584846040518084600019166000191681526020018373ffffffffffffffffffffffffffffffffffffffff1673ffffffffffffffffffffffffffffffffffffffff168152602001828152602001935050505060405180910390a150505050505600a165627a7a7230582006633ded453ade3b9a0c7d1d44c6a2d36fb706e16c4d7e35f517aa71b0a6c8e00029",
  "source": "pragma solidity ^0.4.24;\n\nimport \"../contracts/FundList.sol\";\n\ncontract FundMarketplace {\n    //State Variables\n    address internal admin;\n    //FundList Contract\n    FundList fl;\n\n    //Events\n    event FundCreated(\n        bytes32 name,\n        uint fundCount,\n        address stratOwner\n    );\n\n    event Investment(\n        bytes32 name,\n        address investor,\n        uint investment\n    );\n\n    event FeesCollected(\n        bytes32 name,\n        uint fee\n    );\n\n    event FundsWithdrawn(\n        bytes32 name,\n        address investor,\n        uint investment,\n        uint fees\n    );\n\n    //Modifiers\n    modifier verifyBalance(bytes32 _name, uint _investment){\n        //Account Balance must be greater than investment + Fees\n        //Not sure this correct- want it to represent ~2%\n        uint fee = _investment/fl.checkFeeRate(_name);\n        require(\n            msg.sender.balance > _investment + fee,\n            \"Sender does not have enough balance to invest\"\n        );\n        _;\n    }\n\n    modifier verifyFee(bytes32 _name, uint _investment, uint _proposedFee) {\n        //Verify that the msg.value > fee\n        require(\n            _proposedFee >= _investment/fl.checkFeeRate(_name),\n            \"Fee is insufficent\"\n        );\n        _;\n    }\n\n    modifier checkFeePayment(bytes32 _name, uint _timePeriod) {\n        uint virtualBalance;\n        uint fees;\n        //Get investor's virtual balance and fees deposited\n        (,,virtualBalance,fees) = fl.getFundDetails2(_name, msg.sender);\n        uint payment = (virtualBalance/fl.checkFeeRate(_name))/_timePeriod;\n        require(\n            //Check that msg.sender has enough in fees to make payment installment\n            fees > payment,\n            \"Fee balance is insufficient to make payment or payment cycle is not complete\"\n        );\n        _;\n    }\n\n    modifier verifyInvestmentStatus(bytes32 _name){\n        //check that msg.sender is an investor\n        require(\n            fl.isInvestor(_name, msg.sender) == true,\n            \"Message Sender is not an investor\"\n        );\n        _;\n    }\n\n    // //Can replace this with ethpm code\n    // modifier isOwner(bytes32 _name){\n    //     address _fundOwner;\n    //     (,_fundOwner,,) = fl.getFundDetails(_name);\n    //     require(\n    //         _fundOwner == msg.sender,\n    //         \"Message Sender does not own strategy\"\n    //     );\n    //     _;\n    // }\n\n    modifier cycleComplete(bytes32 _name){\n        uint paymentCycleStart = fl.checkPaymentCycleStart(_name, msg.sender);\n        uint paymentCycle;\n        (paymentCycle,,,) = fl.getFundDetails2(_name, msg.sender);\n\n        require(\n            now >= paymentCycleStart + paymentCycle * 1 days,\n            \"Cycle is not complete, no fee due\"\n        );\n        _;\n    }\n\n    constructor() public {\n        admin = msg.sender;\n        fl = new FundList();\n    }\n\n    //Both initializes and returns address of a new Fundlist()- for gas purposes\n    function getFundList() external view returns (FundList) {\n        return fl;\n    }\n\n    function initializeFund(bytes32 _name, address _fundOwner, uint _investment, uint _feeRate, uint _paymentCycle) \n    external payable {\n        bytes32 fundName;\n        uint fundCount;\n        address fundOwner;\n        (fundName, fundCount, fundOwner) = fl.initializeFund(_name, _fundOwner, _investment, _feeRate, _paymentCycle);\n        //Emit Event\n        emit FundCreated(fundName, fundCount, fundOwner);\n    }\n\n\n    //Make investment into particular fund\n    //Must have required funds\n    function Invest(bytes32 _name, uint _investment) \n    external payable \n    verifyBalance(_name, _investment) \n    verifyFee(_name, _investment, msg.value) {\n        bytes32 fundName;\n        address newInvestor;\n        uint newInvestment;\n        (fundName, newInvestor, newInvestment) = fl.Invest.value(msg.value)(_name, _investment, msg.sender);\n        //Emit event\n        emit Investment(_name, msg.sender, _investment);\n    }\n\n    //One-time pay fee function\n    function payFee(bytes32 _name, uint _timePeriod) external\n    verifyInvestmentStatus(_name)\n    checkFeePayment(_name, _timePeriod)\n    cycleComplete(_name)\n    {\n        fl.call(bytes4(keccak256(\"payFee(bytes32, uint, address)\")), _name, _timePeriod, msg.sender);\n    }\n\n    // //Owner of Strategy Collects Fees\n    // function collectFees(bytes32 _name) external\n    // isOwner(_name)\n    // {\n    //     uint feesCollected = fl.collectFees(_name, msg.sender);\n    //     emit FeesCollected(_name, feesCollected);\n    // }\n/*\n    function withdrawFunds(bytes32 _name) public\n    verifyInvestmentStatus(_name) \n    {\n        //Need to make sure this matches up with withdraw philosophy\n        //Temporary Balance and Fees\n        uint bal = strategies[_name].virtualBalances[msg.sender];\n        uint fees = strategies[_name].fees[msg.sender];\n        //subtract virtual balance from total funds\n        strategies[_name].funds -= bal;\n        //zero out virtual Balance\n        strategies[_name].virtualBalances[msg.sender] = 0;\n        //transfer fees back to investor\n        msg.sender.transfer(fees);\n        //Zero out fees\n        strategies[_name].fees[msg.sender] = 0;\n        //set investor status to faslse\n        strategies[_name].investors[msg.sender] = false;\n        emit FundsWithdrawn(_name, msg.sender, bal, fees);\n    }\n*/\n}",
  "sourcePath": "/home/bryherbz/Documents/final-project-bryanherbert/contracts/FundMarketplace.sol",
  "compiler": {
    "name": "solc",
    "version": "0.4.24+commit.e67f0147.Emscripten.clang"
  },
  "schemaVersion": "2.0.1",
  "updatedAt": "2018-12-27T23:59:11.863Z"
}