{
  "contractName": "FundMarketplace",
  "abi": [
    {
      "inputs": [],
      "payable": false,
      "stateMutability": "nonpayable",
      "type": "constructor"
    },
    {
      "constant": false,
      "inputs": [
        {
          "name": "_name",
          "type": "bytes32"
        },
        {
          "name": "_fundOwner",
          "type": "address"
        },
        {
          "name": "_investment",
          "type": "uint256"
        },
        {
          "name": "_feeRate",
          "type": "uint256"
        },
        {
          "name": "_paymentCycle",
          "type": "uint256"
        }
      ],
      "name": "initializeFund",
      "outputs": [],
      "payable": true,
      "stateMutability": "payable",
      "type": "function"
    },
    {
      "constant": true,
      "inputs": [
        {
          "name": "_name",
          "type": "bytes32"
        },
        {
          "name": "_investor",
          "type": "address"
        }
      ],
      "name": "isInvestor",
      "outputs": [
        {
          "name": "",
          "type": "bool"
        }
      ],
      "payable": false,
      "stateMutability": "view",
      "type": "function"
    },
    {
      "constant": false,
      "inputs": [
        {
          "name": "_name",
          "type": "bytes32"
        },
        {
          "name": "_investment",
          "type": "uint256"
        }
      ],
      "name": "Invest",
      "outputs": [],
      "payable": true,
      "stateMutability": "payable",
      "type": "function"
    },
    {
      "constant": true,
      "inputs": [
        {
          "name": "_name",
          "type": "bytes32"
        }
      ],
      "name": "checkFeeRate",
      "outputs": [
        {
          "name": "",
          "type": "uint256"
        }
      ],
      "payable": false,
      "stateMutability": "view",
      "type": "function"
    },
    {
      "constant": false,
      "inputs": [
        {
          "name": "_name",
          "type": "bytes32"
        },
        {
          "name": "_timePeriod",
          "type": "uint256"
        }
      ],
      "name": "payFee",
      "outputs": [],
      "payable": false,
      "stateMutability": "nonpayable",
      "type": "function"
    },
    {
      "constant": true,
      "inputs": [
        {
          "name": "_name",
          "type": "bytes32"
        },
        {
          "name": "_investor",
          "type": "address"
        }
      ],
      "name": "checkPaymentCycleStart",
      "outputs": [
        {
          "name": "",
          "type": "uint256"
        }
      ],
      "payable": false,
      "stateMutability": "view",
      "type": "function"
    },
    {
      "constant": true,
      "inputs": [
        {
          "name": "_name",
          "type": "bytes32"
        }
      ],
      "name": "getFundDetails",
      "outputs": [
        {
          "name": "",
          "type": "bytes32"
        },
        {
          "name": "",
          "type": "address"
        },
        {
          "name": "",
          "type": "uint256"
        },
        {
          "name": "",
          "type": "uint256"
        }
      ],
      "payable": false,
      "stateMutability": "view",
      "type": "function"
    },
    {
      "constant": true,
      "inputs": [
        {
          "name": "_name",
          "type": "bytes32"
        },
        {
          "name": "_addr",
          "type": "address"
        }
      ],
      "name": "getFundDetails2",
      "outputs": [
        {
          "name": "",
          "type": "uint256"
        },
        {
          "name": "",
          "type": "bool"
        },
        {
          "name": "",
          "type": "uint256"
        },
        {
          "name": "",
          "type": "uint256"
        }
      ],
      "payable": false,
      "stateMutability": "view",
      "type": "function"
    }
  ],
  "bytecode": "0x608060405234801561001057600080fd5b50336000806101000a81548173ffffffffffffffffffffffffffffffffffffffff021916908373ffffffffffffffffffffffffffffffffffffffff1602179055506110ec806100606000396000f30060806040526004361061008e576000357c0100000000000000000000000000000000000000000000000000000000900463ffffffff168063316e153114610093578063628a0a87146100f55780636ca0b5c81461017357806381bb2b20146101dc578063a736517414610217578063b893565d146102a5578063cfe9b4e71461030a578063fb0c50e01461034f575b600080fd5b6100f36004803603810190808035600019169060200190929190803573ffffffffffffffffffffffffffffffffffffffff16906020019092919080359060200190929190803590602001909291908035906020019092919050505061037d565b005b34801561010157600080fd5b506101446004803603810190808035600019169060200190929190803573ffffffffffffffffffffffffffffffffffffffff1690602001909291905050506103a5565b604051808581526020018415151515815260200183815260200182815260200194505050505060405180910390f35b34801561017f57600080fd5b506101c26004803603810190808035600019169060200190929190803573ffffffffffffffffffffffffffffffffffffffff169060200190929190505050610508565b604051808215151515815260200191505060405180910390f35b3480156101e857600080fd5b5061021560048036038101908080356000191690602001909291908035906020019092919050505061052a565b005b34801561022357600080fd5b5061024660048036038101908080356000191690602001909291905050506107c2565b6040518085600019166000191681526020018473ffffffffffffffffffffffffffffffffffffffff1673ffffffffffffffffffffffffffffffffffffffff16815260200183815260200182815260200194505050505060405180910390f35b3480156102b157600080fd5b506102f46004803603810190808035600019169060200190929190803573ffffffffffffffffffffffffffffffffffffffff16906020019092919050505061087f565b6040518082815260200191505060405180910390f35b34801561031657600080fd5b5061033960048036038101908080356000191690602001909291905050506108e8565b6040518082815260200191505060405180910390f35b61037b6004803603810190808035600019169060200190929190803590602001909291905050506108fc565b005b61038c60018686868686610a72565b6002600081548092919060010191905055505050505050565b6000806000806001600001600087600019166000191681526020019081526020016000206004015460016000016000886000191660001916815260200190815260200160002060050160008773ffffffffffffffffffffffffffffffffffffffff1673ffffffffffffffffffffffffffffffffffffffff16815260200190815260200160002060009054906101000a900460ff1660016000016000896000191660001916815260200190815260200160002060060160008873ffffffffffffffffffffffffffffffffffffffff1673ffffffffffffffffffffffffffffffffffffffff16815260200190815260200160002054600160000160008a6000191660001916815260200190815260200160002060070160008973ffffffffffffffffffffffffffffffffffffffff1673ffffffffffffffffffffffffffffffffffffffff16815260200190815260200160002054935093509350935092959194509250565b60008061051584846103a5565b90919250905050809150508091505092915050565b6000826001151561053b8233610508565b15151415156105d8576040517f08c379a00000000000000000000000000000000000000000000000000000000081526004018080602001828103825260218152602001807f4d6573736167652053656e646572206973206e6f7420616e20696e766573746f81526020017f720000000000000000000000000000000000000000000000000000000000000081525060400191505060405180910390fd5b838360008060006105e985336103a5565b90919250909150809350819450505083610602866108e8565b8481151561060c57fe5b0481151561061657fe5b04905080821115156106dc576040517f08c379a000000000000000000000000000000000000000000000000000000000815260040180806020018281038252604c8152602001807f4665652062616c616e636520697320696e73756666696369656e7420746f206d81526020017f616b65207061796d656e74206f72207061796d656e74206379636c652069732081526020017f6e6f7420636f6d706c657465000000000000000000000000000000000000000081525060600191505060405180910390fd5b886000806106ea833361087f565b91506106f683336103a5565b90915090505080915050620151808102820142101515156107a5576040517f08c379a00000000000000000000000000000000000000000000000000000000081526004018080602001828103825260218152602001807f4379636c65206973206e6f7420636f6d706c6574652c206e6f2066656520647581526020017f650000000000000000000000000000000000000000000000000000000000000081525060400191505060405180910390fd5b6107b260018d8d33610cac565b9950505050505050505050505050565b6000806000806001600001600086600019166000191681526020019081526020016000206000015460016000016000876000191660001916815260200190815260200160002060010160009054906101000a900473ffffffffffffffffffffffffffffffffffffffff16600160000160008860001916600019168152602001908152602001600020600201546001600001600089600019166000191681526020019081526020016000206003015493509350935093509193509193565b600060016000016000846000191660001916815260200190815260200160002060080160008373ffffffffffffffffffffffffffffffffffffffff1673ffffffffffffffffffffffffffffffffffffffff16815260200190815260200160002054905092915050565b60006108f5600183610eb8565b9050919050565b81816000610909836108e8565b8281151561091357fe5b0490508082013373ffffffffffffffffffffffffffffffffffffffff16311115156109cc576040517f08c379a000000000000000000000000000000000000000000000000000000000815260040180806020018281038252602d8152602001807f53656e64657220646f6573206e6f74206861766520656e6f7567682062616c6181526020017f6e636520746f20696e766573740000000000000000000000000000000000000081525060400191505060405180910390fd5b8484346109d8836108e8565b828115156109e257fe5b048110151515610a5a576040517f08c379a00000000000000000000000000000000000000000000000000000000081526004018080602001828103825260128152602001807f46656520697320696e737566666963656e74000000000000000000000000000081525060200191505060405180910390fd5b610a68600189893334610eef565b5050505050505050565b848660000160008760001916600019168152602001908152602001600020600001816000191690555083866000016000876000191660001916815260200190815260200160002060010160006101000a81548173ffffffffffffffffffffffffffffffffffffffff021916908373ffffffffffffffffffffffffffffffffffffffff1602179055508286600001600087600019166000191681526020019081526020016000206002018190555081866000016000876000191660001916815260200190815260200160002060030181905550808660000160008760001916600019168152602001908152602001600020600401819055506001866000016000876000191660001916815260200190815260200160002060050160008673ffffffffffffffffffffffffffffffffffffffff1673ffffffffffffffffffffffffffffffffffffffff16815260200190815260200160002060006101000a81548160ff02191690831515021790555082866000016000876000191660001916815260200190815260200160002060060160008673ffffffffffffffffffffffffffffffffffffffff1673ffffffffffffffffffffffffffffffffffffffff168152602001908152602001600020819055506000866000016000876000191660001916815260200190815260200160002060070160008673ffffffffffffffffffffffffffffffffffffffff1673ffffffffffffffffffffffffffffffffffffffff16815260200190815260200160002081905550505050505050565b600080600084610cbc8888610eb8565b886000016000896000191660001916815260200190815260200160002060060160008773ffffffffffffffffffffffffffffffffffffffff1673ffffffffffffffffffffffffffffffffffffffff16815260200190815260200160002054811515610d2357fe5b04811515610d2d57fe5b049150866000016000876000191660001916815260200190815260200160002060010160009054906101000a900473ffffffffffffffffffffffffffffffffffffffff16905081876000016000886000191660001916815260200190815260200160002060070160008673ffffffffffffffffffffffffffffffffffffffff1673ffffffffffffffffffffffffffffffffffffffff1681526020019081526020016000206000828254039250508190555081876000016000886000191660001916815260200190815260200160002060070160008373ffffffffffffffffffffffffffffffffffffffff1673ffffffffffffffffffffffffffffffffffffffff1681526020019081526020016000206000828254019250508190555042876000016000886000191660001916815260200190815260200160002060080160008673ffffffffffffffffffffffffffffffffffffffff1673ffffffffffffffffffffffffffffffffffffffff168152602001908152602001600020819055508192505050949350505050565b60008260000160008360001916600019168152602001908152602001600020600301546064811515610ee657fe5b04905092915050565b828560000160008660001916600019168152602001908152602001600020600201600082825401925050819055506001856000016000866000191660001916815260200190815260200160002060050160008473ffffffffffffffffffffffffffffffffffffffff1673ffffffffffffffffffffffffffffffffffffffff16815260200190815260200160002060006101000a81548160ff02191690831515021790555082856000016000866000191660001916815260200190815260200160002060060160008473ffffffffffffffffffffffffffffffffffffffff1673ffffffffffffffffffffffffffffffffffffffff1681526020019081526020016000208190555080856000016000866000191660001916815260200190815260200160002060070160008473ffffffffffffffffffffffffffffffffffffffff1673ffffffffffffffffffffffffffffffffffffffff1681526020019081526020016000208190555042856000016000866000191660001916815260200190815260200160002060080160008473ffffffffffffffffffffffffffffffffffffffff1673ffffffffffffffffffffffffffffffffffffffff1681526020019081526020016000208190555050505050505600a165627a7a72305820fb2913c77ccecc5c047560f17946b1f5487219051930a84c83edabf1187137630029",
  "source": "pragma solidity ^0.4.24;\n\n\nlibrary Init {\n    struct Data { mapping(bytes32 => Fund) list; }\n\n    struct Fund {\n        //Name of fund\n        bytes32 name;\n        //Partner who Initialized the strategy\n        //Could be a multisig wallet\n        address fundOwner;\n        //amount of funds the strategy is virtually managing\n        uint totalBalance;\n        //Add fee that quant can set- in whole number, i.e. 2% is represented as 2\n        uint feeRate;\n        //Number of days in Payment Cycle\n        uint paymentCycle;\n        //maps investors to investment status- current investors return true, non-investors return false\n        mapping (address => bool) investors;\n        //maps investors to their virtual balances in the strategy\n        mapping (address => uint) virtualBalances;\n        //maps investors to the actual fee they have stored in the Strategy Hub contract\n        //fees are paid into stratOwner fee account and paid from investor fee account\n        mapping (address => uint) fees;\n        //Adoption Times for each investor\n        mapping(address => uint) paymentCycleStart;\n        //will need to add IPFS hash eventually to verify code\n    }\n\n    function initializeFund(Data storage self, bytes32 _name, address _fundOwner, uint _investment, uint _feeRate, uint _paymentCycle) \n    internal\n    {\n        //initialize strat name to _name\n        self.list[_name].name = _name;\n        //Strat owner is message sender\n        //Be careful of message sender here - might be the Fund Marketplace contract - might have to use delegatecall\n        self.list[_name].fundOwner = _fundOwner;\n        //Initial funds are the msg.value\n        self.list[_name].totalBalance = _investment;\n        //Set fee rate\n        self.list[_name].feeRate = _feeRate;\n        //Set payment cycle\n        self.list[_name].paymentCycle = _paymentCycle;\n        //set fundOwner to also be an investor\n        self.list[_name].investors[_fundOwner] = true;\n        //set fundOwner's investor balance to the msg.value\n        self.list[_name].virtualBalances[_fundOwner] = _investment;\n        //set fundOwner's fees to zero\n        self.list[_name].fees[_fundOwner] = 0;\n    }\n\n    function Invest(Data storage self, bytes32 _name, uint _investment, address _investor, uint _value) \n    internal\n    {\n        self.list[_name].totalBalance += _investment;\n        self.list[_name].investors[_investor] = true;\n        self.list[_name].virtualBalances[_investor] = _investment;\n        self.list[_name].fees[_investor] = _value;\n        self.list[_name].paymentCycleStart[_investor] = now;\n    }\n\n    //check Fee Rate - read operation from struct\n    function checkFeeRate(Data storage self, bytes32 _name) \n    internal view\n    returns (uint) {\n        return 100/self.list[_name].feeRate;\n    }\n\n    function payFee(Data storage self, bytes32 _name, uint _timePeriod, address _investor) \n    internal\n    returns(uint)\n    {\n        //Calculate payment\n        uint payment = (self.list[_name].virtualBalances[_investor]/checkFeeRate(self, _name))/_timePeriod;\n        //Owner fees account\n        address fundOwner = self.list[_name].fundOwner;\n        //Subtract payment from investor fees\n        self.list[_name].fees[_investor] -= payment;\n        self.list[_name].fees[fundOwner] += payment;\n        self.list[_name].paymentCycleStart[_investor] = now;\n        return payment;\n    }\n}\n\ncontract FundMarketplace {\n    //State Variables\n    address internal admin;\n    Init.Data funds;\n    uint fundCount;\n\n    //Modifiers\n    modifier verifyBalance(bytes32 _name, uint _investment){\n        //Account Balance must be greater than investment + Fees\n        //Not sure this correct- want it to represent ~2%\n        uint fee = _investment/checkFeeRate(_name);\n        require(\n            msg.sender.balance > _investment + fee,\n            \"Sender does not have enough balance to invest\"\n        );\n        _;\n    }\n\n    modifier verifyFee(bytes32 _name, uint _investment, uint _proposedFee) {\n        //Verify that the msg.value > fee\n        require(\n            _proposedFee >= _investment/checkFeeRate(_name),\n            \"Fee is insufficent\"\n        );\n        _;\n    }\n\n    modifier checkFeePayment(bytes32 _name, uint _timePeriod) {\n        uint virtualBalance;\n        uint fees;\n        //Get investor's virtual balance and fees deposited\n        (,,virtualBalance,fees) = getFundDetails2(_name, msg.sender);\n        uint payment = (virtualBalance/checkFeeRate(_name))/_timePeriod;\n        require(\n            //Check that msg.sender has enough in fees to make payment installment\n            fees > payment,\n            \"Fee balance is insufficient to make payment or payment cycle is not complete\"\n        );\n        _;\n    }\n\n    modifier verifyInvestmentStatus(bytes32 _name){\n        //check that msg.sender is an investor\n        require(\n            isInvestor(_name, msg.sender) == true,\n            \"Message Sender is not an investor\"\n        );\n        _;\n    }\n\n    //Can replace this with ethpm code\n    modifier isOwner(bytes32 _name){\n        address _fundOwner;\n        (,_fundOwner,,) = getFundDetails(_name);\n        require(\n            _fundOwner == msg.sender,\n            \"Message Sender does not own strategy\"\n        );\n        _;\n    }\n\n    modifier cycleComplete(bytes32 _name){\n        uint paymentCycleStart = checkPaymentCycleStart(_name, msg.sender);\n        uint paymentCycle;\n        (paymentCycle,,,) = getFundDetails2(_name, msg.sender);\n\n        require(\n            now >= paymentCycleStart + paymentCycle * 1 days,\n            \"Cycle is not complete, no fee due\"\n        );\n        _;\n    }\n\n    constructor() public {\n        admin = msg.sender;\n    }\n\n    function initializeFund(bytes32 _name, address _fundOwner, uint _investment, uint _feeRate, uint _paymentCycle) \n    external payable {\n        Init.initializeFund(funds, _name, _fundOwner, _investment, _feeRate, _paymentCycle);\n        //Increment fundCount\n        fundCount++;\n        //Need to add event\n    }\n\n    //Check to see if an account is an investor in a strategy\n    //eventually change to only one parameter and use delegate call instead\n    function isInvestor(bytes32 _name, address _investor) public view returns (bool) {\n        bool result;\n        (,result,,) = getFundDetails2(_name, _investor);\n        return result;\n    }\n\n    //Make investment into particular fund\n    //Must have required funds\n    function Invest(bytes32 _name, uint _investment) \n    external payable \n    verifyBalance(_name, _investment) \n    verifyFee(_name, _investment, msg.value) \n    {\n        Init.Invest(funds, _name, _investment, msg.sender, msg.value);\n        //Need to add event\n    }\n\n    //check Fee Rate - read operation from struct\n    //was originally \"public view\" when not in library\n    function checkFeeRate(bytes32 _name) public view returns (uint) {\n        return Init.checkFeeRate(funds, _name);\n    }\n\n    //One-time pay fee function\n    function payFee(bytes32 _name, uint _timePeriod) external\n    verifyInvestmentStatus(_name)\n    checkFeePayment(_name, _timePeriod)\n    cycleComplete(_name)\n    {\n        uint payment = Init.payFee(funds, _name, _timePeriod, msg.sender);\n        //Need to add event\n    }\n\n    function checkPaymentCycleStart(bytes32 _name, address _investor) public view\n    returns (uint)\n    {\n        return funds.list[_name].paymentCycleStart[_investor];\n    }\n\n    // //Owner of Strategy Collects Fees\n    // function collectFees(bytes32 _name) external\n    // isOwner(_name)\n    // {\n    //     fl.collectFees(_name, msg.sender);\n    // }\n\n    // function withdrawFunds(bytes32 _name) public\n    // verifyInvestmentStatus(_name) \n    // {\n    //     //Need to make sure this matches up with withdraw philosophy\n    //     fl.withdrawFunds(_name, msg.sender);\n    // }\n\n    //Get fund information (for testing/verification purposes)\n    function getFundDetails(bytes32 _name) public view returns (bytes32, address, uint, uint){\n        return (funds.list[_name].name, \n        funds.list[_name].fundOwner, \n        funds.list[_name].totalBalance, \n        funds.list[_name].feeRate);\n    }\n    //need two functions because of stack height\n    function getFundDetails2(bytes32 _name, address _addr) public view returns (uint, bool, uint, uint){\n        return(funds.list[_name].paymentCycle,\n        funds.list[_name].investors[_addr], \n        funds.list[_name].virtualBalances[_addr],\n        funds.list[_name].fees[_addr]);\n    }\n}",
  "sourcePath": "/home/bryherbz/Documents/final-project-bryanherbert/contracts/FundMarketplace.sol",
  "compiler": {
    "name": "solc",
    "version": "0.4.24+commit.e67f0147.Emscripten.clang"
  },
  "schemaVersion": "2.0.1",
  "updatedAt": "2018-12-28T19:03:52.505Z"
}