{
  "contractName": "Init",
  "abi": [
    {
      "constant": false,
      "inputs": [
        {
          "name": "self",
          "type": "Init.Data storage"
        },
        {
          "name": "_name",
          "type": "bytes32"
        },
        {
          "name": "_fundOwner",
          "type": "address"
        },
        {
          "name": "_investment",
          "type": "uint256"
        },
        {
          "name": "_feeRate",
          "type": "uint256"
        },
        {
          "name": "_paymentCycle",
          "type": "uint256"
        }
      ],
      "name": "initializeFund",
      "outputs": [],
      "payable": false,
      "stateMutability": "nonpayable",
      "type": "function"
    }
  ],
  "bytecode": "0x61033c610030600b82828239805160001a6073146000811461002057610022565bfe5b5030600052607381538281f3007300000000000000000000000000000000000000003014608060405260043610610058576000357c0100000000000000000000000000000000000000000000000000000000900463ffffffff1680638c56d33f1461005d575b600080fd5b81801561006957600080fd5b506100d4600480360381019080803590602001909291908035600019169060200190929190803573ffffffffffffffffffffffffffffffffffffffff1690602001909291908035906020019092919080359060200190929190803590602001909291905050506100d6565b005b848660000160008760001916600019168152602001908152602001600020600001816000191690555083866000016000876000191660001916815260200190815260200160002060010160006101000a81548173ffffffffffffffffffffffffffffffffffffffff021916908373ffffffffffffffffffffffffffffffffffffffff1602179055508286600001600087600019166000191681526020019081526020016000206002018190555081866000016000876000191660001916815260200190815260200160002060030181905550808660000160008760001916600019168152602001908152602001600020600401819055506001866000016000876000191660001916815260200190815260200160002060050160008673ffffffffffffffffffffffffffffffffffffffff1673ffffffffffffffffffffffffffffffffffffffff16815260200190815260200160002060006101000a81548160ff02191690831515021790555082866000016000876000191660001916815260200190815260200160002060060160008673ffffffffffffffffffffffffffffffffffffffff1673ffffffffffffffffffffffffffffffffffffffff168152602001908152602001600020819055506000866000016000876000191660001916815260200190815260200160002060070160008673ffffffffffffffffffffffffffffffffffffffff1673ffffffffffffffffffffffffffffffffffffffff168152602001908152602001600020819055505050505050505600a165627a7a723058209179f65f373dde98218ab23da703c8e59607dbbdad7438d9db680b5eedfd78dd0029",
  "source": "pragma solidity ^0.4.24;\n\nlibrary Init {\n    struct Data { mapping(bytes32 => Fund) list; }\n\n    struct Fund {\n        //Name of fund\n        bytes32 name;\n        //Partner who initialized the strategy\n        //Could be a multisig wallet\n        address fundOwner;\n        //amount of funds the strategy is virtually managing\n        uint totalBalance;\n        //Add fee that quant can set- in whole number, i.e. 2% is represented as 2\n        uint feeRate;\n        //Number of days in Payment Cycle\n        uint paymentCycle;\n        //maps investors to investment status- current investors return true, non-investors return false\n        mapping (address => bool) investors;\n        //maps investors to their virtual balances in the strategy\n        mapping (address => uint) virtualBalances;\n        //maps investors to the actual fee they have stored in the Strategy Hub contract\n        //fees are paid into stratOwner fee account and paid from investor fee account\n        mapping (address => uint) fees;\n        //Adoption Times for each investor\n        mapping(address => uint) paymentCycleStart;\n        //will need to add IPFS hash eventually to verify code\n    }\n\n    function initializeFund(Data storage self, bytes32 _name, address _fundOwner, uint _investment, uint _feeRate, uint _paymentCycle) \n    public\n    {\n        //initialize strat name to _name\n        self.list[_name].name = _name;\n        //Strat owner is message sender\n        //Be careful of message sender here - might be the Fund Marketplace contract - might have to use delegatecall\n        self.list[_name].fundOwner = _fundOwner;\n        //Initial funds are the msg.value\n        self.list[_name].totalBalance = _investment;\n        //Set fee rate\n        self.list[_name].feeRate = _feeRate;\n        //Set payment cycle\n        self.list[_name].paymentCycle = _paymentCycle;\n        //set fundOwner to also be an investor\n        self.list[_name].investors[_fundOwner] = true;\n        //set fundOwner's investor balance to the msg.value\n        self.list[_name].virtualBalances[_fundOwner] = _investment;\n        //set fundOwner's fees to zero\n        self.list[_name].fees[_fundOwner] = 0;\n\n    }\n}\n\ncontract FundList {\n    //State Variables\n    address internal admin;\n    //mapping(bytes32 => Init.Fund) internal funds;\n    Init.Data funds;\n    uint fundCount;\n\n    //Events\n    event FundCreated(\n        bytes32 name,\n        uint fundCount,\n        address fundOwner\n    );\n\n    event Investment(\n        bytes32 name,\n        address investor,\n        uint investment\n    );\n    \n    event FeesPaid(\n        bytes32 name,\n        address investor,\n        uint fee\n    );\n\n    event FeesCollected(\n        bytes32 name,\n        uint fee\n    );\n\n    event FundsWithdrawn(\n        bytes32 name,\n        address investor,\n        uint investment,\n        uint fees\n    );\n\n    //Administrative control\n    //Any write functions must be completed by the administrator\n    modifier isAdmin{\n        require(\n            msg.sender == admin,\n            \"Message Sender is not Administrator\"\n        );\n        _;\n    }\n\n    constructor() public {\n        admin = msg.sender;\n        //initialize strategy count to 0\n        fundCount = 0;\n    }\n\n    function initializeFund(bytes32 _name, address _fundOwner, uint _investment, uint _feeRate, uint _paymentCycle) \n    external payable\n    isAdmin()\n    {\n        Init.initializeFund(funds, _name, _fundOwner, _investment, _feeRate, _paymentCycle);\n        //Increment fundCount\n        fundCount++;\n        emit FundCreated(_name, fundCount, _fundOwner);\n    }\n\n    //Check to see if an account is an investor in a strategy\n    //eventually change to only one parameter and use delegate call instead\n    function isInvestor(bytes32 _name, address _investor) external view returns (bool) {\n        bool result;\n        (,result,,) = getFundDetails2(_name, _investor);\n        return result;\n    }\n\n    //Make investment into particular fund\n    //Must have required funds\n    function Invest(bytes32 _name, uint _investment, address _investor) external payable\n    isAdmin()\n    {\n        funds.list[_name].totalBalance += _investment;\n        funds.list[_name].investors[_investor] = true;\n        funds.list[_name].virtualBalances[_investor] = _investment;\n        funds.list[_name].fees[_investor] = msg.value;\n        funds.list[_name].paymentCycleStart[_investor] = now;\n        emit Investment(_name, _investor, _investment);\n    }\n    \n    //check Fee Rate - read operation from struct\n    function checkFeeRate(bytes32 _name) public view returns (uint) {\n        return 100/funds.list[_name].feeRate;\n    }\n\n    //One-time pay fee function\n    function payFee(bytes32 _name, uint _timePeriod, address _investor) external\n    isAdmin()\n    {\n        //Calculate payment\n        uint payment = (funds.list[_name].virtualBalances[_investor]/checkFeeRate(_name))/_timePeriod;\n        //Owner fees account\n        address fundOwner = funds.list[_name].fundOwner;\n        //Subtract payment from investor fees\n        funds.list[_name].fees[_investor] -= payment;\n        funds.list[_name].fees[fundOwner] += payment;\n        funds.list[_name].paymentCycleStart[_investor] = now;\n        emit FeesPaid (_name, _investor, payment);\n    }\n\n    function checkPaymentCycleStart(bytes32 _name, address _investor) external view\n    returns (uint)\n    {\n        return funds.list[_name].paymentCycleStart[_investor];\n    }\n\n    // //Owner of Strategy Collects Fees\n    // function collectFees(bytes32 _name, address fundOwner) external\n    // isAdmin()\n    // {\n    //     uint feesCollected = funds.list[_name].fees[fundOwner];\n    //     funds.list[_name].fees[fundOwner] = 0;\n    //     fundOwner.transfer(feesCollected);\n    //     emit FeesCollected(_name, feesCollected);\n    // }\n\n    // function withdrawFunds(bytes32 _name, address _investor) external\n    // isAdmin() \n    // {\n    //     //Need to make sure this matches up with withdraw philosophy\n    //     //Temporary Balance and Fees\n    //     uint bal = funds[_name].virtualBalances[_investor];\n    //     uint fees = funds[_name].fees[_investor];\n    //     //subtract virtual balance from total funds\n    //     funds[_name].totalBalance -= bal;\n    //     //zero out virtual Balance\n    //     funds[_name].virtualBalances[_investor] = 0;\n    //     //transfer fees back to investor\n    //     _investor.transfer(fees);\n    //     //Zero out fees\n    //     funds[_name].fees[_investor] = 0;\n    //     //set investor status to faslse\n    //     funds[_name].investors[_investor] = false;\n    //     emit FundsWithdrawn(_name, _investor, bal, fees);\n    // }\n\n    //Get fund information (for testing/verification purposes)\n    function getFundDetails(bytes32 _name) public view returns (bytes32, address, uint, uint){\n        return (funds.list[_name].name, \n        funds.list[_name].fundOwner, \n        funds.list[_name].totalBalance, \n        funds.list[_name].feeRate);\n    }\n    //need two functions because of stack height\n    function getFundDetails2(bytes32 _name, address _addr) public view returns (uint, bool, uint, uint){\n        return(funds.list[_name].paymentCycle,\n        funds.list[_name].investors[_addr], \n        funds.list[_name].virtualBalances[_addr],\n        funds.list[_name].fees[_addr]);\n    }\n}",
  "sourcePath": "/home/bryherbz/Documents/final-project-bryanherbert/contracts/FundList.sol",
  "compiler": {
    "name": "solc",
    "version": "0.4.24+commit.e67f0147.Emscripten.clang"
  },
  "schemaVersion": "2.0.1",
  "updatedAt": "2018-12-28T17:07:55.042Z"
}