{
  "contractName": "InitLib",
  "abi": [
    {
      "constant": false,
      "inputs": [
        {
          "name": "self",
          "type": "StructLib.Data storage"
        },
        {
          "name": "_name",
          "type": "bytes32"
        },
        {
          "name": "_fundOwner",
          "type": "address"
        },
        {
          "name": "_investment",
          "type": "uint256"
        },
        {
          "name": "_feeRate",
          "type": "uint256"
        },
        {
          "name": "_paymentCycle",
          "type": "uint256"
        }
      ],
      "name": "initializeFund",
      "outputs": [],
      "payable": false,
      "stateMutability": "nonpayable",
      "type": "function"
    }
  ],
  "bytecode": "0x61033c610030600b82828239805160001a6073146000811461002057610022565bfe5b5030600052607381538281f3007300000000000000000000000000000000000000003014608060405260043610610058576000357c0100000000000000000000000000000000000000000000000000000000900463ffffffff168063e92b8cfe1461005d575b600080fd5b81801561006957600080fd5b506100d4600480360381019080803590602001909291908035600019169060200190929190803573ffffffffffffffffffffffffffffffffffffffff1690602001909291908035906020019092919080359060200190929190803590602001909291905050506100d6565b005b848660000160008760001916600019168152602001908152602001600020600001816000191690555083866000016000876000191660001916815260200190815260200160002060010160006101000a81548173ffffffffffffffffffffffffffffffffffffffff021916908373ffffffffffffffffffffffffffffffffffffffff1602179055508286600001600087600019166000191681526020019081526020016000206002018190555081866000016000876000191660001916815260200190815260200160002060040181905550808660000160008760001916600019168152602001908152602001600020600501819055506001866000016000876000191660001916815260200190815260200160002060060160008673ffffffffffffffffffffffffffffffffffffffff1673ffffffffffffffffffffffffffffffffffffffff16815260200190815260200160002060006101000a81548160ff02191690831515021790555082866000016000876000191660001916815260200190815260200160002060070160008673ffffffffffffffffffffffffffffffffffffffff1673ffffffffffffffffffffffffffffffffffffffff168152602001908152602001600020819055506000866000016000876000191660001916815260200190815260200160002060080160008673ffffffffffffffffffffffffffffffffffffffff1673ffffffffffffffffffffffffffffffffffffffff168152602001908152602001600020819055505050505050505600a165627a7a7230582020dca7e0fcc339682ba094de00bc5e9272de3061f1e793e3d9f0ce18eaa5ed3b0029",
  "source": "pragma solidity ^0.4.24;\n\nimport \"../contracts/StructLib.sol\";\n\nlibrary InitLib {\n    function initializeFund(StructLib.Data storage self, bytes32 _name, address _fundOwner, uint _investment, uint _feeRate, uint _paymentCycle) \n    public\n    {\n        //initialize strat name to _name\n        self.list[_name].name = _name;\n        //Strat owner is message sender\n        //Be careful of message sender here - might be the Fund Marketplace contract - might have to use delegatecall\n        self.list[_name].fundOwner = _fundOwner;\n        //Initial funds are the msg.value\n        self.list[_name].totalCapital = _investment;\n        //Set fee rate\n        self.list[_name].feeRate = _feeRate;\n        //Set payment cycle\n        self.list[_name].paymentCycle = _paymentCycle;\n        //set fundOwner to also be an investor\n        self.list[_name].investors[_fundOwner] = true;\n        //set fundOwner's investor balance to the msg.value\n        self.list[_name].virtualBalances[_fundOwner] = _investment;\n        //set fundOwner's fees to zero\n        self.list[_name].fees[_fundOwner] = 0;\n    }\n}",
  "sourcePath": "/home/bryherbz/Documents/final-project-bryanherbert/contracts/InitLib.sol",
  "compiler": {
    "name": "solc",
    "version": "0.4.24+commit.e67f0147.Emscripten.clang"
  },
  "schemaVersion": "2.0.1",
  "updatedAt": "2019-01-09T21:55:06.948Z"
}