{
  "contractName": "InitLib",
  "abi": [
    {
      "constant": false,
      "inputs": [
        {
          "name": "self",
          "type": "StructLib.Data storage"
        },
        {
          "name": "_fundCount",
          "type": "uint256"
        },
        {
          "name": "_name",
          "type": "bytes32"
        },
        {
          "name": "_fundOwner",
          "type": "address"
        },
        {
          "name": "_investment",
          "type": "uint256"
        },
        {
          "name": "_feeRate",
          "type": "uint256"
        },
        {
          "name": "_paymentCycle",
          "type": "uint256"
        }
      ],
      "name": "initializeFund",
      "outputs": [],
      "payable": false,
      "stateMutability": "nonpayable",
      "type": "function",
      "signature": "0xb13c380c"
    }
  ],
  "bytecode": "0x61046f610030600b82828239805160001a6073146000811461002057610022565bfe5b5030600052607381538281f3fe7300000000000000000000000000000000000000003014608060405260043610610058576000357c0100000000000000000000000000000000000000000000000000000000900463ffffffff168063b13c380c1461005d575b600080fd5b81801561006957600080fd5b506100e8600480360360e081101561008057600080fd5b81019080803590602001909291908035906020019092919080359060200190929190803573ffffffffffffffffffffffffffffffffffffffff1690602001909291908035906020019092919080359060200190929190803590602001909291905050506100ea565b005b86868660008290505b60008111156101c0578184600001600085815260200190815260200160002060010154141515156101b2576040517f08c379a00000000000000000000000000000000000000000000000000000000081526004018080602001828103825260368152602001807f46756e6420616c72656164792065786973747320776974682074686174206e6181526020017f6d652c20706c656173652074727920616e6f746865720000000000000000000081525060400191505060405180910390fd5b8080600190039150506100f3565b50600060018a019050808b600001600083815260200190815260200160002060000181905550888b600001600083815260200190815260200160002060010181905550878b600001600083815260200190815260200160002060020160006101000a81548173ffffffffffffffffffffffffffffffffffffffff021916908373ffffffffffffffffffffffffffffffffffffffff160217905550868b600001600083815260200190815260200160002060030181905550858b600001600083815260200190815260200160002060050181905550848b60000160008381526020019081526020016000206006018190555060018b600001600083815260200190815260200160002060070160008a73ffffffffffffffffffffffffffffffffffffffff1673ffffffffffffffffffffffffffffffffffffffff16815260200190815260200160002060006101000a81548160ff021916908315150217905550868b600001600083815260200190815260200160002060080160008a73ffffffffffffffffffffffffffffffffffffffff1673ffffffffffffffffffffffffffffffffffffffff1681526020019081526020016000208190555060008b600001600083815260200190815260200160002060090160008a73ffffffffffffffffffffffffffffffffffffffff1673ffffffffffffffffffffffffffffffffffffffff1681526020019081526020016000208190555060018b6000016000838152602001908152602001600020600b0160006101000a81548160ff02191690831515021790555060008b6000016000838152602001908152602001600020600b0160016101000a81548160ff021916908315150217905550505050505050505050505056fea165627a7a723058207bc6a15c185fa92285c629b4f6863ea98b9897b12bebac01ae4a2e12223f6ce80029",
  "source": "pragma solidity ^0.5.0;\n\nimport \"../contracts/StructLib.sol\";\n\nlibrary InitLib {\n    \n    //Modifiers\n    //Make sure there are no funds with the same name\n    modifier noDupName(StructLib.Data storage self, uint _fundCount, bytes32 _name) {\n        for(uint i = _fundCount; i > 0; i--){\n            require(\n                //no duplicate names in any contract\n                self.list[_fundCount].name != _name,\n                \"Fund already exists with that name, please try another\"\n            );\n        }\n        _;\n    }\n    \n    function initializeFund(\n        StructLib.Data storage self, \n        uint _fundCount, \n        bytes32 _name, \n        address _fundOwner, \n        uint _investment, \n        uint _feeRate, \n        uint _paymentCycle) \n    public\n    noDupName(self, _fundCount, _name)\n    {\n        uint count = _fundCount + 1;\n        //initialize fund num to fundCount\n        self.list[count].fundNum = count;\n        //initialize strat name to _name\n        self.list[count].name = _name;\n        //Fund owner is message sender\n        self.list[count].fundOwner = _fundOwner;\n        //Initial funds are the msg.value\n        self.list[count].totalCapital = _investment;\n        //Set fee rate\n        self.list[count].feeRate = _feeRate;\n        //Set payment cycle\n        self.list[count].paymentCycle = _paymentCycle;\n        //set fundOwner to also be an investor\n        self.list[count].investors[_fundOwner] = true;\n        //set fundOwner's investor balance to the msg.value\n        self.list[count].virtualBalances[_fundOwner] = _investment;\n        //set fundOwner's fees to zero\n        self.list[count].fees[_fundOwner] = 0;\n        //set fundraising to 1\n        self.list[count].fundraising = true;\n        //set closed to 0\n        self.list[count].closed = false;\n    }\n}",
  "sourcePath": "/home/bryan/final-project-bryanherbert/contracts/InitLib.sol",
  "compiler": {
    "name": "solc",
    "version": "0.5.0+commit.1d4f565a.Emscripten.clang"
  },
  "schemaVersion": "3.0.1",
  "updatedAt": "2019-01-27T04:01:42.766Z",
  "devdoc": {
    "methods": {}
  },
  "userdoc": {
    "methods": {}
  }
}