{
  "contractName": "InitLib",
  "abi": [
    {
      "constant": false,
      "inputs": [
        {
          "name": "self",
          "type": "StructLib.Data storage"
        },
        {
          "name": "_fundCount",
          "type": "uint256"
        },
        {
          "name": "_name",
          "type": "bytes32"
        },
        {
          "name": "_fundOwner",
          "type": "address"
        },
        {
          "name": "_investment",
          "type": "uint256"
        },
        {
          "name": "_feeRate",
          "type": "uint256"
        },
        {
          "name": "_paymentCycle",
          "type": "uint256"
        }
      ],
      "name": "initializeFund",
      "outputs": [],
      "payable": false,
      "stateMutability": "nonpayable",
      "type": "function"
    }
  ],
  "bytecode": "0x61040f610030600b82828239805160001a6073146000811461002057610022565bfe5b5030600052607381538281f3007300000000000000000000000000000000000000003014608060405260043610610058576000357c0100000000000000000000000000000000000000000000000000000000900463ffffffff168063b13c380c1461005d575b600080fd5b81801561006957600080fd5b506100de60048036038101908080359060200190929190803590602001909291908035600019169060200190929190803573ffffffffffffffffffffffffffffffffffffffff1690602001909291908035906020019092919080359060200190929190803590602001909291905050506100e0565b005b600087878760008290505b60008111156101c05781600019168460000160008581526020019081526020016000206001015460001916141515156101b2576040517f08c379a00000000000000000000000000000000000000000000000000000000081526004018080602001828103825260368152602001807f46756e6420616c72656164792065786973747320776974682074686174206e6181526020017f6d652c20706c656173652074727920616e6f746865720000000000000000000081525060400191505060405180910390fd5b8080600190039150506100eb565b60018b019450848c600001600087815260200190815260200160002060000181905550898c60000160008781526020019081526020016000206001018160001916905550888c600001600087815260200190815260200160002060020160006101000a81548173ffffffffffffffffffffffffffffffffffffffff021916908373ffffffffffffffffffffffffffffffffffffffff160217905550878c600001600087815260200190815260200160002060030181905550868c600001600087815260200190815260200160002060050181905550858c60000160008781526020019081526020016000206006018190555060018c600001600087815260200190815260200160002060070160008b73ffffffffffffffffffffffffffffffffffffffff1673ffffffffffffffffffffffffffffffffffffffff16815260200190815260200160002060006101000a81548160ff021916908315150217905550878c600001600087815260200190815260200160002060080160008b73ffffffffffffffffffffffffffffffffffffffff1673ffffffffffffffffffffffffffffffffffffffff1681526020019081526020016000208190555060008c600001600087815260200190815260200160002060090160008b73ffffffffffffffffffffffffffffffffffffffff1673ffffffffffffffffffffffffffffffffffffffff168152602001908152602001600020819055505050505050505050505050505600a165627a7a72305820e054e8c7d30df99523ed377467913f8e7040b5d65df455b079a00df33954bb0d0029",
  "source": "pragma solidity ^0.4.24;\n\nimport \"../contracts/StructLib.sol\";\n\nlibrary InitLib {\n    \n    //Modifiers\n    //Make sure there are no funds with the same name\n    modifier noDupName(StructLib.Data storage self, uint _fundCount, bytes32 _name) {\n        for(uint i = _fundCount; i > 0; i--){\n            require(\n                //no duplicate names in any contract\n                self.list[_fundCount].name != _name,\n                \"Fund already exists with that name, please try another\"\n            );\n        }\n        _;\n    }\n    \n    function initializeFund(\n        StructLib.Data storage self, \n        uint _fundCount, \n        bytes32 _name, \n        address _fundOwner, \n        uint _investment, \n        uint _feeRate, \n        uint _paymentCycle) \n    public\n    noDupName(self, _fundCount, _name)\n    {\n        uint count = _fundCount + 1;\n        //initialize fund num to fundCount\n        self.list[count].fundNum = count;\n        //initialize strat name to _name\n        self.list[count].name = _name;\n        //Fund owner is message sender\n        self.list[count].fundOwner = _fundOwner;\n        //Initial funds are the msg.value\n        self.list[count].totalCapital = _investment;\n        //Set fee rate\n        self.list[count].feeRate = _feeRate;\n        //Set payment cycle\n        self.list[count].paymentCycle = _paymentCycle;\n        //set fundOwner to also be an investor\n        self.list[count].investors[_fundOwner] = true;\n        //set fundOwner's investor balance to the msg.value\n        self.list[count].virtualBalances[_fundOwner] = _investment;\n        //set fundOwner's fees to zero\n        self.list[count].fees[_fundOwner] = 0;\n    }\n}",
  "sourcePath": "/home/bryherbz/Documents/final-project-bryanherbert/contracts/InitLib.sol",
  "compiler": {
    "name": "solc",
    "version": "0.4.24+commit.e67f0147.Emscripten.clang"
  },
  "schemaVersion": "2.0.1",
  "updatedAt": "2019-01-25T08:57:10.601Z"
}