{
  "contractName": "InitLib",
  "abi": [
    {
      "constant": false,
      "inputs": [
        {
          "name": "self",
          "type": "StructLib.Data storage"
        },
        {
          "name": "_fundCount",
          "type": "uint256"
        },
        {
          "name": "_name",
          "type": "bytes32"
        },
        {
          "name": "_fundOwner",
          "type": "address"
        },
        {
          "name": "_investment",
          "type": "uint256"
        },
        {
          "name": "_feeRate",
          "type": "uint256"
        },
        {
          "name": "_paymentCycle",
          "type": "uint256"
        },
        {
          "name": "ipfsHash",
          "type": "bytes32"
        },
        {
          "name": "hash_function",
          "type": "uint8"
        },
        {
          "name": "size",
          "type": "uint8"
        }
      ],
      "name": "initializeFund",
      "outputs": [],
      "payable": false,
      "stateMutability": "nonpayable",
      "type": "function"
    }
  ],
  "bytecode": "0x6105fc610030600b82828239805160001a6073146000811461002057610022565bfe5b5030600052607381538281f3fe7300000000000000000000000000000000000000003014608060405260043610610058576000357c0100000000000000000000000000000000000000000000000000000000900463ffffffff1680633070cf231461005d575b600080fd5b81801561006957600080fd5b5061010d600480360361014081101561008157600080fd5b81019080803590602001909291908035906020019092919080359060200190929190803573ffffffffffffffffffffffffffffffffffffffff16906020019092919080359060200190929190803590602001909291908035906020019092919080359060200190929190803560ff169060200190929190803560ff16906020019092919050505061010f565b005b89898960008290505b60008111156101e5578184600001600085815260200190815260200160002060010154141515156101d7576040517f08c379a00000000000000000000000000000000000000000000000000000000081526004018080602001828103825260368152602001807f46756e6420616c72656164792065786973747320776974682074686174206e6181526020017f6d652c20706c656173652074727920616e6f746865720000000000000000000081525060400191505060405180910390fd5b808060019003915050610118565b503373ffffffffffffffffffffffffffffffffffffffff168a73ffffffffffffffffffffffffffffffffffffffff161415156102af576040517f08c379a00000000000000000000000000000000000000000000000000000000081526004018080602001828103825260368152602001807f4d6573736167652053656e64657220686173206e6f74206c697374656420746881526020017f656d73656c7665732061732066756e64206f776e65720000000000000000000081525060400191505060405180910390fd5b600060018d019050808e6000016000838152602001908152602001600020600001819055508b8e6000016000838152602001908152602001600020600101819055508a8e600001600083815260200190815260200160002060020160006101000a81548173ffffffffffffffffffffffffffffffffffffffff021916908373ffffffffffffffffffffffffffffffffffffffff160217905550898e600001600083815260200190815260200160002060030181905550888e600001600083815260200190815260200160002060050181905550878e60000160008381526020019081526020016000206006018190555060018e600001600083815260200190815260200160002060070160008d73ffffffffffffffffffffffffffffffffffffffff1673ffffffffffffffffffffffffffffffffffffffff16815260200190815260200160002060006101000a81548160ff021916908315150217905550898e600001600083815260200190815260200160002060080160008d73ffffffffffffffffffffffffffffffffffffffff1673ffffffffffffffffffffffffffffffffffffffff1681526020019081526020016000208190555060008e600001600083815260200190815260200160002060090160008d73ffffffffffffffffffffffffffffffffffffffff1673ffffffffffffffffffffffffffffffffffffffff1681526020019081526020016000208190555060018e6000016000838152602001908152602001600020600b0160006101000a81548160ff02191690831515021790555060008e6000016000838152602001908152602001600020600b0160016101000a81548160ff0219169083151502179055506105318e88888885610541565b5050505050505050505050505050565b83856000016000838152602001908152602001600020600c016000018190555082856000016000838152602001908152602001600020600c0160010160006101000a81548160ff021916908360ff16021790555081856000016000838152602001908152602001600020600c0160010160016101000a81548160ff021916908360ff160217905550505050505056fea165627a7a72305820865379a0f650dac4edbfddc09879b5e8ea00d14d7940a5af8ffeb3509ba5e0550029",
  "source": "pragma solidity ^0.5.0;\n\nimport \"../contracts/StructLib.sol\";\n\nlibrary InitLib {\n    \n    //Modifiers\n    //Make sure there are no funds with the same name\n    modifier noDupName(StructLib.Data storage self, uint _fundCount, bytes32 _name) {\n        for(uint i = _fundCount; i > 0; i--){\n            require(\n                //no duplicate names in any contract\n                self.list[_fundCount].name != _name,\n                \"Fund already exists with that name, please try another\"\n            );\n        }\n        _;\n    }\n\n    function addHash(StructLib.Data storage self, bytes32 ipfsHash, uint8 hash_function, uint8 size, uint _fundCount)\n    internal\n    {\n        self.list[_fundCount].investHash.ipfsHash = ipfsHash;\n        self.list[_fundCount].investHash.hash_function = hash_function;\n        self.list[_fundCount].investHash.size = size;\n\n    }\n    \n    function initializeFund(\n        StructLib.Data storage self, \n        uint _fundCount, \n        bytes32 _name, \n        address _fundOwner, \n        uint _investment, \n        uint _feeRate, \n        uint _paymentCycle,\n        bytes32 ipfsHash,\n        uint8 hash_function,\n        uint8 size) \n    public\n    noDupName(self, _fundCount, _name)\n    {\n        //Make sure that Message Sender is the same as the declared fund Owner\n        require(\n            _fundOwner == msg.sender,\n            \"Message Sender has not listed themselves as fund owner\"\n        );\n        uint count = _fundCount + 1;\n        //initialize fund num to fundCount\n        self.list[count].fundNum = count;\n        //initialize strat name to _name\n        self.list[count].name = _name;\n        //Fund owner is message sender\n        self.list[count].fundOwner = _fundOwner;\n        //Initial funds are the msg.value\n        self.list[count].totalCapital = _investment;\n        //Set fee rate\n        self.list[count].feeRate = _feeRate;\n        //Set payment cycle\n        self.list[count].paymentCycle = _paymentCycle;\n        //set fundOwner to also be an investor\n        self.list[count].investors[_fundOwner] = true;\n        //set fundOwner's investor balance to the msg.value\n        self.list[count].virtualBalances[_fundOwner] = _investment;\n        //set fundOwner's fees to zero\n        self.list[count].fees[_fundOwner] = 0;\n        //set fundraising to 1\n        self.list[count].fundraising = true;\n        //set closed to 0\n        self.list[count].closed = false;\n        addHash(self, ipfsHash, hash_function, size, count);\n    }\n}",
  "sourcePath": "/home/bryan/final-project-bryanherbert/contracts/InitLib.sol",
  "compiler": {
    "name": "solc",
    "version": "0.5.0+commit.1d4f565a.Emscripten.clang"
  },
  "schemaVersion": "3.0.1",
  "updatedAt": "2019-01-28T03:15:52.510Z",
  "devdoc": {
    "methods": {}
  },
  "userdoc": {
    "methods": {}
  }
}