{
  "contractName": "Investor",
  "abi": [
    {
      "payable": true,
      "stateMutability": "payable",
      "type": "fallback"
    },
    {
      "constant": false,
      "inputs": [
        {
          "name": "fm",
          "type": "address"
        },
        {
          "name": "_fundNum",
          "type": "uint256"
        },
        {
          "name": "_investment",
          "type": "uint256"
        }
      ],
      "name": "makeInvestment",
      "outputs": [],
      "payable": false,
      "stateMutability": "nonpayable",
      "type": "function"
    },
    {
      "constant": false,
      "inputs": [
        {
          "name": "fm",
          "type": "address"
        },
        {
          "name": "_fundNum",
          "type": "uint256"
        },
        {
          "name": "_timePeriod",
          "type": "uint256"
        }
      ],
      "name": "payFee",
      "outputs": [],
      "payable": false,
      "stateMutability": "nonpayable",
      "type": "function"
    },
    {
      "constant": false,
      "inputs": [
        {
          "name": "fm",
          "type": "address"
        },
        {
          "name": "_fundNum",
          "type": "uint256"
        },
        {
          "name": "_amount",
          "type": "uint256"
        }
      ],
      "name": "withdrawFunds",
      "outputs": [],
      "payable": false,
      "stateMutability": "nonpayable",
      "type": "function"
    },
    {
      "constant": true,
      "inputs": [
        {
          "name": "fm",
          "type": "address"
        },
        {
          "name": "_fundNum",
          "type": "uint256"
        },
        {
          "name": "qty",
          "type": "uint256"
        }
      ],
      "name": "calcQty",
      "outputs": [
        {
          "name": "",
          "type": "uint256"
        }
      ],
      "payable": false,
      "stateMutability": "view",
      "type": "function"
    }
  ],
  "bytecode": "0x608060405234801561001057600080fd5b50610587806100206000396000f300608060405260043610610062576000357c0100000000000000000000000000000000000000000000000000000000900463ffffffff168063cded08ab14610064578063e7df8d5b146100cf578063f54c024614610126578063fd07cfcd1461017d575b005b34801561007057600080fd5b506100b9600480360381019080803573ffffffffffffffffffffffffffffffffffffffff16906020019092919080359060200190929190803590602001909291905050506101d4565b6040518082815260200191505060405180910390f35b3480156100db57600080fd5b50610124600480360381019080803573ffffffffffffffffffffffffffffffffffffffff1690602001909291908035906020019092919080359060200190929190505050610291565b005b34801561013257600080fd5b5061017b600480360381019080803573ffffffffffffffffffffffffffffffffffffffff16906020019092919080359060200190929190803590602001909291905050506103e8565b005b34801561018957600080fd5b506101d2600480360381019080803573ffffffffffffffffffffffffffffffffffffffff169060200190929190803590602001909291908035906020019092919050505061047c565b005b60008373ffffffffffffffffffffffffffffffffffffffff16638eee313484846040518363ffffffff167c01000000000000000000000000000000000000000000000000000000000281526004018083815260200182815260200192505050602060405180830381600087803b15801561024d57600080fd5b505af1158015610261573d6000803e3d6000fd5b505050506040513d602081101561027757600080fd5b810190808051906020019092919050505090509392505050565b6000610350610349838673ffffffffffffffffffffffffffffffffffffffff1663e15ee3d6876040518263ffffffff167c010000000000000000000000000000000000000000000000000000000002815260040180828152602001915050602060405180830381600087803b15801561030957600080fd5b505af115801561031d573d6000803e3d6000fd5b505050506040513d602081101561033357600080fd5b8101908080519060200190929190505050610510565b600161053a565b90508373ffffffffffffffffffffffffffffffffffffffff1663b08928608285856040518463ffffffff167c010000000000000000000000000000000000000000000000000000000002815260040180838152602001828152602001925050506000604051808303818588803b1580156103c957600080fd5b505af11580156103dd573d6000803e3d6000fd5b505050505050505050565b8273ffffffffffffffffffffffffffffffffffffffff1663e525310583836040518363ffffffff167c01000000000000000000000000000000000000000000000000000000000281526004018083815260200182815260200192505050600060405180830381600087803b15801561045f57600080fd5b505af1158015610473573d6000803e3d6000fd5b50505050505050565b8273ffffffffffffffffffffffffffffffffffffffff16631858f8d383836040518363ffffffff167c01000000000000000000000000000000000000000000000000000000000281526004018083815260200182815260200192505050600060405180830381600087803b1580156104f357600080fd5b505af1158015610507573d6000803e3d6000fd5b50505050505050565b60008060008311151561052257600080fd5b828481151561052d57fe5b0490508091505092915050565b600080828401905083811015151561055157600080fd5b80915050929150505600a165627a7a723058204988bd98b74d0f270197ca46814fea517a5a9d6af87c861a7d3cb30bb1d353560029",
  "source": "pragma solidity ^0.4.24;\n\nimport \"../contracts/FundMarketplace.sol\";\n\ncontract Investor {\n\n    function makeInvestment(FundMarketplace fm, uint _fundNum, uint _investment) \n    external \n    {\n        uint fee = SafeMath.add(SafeMath.div(_investment, fm.checkFeeRate(_fundNum)), 1);\n        fm.Invest.value(fee)(_fundNum, _investment);\n    }\n\n    function payFee(FundMarketplace fm, uint _fundNum, uint _timePeriod) \n    external \n    {\n        fm.payFee(_fundNum, _timePeriod);\n    }\n\n    function withdrawFunds(FundMarketplace fm, uint _fundNum, uint _amount) \n    external \n    {\n        fm.withdrawFunds(_fundNum, _amount);\n    }\n\n    function calcQty(FundMarketplace fm, uint _fundNum, uint qty) \n    external view returns (uint) \n    {\n        return fm.calcQty(_fundNum, qty);\n    }\n\n    //Fallback function, accepts ether\n    function() public payable{\n\n    }\n}",
  "sourcePath": "/home/bryherbz/Documents/final-project-bryanherbert/contracts/Investor.sol",
  "compiler": {
    "name": "solc",
    "version": "0.4.24+commit.e67f0147.Emscripten.clang"
  },
  "schemaVersion": "2.0.1",
  "updatedAt": "2019-01-25T07:01:35.636Z"
}