{
  "contractName": "InvestLib",
  "abi": [
    {
      "constant": false,
      "inputs": [
        {
          "name": "self",
          "type": "StructLib.Data storage"
        },
        {
          "name": "_fundNum",
          "type": "uint256"
        },
        {
          "name": "_investment",
          "type": "uint256"
        },
        {
          "name": "_investor",
          "type": "address"
        },
        {
          "name": "_value",
          "type": "uint256"
        }
      ],
      "name": "Invest",
      "outputs": [],
      "payable": false,
      "stateMutability": "nonpayable",
      "type": "function",
      "signature": "0x7ce7feb1"
    }
  ],
  "bytecode": "0x6105bf610030600b82828239805160001a6073146000811461002057610022565bfe5b5030600052607381538281f3fe7300000000000000000000000000000000000000003014608060405260043610610058576000357c0100000000000000000000000000000000000000000000000000000000900463ffffffff1680637ce7feb11461005d575b600080fd5b81801561006957600080fd5b506100d4600480360360a081101561008057600080fd5b81019080803590602001909291908035906020019092919080359060200190929190803573ffffffffffffffffffffffffffffffffffffffff169060200190929190803590602001909291905050506100d6565b005b848484600073__Misc__________________________________63a55d26f885856040518363ffffffff167c0100000000000000000000000000000000000000000000000000000000028152600401808381526020018281526020019250505060206040518083038186803b15801561014e57600080fd5b505af4158015610162573d6000803e3d6000fd5b505050506040513d602081101561017857600080fd5b81019080805190602001909291905050508281151561019357fe5b0490506101a08282610548565b3373ffffffffffffffffffffffffffffffffffffffff1631111515610253576040517f08c379a000000000000000000000000000000000000000000000000000000000815260040180806020018281038252602d8152602001807f53656e64657220646f6573206e6f74206861766520656e6f7567682062616c6181526020017f6e636520746f20696e766573740000000000000000000000000000000000000081525060400191505060405180910390fd5b8888888761030e8273__Misc__________________________________63a55d26f887876040518363ffffffff167c0100000000000000000000000000000000000000000000000000000000028152600401808381526020018281526020019250505060206040518083038186803b1580156102ce57600080fd5b505af41580156102e2573d6000803e3d6000fd5b505050506040513d60208110156102f857600080fd5b8101908080519060200190929190505050610569565b8110151515610385576040517f08c379a00000000000000000000000000000000000000000000000000000000081526004018080602001828103825260138152602001807f46656520697320696e73756666696369656e740000000000000000000000000081525060200191505060405180910390fd5b8a8d60000160008e81526020019081526020016000206003016000828254019250508190555060018d60000160008e815260200190815260200160002060070160008c73ffffffffffffffffffffffffffffffffffffffff1673ffffffffffffffffffffffffffffffffffffffff16815260200190815260200160002060006101000a81548160ff0219169083151502179055508a8d60000160008e815260200190815260200160002060080160008c73ffffffffffffffffffffffffffffffffffffffff1673ffffffffffffffffffffffffffffffffffffffff16815260200190815260200160002060008282540192505081905550888d60000160008e815260200190815260200160002060090160008c73ffffffffffffffffffffffffffffffffffffffff1673ffffffffffffffffffffffffffffffffffffffff16815260200190815260200160002060008282540192505081905550428d60000160008e8152602001908152602001600020600a0160008c73ffffffffffffffffffffffffffffffffffffffff1673ffffffffffffffffffffffffffffffffffffffff1681526020019081526020016000208190555050505050505050505050505050565b600080828401905083811015151561055f57600080fd5b8091505092915050565b6000808211151561057957600080fd5b6000828481151561058657fe5b049050809150509291505056fea165627a7a72305820b715697c442232cc9d976a77625575dc2ddfd43e879e90bad86fe98a36148f8b0029",
  "source": "pragma solidity ^0.5.0;\n\nimport \"../contracts/StructLib.sol\";\nimport \"../contracts/Misc.sol\";\nimport \"../node_modules/openzeppelin-solidity/contracts/math/SafeMath.sol\";\n\n/** @title Invest Library\n  * @author Bryan Herbert\n  * @notice Functionality to make state changes upon a new investment\n  */\nlibrary InvestLib {\n    //Modifiers\n    /** @dev Modifier that verifies the investor has enough ether balance to commit to fund\n      * @dev There is a bug in this methodology because it doesn't check across all funds the investor is committed too. Doesn't matter though because these funds aren't actually transferred.\n      * @param self Data struct with fund information\n      * @param _fundNum Fund Number\n      * @param _investment Virtual capital committed to fund\n      * @dev The balance of the sender must be greater than the sum of the proposed virtual balance and fee payment\n      */\n    modifier verifyBalance(StructLib.Data storage self, \n    uint _fundNum, \n    uint _investment) {\n        uint fee = _investment/Misc.checkFeeRate(self, _fundNum);\n        require(\n            msg.sender.balance > SafeMath.add(_investment,fee),\n            \"Sender does not have enough balance to invest\"\n        );\n        _;\n    }\n\n    /** @dev Modifier that verifies the value in the transaction is sufficient to pay the annual fee\n      * @param self Data struct that contains fund information\n      * @param _fundNum Fund number\n      * @param _investment Virtual capital committed to fund\n      * @param _proposedFee msg.value\n      */\n    modifier verifyFee(StructLib.Data storage self,\n     uint _fundNum, \n     uint _investment,\n     uint _proposedFee) {\n        require(\n            _proposedFee >= SafeMath.div(_investment,Misc.checkFeeRate(self, _fundNum)),\n            \"Fee is insufficient\"\n        );\n        _;\n    }\n\n    /** @dev Makes state changes for a new investment\n      * @param self Data struct that contains fund information\n      * @param _fundNum Fund number\n      * @param _investment Virtual capital committed\n      * @param _investor New investor address\n      * @param _value msg.value that represents fees\n      * @dev Uses verifyBalance() and verifyFee() modifier\n      */\n    function Invest(StructLib.Data storage self, \n    uint _fundNum, \n    uint _investment, \n    address _investor, \n    uint _value) \n    public\n    verifyBalance(self, _fundNum, _investment)\n    verifyFee(self, _fundNum, _investment, _value)\n    {\n        self.list[_fundNum].totalCapital += _investment;\n        self.list[_fundNum].investors[_investor] = true;\n        self.list[_fundNum].virtualBalances[_investor] += _investment;\n        self.list[_fundNum].fees[_investor] += _value;\n        self.list[_fundNum].paymentCycleStart[_investor] = now;\n    }\n}",
  "sourcePath": "/home/bryan/final-project-bryanherbert/contracts/InvestLib.sol",
  "compiler": {
    "name": "solc",
    "version": "0.5.0+commit.1d4f565a.Emscripten.clang"
  },
  "schemaVersion": "3.0.1",
  "updatedAt": "2019-01-28T10:39:52.232Z",
  "devdoc": {
    "author": "Bryan Herbert",
    "methods": {
      "Invest(StructLib.Data storage,uint256,uint256,address,uint256)": {
        "details": "Makes state changes for a new investmentUses verifyBalance() and verifyFee() modifier",
        "params": {
          "_fundNum": "Fund number",
          "_investment": "Virtual capital committed",
          "_investor": "New investor address",
          "_value": "msg.value that represents fees",
          "self": "Data struct that contains fund information"
        }
      }
    },
    "title": "Invest Library"
  },
  "userdoc": {
    "methods": {},
    "notice": "Functionality to make state changes upon a new investment"
  }
}