{
  "contractName": "InvestLib",
  "abi": [
    {
      "constant": false,
      "inputs": [
        {
          "name": "self",
          "type": "StructLib.Data storage"
        },
        {
          "name": "_name",
          "type": "bytes32"
        },
        {
          "name": "_investment",
          "type": "uint256"
        },
        {
          "name": "_investor",
          "type": "address"
        },
        {
          "name": "_value",
          "type": "uint256"
        }
      ],
      "name": "Invest",
      "outputs": [],
      "payable": false,
      "stateMutability": "nonpayable",
      "type": "function"
    }
  ],
  "bytecode": "0x6105db610030600b82828239805160001a6073146000811461002057610022565bfe5b5030600052607381538281f3007300000000000000000000000000000000000000003014608060405260043610610058576000357c0100000000000000000000000000000000000000000000000000000000900463ffffffff16806358c1d3b01461005d575b600080fd5b81801561006957600080fd5b506100ca60048036038101908080359060200190929190803560001916906020019092919080359060200190929190803573ffffffffffffffffffffffffffffffffffffffff169060200190929190803590602001909291905050506100cc565b005b848484600073__Misc__________________________________6384a76e4285856040518363ffffffff167c01000000000000000000000000000000000000000000000000000000000281526004018083815260200182600019166000191681526020019250505060206040518083038186803b15801561014c57600080fd5b505af4158015610160573d6000803e3d6000fd5b505050506040513d602081101561017657600080fd5b81019080805190602001909291905050508281151561019157fe5b04905061019e8282610564565b3373ffffffffffffffffffffffffffffffffffffffff1631111515610251576040517f08c379a000000000000000000000000000000000000000000000000000000000815260040180806020018281038252602d8152602001807f53656e64657220646f6573206e6f74206861766520656e6f7567682062616c6181526020017f6e636520746f20696e766573740000000000000000000000000000000000000081525060400191505060405180910390fd5b888888876103148273__Misc__________________________________6384a76e4287876040518363ffffffff167c01000000000000000000000000000000000000000000000000000000000281526004018083815260200182600019166000191681526020019250505060206040518083038186803b1580156102d457600080fd5b505af41580156102e8573d6000803e3d6000fd5b505050506040513d60208110156102fe57600080fd5b8101908080519060200190929190505050610585565b811015151561038b576040517f08c379a00000000000000000000000000000000000000000000000000000000081526004018080602001828103825260138152602001807f46656520697320696e73756666696369656e740000000000000000000000000081525060200191505060405180910390fd5b8a8d60000160008e600019166000191681526020019081526020016000206002016000828254019250508190555060018d60000160008e6000191660001916815260200190815260200160002060060160008c73ffffffffffffffffffffffffffffffffffffffff1673ffffffffffffffffffffffffffffffffffffffff16815260200190815260200160002060006101000a81548160ff0219169083151502179055508a8d60000160008e6000191660001916815260200190815260200160002060070160008c73ffffffffffffffffffffffffffffffffffffffff1673ffffffffffffffffffffffffffffffffffffffff16815260200190815260200160002081905550888d60000160008e6000191660001916815260200190815260200160002060080160008c73ffffffffffffffffffffffffffffffffffffffff1673ffffffffffffffffffffffffffffffffffffffff16815260200190815260200160002081905550428d60000160008e6000191660001916815260200190815260200160002060090160008c73ffffffffffffffffffffffffffffffffffffffff1673ffffffffffffffffffffffffffffffffffffffff1681526020019081526020016000208190555050505050505050505050505050565b600080828401905083811015151561057b57600080fd5b8091505092915050565b60008060008311151561059757600080fd5b82848115156105a257fe5b04905080915050929150505600a165627a7a72305820621d813c9143c4fecd5e2c4719ba79ecf5fd7f4c88943f2c8a3068984b62d6950029",
  "source": "pragma solidity ^0.4.24;\n\nimport \"../contracts/StructLib.sol\";\nimport \"../contracts/Misc.sol\";\nimport \"../node_modules/openzeppelin-solidity/contracts/math/SafeMath.sol\";\n\nlibrary InvestLib {\n    //Modifiers\n    modifier verifyBalance(StructLib.Data storage self, bytes32 _name, uint _investment) {\n        //Account Balance must be greater than investment + Fees\n        //Not sure this correct- want it to represent ~2%\n        uint fee = _investment/Misc.checkFeeRate(self, _name);\n        require(\n            msg.sender.balance > SafeMath.add(_investment,fee),\n            \"Sender does not have enough balance to invest\"\n        );\n        _;\n    }\n\n    modifier verifyFee(StructLib.Data storage self, bytes32 _name, uint _investment, uint _proposedFee) {\n        //Verify that the msg.value > fee\n        require(\n            _proposedFee >= SafeMath.div(_investment,Misc.checkFeeRate(self, _name)),\n            \"Fee is insufficient\"\n        );\n        _;\n    }\n    function Invest(StructLib.Data storage self, bytes32 _name, uint _investment, address _investor, uint _value) \n    public\n    verifyBalance(self, _name, _investment)\n    verifyFee(self, _name, _investment, _value)\n    {\n        self.list[_name].totalCapital += _investment;\n        self.list[_name].investors[_investor] = true;\n        self.list[_name].virtualBalances[_investor] = _investment;\n        self.list[_name].fees[_investor] = _value;\n        self.list[_name].paymentCycleStart[_investor] = now;\n    }\n}",
  "sourcePath": "/home/bryherbz/Documents/final-project-bryanherbert/contracts/InvestLib.sol",
  "compiler": {
    "name": "solc",
    "version": "0.4.24+commit.e67f0147.Emscripten.clang"
  },
  "schemaVersion": "2.0.1",
  "updatedAt": "2019-01-09T22:10:05.059Z"
}