{
  "contractName": "Manager",
  "abi": [
    {
      "payable": true,
      "stateMutability": "payable",
      "type": "fallback"
    },
    {
      "constant": false,
      "inputs": [
        {
          "name": "fm",
          "type": "address"
        },
        {
          "name": "_name",
          "type": "bytes32"
        },
        {
          "name": "_initalFund",
          "type": "uint256"
        },
        {
          "name": "_feeRate",
          "type": "uint256"
        },
        {
          "name": "_paymentCycle",
          "type": "uint256"
        }
      ],
      "name": "initializeFund",
      "outputs": [],
      "payable": false,
      "stateMutability": "nonpayable",
      "type": "function"
    },
    {
      "constant": false,
      "inputs": [
        {
          "name": "fm",
          "type": "address"
        },
        {
          "name": "_fundNum",
          "type": "uint256"
        }
      ],
      "name": "collectFees",
      "outputs": [],
      "payable": false,
      "stateMutability": "nonpayable",
      "type": "function"
    },
    {
      "constant": false,
      "inputs": [
        {
          "name": "fm",
          "type": "address"
        },
        {
          "name": "_fundNum",
          "type": "uint256"
        },
        {
          "name": "_action",
          "type": "bytes"
        },
        {
          "name": "_ticker",
          "type": "bytes32"
        },
        {
          "name": "_qty",
          "type": "uint256"
        },
        {
          "name": "_price",
          "type": "uint256"
        }
      ],
      "name": "placeOrder",
      "outputs": [],
      "payable": false,
      "stateMutability": "nonpayable",
      "type": "function"
    },
    {
      "constant": false,
      "inputs": [
        {
          "name": "fm",
          "type": "address"
        },
        {
          "name": "_fundNum",
          "type": "uint256"
        }
      ],
      "name": "closeFund",
      "outputs": [],
      "payable": false,
      "stateMutability": "nonpayable",
      "type": "function"
    }
  ],
  "bytecode": "0x608060405234801561001057600080fd5b506104ea806100206000396000f300608060405260043610610062576000357c0100000000000000000000000000000000000000000000000000000000900463ffffffff1680637a654f03146100645780637cc8ae28146100eb578063a033fcd414610138578063ad6503e914610185575b005b34801561007057600080fd5b506100e9600480360381019080803573ffffffffffffffffffffffffffffffffffffffff16906020019092919080359060200190929190803590602001908201803590602001919091929391929390803560001916906020019092919080359060200190929190803590602001909291905050506101f4565b005b3480156100f757600080fd5b50610136600480360381019080803573ffffffffffffffffffffffffffffffffffffffff169060200190929190803590602001909291905050506102c6565b005b34801561014457600080fd5b50610183600480360381019080803573ffffffffffffffffffffffffffffffffffffffff16906020019092919080359060200190929190505050610351565b005b34801561019157600080fd5b506101f2600480360381019080803573ffffffffffffffffffffffffffffffffffffffff16906020019092919080356000191690602001909291908035906020019092919080359060200190929190803590602001909291905050506103dc565b005b8673ffffffffffffffffffffffffffffffffffffffff16636a28d5758787878787876040518763ffffffff167c01000000000000000000000000000000000000000000000000000000000281526004018087815260200180602001856000191660001916815260200184815260200183815260200182810382528787828181526020019250808284378201915050975050505050505050600060405180830381600087803b1580156102a557600080fd5b505af11580156102b9573d6000803e3d6000fd5b5050505050505050505050565b8173ffffffffffffffffffffffffffffffffffffffff1663609a4970826040518263ffffffff167c010000000000000000000000000000000000000000000000000000000002815260040180828152602001915050600060405180830381600087803b15801561033557600080fd5b505af1158015610349573d6000803e3d6000fd5b505050505050565b8173ffffffffffffffffffffffffffffffffffffffff1663b17acdcd826040518263ffffffff167c010000000000000000000000000000000000000000000000000000000002815260040180828152602001915050600060405180830381600087803b1580156103c057600080fd5b505af11580156103d4573d6000803e3d6000fd5b505050505050565b8473ffffffffffffffffffffffffffffffffffffffff1663316e153185308686866040518663ffffffff167c01000000000000000000000000000000000000000000000000000000000281526004018086600019166000191681526020018573ffffffffffffffffffffffffffffffffffffffff1673ffffffffffffffffffffffffffffffffffffffff16815260200184815260200183815260200182815260200195505050505050600060405180830381600087803b15801561049f57600080fd5b505af11580156104b3573d6000803e3d6000fd5b5050505050505050505600a165627a7a723058202ea113f4d59868fc90dcf4f61f585ae5c7c8c15e8a0af6af91fb23a7387fe8130029",
  "source": "pragma solidity ^0.4.24;\n\nimport \"../contracts/FundMarketplace.sol\";\n\ncontract Manager {\n\n    function initializeFund(FundMarketplace fm, bytes32 _name, uint _initalFund, uint _feeRate, uint _paymentCycle) \n    external \n    {\n        fm.initializeFund(_name, this, _initalFund, _feeRate, _paymentCycle);\n    }\n\n    function collectFees(FundMarketplace fm, uint _fundNum) \n    external \n    {\n        fm.collectFees(_fundNum);\n    }\n\n    function placeOrder(FundMarketplace fm, uint _fundNum, bytes _action, bytes32 _ticker, uint _qty, uint _price)\n    external\n    {\n        fm.placeOrder(_fundNum, _action, _ticker, _qty, _price);\n    }\n\n    function closeFund(FundMarketplace fm, uint _fundNum)\n    external\n    {\n        fm.closeFund(_fundNum);\n    }\n\n    //Fallback function, accepts ether\n    function() public payable {\n    }\n}",
  "sourcePath": "/home/bryherbz/Documents/final-project-bryanherbert/contracts/Manager.sol",
  "compiler": {
    "name": "solc",
    "version": "0.4.24+commit.e67f0147.Emscripten.clang"
  },
  "schemaVersion": "2.0.1",
  "updatedAt": "2019-01-25T07:01:35.629Z"
}