{
  "contractName": "Misc",
  "abi": [
    {
      "constant": true,
      "inputs": [
        {
          "name": "self",
          "type": "StructLib.Data storage"
        },
        {
          "name": "_name",
          "type": "bytes32"
        }
      ],
      "name": "checkFeeRate",
      "outputs": [
        {
          "name": "",
          "type": "uint256"
        }
      ],
      "payable": false,
      "stateMutability": "view",
      "type": "function"
    }
  ],
  "bytecode": "0x610122610030600b82828239805160001a6073146000811461002057610022565bfe5b5030600052607381538281f30073000000000000000000000000000000000000000030146080604052600436106056576000357c0100000000000000000000000000000000000000000000000000000000900463ffffffff16806384a76e4214605b575b600080fd5b6085600480360381019080803590602001909291908035600019169060200190929190505050609b565b6040518082815260200191505060405180910390f35b600060c6606484600001600085600019166000191681526020019081526020016000206004015460ce565b905092915050565b60008060008311151560df57600080fd5b828481151560e957fe5b04905080915050929150505600a165627a7a72305820848ced2b0ff547295bc1ea049473402ea204c5aba8eee6b1e72f5a82620692810029",
  "source": "pragma solidity ^0.4.24;\n\nimport \"../contracts/StructLib.sol\";\nimport \"../node_modules/openzeppelin-solidity/contracts/math/SafeMath.sol\";\n\nlibrary Misc {\n    //check Fee Rate - read operation from struct\n    function checkFeeRate(StructLib.Data storage self, bytes32 _name) \n    public view\n    returns (uint) {\n        return SafeMath.div(100,self.list[_name].feeRate);\n    }\n}",
  "sourcePath": "/home/bryherbz/Documents/final-project-bryanherbert/contracts/Misc.sol",
  "compiler": {
    "name": "solc",
    "version": "0.4.24+commit.e67f0147.Emscripten.clang"
  },
  "schemaVersion": "2.0.1",
  "updatedAt": "2019-01-09T22:10:05.010Z"
}