{
  "contractName": "Misc",
  "abi": [
    {
      "constant": true,
      "inputs": [
        {
          "name": "self",
          "type": "StructLib.Data storage"
        },
        {
          "name": "_fundNum",
          "type": "uint256"
        }
      ],
      "name": "checkFeeRate",
      "outputs": [
        {
          "name": "",
          "type": "uint256"
        }
      ],
      "payable": false,
      "stateMutability": "view",
      "type": "function"
    }
  ],
  "bytecode": "0x610116610030600b82828239805160001a6073146000811461002057610022565bfe5b5030600052607381538281f30073000000000000000000000000000000000000000030146080604052600436106056576000357c0100000000000000000000000000000000000000000000000000000000900463ffffffff168063a55d26f814605b575b600080fd5b608160048036038101908080359060200190929190803590602001909291905050506097565b6040518082815260200191505060405180910390f35b600060ba60648460000160008581526020019081526020016000206005015460c2565b905092915050565b60008060008311151560d357600080fd5b828481151560dd57fe5b04905080915050929150505600a165627a7a72305820ef2bc21f5d8911b442037d524854b3c262940c4309e7db2fd419d220982ac4e20029",
  "source": "pragma solidity ^0.4.24;\n\nimport \"../contracts/StructLib.sol\";\nimport \"../node_modules/openzeppelin-solidity/contracts/math/SafeMath.sol\";\n\nlibrary Misc {\n    //check Fee Rate - read operation from struct\n    function checkFeeRate(StructLib.Data storage self, uint _fundNum) \n    public view\n    returns (uint) {\n        return SafeMath.div(100,self.list[_fundNum].feeRate);\n    }\n}",
  "sourcePath": "/home/bryherbz/Documents/final-project-bryanherbert/contracts/Misc.sol",
  "compiler": {
    "name": "solc",
    "version": "0.4.24+commit.e67f0147.Emscripten.clang"
  },
  "schemaVersion": "2.0.1",
  "updatedAt": "2019-01-26T00:07:55.908Z"
}