{
  "contractName": "Misc",
  "abi": [
    {
      "constant": true,
      "inputs": [
        {
          "name": "self",
          "type": "StructLib.Data storage"
        },
        {
          "name": "_fundNum",
          "type": "uint256"
        }
      ],
      "name": "checkFeeRate",
      "outputs": [
        {
          "name": "",
          "type": "uint256"
        }
      ],
      "payable": false,
      "stateMutability": "view",
      "type": "function",
      "signature": "0xa55d26f8"
    }
  ],
  "bytecode": "0x6101e6610030600b82828239805160001a6073146000811461002057610022565bfe5b5030600052607381538281f3fe7300000000000000000000000000000000000000003014608060405260043610610058576000357c0100000000000000000000000000000000000000000000000000000000900463ffffffff168063a55d26f81461005d575b600080fd5b6100936004803603604081101561007357600080fd5b8101908080359060200190929190803590602001909291905050506100a9565b6040518082815260200191505060405180910390f35b60008282600082600001600083815260200190815260200160002060050154111515610163576040517f08c379a00000000000000000000000000000000000000000000000000000000081526004018080602001828103825260358152602001807f46756e6420646f6573206e6f74206578697374206f722066656552617465206981526020017f7320696d70726f7065726c792073657420746f2030000000000000000000000081525060400191505060405180910390fd5b610186606486600001600087815260200190815260200160002060050154610190565b9250505092915050565b600080821115156101a057600080fd5b600082848115156101ad57fe5b049050809150509291505056fea165627a7a7230582060c6465823077a144f183cdf355a6a73517e7649463a4b8479c8d076a3d0ab1b0029",
  "source": "pragma solidity ^0.5.0;\n\nimport \"../contracts/StructLib.sol\";\nimport \"../node_modules/openzeppelin-solidity/contracts/math/SafeMath.sol\";\n\nlibrary Misc {\n    modifier fundExists(StructLib.Data storage self, uint _fundNum) {\n        //Verify that fund exists by checking feeRate is not zero\n        require(\n            self.list[_fundNum].feeRate > 0,\n            \"Fund does not exist or feeRate is improperly set to 0\"\n        );\n        _;\n    }\n    //check Fee Rate - read operation from struct\n    function checkFeeRate(StructLib.Data storage self, uint _fundNum) \n    public view\n    fundExists(self, _fundNum)\n    returns (uint) {\n        return SafeMath.div(100,self.list[_fundNum].feeRate);\n    }\n}",
  "sourcePath": "/home/bryan/final-project-bryanherbert/contracts/Misc.sol",
  "compiler": {
    "name": "solc",
    "version": "0.5.0+commit.1d4f565a.Emscripten.clang"
  },
  "schemaVersion": "3.0.1",
  "updatedAt": "2019-01-28T05:18:54.665Z",
  "devdoc": {
    "methods": {}
  },
  "userdoc": {
    "methods": {}
  }
}