{
  "contractName": "Misc",
  "abi": [
    {
      "constant": true,
      "inputs": [
        {
          "name": "self",
          "type": "StructLib.Data storage"
        },
        {
          "name": "_name",
          "type": "bytes32"
        }
      ],
      "name": "checkFeeRate",
      "outputs": [
        {
          "name": "",
          "type": "uint256"
        }
      ],
      "payable": false,
      "stateMutability": "view",
      "type": "function"
    }
  ],
  "bytecode": "0x60fd61002f600b82828239805160001a6073146000811461001f57610021565bfe5b5030600052607381538281f30073000000000000000000000000000000000000000030146080604052600436106056576000357c0100000000000000000000000000000000000000000000000000000000900463ffffffff16806384a76e4214605b575b600080fd5b6085600480360381019080803590602001909291908035600019169060200190929190505050609b565b6040518082815260200191505060405180910390f35b6000826000016000836000191660001916815260200190815260200160002060040154606481151560c857fe5b049050929150505600a165627a7a72305820e4b38efa0c9b8ad88248782de7b8e57e644b45f687d4b21ea5139b4f0a1dab220029",
  "source": "pragma solidity ^0.4.24;\n\nimport \"../contracts/StructLib.sol\";\n\nlibrary Misc {\n    //check Fee Rate - read operation from struct\n    function checkFeeRate(StructLib.Data storage self, bytes32 _name) \n    public view\n    returns (uint) {\n        return 100/self.list[_name].feeRate;\n    }\n}",
  "sourcePath": "/home/bryherbz/Documents/final-project-bryanherbert/contracts/Misc.sol",
  "compiler": {
    "name": "solc",
    "version": "0.4.24+commit.e67f0147.Emscripten.clang"
  },
  "schemaVersion": "2.0.1",
  "updatedAt": "2018-12-31T03:39:46.177Z"
}