{
  "contractName": "OrderLib",
  "abi": [
    {
      "constant": false,
      "inputs": [
        {
          "name": "self",
          "type": "StructLib.Data storage"
        },
        {
          "name": "_name",
          "type": "bytes32"
        },
        {
          "name": "_action",
          "type": "bytes"
        },
        {
          "name": "_price",
          "type": "uint256"
        }
      ],
      "name": "placeOrder",
      "outputs": [],
      "payable": false,
      "stateMutability": "nonpayable",
      "type": "function"
    },
    {
      "constant": true,
      "inputs": [
        {
          "name": "a",
          "type": "bytes"
        },
        {
          "name": "b",
          "type": "bytes"
        }
      ],
      "name": "compareStrings",
      "outputs": [
        {
          "name": "",
          "type": "bool"
        }
      ],
      "payable": false,
      "stateMutability": "pure",
      "type": "function"
    },
    {
      "constant": true,
      "inputs": [
        {
          "name": "self",
          "type": "StructLib.Data storage"
        },
        {
          "name": "_name",
          "type": "bytes32"
        },
        {
          "name": "qty",
          "type": "uint256"
        }
      ],
      "name": "calcQty",
      "outputs": [
        {
          "name": "",
          "type": "uint256"
        }
      ],
      "payable": false,
      "stateMutability": "view",
      "type": "function"
    }
  ],
  "bytecode": "0x6105ca610030600b82828239805160001a6073146000811461002057610022565bfe5b5030600052607381538281f300730000000000000000000000000000000000000000301460806040526004361061006e576000357c0100000000000000000000000000000000000000000000000000000000900463ffffffff168063025c2e40146100735780631619dc55146100bf578063770999f91461014a575b600080fd5b6100a960048036038101908080359060200190929190803560001916906020019092919080359060200190929190505050610204565b6040518082815260200191505060405180910390f35b8180156100cb57600080fd5b50610148600480360381019080803590602001909291908035600019169060200190929190803590602001908201803590602001908080601f01602080910402602001604051908101604052809392919081815260200183838082843782019150505050505091929192908035906020019092919050505061029a565b005b6101ea600480360381019080803590602001908201803590602001908080601f0160208091040260200160405190810160405280939291908181526020018383808284378201915050505050509192919290803590602001908201803590602001908080601f01602080910402602001604051908101604052809392919081815260200183838082843782019150505050505091929192905050506104c5565b604051808215151515815260200191505060405180910390f35b6000836000016000846000191660001916815260200190815260200160002060020154846000016000856000191660001916815260200190815260200160002060070160003373ffffffffffffffffffffffffffffffffffffffff1673ffffffffffffffffffffffffffffffffffffffff16815260200190815260200160002054830281151561029057fe5b0490509392505050565b6060806040805190810160405280600381526020017f627579000000000000000000000000000000000000000000000000000000000081525091506040805190810160405280600481526020017f73656c6c00000000000000000000000000000000000000000000000000000000815250905061031784836104c5565b1561040c57828660000160008760001916600019168152602001908152602001600020600201541115156103d9576040517f08c379a000000000000000000000000000000000000000000000000000000000815260040180806020018281038252602d8152602001807f436f7374206f662074726164652069732067726561746572207468616e20626181526020017f6c616e6365206f662066756e640000000000000000000000000000000000000081525060400191505060405180910390fd5b828660000160008760001916600019168152602001908152602001600020600301600082825401925050819055506104bd565b61041684826104c5565b1561044e57828660000160008760001916600019168152602001908152602001600020600301600082825403925050819055506104bc565b6040517f08c379a00000000000000000000000000000000000000000000000000000000081526004018080602001828103825260128152602001807f4e6f7420612076616c696420616374696f6e000000000000000000000000000081525060200191505060405180910390fd5b5b505050505050565b6000816040518082805190602001908083835b6020831015156104fd57805182526020820191506020810190506020830392506104d8565b6001836020036101000a038019825116818451168082178552505050505050905001915050604051809103902060001916836040518082805190602001908083835b602083101515610564578051825260208201915060208101905060208303925061053f565b6001836020036101000a038019825116818451168082178552505050505050905001915050604051809103902060001916149050929150505600a165627a7a723058201c9ac91e11db08e0f2caf6072bb71c896b5dd1a13ced7ab942fd2f38542fc7d20029",
  "source": "pragma solidity ^0.4.24;\n\nimport \"../contracts/StructLib.sol\";\n\nlibrary OrderLib{\n    function placeOrder(StructLib.Data storage self, bytes32 _name, bytes memory _action, uint _price)\n    public\n    {\n        bytes memory buy = \"buy\";\n        bytes memory sell = \"sell\";\n        \n        if(compareStrings(_action, buy)){\n            require(\n                self.list[_name].totalCapital > _price,\n                \"Cost of trade is greater than balance of fund\"\n            );\n            self.list[_name].capitalDeployed += _price;\n        }\n        else if(compareStrings(_action, sell)){\n            self.list[_name].capitalDeployed -= _price;\n        }\n        else{\n            revert(\"Not a valid action\");\n        }\n    }\n\n    function compareStrings(bytes memory a, bytes memory b) public pure returns(bool){\n        return keccak256(a) == keccak256(b);\n    }\n\n    function calcQty(StructLib.Data storage self, bytes32 _name, uint qty) public view returns(uint) {\n        //Investor's capital as a percentage of total funds\n        //Need to incorporate Safe.Math for more robust solution\n        return ((qty * self.list[_name].virtualBalances[msg.sender])/self.list[_name].totalCapital);\n    }\n}",
  "sourcePath": "/home/bryherbz/Documents/final-project-bryanherbert/contracts/OrderLib.sol",
  "compiler": {
    "name": "solc",
    "version": "0.4.24+commit.e67f0147.Emscripten.clang"
  },
  "schemaVersion": "2.0.1",
  "updatedAt": "2018-12-31T03:39:46.179Z"
}