{
  "contractName": "OrderLib",
  "abi": [
    {
      "constant": false,
      "inputs": [
        {
          "name": "self",
          "type": "StructLib.Data storage"
        },
        {
          "name": "_fundNum",
          "type": "uint256"
        },
        {
          "name": "_action",
          "type": "bytes"
        },
        {
          "name": "_qty",
          "type": "uint256"
        },
        {
          "name": "_price",
          "type": "uint256"
        }
      ],
      "name": "placeOrder",
      "outputs": [],
      "payable": false,
      "stateMutability": "nonpayable",
      "type": "function"
    },
    {
      "constant": true,
      "inputs": [
        {
          "name": "a",
          "type": "bytes"
        },
        {
          "name": "b",
          "type": "bytes"
        }
      ],
      "name": "compareStrings",
      "outputs": [
        {
          "name": "",
          "type": "bool"
        }
      ],
      "payable": false,
      "stateMutability": "pure",
      "type": "function"
    },
    {
      "constant": true,
      "inputs": [
        {
          "name": "self",
          "type": "StructLib.Data storage"
        },
        {
          "name": "_fundNum",
          "type": "uint256"
        },
        {
          "name": "qty",
          "type": "uint256"
        }
      ],
      "name": "calcQty",
      "outputs": [
        {
          "name": "",
          "type": "uint256"
        }
      ],
      "payable": false,
      "stateMutability": "view",
      "type": "function"
    }
  ],
  "bytecode": "0x61062d610030600b82828239805160001a6073146000811461002057610022565bfe5b5030600052607381538281f300730000000000000000000000000000000000000000301460806040526004361061006e576000357c0100000000000000000000000000000000000000000000000000000000900463ffffffff168063770999f914610073578063c7810ad11461012d578063cf3ebe5d146101be575b600080fd5b610113600480360381019080803590602001908201803590602001908080601f0160208091040260200160405190810160405280939291908181526020018383808284378201915050505050509192919290803590602001908201803590602001908080601f0160208091040260200160405190810160405280939291908181526020018383808284378201915050505050509192919290505050610206565b604051808215151515815260200191505060405180910390f35b81801561013957600080fd5b506101bc6004803603810190808035906020019092919080359060200190929190803590602001908201803590602001908080601f016020809104026020016040519081016040528093929190818152602001838380828437820191505050505050919291929080359060200190929190803590602001909291905050506102df565b005b6101f060048036038101908080359060200190929190803590602001909291908035906020019092919050505061050e565b6040518082815260200191505060405180910390f35b6000816040518082805190602001908083835b60208310151561023e5780518252602082019150602081019050602083039250610219565b6001836020036101000a038019825116818451168082178552505050505050905001915050604051809103902060001916836040518082805190602001908083835b6020831015156102a55780518252602082019150602081019050602083039250610280565b6001836020036101000a03801982511681845116808217855250505050505090500191505060405180910390206000191614905092915050565b6060806040805190810160405280600381526020017f627579000000000000000000000000000000000000000000000000000000000081525091506040805190810160405280600481526020017f73656c6c00000000000000000000000000000000000000000000000000000000815250905061035c8583610206565b156104535761036b8385610599565b8760000160008881526020019081526020016000206003015411151561041f576040517f08c379a000000000000000000000000000000000000000000000000000000000815260040180806020018281038252602d8152602001807f436f7374206f662074726164652069732067726561746572207468616e20626181526020017f6c616e6365206f662066756e640000000000000000000000000000000000000081525060400191505060405180910390fd5b6104298385610599565b87600001600088815260200190815260200160002060040160008282540192505081905550610505565b61045d8582610206565b156104965761046c8385610599565b87600001600088815260200190815260200160002060040160008282540392505081905550610504565b6040517f08c379a00000000000000000000000000000000000000000000000000000000081526004018080602001828103825260128152602001807f4e6f7420612076616c696420616374696f6e000000000000000000000000000081525060200191505060405180910390fd5b5b50505050505050565b60006105906105728386600001600087815260200190815260200160002060080160003373ffffffffffffffffffffffffffffffffffffffff1673ffffffffffffffffffffffffffffffffffffffff16815260200190815260200160002054610599565b856000016000868152602001908152602001600020600301546105d7565b90509392505050565b60008060008414156105ae57600091506105d0565b82840290508284828115156105bf57fe5b041415156105cc57600080fd5b8091505b5092915050565b6000806000831115156105e957600080fd5b82848115156105f457fe5b04905080915050929150505600a165627a7a72305820818a26f7d0c1a836f6ecb70f56c9077271b0a38ea1bb13c5bc880c582bdb56010029",
  "source": "pragma solidity ^0.4.24;\n\nimport \"../contracts/StructLib.sol\";\nimport \"../node_modules/openzeppelin-solidity/contracts/math/SafeMath.sol\";\n\nlibrary OrderLib{\n    function placeOrder(StructLib.Data storage self, uint _fundNum, bytes memory _action, uint _qty, uint _price)\n    public\n    {\n        bytes memory buy = \"buy\";\n        bytes memory sell = \"sell\";\n        \n        if(compareStrings(_action, buy)){\n            require(\n                //Cost of trade is price * qty\n                self.list[_fundNum].totalCapital > SafeMath.mul(_price,_qty),\n                \"Cost of trade is greater than balance of fund\"\n            );\n            self.list[_fundNum].capitalDeployed += SafeMath.mul(_price, _qty);\n        }\n        else if(compareStrings(_action, sell)){\n            self.list[_fundNum].capitalDeployed -= SafeMath.mul(_price, _qty);\n        }\n        else{\n            revert(\"Not a valid action\");\n        }\n    }\n\n    function compareStrings(bytes memory a, bytes memory b) public pure returns(bool){\n        return keccak256(a) == keccak256(b);\n    }\n\n    function calcQty(StructLib.Data storage self, uint _fundNum, uint qty) public view returns(uint) {\n        //Investor's capital as a percentage of total funds\n        //Need to incorporate Safe.Math for more robust solution\n        return(SafeMath.div(SafeMath.mul(qty, self.list[_fundNum].virtualBalances[msg.sender]), self.list[_fundNum].totalCapital));\n    }\n}",
  "sourcePath": "/home/bryherbz/Documents/final-project-bryanherbert/contracts/OrderLib.sol",
  "compiler": {
    "name": "solc",
    "version": "0.4.24+commit.e67f0147.Emscripten.clang"
  },
  "schemaVersion": "2.0.1",
  "updatedAt": "2019-01-25T22:40:37.542Z"
}