{
  "contractName": "OrderLib",
  "abi": [
    {
      "constant": false,
      "inputs": [
        {
          "name": "self",
          "type": "StructLib.Data storage"
        },
        {
          "name": "_name",
          "type": "bytes32"
        },
        {
          "name": "_action",
          "type": "bytes"
        },
        {
          "name": "_price",
          "type": "uint256"
        }
      ],
      "name": "placeOrder",
      "outputs": [],
      "payable": false,
      "stateMutability": "nonpayable",
      "type": "function"
    }
  ],
  "bytecode": "0x610418610030600b82828239805160001a6073146000811461002057610022565bfe5b5030600052607381538281f3007300000000000000000000000000000000000000003014608060405260043610610058576000357c0100000000000000000000000000000000000000000000000000000000900463ffffffff1680631619dc551461005d575b600080fd5b81801561006957600080fd5b506100e6600480360381019080803590602001909291908035600019169060200190929190803590602001908201803590602001908080601f0160208091040260200160405190810160405280939291908181526020018383808284378201915050505050509192919290803590602001909291905050506100e8565b005b6060806040805190810160405280600381526020017f627579000000000000000000000000000000000000000000000000000000000081525091506040805190810160405280600481526020017f73656c6c0000000000000000000000000000000000000000000000000000000081525090506101658483610313565b1561025a5782866000016000876000191660001916815260200190815260200160002060020154111515610227576040517f08c379a000000000000000000000000000000000000000000000000000000000815260040180806020018281038252602d8152602001807f436f7374206f662074726164652069732067726561746572207468616e20626181526020017f6c616e6365206f662066756e640000000000000000000000000000000000000081525060400191505060405180910390fd5b8286600001600087600019166000191681526020019081526020016000206003016000828254019250508190555061030b565b6102648482610313565b1561029c578286600001600087600019166000191681526020019081526020016000206003016000828254039250508190555061030a565b6040517f08c379a00000000000000000000000000000000000000000000000000000000081526004018080602001828103825260128152602001807f4e6f7420612076616c696420616374696f6e000000000000000000000000000081525060200191505060405180910390fd5b5b505050505050565b6000816040518082805190602001908083835b60208310151561034b5780518252602082019150602081019050602083039250610326565b6001836020036101000a038019825116818451168082178552505050505050905001915050604051809103902060001916836040518082805190602001908083835b6020831015156103b2578051825260208201915060208101905060208303925061038d565b6001836020036101000a038019825116818451168082178552505050505050905001915050604051809103902060001916149050929150505600a165627a7a723058200215daf62d4245a2ec5c244ad3208f1d975b9cc786939d3401f3027dca8bc7a40029",
  "source": "pragma solidity ^0.4.24;\n\nimport \"../contracts/StructLib.sol\";\n\nlibrary OrderLib{\n    function placeOrder(StructLib.Data storage self, bytes32 _name, bytes memory _action, uint _price)\n    public\n    {\n        bytes memory buy = \"buy\";\n        bytes memory sell = \"sell\";\n        \n        if(compareStrings(_action, buy)){\n            require(\n                self.list[_name].totalBalance > _price,\n                \"Cost of trade is greater than balance of fund\"\n            );\n            self.list[_name].capitalDeployed += _price;\n        }\n        else if(compareStrings(_action, sell)){\n            self.list[_name].capitalDeployed -= _price;\n        }\n        else{\n            revert(\"Not a valid action\");\n        }\n    }\n\n    function compareStrings(bytes memory a, bytes memory b) internal pure returns(bool){\n        return keccak256(a) == keccak256(b);\n    }\n}",
  "sourcePath": "/home/bryherbz/Documents/final-project-bryanherbert/contracts/OrderLib.sol",
  "compiler": {
    "name": "solc",
    "version": "0.4.24+commit.e67f0147.Emscripten.clang"
  },
  "schemaVersion": "2.0.1",
  "updatedAt": "2018-12-30T05:12:43.184Z"
}