{
  "contractName": "OrderLib",
  "abi": [
    {
      "constant": false,
      "inputs": [
        {
          "name": "self",
          "type": "StructLib.Data storage"
        },
        {
          "name": "_fundNum",
          "type": "uint256"
        },
        {
          "name": "_action",
          "type": "bytes32"
        },
        {
          "name": "_qty",
          "type": "uint256"
        },
        {
          "name": "_price",
          "type": "uint256"
        }
      ],
      "name": "placeOrder",
      "outputs": [],
      "payable": false,
      "stateMutability": "nonpayable",
      "type": "function",
      "signature": "0x8a03547e"
    },
    {
      "constant": true,
      "inputs": [
        {
          "name": "a",
          "type": "bytes32"
        },
        {
          "name": "b",
          "type": "bytes32"
        }
      ],
      "name": "compareStrings",
      "outputs": [
        {
          "name": "",
          "type": "bool"
        }
      ],
      "payable": false,
      "stateMutability": "pure",
      "type": "function",
      "signature": "0x7a27b71f"
    },
    {
      "constant": true,
      "inputs": [
        {
          "name": "self",
          "type": "StructLib.Data storage"
        },
        {
          "name": "_fundNum",
          "type": "uint256"
        },
        {
          "name": "qty",
          "type": "uint256"
        }
      ],
      "name": "calcQty",
      "outputs": [
        {
          "name": "",
          "type": "uint256"
        }
      ],
      "payable": false,
      "stateMutability": "view",
      "type": "function",
      "signature": "0xcf3ebe5d"
    }
  ],
  "bytecode": "0x610601610030600b82828239805160001a6073146000811461002057610022565bfe5b5030600052607381538281f3fe730000000000000000000000000000000000000000301460806040526004361061006e576000357c0100000000000000000000000000000000000000000000000000000000900463ffffffff1680637a27b71f146100735780638a03547e146100c3578063cf3ebe5d14610126575b600080fd5b6100a96004803603604081101561008957600080fd5b81019080803590602001909291908035906020019092919050505061017c565b604051808215151515815260200191505060405180910390f35b8180156100cf57600080fd5b50610124600480360360a08110156100e657600080fd5b8101908080359060200190929190803590602001909291908035906020019092919080359060200190929190803590602001909291905050506101d5565b005b6101666004803603606081101561013c57600080fd5b810190808035906020019092919080359060200190929190803590602001909291905050506104e2565b6040518082815260200191505060405180910390f35b600081604051602001808281526020019150506040516020818303038152906040528051906020012083604051602001808281526020019150506040516020818303038152906040528051906020012014905092915050565b8484338073ffffffffffffffffffffffffffffffffffffffff1683600001600084815260200190815260200160002060020160009054906101000a900473ffffffffffffffffffffffffffffffffffffffff1673ffffffffffffffffffffffffffffffffffffffff161415156102d9576040517f08c379a00000000000000000000000000000000000000000000000000000000081526004018080602001828103825260348152602001807f41206e6f6e2d6f776e657220697320747279696e6720746f207375626d69742081526020017f616e206f7264657220746f207468652066756e6400000000000000000000000081525060400191505060405180910390fd5b60007f6275790000000000000000000000000000000000000000000000000000000000905060007f73656c6c00000000000000000000000000000000000000000000000000000000905061032d888361017c565b156104245761033c868861056d565b8a60000160008b8152602001908152602001600020600301541115156103f0576040517f08c379a000000000000000000000000000000000000000000000000000000000815260040180806020018281038252602d8152602001807f436f7374206f662074726164652069732067726561746572207468616e20626181526020017f6c616e6365206f662066756e640000000000000000000000000000000000000081525060400191505060405180910390fd5b6103fa868861056d565b8a60000160008b8152602001908152602001600020600401600082825401925050819055506104d6565b61042e888261017c565b156104675761043d868861056d565b8a60000160008b8152602001908152602001600020600401600082825403925050819055506104d5565b6040517f08c379a00000000000000000000000000000000000000000000000000000000081526004018080602001828103825260128152602001807f4e6f7420612076616c696420616374696f6e000000000000000000000000000081525060200191505060405180910390fd5b5b50505050505050505050565b60006105646105468386600001600087815260200190815260200160002060080160003373ffffffffffffffffffffffffffffffffffffffff1673ffffffffffffffffffffffffffffffffffffffff1681526020019081526020016000205461056d565b856000016000868152602001908152602001600020600301546105ab565b90509392505050565b60008083141561058057600090506105a5565b6000828402905082848281151561059357fe5b041415156105a057600080fd5b809150505b92915050565b600080821115156105bb57600080fd5b600082848115156105c857fe5b049050809150509291505056fea165627a7a723058200a2239ecf3a46c49a83e27785910d3255f576d1ffe001cf751332db3c1fd23d30029",
  "source": "pragma solidity ^0.5.0;\n\nimport \"../contracts/StructLib.sol\";\nimport \"../node_modules/openzeppelin-solidity/contracts/math/SafeMath.sol\";\n\nlibrary OrderLib{\n    modifier verifyOwnership(StructLib.Data storage self, uint _fundNum, address sender) {\n        //Verify that fund exists by checking feeRate is not zero\n        require(\n            self.list[_fundNum].fundOwner == sender,\n            \"A non-owner is trying to submit an order to the fund\"\n        );\n        _;\n    }\n\n    function placeOrder(StructLib.Data storage self, uint _fundNum, bytes32 _action, uint _qty, uint _price)\n    verifyOwnership(self, _fundNum, msg.sender)\n    public\n    {\n        bytes32 buy = \"buy\";\n        bytes32 sell = \"sell\";\n        \n        if(compareStrings(_action, buy)){\n            require(\n                //Cost of trade is price * qty\n                self.list[_fundNum].totalCapital > SafeMath.mul(_price,_qty),\n                \"Cost of trade is greater than balance of fund\"\n            );\n            self.list[_fundNum].capitalDeployed += SafeMath.mul(_price, _qty);\n        }\n        else if(compareStrings(_action, sell)){\n            self.list[_fundNum].capitalDeployed -= SafeMath.mul(_price, _qty);\n        }\n        else{\n            revert(\"Not a valid action\");\n        }\n    }\n\n    function compareStrings(bytes32 a, bytes32  b) public pure returns(bool){\n        return keccak256(abi.encodePacked(a)) == keccak256(abi.encodePacked(b));\n    }\n\n    function calcQty(StructLib.Data storage self, uint _fundNum, uint qty) public view returns(uint) {\n        //Investor's capital as a percentage of total funds\n        //Need to incorporate Safe.Math for more robust solution\n        return(SafeMath.div(SafeMath.mul(qty, self.list[_fundNum].virtualBalances[msg.sender]), self.list[_fundNum].totalCapital));\n    }\n}",
  "sourcePath": "/home/bryan/final-project-bryanherbert/contracts/OrderLib.sol",
  "compiler": {
    "name": "solc",
    "version": "0.5.0+commit.1d4f565a.Emscripten.clang"
  },
  "schemaVersion": "3.0.1",
  "updatedAt": "2019-01-28T05:18:54.768Z",
  "devdoc": {
    "methods": {}
  },
  "userdoc": {
    "methods": {}
  }
}