{
  "contractName": "OrderLib",
  "abi": [
    {
      "constant": false,
      "inputs": [
        {
          "name": "self",
          "type": "StructLib.Data storage"
        },
        {
          "name": "_name",
          "type": "bytes32"
        },
        {
          "name": "_action",
          "type": "bytes"
        },
        {
          "name": "_qty",
          "type": "uint256"
        },
        {
          "name": "_price",
          "type": "uint256"
        }
      ],
      "name": "placeOrder",
      "outputs": [],
      "payable": false,
      "stateMutability": "nonpayable",
      "type": "function"
    },
    {
      "constant": true,
      "inputs": [
        {
          "name": "a",
          "type": "bytes"
        },
        {
          "name": "b",
          "type": "bytes"
        }
      ],
      "name": "compareStrings",
      "outputs": [
        {
          "name": "",
          "type": "bool"
        }
      ],
      "payable": false,
      "stateMutability": "pure",
      "type": "function"
    },
    {
      "constant": true,
      "inputs": [
        {
          "name": "self",
          "type": "StructLib.Data storage"
        },
        {
          "name": "_name",
          "type": "bytes32"
        },
        {
          "name": "qty",
          "type": "uint256"
        }
      ],
      "name": "calcQty",
      "outputs": [
        {
          "name": "",
          "type": "uint256"
        }
      ],
      "payable": false,
      "stateMutability": "view",
      "type": "function"
    }
  ],
  "bytecode": "0x61065d610030600b82828239805160001a6073146000811461002057610022565bfe5b5030600052607381538281f300730000000000000000000000000000000000000000301460806040526004361061006e576000357c0100000000000000000000000000000000000000000000000000000000900463ffffffff168063025c2e40146100735780636d7411ca146100bf578063770999f914610154575b600080fd5b6100a96004803603810190808035906020019092919080356000191690602001909291908035906020019092919050505061020e565b6040518082815260200191505060405180910390f35b8180156100cb57600080fd5b50610152600480360381019080803590602001909291908035600019169060200190929190803590602001908201803590602001908080601f016020809104026020016040519081016040528093929190818152602001838380828437820191505050505050919291929080359060200190929190803590602001909291905050506102a9565b005b6101f4600480360381019080803590602001908201803590602001908080601f0160208091040260200160405190810160405280939291908181526020018383808284378201915050505050509192919290803590602001908201803590602001908080601f01602080910402602001604051908101604052809392919081815260200183838082843782019150505050505091929192905050506104f0565b604051808215151515815260200191505060405180910390f35b60006102a061027a83866000016000876000191660001916815260200190815260200160002060070160003373ffffffffffffffffffffffffffffffffffffffff1673ffffffffffffffffffffffffffffffffffffffff168152602001908152602001600020546105c9565b856000016000866000191660001916815260200190815260200160002060020154610607565b90509392505050565b6060806040805190810160405280600381526020017f627579000000000000000000000000000000000000000000000000000000000081525091506040805190810160405280600481526020017f73656c6c00000000000000000000000000000000000000000000000000000000815250905061032685836104f0565b1561042d5761033583856105c9565b8760000160008860001916600019168152602001908152602001600020600201541115156103f1576040517f08c379a000000000000000000000000000000000000000000000000000000000815260040180806020018281038252602d8152602001807f436f7374206f662074726164652069732067726561746572207468616e20626181526020017f6c616e6365206f662066756e640000000000000000000000000000000000000081525060400191505060405180910390fd5b6103fb83856105c9565b8760000160008860001916600019168152602001908152602001600020600301600082825401925050819055506104e7565b61043785826104f0565b156104785761044683856105c9565b8760000160008860001916600019168152602001908152602001600020600301600082825403925050819055506104e6565b6040517f08c379a00000000000000000000000000000000000000000000000000000000081526004018080602001828103825260128152602001807f4e6f7420612076616c696420616374696f6e000000000000000000000000000081525060200191505060405180910390fd5b5b50505050505050565b6000816040518082805190602001908083835b6020831015156105285780518252602082019150602081019050602083039250610503565b6001836020036101000a038019825116818451168082178552505050505050905001915050604051809103902060001916836040518082805190602001908083835b60208310151561058f578051825260208201915060208101905060208303925061056a565b6001836020036101000a03801982511681845116808217855250505050505090500191505060405180910390206000191614905092915050565b60008060008414156105de5760009150610600565b82840290508284828115156105ef57fe5b041415156105fc57600080fd5b8091505b5092915050565b60008060008311151561061957600080fd5b828481151561062457fe5b04905080915050929150505600a165627a7a72305820b44629276284de3274090e7e3039bd33fad81b2fea1aefe90d728c1aa91c5f7e0029",
  "source": "pragma solidity ^0.4.24;\n\nimport \"../contracts/StructLib.sol\";\nimport \"../node_modules/openzeppelin-solidity/contracts/math/SafeMath.sol\";\n\nlibrary OrderLib{\n    function placeOrder(StructLib.Data storage self, bytes32 _name, bytes memory _action, uint _qty, uint _price)\n    public\n    {\n        bytes memory buy = \"buy\";\n        bytes memory sell = \"sell\";\n        \n        if(compareStrings(_action, buy)){\n            require(\n                //Cost of trade is price * qty\n                self.list[_name].totalCapital > SafeMath.mul(_price,_qty),\n                \"Cost of trade is greater than balance of fund\"\n            );\n            self.list[_name].capitalDeployed += SafeMath.mul(_price, _qty);\n        }\n        else if(compareStrings(_action, sell)){\n            self.list[_name].capitalDeployed -= SafeMath.mul(_price, _qty);\n        }\n        else{\n            revert(\"Not a valid action\");\n        }\n    }\n\n    function compareStrings(bytes memory a, bytes memory b) public pure returns(bool){\n        return keccak256(a) == keccak256(b);\n    }\n\n    function calcQty(StructLib.Data storage self, bytes32 _name, uint qty) public view returns(uint) {\n        //Investor's capital as a percentage of total funds\n        //Need to incorporate Safe.Math for more robust solution\n        return(SafeMath.div(SafeMath.mul(qty, self.list[_name].virtualBalances[msg.sender]), self.list[_name].totalCapital));\n    }\n}",
  "sourcePath": "/home/bryherbz/Documents/final-project-bryanherbert/contracts/OrderLib.sol",
  "compiler": {
    "name": "solc",
    "version": "0.4.24+commit.e67f0147.Emscripten.clang"
  },
  "schemaVersion": "2.0.1",
  "updatedAt": "2019-01-09T16:57:08.994Z"
}