{
  "contractName": "PayFeeLib",
  "abi": [
    {
      "constant": true,
      "inputs": [
        {
          "name": "self",
          "type": "StructLib.Data storage"
        },
        {
          "name": "_fundNum",
          "type": "uint256"
        },
        {
          "name": "_timePeriod",
          "type": "uint256"
        }
      ],
      "name": "checkFee",
      "outputs": [
        {
          "name": "",
          "type": "uint256"
        },
        {
          "name": "",
          "type": "bool"
        }
      ],
      "payable": false,
      "stateMutability": "view",
      "type": "function",
      "signature": "0x9f79cb56"
    },
    {
      "constant": false,
      "inputs": [
        {
          "name": "self",
          "type": "StructLib.Data storage"
        },
        {
          "name": "_fundNum",
          "type": "uint256"
        },
        {
          "name": "_timePeriod",
          "type": "uint256"
        }
      ],
      "name": "payFee",
      "outputs": [],
      "payable": false,
      "stateMutability": "nonpayable",
      "type": "function",
      "signature": "0x08e1bc1b"
    }
  ],
  "bytecode": "0x610b60610030600b82828239805160001a6073146000811461002057610022565bfe5b5030600052607381538281f3fe7300000000000000000000000000000000000000003014608060405260043610610063576000357c0100000000000000000000000000000000000000000000000000000000900463ffffffff16806308e1bc1b146100685780639f79cb56146100b7575b600080fd5b81801561007457600080fd5b506100b56004803603606081101561008b57600080fd5b81019080803590602001909291908035906020019092919080359060200190929190505050610118565b005b6100f7600480360360608110156100cd57600080fd5b810190808035906020019092919080359060200190929190803590602001909291905050506107ed565b60405180838152602001821515151581526020019250505060405180910390f35b82826001151582600001600083815260200190815260200160002060070160003373ffffffffffffffffffffffffffffffffffffffff1673ffffffffffffffffffffffffffffffffffffffff16815260200190815260200160002060009054906101000a900460ff16151514151561021e576040517f08c379a00000000000000000000000000000000000000000000000000000000081526004018080602001828103825260218152602001807f4d6573736167652053656e646572206973206e6f7420616e20696e766573746f81526020017f720000000000000000000000000000000000000000000000000000000000000081525060400191505060405180910390fd5b84848461033661033084600001600085815260200190815260200160002060080160003373ffffffffffffffffffffffffffffffffffffffff1673ffffffffffffffffffffffffffffffffffffffff1681526020019081526020016000205473__Misc__________________________________63a55d26f887876040518363ffffffff167c0100000000000000000000000000000000000000000000000000000000028152600401808381526020018281526020019250505060206040518083038186803b1580156102f057600080fd5b505af4158015610304573d6000803e3d6000fd5b505050506040513d602081101561031a57600080fd5b8101908080519060200190929190505050610aab565b82610aab565b83600001600084815260200190815260200160002060090160003373ffffffffffffffffffffffffffffffffffffffff1673ffffffffffffffffffffffffffffffffffffffff1681526020019081526020016000205411151561044d576040517f08c379a000000000000000000000000000000000000000000000000000000000815260040180806020018281038252604c8152602001807f4665652062616c616e636520697320696e73756666696369656e7420746f206d81526020017f616b65207061796d656e74206f72207061796d656e74206379636c652069732081526020017f6e6f7420636f6d706c657465000000000000000000000000000000000000000081525060600191505060405180910390fd5b87876104d2826000016000838152602001908152602001600020600a0160003373ffffffffffffffffffffffffffffffffffffffff1673ffffffffffffffffffffffffffffffffffffffff168152602001908152602001600020546104cd8460000160008581526020019081526020016000206006015462015180610ad5565b610b13565b421015151561056f576040517f08c379a00000000000000000000000000000000000000000000000000000000081526004018080602001828103825260218152602001807f4379636c65206973206e6f7420636f6d706c6574652c206e6f2066656520647581526020017f650000000000000000000000000000000000000000000000000000000000000081525060400191505060405180910390fd5b60006106866106808c60000160008d815260200190815260200160002060080160003373ffffffffffffffffffffffffffffffffffffffff1673ffffffffffffffffffffffffffffffffffffffff1681526020019081526020016000205473__Misc__________________________________63a55d26f88f8f6040518363ffffffff167c0100000000000000000000000000000000000000000000000000000000028152600401808381526020018281526020019250505060206040518083038186803b15801561064057600080fd5b505af4158015610654573d6000803e3d6000fd5b505050506040513d602081101561066a57600080fd5b8101908080519060200190929190505050610aab565b8a610aab565b9050808b60000160008c815260200190815260200160002060090160003373ffffffffffffffffffffffffffffffffffffffff1673ffffffffffffffffffffffffffffffffffffffff16815260200190815260200160002060008282540392505081905550808b60000160008c815260200190815260200160002060090160008d60000160008e815260200190815260200160002060020160009054906101000a900473ffffffffffffffffffffffffffffffffffffffff1673ffffffffffffffffffffffffffffffffffffffff1673ffffffffffffffffffffffffffffffffffffffff16815260200190815260200160002060008282540192505081905550428b60000160008c8152602001908152602001600020600a0160003373ffffffffffffffffffffffffffffffffffffffff1673ffffffffffffffffffffffffffffffffffffffff168152602001908152602001600020819055505050505050505050505050565b60008084846001151582600001600083815260200190815260200160002060070160003373ffffffffffffffffffffffffffffffffffffffff1673ffffffffffffffffffffffffffffffffffffffff16815260200190815260200160002060009054906101000a900460ff1615151415156108f6576040517f08c379a00000000000000000000000000000000000000000000000000000000081526004018080602001828103825260218152602001807f4d6573736167652053656e646572206973206e6f7420616e20696e766573746f81526020017f720000000000000000000000000000000000000000000000000000000000000081525060400191505060405180910390fd5b6000610a0d610a078960000160008a815260200190815260200160002060080160003373ffffffffffffffffffffffffffffffffffffffff1673ffffffffffffffffffffffffffffffffffffffff1681526020019081526020016000205473__Misc__________________________________63a55d26f88c8c6040518363ffffffff167c0100000000000000000000000000000000000000000000000000000000028152600401808381526020018281526020019250505060206040518083038186803b1580156109c757600080fd5b505af41580156109db573d6000803e3d6000fd5b505050506040513d60208110156109f157600080fd5b8101908080519060200190929190505050610aab565b87610aab565b90506000610a948960000160008a8152602001908152602001600020600a0160003373ffffffffffffffffffffffffffffffffffffffff1673ffffffffffffffffffffffffffffffffffffffff16815260200190815260200160002054610a8f8b60000160008c81526020019081526020016000206006015462015180610ad5565b610b13565b421015905081819550955050505050935093915050565b60008082111515610abb57600080fd5b60008284811515610ac857fe5b0490508091505092915050565b600080831415610ae85760009050610b0d565b60008284029050828482811515610afb57fe5b04141515610b0857600080fd5b809150505b92915050565b6000808284019050838110151515610b2a57600080fd5b809150509291505056fea165627a7a72305820327263e232f9692f7afd83b3c8ce2fcaae4e5b74b595065d0ab6839d51fc36de0029",
  "source": "pragma solidity ^0.5.0;\n\nimport \"../contracts/StructLib.sol\";\nimport \"../contracts/Misc.sol\";\nimport \"../node_modules/openzeppelin-solidity/contracts/math/SafeMath.sol\";\n\n/** @title Pay Fees Library\n  * @author Bryan Herbert\n  * @notice Functionality to make state changes when a fee is paid\n  */\nlibrary PayFeeLib {\n    //Modifiers\n\n    /** @dev Modifier that verifies msg.sender is an investor in the fund\n      * @param self Data struct that contains information about the funds\n      * @param _fundNum Fund Number\n      */\n    modifier verifyInvestmentStatus(StructLib.Data storage self, uint _fundNum){\n        //check that msg.sender is an investor\n        require(\n            self.list[_fundNum].investors[msg.sender] == true,\n            \"Message Sender is not an investor\"\n        );\n        _;\n    }\n\n    /** @dev Modifier to check that the investor can make the fee payment\n      * @param _fundNum Fund Number\n      * @param _timePeriod Time period to divide the fee payments over\n      */\n    modifier checkFeePayment(StructLib.Data storage self, \n    uint _fundNum, \n    uint _timePeriod) {\n        //Couldn't use local variables because of a stack too deep error\n        //Fees in Escrow > (Virtual Balance / Result from Fee Rate function) / Time Period\n        require(\n            //Check that msg.sender has enough in fees to make payment installment\n            self.list[_fundNum].fees[msg.sender] > SafeMath.div(SafeMath.div(self.list[_fundNum].virtualBalances[msg.sender], Misc.checkFeeRate(self, _fundNum)),_timePeriod),\n            \"Fee balance is insufficient to make payment or payment cycle is not complete\"\n        );\n        _;\n    }\n\n    /** @dev Modifier to check that the Payment cycle is complete\n      * @dev This should eventually get upgraded so that the manager is in control of this functionality and not the investor\n      * @param self Data struct that contains fund information\n      * @param _fundNum Fund Number\n      */\n    modifier cycleComplete(StructLib.Data storage self, uint _fundNum){\n        //uint paymentCycleStart = self.list[_name].paymentCycleStart[msg.sender];\n        //uint paymentCycle = self.list[_name].paymentCycle;\n        require(\n            now >= SafeMath.add(self.list[_fundNum].paymentCycleStart[msg.sender], SafeMath.mul(self.list[_fundNum].paymentCycle, 1 days)),\n            \"Cycle is not complete, no fee due\"\n        );\n        _;\n    }\n\n    /** @dev Returns a value payment that represens the payment due and a boolean representing whether a payment is due\n      * @param self Data struct that contains fund information\n      * @param _fundNum Fund Number\n      * @param _timePeriod Number of time periods to divide payment by\n      * @return uint payment due\n      * @return bool value that indicates whether a payment is due\n      */\n    function checkFee(StructLib.Data storage self, uint _fundNum, uint _timePeriod)\n    public view\n    verifyInvestmentStatus(self, _fundNum)\n    returns (uint, bool)\n    {\n        uint payment = SafeMath.div(SafeMath.div(self.list[_fundNum].virtualBalances[msg.sender],Misc.checkFeeRate(self, _fundNum)),_timePeriod);\n        bool paymentDue = (now >= SafeMath.add(self.list[_fundNum].paymentCycleStart[msg.sender], SafeMath.mul(self.list[_fundNum].paymentCycle, 1 days)));\n        return (payment, paymentDue);\n    }\n\n    /** @dev Makes state changes when an investor pays fees at the end of a cycle\n      * @param self Data struct that contains fund information\n      * @param _fundNum Fund number\n      * @param _timePeriod Number of time periods to divide payment by\n      * @dev uses verifyInvestmentStatus, checkFeePayment, and cycleComplete modifiers\n      */\n    function payFee(StructLib.Data storage self, uint _fundNum, uint _timePeriod) \n    public\n    verifyInvestmentStatus(self, _fundNum)\n    checkFeePayment(self, _fundNum, _timePeriod)\n    cycleComplete(self, _fundNum)\n    {\n        //Calculate payment\n        uint payment = SafeMath.div(SafeMath.div(self.list[_fundNum].virtualBalances[msg.sender],Misc.checkFeeRate(self, _fundNum)),_timePeriod);\n        //Subtract paymetn from invstor's fees account\n        self.list[_fundNum].fees[msg.sender] -= payment;\n        //Transfer fee payment to manager's fees account\n        self.list[_fundNum].fees[self.list[_fundNum].fundOwner] += payment;\n        //restart cycle\n        self.list[_fundNum].paymentCycleStart[msg.sender] = now;\n    }\n}",
  "sourcePath": "/home/bryan/final-project-bryanherbert/contracts/PayFeeLib.sol",
  "compiler": {
    "name": "solc",
    "version": "0.5.0+commit.1d4f565a.Emscripten.clang"
  },
  "schemaVersion": "3.0.1",
  "updatedAt": "2019-01-28T11:18:26.815Z",
  "devdoc": {
    "author": "Bryan Herbert",
    "methods": {
      "checkFee(StructLib.Data storage,uint256,uint256)": {
        "details": "Returns a value payment that represens the payment due and a boolean representing whether a payment is due",
        "params": {
          "_fundNum": "Fund Number",
          "_timePeriod": "Number of time periods to divide payment by",
          "self": "Data struct that contains fund information"
        },
        "return": "uint payment duebool value that indicates whether a payment is due"
      },
      "payFee(StructLib.Data storage,uint256,uint256)": {
        "details": "Makes state changes when an investor pays fees at the end of a cycleuses verifyInvestmentStatus, checkFeePayment, and cycleComplete modifiers",
        "params": {
          "_fundNum": "Fund number",
          "_timePeriod": "Number of time periods to divide payment by",
          "self": "Data struct that contains fund information"
        }
      }
    },
    "title": "Pay Fees Library"
  },
  "userdoc": {
    "methods": {},
    "notice": "Functionality to make state changes when a fee is paid"
  }
}