{
  "contractName": "PayFeeLib",
  "abi": [
    {
      "constant": false,
      "inputs": [
        {
          "name": "self",
          "type": "StructLib.Data storage"
        },
        {
          "name": "_name",
          "type": "bytes32"
        },
        {
          "name": "_timePeriod",
          "type": "uint256"
        }
      ],
      "name": "payFee",
      "outputs": [],
      "payable": false,
      "stateMutability": "nonpayable",
      "type": "function"
    }
  ],
  "bytecode": "0x61088c610030600b82828239805160001a6073146000811461002057610022565bfe5b5030600052607381538281f3007300000000000000000000000000000000000000003014608060405260043610610058576000357c0100000000000000000000000000000000000000000000000000000000900463ffffffff1680637e7e0f671461005d575b600080fd5b81801561006957600080fd5b506100a0600480360381019080803590602001909291908035600019169060200190929190803590602001909291905050506100a2565b005b6000838360011515826000016000836000191660001916815260200190815260200160002060060160003373ffffffffffffffffffffffffffffffffffffffff1673ffffffffffffffffffffffffffffffffffffffff16815260200190815260200160002060009054906101000a900460ff1615151415156101b2576040517f08c379a00000000000000000000000000000000000000000000000000000000081526004018080602001828103825260218152602001807f4d6573736167652053656e646572206973206e6f7420616e20696e766573746f81526020017f720000000000000000000000000000000000000000000000000000000000000081525060400191505060405180910390fd5b8585856102da6102d4846000016000856000191660001916815260200190815260200160002060070160003373ffffffffffffffffffffffffffffffffffffffff1673ffffffffffffffffffffffffffffffffffffffff1681526020019081526020016000205473__Misc__________________________________6384a76e4287876040518363ffffffff167c01000000000000000000000000000000000000000000000000000000000281526004018083815260200182600019166000191681526020019250505060206040518083038186803b15801561029457600080fd5b505af41580156102a8573d6000803e3d6000fd5b505050506040513d60208110156102be57600080fd5b81019080805190602001909291905050506107d7565b826107d7565b836000016000846000191660001916815260200190815260200160002060080160003373ffffffffffffffffffffffffffffffffffffffff1673ffffffffffffffffffffffffffffffffffffffff168152602001908152602001600020541115156103f9576040517f08c379a000000000000000000000000000000000000000000000000000000000815260040180806020018281038252604c8152602001807f4665652062616c616e636520697320696e73756666696369656e7420746f206d81526020017f616b65207061796d656e74206f72207061796d656e74206379636c652069732081526020017f6e6f7420636f6d706c657465000000000000000000000000000000000000000081525060600191505060405180910390fd5b888861048e826000016000836000191660001916815260200190815260200160002060090160003373ffffffffffffffffffffffffffffffffffffffff1673ffffffffffffffffffffffffffffffffffffffff1681526020019081526020016000205461048984600001600085600019166000191681526020019081526020016000206005015462015180610801565b61083f565b421015151561052b576040517f08c379a00000000000000000000000000000000000000000000000000000000081526004018080602001828103825260218152602001807f4379636c65206973206e6f7420636f6d706c6574652c206e6f2066656520647581526020017f650000000000000000000000000000000000000000000000000000000000000081525060400191505060405180910390fd5b61065061064a8c60000160008d6000191660001916815260200190815260200160002060070160003373ffffffffffffffffffffffffffffffffffffffff1673ffffffffffffffffffffffffffffffffffffffff1681526020019081526020016000205473__Misc__________________________________6384a76e428f8f6040518363ffffffff167c01000000000000000000000000000000000000000000000000000000000281526004018083815260200182600019166000191681526020019250505060206040518083038186803b15801561060a57600080fd5b505af415801561061e573d6000803e3d6000fd5b505050506040513d602081101561063457600080fd5b81019080805190602001909291905050506107d7565b8a6107d7565b9750878b60000160008c6000191660001916815260200190815260200160002060080160003373ffffffffffffffffffffffffffffffffffffffff1673ffffffffffffffffffffffffffffffffffffffff16815260200190815260200160002060008282540392505081905550878b60000160008c6000191660001916815260200190815260200160002060080160008d60000160008e6000191660001916815260200190815260200160002060010160009054906101000a900473ffffffffffffffffffffffffffffffffffffffff1673ffffffffffffffffffffffffffffffffffffffff1673ffffffffffffffffffffffffffffffffffffffff16815260200190815260200160002060008282540192505081905550428b60000160008c6000191660001916815260200190815260200160002060090160003373ffffffffffffffffffffffffffffffffffffffff1673ffffffffffffffffffffffffffffffffffffffff168152602001908152602001600020819055505050505050505050505050565b6000806000831115156107e957600080fd5b82848115156107f457fe5b0490508091505092915050565b60008060008414156108165760009150610838565b828402905082848281151561082757fe5b0414151561083457600080fd5b8091505b5092915050565b600080828401905083811015151561085657600080fd5b80915050929150505600a165627a7a72305820c802f8c33df7247333afd8a77a3f564300fed73cea8ec5e3a17d3c5b0ac0e1b80029",
  "source": "pragma solidity ^0.4.24;\n\nimport \"../contracts/StructLib.sol\";\nimport \"../contracts/Misc.sol\";\nimport \"../node_modules/openzeppelin-solidity/contracts/math/SafeMath.sol\";\n\nlibrary PayFeeLib {\n    //Modifiers\n    modifier verifyInvestmentStatus(StructLib.Data storage self, bytes32 _name){\n        //check that msg.sender is an investor\n        require(\n            self.list[_name].investors[msg.sender] == true,\n            \"Message Sender is not an investor\"\n        );\n        _;\n    }\n\n    modifier checkFeePayment(StructLib.Data storage self, bytes32 _name, uint _timePeriod) {\n        //uint virtualBalance = self.list[_name].virtualBalances[msg.sender];\n        //uint fees = self.list[_name].fees[msg.sender];\n        //Get investor's virtual balance and fees deposited\n        //(,virtualBalance,fees) = getFundDetails2(_name, msg.sender);\n        //uint payment = (self.list[_name].virtualBalances[msg.sender]/checkFeeRate(self, _name))/_timePeriod;\n        require(\n            //Check that msg.sender has enough in fees to make payment installment\n            self.list[_name].fees[msg.sender] > SafeMath.div(SafeMath.div(self.list[_name].virtualBalances[msg.sender], Misc.checkFeeRate(self, _name)),_timePeriod),\n            \"Fee balance is insufficient to make payment or payment cycle is not complete\"\n        );\n        _;\n    }\n\n    modifier cycleComplete(StructLib.Data storage self, bytes32 _name){\n        //uint paymentCycleStart = self.list[_name].paymentCycleStart[msg.sender];\n        //uint paymentCycle = self.list[_name].paymentCycle;\n        require(\n            now >= SafeMath.add(self.list[_name].paymentCycleStart[msg.sender], SafeMath.mul(self.list[_name].paymentCycle, 1 days)),\n            \"Cycle is not complete, no fee due\"\n        );\n        _;\n    }\n\n    function payFee(StructLib.Data storage self, bytes32 _name, uint _timePeriod) \n    public\n    verifyInvestmentStatus(self, _name)\n    checkFeePayment(self, _name, _timePeriod)\n    cycleComplete(self, _name)\n    {\n        //Calculate payment\n        uint payment = SafeMath.div(SafeMath.div(self.list[_name].virtualBalances[msg.sender],Misc.checkFeeRate(self, _name)),_timePeriod);\n        //uint payment = (self.list[_name].virtualBalances[msg.sender]/Misc.checkFeeRate(self, _name))/_timePeriod;\n        //Owner fees account\n        //address fundOwner = self.list[_name].fundOwner;\n        //Subtract payment from investor fees\n        self.list[_name].fees[msg.sender] -= payment;\n        self.list[_name].fees[self.list[_name].fundOwner] += payment;\n        self.list[_name].paymentCycleStart[msg.sender] = now;\n    }\n}",
  "sourcePath": "/home/bryherbz/Documents/final-project-bryanherbert/contracts/PayFeeLib.sol",
  "compiler": {
    "name": "solc",
    "version": "0.4.24+commit.e67f0147.Emscripten.clang"
  },
  "schemaVersion": "2.0.1",
  "updatedAt": "2019-01-09T21:55:06.999Z"
}