{
  "contractName": "PayFeeLib",
  "abi": [
    {
      "constant": false,
      "inputs": [
        {
          "name": "self",
          "type": "StructLib.Data storage"
        },
        {
          "name": "_fundNum",
          "type": "uint256"
        },
        {
          "name": "_timePeriod",
          "type": "uint256"
        }
      ],
      "name": "payFee",
      "outputs": [],
      "payable": false,
      "stateMutability": "nonpayable",
      "type": "function"
    }
  ],
  "bytecode": "0x610828610030600b82828239805160001a6073146000811461002057610022565bfe5b5030600052607381538281f3007300000000000000000000000000000000000000003014608060405260043610610058576000357c0100000000000000000000000000000000000000000000000000000000900463ffffffff16806308e1bc1b1461005d575b600080fd5b81801561006957600080fd5b5061009c60048036038101908080359060200190929190803590602001909291908035906020019092919050505061009e565b005b600083836001151582600001600083815260200190815260200160002060070160003373ffffffffffffffffffffffffffffffffffffffff1673ffffffffffffffffffffffffffffffffffffffff16815260200190815260200160002060009054906101000a900460ff1615151415156101a6576040517f08c379a00000000000000000000000000000000000000000000000000000000081526004018080602001828103825260218152602001807f4d6573736167652053656e646572206973206e6f7420616e20696e766573746f81526020017f720000000000000000000000000000000000000000000000000000000000000081525060400191505060405180910390fd5b8585856102be6102b884600001600085815260200190815260200160002060080160003373ffffffffffffffffffffffffffffffffffffffff1673ffffffffffffffffffffffffffffffffffffffff1681526020019081526020016000205473__Misc__________________________________63a55d26f887876040518363ffffffff167c0100000000000000000000000000000000000000000000000000000000028152600401808381526020018281526020019250505060206040518083038186803b15801561027857600080fd5b505af415801561028c573d6000803e3d6000fd5b505050506040513d60208110156102a257600080fd5b8101908080519060200190929190505050610773565b82610773565b83600001600084815260200190815260200160002060090160003373ffffffffffffffffffffffffffffffffffffffff1673ffffffffffffffffffffffffffffffffffffffff168152602001908152602001600020541115156103d5576040517f08c379a000000000000000000000000000000000000000000000000000000000815260040180806020018281038252604c8152602001807f4665652062616c616e636520697320696e73756666696369656e7420746f206d81526020017f616b65207061796d656e74206f72207061796d656e74206379636c652069732081526020017f6e6f7420636f6d706c657465000000000000000000000000000000000000000081525060600191505060405180910390fd5b888861045a826000016000838152602001908152602001600020600a0160003373ffffffffffffffffffffffffffffffffffffffff1673ffffffffffffffffffffffffffffffffffffffff16815260200190815260200160002054610455846000016000858152602001908152602001600020600601546201518061079d565b6107db565b42101515156104f7576040517f08c379a00000000000000000000000000000000000000000000000000000000081526004018080602001828103825260218152602001807f4379636c65206973206e6f7420636f6d706c6574652c206e6f2066656520647581526020017f650000000000000000000000000000000000000000000000000000000000000081525060400191505060405180910390fd5b61060c6106068c60000160008d815260200190815260200160002060080160003373ffffffffffffffffffffffffffffffffffffffff1673ffffffffffffffffffffffffffffffffffffffff1681526020019081526020016000205473__Misc__________________________________63a55d26f88f8f6040518363ffffffff167c0100000000000000000000000000000000000000000000000000000000028152600401808381526020018281526020019250505060206040518083038186803b1580156105c657600080fd5b505af41580156105da573d6000803e3d6000fd5b505050506040513d60208110156105f057600080fd5b8101908080519060200190929190505050610773565b8a610773565b9750878b60000160008c815260200190815260200160002060090160003373ffffffffffffffffffffffffffffffffffffffff1673ffffffffffffffffffffffffffffffffffffffff16815260200190815260200160002060008282540392505081905550878b60000160008c815260200190815260200160002060090160008d60000160008e815260200190815260200160002060020160009054906101000a900473ffffffffffffffffffffffffffffffffffffffff1673ffffffffffffffffffffffffffffffffffffffff1673ffffffffffffffffffffffffffffffffffffffff16815260200190815260200160002060008282540192505081905550428b60000160008c8152602001908152602001600020600a0160003373ffffffffffffffffffffffffffffffffffffffff1673ffffffffffffffffffffffffffffffffffffffff168152602001908152602001600020819055505050505050505050505050565b60008060008311151561078557600080fd5b828481151561079057fe5b0490508091505092915050565b60008060008414156107b257600091506107d4565b82840290508284828115156107c357fe5b041415156107d057600080fd5b8091505b5092915050565b60008082840190508381101515156107f257600080fd5b80915050929150505600a165627a7a72305820c82def14012ad2d4c631a639106a43459fc317bf545487833ac93676e6d3ecd50029",
  "source": "pragma solidity ^0.4.24;\n\nimport \"../contracts/StructLib.sol\";\nimport \"../contracts/Misc.sol\";\nimport \"../node_modules/openzeppelin-solidity/contracts/math/SafeMath.sol\";\n\nlibrary PayFeeLib {\n    //Modifiers\n    modifier verifyInvestmentStatus(StructLib.Data storage self, uint _fundNum){\n        //check that msg.sender is an investor\n        require(\n            self.list[_fundNum].investors[msg.sender] == true,\n            \"Message Sender is not an investor\"\n        );\n        _;\n    }\n\n    modifier checkFeePayment(StructLib.Data storage self, uint _fundNum, uint _timePeriod) {\n        //uint virtualBalance = self.list[_name].virtualBalances[msg.sender];\n        //uint fees = self.list[_name].fees[msg.sender];\n        //Get investor's virtual balance and fees deposited\n        //(,virtualBalance,fees) = getFundDetails2(_name, msg.sender);\n        //uint payment = (self.list[_name].virtualBalances[msg.sender]/checkFeeRate(self, _name))/_timePeriod;\n        require(\n            //Check that msg.sender has enough in fees to make payment installment\n            self.list[_fundNum].fees[msg.sender] > SafeMath.div(SafeMath.div(self.list[_fundNum].virtualBalances[msg.sender], Misc.checkFeeRate(self, _fundNum)),_timePeriod),\n            \"Fee balance is insufficient to make payment or payment cycle is not complete\"\n        );\n        _;\n    }\n\n    modifier cycleComplete(StructLib.Data storage self, uint _fundNum){\n        //uint paymentCycleStart = self.list[_name].paymentCycleStart[msg.sender];\n        //uint paymentCycle = self.list[_name].paymentCycle;\n        require(\n            now >= SafeMath.add(self.list[_fundNum].paymentCycleStart[msg.sender], SafeMath.mul(self.list[_fundNum].paymentCycle, 1 days)),\n            \"Cycle is not complete, no fee due\"\n        );\n        _;\n    }\n\n    function payFee(StructLib.Data storage self, uint _fundNum, uint _timePeriod) \n    public\n    verifyInvestmentStatus(self, _fundNum)\n    checkFeePayment(self, _fundNum, _timePeriod)\n    cycleComplete(self, _fundNum)\n    {\n        //Calculate payment\n        uint payment = SafeMath.div(SafeMath.div(self.list[_fundNum].virtualBalances[msg.sender],Misc.checkFeeRate(self, _fundNum)),_timePeriod);\n        //uint payment = (self.list[_name].virtualBalances[msg.sender]/Misc.checkFeeRate(self, _name))/_timePeriod;\n        //Owner fees account\n        //address fundOwner = self.list[_name].fundOwner;\n        //Subtract payment from investor fees\n        self.list[_fundNum].fees[msg.sender] -= payment;\n        self.list[_fundNum].fees[self.list[_fundNum].fundOwner] += payment;\n        self.list[_fundNum].paymentCycleStart[msg.sender] = now;\n    }\n}",
  "sourcePath": "/home/bryherbz/Documents/final-project-bryanherbert/contracts/PayFeeLib.sol",
  "compiler": {
    "name": "solc",
    "version": "0.4.24+commit.e67f0147.Emscripten.clang"
  },
  "schemaVersion": "2.0.1",
  "updatedAt": "2019-01-10T00:21:26.137Z"
}