{
  "contractName": "PayFeeLib",
  "abi": [
    {
      "constant": false,
      "inputs": [
        {
          "name": "self",
          "type": "StructLib.Data storage"
        },
        {
          "name": "_name",
          "type": "bytes32"
        },
        {
          "name": "_timePeriod",
          "type": "uint256"
        }
      ],
      "name": "payFee",
      "outputs": [],
      "payable": false,
      "stateMutability": "nonpayable",
      "type": "function"
    }
  ],
  "bytecode": "0x610802610030600b82828239805160001a6073146000811461002057610022565bfe5b5030600052607381538281f3007300000000000000000000000000000000000000003014608060405260043610610058576000357c0100000000000000000000000000000000000000000000000000000000900463ffffffff1680637e7e0f671461005d575b600080fd5b81801561006957600080fd5b506100a0600480360381019080803590602001909291908035600019169060200190929190803590602001909291905050506100a2565b005b600080848460011515826000016000836000191660001916815260200190815260200160002060060160003373ffffffffffffffffffffffffffffffffffffffff1673ffffffffffffffffffffffffffffffffffffffff16815260200190815260200160002060009054906101000a900460ff1615151415156101b3576040517f08c379a00000000000000000000000000000000000000000000000000000000081526004018080602001828103825260218152602001807f4d6573736167652053656e646572206973206e6f7420616e20696e766573746f81526020017f720000000000000000000000000000000000000000000000000000000000000081525060400191505060405180910390fd5b8686868073__Misc__________________________________6384a76e4285856040518363ffffffff167c01000000000000000000000000000000000000000000000000000000000281526004018083815260200182600019166000191681526020019250505060206040518083038186803b15801561023257600080fd5b505af4158015610246573d6000803e3d6000fd5b505050506040513d602081101561025c57600080fd5b8101908080519060200190929190505050846000016000856000191660001916815260200190815260200160002060070160003373ffffffffffffffffffffffffffffffffffffffff1673ffffffffffffffffffffffffffffffffffffffff168152602001908152602001600020548115156102d457fe5b048115156102de57fe5b04836000016000846000191660001916815260200190815260200160002060080160003373ffffffffffffffffffffffffffffffffffffffff1673ffffffffffffffffffffffffffffffffffffffff168152602001908152602001600020541115156103fe576040517f08c379a000000000000000000000000000000000000000000000000000000000815260040180806020018281038252604c8152602001807f4665652062616c616e636520697320696e73756666696369656e7420746f206d81526020017f616b65207061796d656e74206f72207061796d656e74206379636c652069732081526020017f6e6f7420636f6d706c657465000000000000000000000000000000000000000081525060600191505060405180910390fd5b89896201518082600001600083600019166000191681526020019081526020016000206005015402826000016000836000191660001916815260200190815260200160002060090160003373ffffffffffffffffffffffffffffffffffffffff1673ffffffffffffffffffffffffffffffffffffffff16815260200190815260200160002054014210151515610522576040517f08c379a00000000000000000000000000000000000000000000000000000000081526004018080602001828103825260218152602001807f4379636c65206973206e6f7420636f6d706c6574652c206e6f2066656520647581526020017f650000000000000000000000000000000000000000000000000000000000000081525060400191505060405180910390fd5b8973__Misc__________________________________6384a76e428e8e6040518363ffffffff167c01000000000000000000000000000000000000000000000000000000000281526004018083815260200182600019166000191681526020019250505060206040518083038186803b15801561059e57600080fd5b505af41580156105b2573d6000803e3d6000fd5b505050506040513d60208110156105c857600080fd5b81019080805190602001909291905050508d60000160008e6000191660001916815260200190815260200160002060070160003373ffffffffffffffffffffffffffffffffffffffff1673ffffffffffffffffffffffffffffffffffffffff1681526020019081526020016000205481151561064057fe5b0481151561064a57fe5b0498508b60000160008c6000191660001916815260200190815260200160002060010160009054906101000a900473ffffffffffffffffffffffffffffffffffffffff169750888c60000160008d6000191660001916815260200190815260200160002060080160003373ffffffffffffffffffffffffffffffffffffffff1673ffffffffffffffffffffffffffffffffffffffff16815260200190815260200160002060008282540392505081905550888c60000160008d6000191660001916815260200190815260200160002060080160008a73ffffffffffffffffffffffffffffffffffffffff1673ffffffffffffffffffffffffffffffffffffffff16815260200190815260200160002060008282540192505081905550428c60000160008d6000191660001916815260200190815260200160002060090160003373ffffffffffffffffffffffffffffffffffffffff1673ffffffffffffffffffffffffffffffffffffffff168152602001908152602001600020819055505050505050505050505050505600a165627a7a723058205a8743927f6cb29f2ce3a25dda7f341827c3c2b33302b06c845f0cac0572a4b10029",
  "source": "pragma solidity ^0.4.24;\n\nimport \"../contracts/StructLib.sol\";\nimport \"../contracts/Misc.sol\";\n\nlibrary PayFeeLib {\n    //Modifiers\n    modifier verifyInvestmentStatus(StructLib.Data storage self, bytes32 _name){\n        //check that msg.sender is an investor\n        require(\n            self.list[_name].investors[msg.sender] == true,\n            \"Message Sender is not an investor\"\n        );\n        _;\n    }\n\n    modifier checkFeePayment(StructLib.Data storage self, bytes32 _name, uint _timePeriod) {\n        //uint virtualBalance = self.list[_name].virtualBalances[msg.sender];\n        //uint fees = self.list[_name].fees[msg.sender];\n        //Get investor's virtual balance and fees deposited\n        //(,virtualBalance,fees) = getFundDetails2(_name, msg.sender);\n        //uint payment = (self.list[_name].virtualBalances[msg.sender]/checkFeeRate(self, _name))/_timePeriod;\n        require(\n            //Check that msg.sender has enough in fees to make payment installment\n            self.list[_name].fees[msg.sender] > (self.list[_name].virtualBalances[msg.sender]/Misc.checkFeeRate(self, _name))/_timePeriod,\n            \"Fee balance is insufficient to make payment or payment cycle is not complete\"\n        );\n        _;\n    }\n\n    modifier cycleComplete(StructLib.Data storage self, bytes32 _name){\n        //uint paymentCycleStart = self.list[_name].paymentCycleStart[msg.sender];\n        //uint paymentCycle = self.list[_name].paymentCycle;\n        require(\n            now >= self.list[_name].paymentCycleStart[msg.sender] + self.list[_name].paymentCycle * 1 days,\n            \"Cycle is not complete, no fee due\"\n        );\n        _;\n    }\n\n    function payFee(StructLib.Data storage self, bytes32 _name, uint _timePeriod) \n    public\n    verifyInvestmentStatus(self, _name)\n    checkFeePayment(self, _name, _timePeriod)\n    cycleComplete(self, _name)\n    {\n        //Calculate payment\n        uint payment = (self.list[_name].virtualBalances[msg.sender]/Misc.checkFeeRate(self, _name))/_timePeriod;\n        //Owner fees account\n        address fundOwner = self.list[_name].fundOwner;\n        //Subtract payment from investor fees\n        self.list[_name].fees[msg.sender] -= payment;\n        self.list[_name].fees[fundOwner] += payment;\n        self.list[_name].paymentCycleStart[msg.sender] = now;\n    }\n}",
  "sourcePath": "/home/bryherbz/Documents/final-project-bryanherbert/contracts/PayFeeLib.sol",
  "compiler": {
    "name": "solc",
    "version": "0.4.24+commit.e67f0147.Emscripten.clang"
  },
  "schemaVersion": "2.0.1",
  "updatedAt": "2018-12-31T03:39:46.181Z"
}