{
  "contractName": "StrategyHub",
  "abi": [
    {
      "constant": true,
      "inputs": [
        {
          "name": "",
          "type": "uint256"
        }
      ],
      "name": "strategies",
      "outputs": [
        {
          "name": "name",
          "type": "bytes32"
        },
        {
          "name": "stratOwner",
          "type": "address"
        },
        {
          "name": "funds",
          "type": "uint256"
        },
        {
          "name": "feeRate",
          "type": "uint256"
        }
      ],
      "payable": false,
      "stateMutability": "view",
      "type": "function"
    },
    {
      "inputs": [],
      "payable": false,
      "stateMutability": "nonpayable",
      "type": "constructor"
    },
    {
      "anonymous": false,
      "inputs": [
        {
          "indexed": false,
          "name": "stratNum",
          "type": "uint256"
        },
        {
          "indexed": false,
          "name": "stratOwner",
          "type": "address"
        }
      ],
      "name": "StrategyCreated",
      "type": "event"
    },
    {
      "constant": false,
      "inputs": [
        {
          "name": "_name",
          "type": "bytes32"
        },
        {
          "name": "_investment",
          "type": "uint256"
        },
        {
          "name": "_feeRate",
          "type": "uint256"
        }
      ],
      "name": "initializeStrat",
      "outputs": [],
      "payable": true,
      "stateMutability": "payable",
      "type": "function"
    },
    {
      "constant": true,
      "inputs": [
        {
          "name": "_stratNum",
          "type": "uint256"
        }
      ],
      "name": "isInvestor",
      "outputs": [
        {
          "name": "",
          "type": "bool"
        }
      ],
      "payable": false,
      "stateMutability": "view",
      "type": "function"
    },
    {
      "constant": false,
      "inputs": [
        {
          "name": "_stratNum",
          "type": "uint256"
        },
        {
          "name": "_investment",
          "type": "uint256"
        }
      ],
      "name": "Invest",
      "outputs": [
        {
          "name": "",
          "type": "bool"
        }
      ],
      "payable": true,
      "stateMutability": "payable",
      "type": "function"
    },
    {
      "constant": true,
      "inputs": [
        {
          "name": "_stratNum",
          "type": "uint256"
        }
      ],
      "name": "checkFeeRate",
      "outputs": [
        {
          "name": "",
          "type": "uint256"
        }
      ],
      "payable": false,
      "stateMutability": "view",
      "type": "function"
    },
    {
      "constant": true,
      "inputs": [
        {
          "name": "_stratNum",
          "type": "uint256"
        }
      ],
      "name": "getStratDetails",
      "outputs": [
        {
          "name": "",
          "type": "bytes32"
        },
        {
          "name": "",
          "type": "address"
        },
        {
          "name": "",
          "type": "uint256"
        },
        {
          "name": "",
          "type": "uint256"
        }
      ],
      "payable": false,
      "stateMutability": "view",
      "type": "function"
    },
    {
      "constant": true,
      "inputs": [
        {
          "name": "_stratNum",
          "type": "uint256"
        },
        {
          "name": "_addr",
          "type": "address"
        }
      ],
      "name": "getStratDetails2",
      "outputs": [
        {
          "name": "",
          "type": "bool"
        },
        {
          "name": "",
          "type": "uint256"
        },
        {
          "name": "",
          "type": "uint256"
        }
      ],
      "payable": false,
      "stateMutability": "view",
      "type": "function"
    }
  ],
  "bytecode": "0x608060405234801561001057600080fd5b50336000806101000a81548173ffffffffffffffffffffffffffffffffffffffff021916908373ffffffffffffffffffffffffffffffffffffffff1602179055506000600281905550610b35806100686000396000f300608060405260043610610083576000357c0100000000000000000000000000000000000000000000000000000000900463ffffffff168063476ef32214610088578063b089286014610112578063b3ee914814610154578063d3a0d06d1461018c578063d574ea3d146101ff578063e15ee3d614610289578063fa4bcbb2146102ca575b600080fd5b34801561009457600080fd5b506100b36004803603810190808035906020019092919050505061030f565b6040518085600019166000191681526020018473ffffffffffffffffffffffffffffffffffffffff1673ffffffffffffffffffffffffffffffffffffffff16815260200183815260200182815260200194505050505060405180910390f35b61013a60048036038101908080359060200190929190803590602001909291905050506103a0565b604051808215151515815260200191505060405180910390f35b61018a600480360381019080803560001916906020019092919080359060200190929190803590602001909291905050506106b0565b005b34801561019857600080fd5b506101d760048036038101908080359060200190929190803573ffffffffffffffffffffffffffffffffffffffff169060200190929190505050610908565b6040518084151515158152602001838152602001828152602001935050505060405180910390f35b34801561020b57600080fd5b5061022a60048036038101908080359060200190929190505050610a23565b6040518085600019166000191681526020018473ffffffffffffffffffffffffffffffffffffffff1673ffffffffffffffffffffffffffffffffffffffff16815260200183815260200182815260200194505050505060405180910390f35b34801561029557600080fd5b506102b460048036038101908080359060200190929190505050610a73565b6040518082815260200191505060405180910390f35b3480156102d657600080fd5b506102f560048036038101908080359060200190929190505050610a9f565b604051808215151515815260200191505060405180910390f35b60008060008060016000868152602001908152602001600020600001546001600087815260200190815260200160002060010160009054906101000a900473ffffffffffffffffffffffffffffffffffffffff166001600088815260200190815260200160002060020154600160008981526020019081526020016000206003015493509350935093509193509193565b600082338360006103b084610a73565b828115156103ba57fe5b0490508082018373ffffffffffffffffffffffffffffffffffffffff1631111515610473576040517f08c379a000000000000000000000000000000000000000000000000000000000815260040180806020018281038252602d8152602001807f53656e64657220646f6573206e6f74206861766520656e6f7567682062616c6181526020017f6e636520746f20696e766573740000000000000000000000000000000000000081525060400191505060405180910390fd5b86863461047f83610a73565b8281151561048957fe5b048110151515610501576040517f08c379a00000000000000000000000000000000000000000000000000000000081526004018080602001828103825260128152602001807f46656520697320696e737566666963656e74000000000000000000000000000081525060200191505060405180910390fd5b88600160008c81526020019081526020016000206002016000828254019250508190555060018060008c815260200190815260200160002060040160003373ffffffffffffffffffffffffffffffffffffffff1673ffffffffffffffffffffffffffffffffffffffff16815260200190815260200160002060006101000a81548160ff02191690831515021790555088600160008c815260200190815260200160002060050160003373ffffffffffffffffffffffffffffffffffffffff1673ffffffffffffffffffffffffffffffffffffffff1681526020019081526020016000208190555034600160008c815260200190815260200160002060060160003373ffffffffffffffffffffffffffffffffffffffff1673ffffffffffffffffffffffffffffffffffffffff16815260200190815260200160002081905550600160008b815260200190815260200160002060040160003373ffffffffffffffffffffffffffffffffffffffff1673ffffffffffffffffffffffffffffffffffffffff16815260200190815260200160002060009054906101000a900460ff1697505050505050505092915050565b8260016000600254815260200190815260200160002060000181600019169055503360016000600254815260200190815260200160002060010160006101000a81548173ffffffffffffffffffffffffffffffffffffffff021916908373ffffffffffffffffffffffffffffffffffffffff160217905550816001600060025481526020019081526020016000206002018190555080600160006002548152602001908152602001600020600301819055506001806000600254815260200190815260200160002060040160003373ffffffffffffffffffffffffffffffffffffffff1673ffffffffffffffffffffffffffffffffffffffff16815260200190815260200160002060006101000a81548160ff0219169083151502179055508160016000600254815260200190815260200160002060050160003373ffffffffffffffffffffffffffffffffffffffff1673ffffffffffffffffffffffffffffffffffffffff16815260200190815260200160002081905550600060016000600254815260200190815260200160002060060160003373ffffffffffffffffffffffffffffffffffffffff1673ffffffffffffffffffffffffffffffffffffffff168152602001908152602001600020819055507f899fe949a0013a461f6497b6a40c0d8b01d554a7b67ef6aa1c730298baf23d9f60025433604051808381526020018273ffffffffffffffffffffffffffffffffffffffff1673ffffffffffffffffffffffffffffffffffffffff1681526020019250505060405180910390a1600260008154809291906001019190505550505050565b60008060006001600086815260200190815260200160002060040160008573ffffffffffffffffffffffffffffffffffffffff1673ffffffffffffffffffffffffffffffffffffffff16815260200190815260200160002060009054906101000a900460ff166001600087815260200190815260200160002060050160008673ffffffffffffffffffffffffffffffffffffffff1673ffffffffffffffffffffffffffffffffffffffff168152602001908152602001600020546001600088815260200190815260200160002060060160008773ffffffffffffffffffffffffffffffffffffffff1673ffffffffffffffffffffffffffffffffffffffff168152602001908152602001600020549250925092509250925092565b60016020528060005260406000206000915090508060000154908060010160009054906101000a900473ffffffffffffffffffffffffffffffffffffffff16908060020154908060030154905084565b600060016000838152602001908152602001600020600301546064811515610a9757fe5b049050919050565b60006001600083815260200190815260200160002060040160003373ffffffffffffffffffffffffffffffffffffffff1673ffffffffffffffffffffffffffffffffffffffff16815260200190815260200160002060009054906101000a900460ff1690509190505600a165627a7a723058202491386b90df6f189ab8581312a4a278577ad310133994191e74c6a79e5060090029",
  "source": "pragma solidity ^0.4.24;\n\ncontract StrategyHub {\n    //State Variables\n    address owner;\n    //maybe change uint to name of strategy\n    mapping(uint => Strategy) public strategies;\n    uint stratCount;\n\n    struct Strategy {\n        //Name of strategy\n        bytes32 name;\n        //Quant who initialized the strategy\n        address stratOwner;\n        //amount of funds the strategy is virtually managing\n        uint funds;\n        //Add fee that quant can set- in whole number, i.e. 2% is represented as 2\n        uint feeRate;\n        //maps investors to investment status- current investors return true, non-investors return false\n        mapping (address => bool) investors;\n        //maps investors to their virtual balances in the strategy\n        mapping (address => uint) virtualBalances;\n        //maps investors to the actual fee they have stored in the Strategy Hub contract\n        //fees are paid into stratOwner fee account and paid from investor fee account\n        mapping (address => uint) fees;\n        //will need to add IPFS hash eventually to verify code\n\n    }\n\n    //Events\n    event StrategyCreated(\n        uint stratNum,\n        address stratOwner\n    );\n\n    //Modifiers\n    modifier verifyBalance(uint _stratNum, address _account, uint _investment){\n        //Account Balance must be greater than investment + Fees\n        //Not sure this correct- want it to represent ~2%\n        uint fee = _investment/checkFeeRate(_stratNum);\n        require(\n            _account.balance > _investment + fee,\n            \"Sender does not have enough balance to invest\"\n        );\n        _;\n    }\n\n    modifier verifyFee(uint _stratNum, uint _investment, uint _proposedFee) {\n        //Verify that the msg.value > fee\n        require(\n            _proposedFee >= _investment/checkFeeRate(_stratNum),\n            \"Fee is insufficent\"\n        );\n        _;\n    }\n\n    constructor() public {\n        owner = msg.sender;\n        //initialize strategy count to 0\n        stratCount = 0;\n    }\n\n    function initializeStrat(bytes32 _name, uint _investment, uint _feeRate) public payable {\n        //initialize strat name to _name\n        strategies[stratCount].name = _name;\n        //Strat owner is message sender\n        strategies[stratCount].stratOwner =  msg.sender;\n        //Initial funds are the msg.value\n        strategies[stratCount].funds = _investment;\n        //Set fee rate\n        strategies[stratCount].feeRate = _feeRate;\n        //set stratOwner to also be an investor\n        strategies[stratCount].investors[msg.sender] = true;\n        //set stratOwner's investor balance to the msg.value\n        strategies[stratCount].virtualBalances[msg.sender] = _investment;\n        //set stratOwner's fees to zero\n        strategies[stratCount].fees[msg.sender] = 0;\n        //Emit Event\n        emit StrategyCreated(stratCount, msg.sender);\n        //Increment stratCount\n        stratCount++;\n\n    }\n\n    //Check to see if an account is an investor in a strategy\n    function isInvestor(uint _stratNum) public view returns (bool) {\n        return strategies[_stratNum].investors[msg.sender];\n    }\n\n    //Make investment into particular fund\n    //Must have required funds\n    function Invest(uint _stratNum, uint _investment) public payable \n    verifyBalance(_stratNum, msg.sender, _investment) \n    verifyFee(_stratNum, _investment, msg.value) \n    returns (bool) {\n        strategies[_stratNum].funds += _investment;\n        strategies[_stratNum].investors[msg.sender] = true;\n        strategies[_stratNum].virtualBalances[msg.sender] = _investment;\n        strategies[_stratNum].fees[msg.sender] = msg.value;\n        return strategies[_stratNum].investors[msg.sender];\n    }\n\n    //check fee rate\n    function checkFeeRate(uint _stratNum) public view returns (uint) {\n        return 100/strategies[_stratNum].feeRate;\n    }\n\n    //not a permanent function\n    function getStratDetails(uint _stratNum) public view returns (bytes32, address, uint, uint){\n        return (strategies[_stratNum].name, \n        strategies[_stratNum].stratOwner, \n        strategies[_stratNum].funds, \n        strategies[_stratNum].feeRate);\n    }\n\n    function getStratDetails2(uint _stratNum, address _addr) public view returns (bool, uint, uint){\n        return(strategies[_stratNum].investors[_addr], \n        strategies[_stratNum].virtualBalances[_addr],\n        strategies[_stratNum].fees[_addr]);\n    }\n}\n",
  "sourcePath": "/home/bryherbz/Documents/final-project-bryanherbert/contracts/StrategyHub.sol",
  "compiler": {
    "name": "solc",
    "version": "0.4.24+commit.e67f0147.Emscripten.clang"
  },
  "schemaVersion": "2.0.1",
  "updatedAt": "2018-12-13T06:10:30.539Z"
}