{
  "contractName": "StrategyHub",
  "abi": [
    {
      "constant": true,
      "inputs": [
        {
          "name": "",
          "type": "uint256"
        }
      ],
      "name": "strategies",
      "outputs": [
        {
          "name": "name",
          "type": "bytes32"
        },
        {
          "name": "stratOwner",
          "type": "address"
        },
        {
          "name": "funds",
          "type": "uint256"
        }
      ],
      "payable": false,
      "stateMutability": "view",
      "type": "function"
    },
    {
      "inputs": [],
      "payable": false,
      "stateMutability": "nonpayable",
      "type": "constructor"
    },
    {
      "anonymous": false,
      "inputs": [
        {
          "indexed": false,
          "name": "stratNum",
          "type": "uint256"
        },
        {
          "indexed": false,
          "name": "stratOwner",
          "type": "address"
        }
      ],
      "name": "StrategyCreated",
      "type": "event"
    },
    {
      "constant": false,
      "inputs": [
        {
          "name": "_name",
          "type": "bytes32"
        }
      ],
      "name": "initializeStrat",
      "outputs": [],
      "payable": true,
      "stateMutability": "payable",
      "type": "function"
    },
    {
      "constant": true,
      "inputs": [
        {
          "name": "_stratNum",
          "type": "uint256"
        }
      ],
      "name": "isInvestor",
      "outputs": [
        {
          "name": "",
          "type": "bool"
        }
      ],
      "payable": false,
      "stateMutability": "view",
      "type": "function"
    },
    {
      "constant": false,
      "inputs": [
        {
          "name": "_stratNum",
          "type": "uint256"
        },
        {
          "name": "_investment",
          "type": "uint256"
        }
      ],
      "name": "Invest",
      "outputs": [
        {
          "name": "",
          "type": "bool"
        }
      ],
      "payable": true,
      "stateMutability": "payable",
      "type": "function"
    },
    {
      "constant": true,
      "inputs": [
        {
          "name": "_stratNum",
          "type": "uint256"
        },
        {
          "name": "_addr",
          "type": "address"
        }
      ],
      "name": "getStratDetails",
      "outputs": [
        {
          "name": "",
          "type": "bytes32"
        },
        {
          "name": "",
          "type": "address"
        },
        {
          "name": "",
          "type": "uint256"
        },
        {
          "name": "",
          "type": "bool"
        },
        {
          "name": "",
          "type": "uint256"
        }
      ],
      "payable": false,
      "stateMutability": "view",
      "type": "function"
    }
  ],
  "bytecode": "0x608060405234801561001057600080fd5b50336000806101000a81548173ffffffffffffffffffffffffffffffffffffffff021916908373ffffffffffffffffffffffffffffffffffffffff16021790555060006002819055506108d1806100686000396000f30060806040526004361061006d576000357c0100000000000000000000000000000000000000000000000000000000900463ffffffff16806323775e5f146100725780635dd1e22614610096578063b08928601461014b578063d574ea3d1461018d578063fa4bcbb214610210575b600080fd5b6100946004803603810190808035600019169060200190929190505050610255565b005b3480156100a257600080fd5b506100e160048036038101908080359060200190929190803573ffffffffffffffffffffffffffffffffffffffff169060200190929190505050610433565b6040518086600019166000191681526020018573ffffffffffffffffffffffffffffffffffffffff1673ffffffffffffffffffffffffffffffffffffffff168152602001848152602001831515151581526020018281526020019550505050505060405180910390f35b6101736004803603810190808035906020019092919080359060200190929190505050610569565b604051808215151515815260200191505060405180910390f35b34801561019957600080fd5b506101b8600480360381019080803590602001909291905050506107f1565b6040518084600019166000191681526020018373ffffffffffffffffffffffffffffffffffffffff1673ffffffffffffffffffffffffffffffffffffffff168152602001828152602001935050505060405180910390f35b34801561021c57600080fd5b5061023b6004803603810190808035906020019092919050505061083b565b604051808215151515815260200191505060405180910390f35b8060016000600254815260200190815260200160002060000181600019169055503360016000600254815260200190815260200160002060010160006101000a81548173ffffffffffffffffffffffffffffffffffffffff021916908373ffffffffffffffffffffffffffffffffffffffff16021790555034600160006002548152602001908152602001600020600201819055506001806000600254815260200190815260200160002060030160003373ffffffffffffffffffffffffffffffffffffffff1673ffffffffffffffffffffffffffffffffffffffff16815260200190815260200160002060006101000a81548160ff0219169083151502179055503460016000600254815260200190815260200160002060040160003373ffffffffffffffffffffffffffffffffffffffff1673ffffffffffffffffffffffffffffffffffffffff168152602001908152602001600020819055507f899fe949a0013a461f6497b6a40c0d8b01d554a7b67ef6aa1c730298baf23d9f60025433604051808381526020018273ffffffffffffffffffffffffffffffffffffffff1673ffffffffffffffffffffffffffffffffffffffff1681526020019250505060405180910390a160026000815480929190600101919050555050565b600080600080600060016000888152602001908152602001600020600001546001600080815260200190815260200160002060010160009054906101000a900473ffffffffffffffffffffffffffffffffffffffff1660016000808152602001908152602001600020600201546001600080815260200190815260200160002060030160008a73ffffffffffffffffffffffffffffffffffffffff1673ffffffffffffffffffffffffffffffffffffffff16815260200190815260200160002060009054906101000a900460ff166001600080815260200190815260200160002060040160008b73ffffffffffffffffffffffffffffffffffffffff1673ffffffffffffffffffffffffffffffffffffffff16815260200190815260200160002054945094509450945094509295509295909350565b600033826000600160328381151561057d57fe5b040190508082018373ffffffffffffffffffffffffffffffffffffffff1631111515610637576040517f08c379a000000000000000000000000000000000000000000000000000000000815260040180806020018281038252602d8152602001807f53656e64657220646f6573206e6f74206861766520656e6f7567682062616c6181526020017f6e636520746f20696e766573740000000000000000000000000000000000000081525060400191505060405180910390fd5b8434600160328381151561064757fe5b040181101515156106c0576040517f08c379a00000000000000000000000000000000000000000000000000000000081526004018080602001828103825260128152602001807f46656520697320696e737566666963656e74000000000000000000000000000081525060200191505060405180910390fd5b60018060008a815260200190815260200160002060030160003373ffffffffffffffffffffffffffffffffffffffff1673ffffffffffffffffffffffffffffffffffffffff16815260200190815260200160002060006101000a81548160ff02191690831515021790555086600160008a815260200190815260200160002060040160003373ffffffffffffffffffffffffffffffffffffffff1673ffffffffffffffffffffffffffffffffffffffff168152602001908152602001600020819055506001600089815260200190815260200160002060030160003373ffffffffffffffffffffffffffffffffffffffff1673ffffffffffffffffffffffffffffffffffffffff16815260200190815260200160002060009054906101000a900460ff169550505050505092915050565b60016020528060005260406000206000915090508060000154908060010160009054906101000a900473ffffffffffffffffffffffffffffffffffffffff16908060020154905083565b60006001600083815260200190815260200160002060030160003373ffffffffffffffffffffffffffffffffffffffff1673ffffffffffffffffffffffffffffffffffffffff16815260200190815260200160002060009054906101000a900460ff1690509190505600a165627a7a7230582035920da966cf2ff96de8da69ad30f08bd22ef6f13bd983fbbede9cb086a0285b0029",
  "source": "pragma solidity ^0.4.24;\n\ncontract StrategyHub {\n    //State Variables\n    address owner;\n    //maybe change uint to name of strategy\n    mapping(uint => Strategy) public strategies;\n    uint stratCount;\n\n    struct Strategy {\n        //Name of strategy\n        bytes32 name;\n        //Quant who initialized the strategy\n        address stratOwner;\n        //amount of funds the strategy is virtually managing\n        uint funds;\n        //maps investors to investment status- current investors return true, non-investors return false\n        mapping (address => bool) investors;\n        //maps investors to their virtual balances in the strategy\n        mapping (address => uint) balances;\n        //will need to add IPFS hash eventually to verify code\n\n    }\n\n    //Events\n    event StrategyCreated(\n        uint stratNum,\n        address stratOwner\n    );\n\n    //Modifiers\n    modifier verifyBalance(address _account, uint _investment){\n        //Account Balance must be greater than investment + Fees\n        //Not sure this correct- want it to represent ~2%\n        uint fee = (_investment / 50) + 1;\n        require(\n            _account.balance > _investment + fee,\n            \"Sender does not have enough balance to invest\"\n        );\n        _;\n    }\n\n    modifier verifyFee(uint _investment, uint _proposedFee) {\n        //Verify that the msg.value > fee\n        require(\n            _proposedFee >= _investment/50+1,\n            \"Fee is insufficent\"\n        );\n        _;\n    }\n\n    constructor() public {\n        owner = msg.sender;\n        //initialize strategy count to 0\n        stratCount = 0;\n    }\n\n    function initializeStrat(bytes32 _name) public payable {\n        //initialize strat name to _name\n        strategies[stratCount].name = _name;\n        //Strat owner is message sender\n        strategies[stratCount].stratOwner =  msg.sender;\n        //Initial funds are the msg.value\n        strategies[stratCount].funds = msg.value;\n        //set stratOwner to also be an investor\n        strategies[stratCount].investors[msg.sender] = true;\n        //set stratOwner's investor balance to the msg. value\n        strategies[stratCount].balances[msg.sender] = msg.value;\n        //Emit Event\n        emit StrategyCreated(stratCount, msg.sender);\n        //Increment stratCount\n        stratCount++;\n\n    }\n\n    //Check to see if an account is an investor in a strategy\n    function isInvestor(uint _stratNum) public view returns (bool) {\n        return strategies[_stratNum].investors[msg.sender];\n    }\n\n    //Make investment into particular fund\n    //Must have required funds\n    function Invest(uint _stratNum, uint _investment) public payable \n    verifyBalance(msg.sender, _investment) \n    verifyFee(_investment, msg.value) \n    returns (bool) {\n        strategies[_stratNum].investors[msg.sender] = true;\n        strategies[_stratNum].balances[msg.sender] = _investment;\n        return strategies[_stratNum].investors[msg.sender];\n    }\n\n    //not a permanent function\n    function getStratDetails(uint _stratNum, address _addr) public view returns (bytes32, address, uint, bool, uint){\n        return (strategies[_stratNum].name, \n        strategies[0].stratOwner, \n        strategies[0].funds, \n        strategies[0].investors[_addr], \n        strategies[0].balances[_addr]);\n    }\n  \n}\n",
  "sourcePath": "/home/bryherbz/Documents/final-project-bryanherbert/contracts/StrategyHub.sol",
  "compiler": {
    "name": "solc",
    "version": "0.4.24+commit.e67f0147.Emscripten.clang"
  },
  "schemaVersion": "2.0.1",
  "updatedAt": "2018-12-12T19:09:27.075Z"
}