{
  "contractName": "StrategyHub",
  "abi": [
    {
      "constant": true,
      "inputs": [
        {
          "name": "",
          "type": "bytes32"
        }
      ],
      "name": "strategies",
      "outputs": [
        {
          "name": "name",
          "type": "bytes32"
        },
        {
          "name": "stratOwner",
          "type": "address"
        },
        {
          "name": "funds",
          "type": "uint256"
        },
        {
          "name": "feeRate",
          "type": "uint256"
        }
      ],
      "payable": false,
      "stateMutability": "view",
      "type": "function"
    },
    {
      "inputs": [],
      "payable": false,
      "stateMutability": "nonpayable",
      "type": "constructor"
    },
    {
      "anonymous": false,
      "inputs": [
        {
          "indexed": false,
          "name": "name",
          "type": "bytes32"
        },
        {
          "indexed": false,
          "name": "stratNum",
          "type": "uint256"
        },
        {
          "indexed": false,
          "name": "stratOwner",
          "type": "address"
        }
      ],
      "name": "StrategyCreated",
      "type": "event"
    },
    {
      "constant": false,
      "inputs": [
        {
          "name": "_name",
          "type": "bytes32"
        },
        {
          "name": "_investment",
          "type": "uint256"
        },
        {
          "name": "_feeRate",
          "type": "uint256"
        }
      ],
      "name": "initializeStrat",
      "outputs": [],
      "payable": true,
      "stateMutability": "payable",
      "type": "function"
    },
    {
      "constant": true,
      "inputs": [
        {
          "name": "_name",
          "type": "bytes32"
        }
      ],
      "name": "isInvestor",
      "outputs": [
        {
          "name": "",
          "type": "bool"
        }
      ],
      "payable": false,
      "stateMutability": "view",
      "type": "function"
    },
    {
      "constant": false,
      "inputs": [
        {
          "name": "_name",
          "type": "bytes32"
        },
        {
          "name": "_investment",
          "type": "uint256"
        }
      ],
      "name": "Invest",
      "outputs": [
        {
          "name": "",
          "type": "bool"
        }
      ],
      "payable": true,
      "stateMutability": "payable",
      "type": "function"
    },
    {
      "constant": true,
      "inputs": [
        {
          "name": "_name",
          "type": "bytes32"
        }
      ],
      "name": "checkFeeRate",
      "outputs": [
        {
          "name": "",
          "type": "uint256"
        }
      ],
      "payable": false,
      "stateMutability": "view",
      "type": "function"
    },
    {
      "constant": false,
      "inputs": [
        {
          "name": "_name",
          "type": "bytes32"
        }
      ],
      "name": "withdrawFunds",
      "outputs": [],
      "payable": false,
      "stateMutability": "nonpayable",
      "type": "function"
    },
    {
      "constant": true,
      "inputs": [
        {
          "name": "_name",
          "type": "bytes32"
        }
      ],
      "name": "getStratDetails",
      "outputs": [
        {
          "name": "",
          "type": "bytes32"
        },
        {
          "name": "",
          "type": "address"
        },
        {
          "name": "",
          "type": "uint256"
        },
        {
          "name": "",
          "type": "uint256"
        }
      ],
      "payable": false,
      "stateMutability": "view",
      "type": "function"
    },
    {
      "constant": true,
      "inputs": [
        {
          "name": "_name",
          "type": "bytes32"
        },
        {
          "name": "_addr",
          "type": "address"
        }
      ],
      "name": "getStratDetails2",
      "outputs": [
        {
          "name": "",
          "type": "bool"
        },
        {
          "name": "",
          "type": "uint256"
        },
        {
          "name": "",
          "type": "uint256"
        }
      ],
      "payable": false,
      "stateMutability": "view",
      "type": "function"
    }
  ],
  "bytecode": "0x608060405234801561001057600080fd5b50336000806101000a81548173ffffffffffffffffffffffffffffffffffffffff021916908373ffffffffffffffffffffffffffffffffffffffff1602179055506000600281905550610e95806100686000396000f30060806040526004361061008e576000357c0100000000000000000000000000000000000000000000000000000000900463ffffffff1680632ecc2823146100935780633ff34eb91461010a5780636e2b54ee14610198578063b3ee9148146101c9578063c174335b14610201578063cfe9b4e71461028f578063f5859d64146102d4578063fb0c50e01461031d575b600080fd5b34801561009f57600080fd5b506100e26004803603810190808035600019169060200190929190803573ffffffffffffffffffffffffffffffffffffffff169060200190929190505050610363565b6040518084151515158152602001838152602001828152602001935050505060405180910390f35b34801561011657600080fd5b506101396004803603810190808035600019169060200190929190505050610496565b6040518085600019166000191681526020018473ffffffffffffffffffffffffffffffffffffffff1673ffffffffffffffffffffffffffffffffffffffff16815260200183815260200182815260200194505050505060405180910390f35b3480156101a457600080fd5b506101c760048036038101908080356000191690602001909291905050506104e6565b005b6101ff60048036038101908080356000191690602001909291908035906020019092919080359060200190929190505050610748565b005b34801561020d57600080fd5b5061023060048036038101908080356000191690602001909291905050506109da565b6040518085600019166000191681526020018473ffffffffffffffffffffffffffffffffffffffff1673ffffffffffffffffffffffffffffffffffffffff16815260200183815260200182815260200194505050505060405180910390f35b34801561029b57600080fd5b506102be6004803603810190808035600019169060200190929190505050610a8b565b6040518082815260200191505060405180910390f35b3480156102e057600080fd5b506103036004803603810190808035600019169060200190929190505050610abf565b604051808215151515815260200191505060405180910390f35b610349600480360381019080803560001916906020019092919080359060200190929190505050610b31565b604051808215151515815260200191505060405180910390f35b600080600060016000866000191660001916815260200190815260200160002060040160008573ffffffffffffffffffffffffffffffffffffffff1673ffffffffffffffffffffffffffffffffffffffff16815260200190815260200160002060009054906101000a900460ff1660016000876000191660001916815260200190815260200160002060050160008673ffffffffffffffffffffffffffffffffffffffff1673ffffffffffffffffffffffffffffffffffffffff1681526020019081526020016000205460016000886000191660001916815260200190815260200160002060060160008773ffffffffffffffffffffffffffffffffffffffff1673ffffffffffffffffffffffffffffffffffffffff168152602001908152602001600020549250925092509250925092565b60016020528060005260406000206000915090508060000154908060010160009054906101000a900473ffffffffffffffffffffffffffffffffffffffff16908060020154908060030154905084565b60016000826000191660001916815260200190815260200160002060050160003373ffffffffffffffffffffffffffffffffffffffff1673ffffffffffffffffffffffffffffffffffffffff1681526020019081526020016000205460016000836000191660001916815260200190815260200160002060020160008282540392505081905550600060016000836000191660001916815260200190815260200160002060050160003373ffffffffffffffffffffffffffffffffffffffff1673ffffffffffffffffffffffffffffffffffffffff168152602001908152602001600020819055503373ffffffffffffffffffffffffffffffffffffffff166108fc60016000846000191660001916815260200190815260200160002060060160003373ffffffffffffffffffffffffffffffffffffffff1673ffffffffffffffffffffffffffffffffffffffff168152602001908152602001600020549081150290604051600060405180830381858888f1935050505015801561066f573d6000803e3d6000fd5b50600060016000836000191660001916815260200190815260200160002060060160003373ffffffffffffffffffffffffffffffffffffffff1673ffffffffffffffffffffffffffffffffffffffff16815260200190815260200160002081905550600060016000836000191660001916815260200190815260200160002060040160003373ffffffffffffffffffffffffffffffffffffffff1673ffffffffffffffffffffffffffffffffffffffff16815260200190815260200160002060006101000a81548160ff02191690831515021790555050565b8260016000856000191660001916815260200190815260200160002060000181600019169055503360016000856000191660001916815260200190815260200160002060010160006101000a81548173ffffffffffffffffffffffffffffffffffffffff021916908373ffffffffffffffffffffffffffffffffffffffff160217905550816001600085600019166000191681526020019081526020016000206002018190555080600160008560001916600019168152602001908152602001600020600301819055506001806000856000191660001916815260200190815260200160002060040160003373ffffffffffffffffffffffffffffffffffffffff1673ffffffffffffffffffffffffffffffffffffffff16815260200190815260200160002060006101000a81548160ff0219169083151502179055508160016000856000191660001916815260200190815260200160002060050160003373ffffffffffffffffffffffffffffffffffffffff1673ffffffffffffffffffffffffffffffffffffffff16815260200190815260200160002081905550600060016000856000191660001916815260200190815260200160002060060160003373ffffffffffffffffffffffffffffffffffffffff1673ffffffffffffffffffffffffffffffffffffffff168152602001908152602001600020819055507f2a9caf06919b256307ce3b631504313a67f6455b6068307ee9663e981904bd2483600254336040518084600019166000191681526020018381526020018273ffffffffffffffffffffffffffffffffffffffff1673ffffffffffffffffffffffffffffffffffffffff168152602001935050505060405180910390a1600260008154809291906001019190505550505050565b6000806000806001600086600019166000191681526020019081526020016000206000015460016000876000191660001916815260200190815260200160002060010160009054906101000a900473ffffffffffffffffffffffffffffffffffffffff16600160008860001916600019168152602001908152602001600020600201546001600089600019166000191681526020019081526020016000206003015493509350935093509193509193565b6000600160008360001916600019168152602001908152602001600020600301546064811515610ab757fe5b049050919050565b600060016000836000191660001916815260200190815260200160002060040160003373ffffffffffffffffffffffffffffffffffffffff1673ffffffffffffffffffffffffffffffffffffffff16815260200190815260200160002060009054906101000a900460ff169050919050565b60008233836000610b4184610a8b565b82811515610b4b57fe5b0490508082018373ffffffffffffffffffffffffffffffffffffffff1631111515610c04576040517f08c379a000000000000000000000000000000000000000000000000000000000815260040180806020018281038252602d8152602001807f53656e64657220646f6573206e6f74206861766520656e6f7567682062616c6181526020017f6e636520746f20696e766573740000000000000000000000000000000000000081525060400191505060405180910390fd5b868634610c1083610a8b565b82811515610c1a57fe5b048110151515610c92576040517f08c379a00000000000000000000000000000000000000000000000000000000081526004018080602001828103825260128152602001807f46656520697320696e737566666963656e74000000000000000000000000000081525060200191505060405180910390fd5b88600160008c600019166000191681526020019081526020016000206002016000828254019250508190555060018060008c6000191660001916815260200190815260200160002060040160003373ffffffffffffffffffffffffffffffffffffffff1673ffffffffffffffffffffffffffffffffffffffff16815260200190815260200160002060006101000a81548160ff02191690831515021790555088600160008c6000191660001916815260200190815260200160002060050160003373ffffffffffffffffffffffffffffffffffffffff1673ffffffffffffffffffffffffffffffffffffffff1681526020019081526020016000208190555034600160008c6000191660001916815260200190815260200160002060060160003373ffffffffffffffffffffffffffffffffffffffff1673ffffffffffffffffffffffffffffffffffffffff16815260200190815260200160002081905550600160008b6000191660001916815260200190815260200160002060040160003373ffffffffffffffffffffffffffffffffffffffff1673ffffffffffffffffffffffffffffffffffffffff16815260200190815260200160002060009054906101000a900460ff16975050505050505050929150505600a165627a7a723058200dde9061126f4c304158cd22a2b783c403a7d97340e3297cf55cf4b018b546c90029",
  "source": "pragma solidity ^0.4.24;\n\ncontract StrategyHub {\n    //State Variables\n    address owner;\n    //maybe change uint to name of strategy\n    mapping(bytes32 => Strategy) public strategies;\n    uint stratCount;\n\n    struct Strategy {\n        //Name of strategy\n        bytes32 name;\n        //Quant who initialized the strategy\n        address stratOwner;\n        //amount of funds the strategy is virtually managing\n        uint funds;\n        //Add fee that quant can set- in whole number, i.e. 2% is represented as 2\n        uint feeRate;\n        //maps investors to investment status- current investors return true, non-investors return false\n        mapping (address => bool) investors;\n        //maps investors to their virtual balances in the strategy\n        mapping (address => uint) virtualBalances;\n        //maps investors to the actual fee they have stored in the Strategy Hub contract\n        //fees are paid into stratOwner fee account and paid from investor fee account\n        mapping (address => uint) fees;\n        //will need to add IPFS hash eventually to verify code\n\n    }\n\n    //Events\n    event StrategyCreated(\n        bytes32 name,\n        uint stratNum,\n        address stratOwner\n    );\n\n    //Modifiers\n    modifier verifyBalance(bytes32 _name, address _account, uint _investment){\n        //Account Balance must be greater than investment + Fees\n        //Not sure this correct- want it to represent ~2%\n        uint fee = _investment/checkFeeRate(_name);\n        require(\n            _account.balance > _investment + fee,\n            \"Sender does not have enough balance to invest\"\n        );\n        _;\n    }\n\n    modifier verifyFee(bytes32 _name, uint _investment, uint _proposedFee) {\n        //Verify that the msg.value > fee\n        require(\n            _proposedFee >= _investment/checkFeeRate(_name),\n            \"Fee is insufficent\"\n        );\n        _;\n    }\n\n    constructor() public {\n        owner = msg.sender;\n        //initialize strategy count to 0\n        stratCount = 0;\n    }\n\n    function initializeStrat(bytes32 _name, uint _investment, uint _feeRate) public payable {\n        //initialize strat name to _name\n        strategies[_name].name = _name;\n        //Strat owner is message sender\n        strategies[_name].stratOwner =  msg.sender;\n        //Initial funds are the msg.value\n        strategies[_name].funds = _investment;\n        //Set fee rate\n        strategies[_name].feeRate = _feeRate;\n        //set stratOwner to also be an investor\n        strategies[_name].investors[msg.sender] = true;\n        //set stratOwner's investor balance to the msg.value\n        strategies[_name].virtualBalances[msg.sender] = _investment;\n        //set stratOwner's fees to zero\n        strategies[_name].fees[msg.sender] = 0;\n        //Emit Event\n        emit StrategyCreated(_name, stratCount, msg.sender);\n        //Increment stratCount\n        stratCount++;\n\n    }\n\n    //Check to see if an account is an investor in a strategy\n    function isInvestor(bytes32 _name) public view returns (bool) {\n        return strategies[_name].investors[msg.sender];\n    }\n\n    //Make investment into particular fund\n    //Must have required funds\n    function Invest(bytes32 _name, uint _investment) public payable \n    verifyBalance(_name, msg.sender, _investment) \n    verifyFee(_name, _investment, msg.value) \n    returns (bool) {\n        strategies[_name].funds += _investment;\n        strategies[_name].investors[msg.sender] = true;\n        strategies[_name].virtualBalances[msg.sender] = _investment;\n        strategies[_name].fees[msg.sender] = msg.value;\n        return strategies[_name].investors[msg.sender];\n    }\n\n    //check fee rate\n    function checkFeeRate(bytes32 _name) public view returns (uint) {\n        return 100/strategies[_name].feeRate;\n    }\n\n    function withdrawFunds(bytes32 _name) public {\n        //Need to make sure this matches up with withdraw philosophy\n        //Add event\n        //subtract virtual balance from total funds\n        strategies[_name].funds -= strategies[_name].virtualBalances[msg.sender];\n        //zero out virtual Balance\n        strategies[_name].virtualBalances[msg.sender] = 0;\n        //transfer fees back to investor\n        msg.sender.transfer(strategies[_name].fees[msg.sender]);\n        //Zero out fees\n        strategies[_name].fees[msg.sender] = 0;\n        //set investor status to faslse\n        strategies[_name].investors[msg.sender] = false;\n    }\n\n    //not a permanent function\n    function getStratDetails(bytes32 _name) public view returns (bytes32, address, uint, uint){\n        return (strategies[_name].name, \n        strategies[_name].stratOwner, \n        strategies[_name].funds, \n        strategies[_name].feeRate);\n    }\n    //need two functions because of stack height\n    function getStratDetails2(bytes32 _name, address _addr) public view returns (bool, uint, uint){\n        return(strategies[_name].investors[_addr], \n        strategies[_name].virtualBalances[_addr],\n        strategies[_name].fees[_addr]);\n    }\n}\n",
  "sourcePath": "/home/bryherbz/Documents/final-project-bryanherbert/contracts/StrategyHub.sol",
  "compiler": {
    "name": "solc",
    "version": "0.4.24+commit.e67f0147.Emscripten.clang"
  },
  "schemaVersion": "2.0.1",
  "updatedAt": "2018-12-14T21:44:31.933Z"
}