{
  "contractName": "StrategyHub",
  "abi": [
    {
      "constant": true,
      "inputs": [
        {
          "name": "",
          "type": "uint256"
        }
      ],
      "name": "strategies",
      "outputs": [
        {
          "name": "name",
          "type": "bytes32"
        },
        {
          "name": "stratOwner",
          "type": "address"
        },
        {
          "name": "funds",
          "type": "uint256"
        }
      ],
      "payable": false,
      "stateMutability": "view",
      "type": "function"
    },
    {
      "inputs": [],
      "payable": false,
      "stateMutability": "nonpayable",
      "type": "constructor"
    },
    {
      "anonymous": false,
      "inputs": [
        {
          "indexed": false,
          "name": "stratNum",
          "type": "uint256"
        },
        {
          "indexed": false,
          "name": "stratOwner",
          "type": "address"
        }
      ],
      "name": "StrategyCreated",
      "type": "event"
    },
    {
      "constant": false,
      "inputs": [
        {
          "name": "_name",
          "type": "bytes32"
        }
      ],
      "name": "initializeStrat",
      "outputs": [],
      "payable": true,
      "stateMutability": "payable",
      "type": "function"
    }
  ],
  "bytecode": "0x608060405234801561001057600080fd5b50336000806101000a81548173ffffffffffffffffffffffffffffffffffffffff021916908373ffffffffffffffffffffffffffffffffffffffff160217905550600060028190555061034c806100686000396000f30060806040526004361061004c576000357c0100000000000000000000000000000000000000000000000000000000900463ffffffff16806323775e5f14610051578063d574ea3d14610075575b600080fd5b61007360048036038101908080356000191690602001909291905050506100f8565b005b34801561008157600080fd5b506100a0600480360381019080803590602001909291905050506102d6565b6040518084600019166000191681526020018373ffffffffffffffffffffffffffffffffffffffff1673ffffffffffffffffffffffffffffffffffffffff168152602001828152602001935050505060405180910390f35b8060016000600254815260200190815260200160002060000181600019169055503360016000600254815260200190815260200160002060010160006101000a81548173ffffffffffffffffffffffffffffffffffffffff021916908373ffffffffffffffffffffffffffffffffffffffff16021790555034600160006002548152602001908152602001600020600201819055506001806000600254815260200190815260200160002060030160003373ffffffffffffffffffffffffffffffffffffffff1673ffffffffffffffffffffffffffffffffffffffff16815260200190815260200160002060006101000a81548160ff0219169083151502179055503460016000600254815260200190815260200160002060040160003373ffffffffffffffffffffffffffffffffffffffff1673ffffffffffffffffffffffffffffffffffffffff168152602001908152602001600020819055507f899fe949a0013a461f6497b6a40c0d8b01d554a7b67ef6aa1c730298baf23d9f60025433604051808381526020018273ffffffffffffffffffffffffffffffffffffffff1673ffffffffffffffffffffffffffffffffffffffff1681526020019250505060405180910390a160026000815480929190600101919050555050565b60016020528060005260406000206000915090508060000154908060010160009054906101000a900473ffffffffffffffffffffffffffffffffffffffff169080600201549050835600a165627a7a72305820ea223500726d6f6e833452a577a8ce7d1c83fc748beba3f5b93d02f8ca60b1f50029",
  "source": "pragma solidity ^0.4.24;\n\ncontract StrategyHub {\n    //State Variables\n    address owner;\n    mapping(uint => Strategy) public strategies;\n    uint stratCount;\n\n    struct Strategy {\n        //Name of strategy\n        bytes32 name;\n        //Quant who initialized the strategy\n        address stratOwner;\n        //amount of funds the strategy is virtually managing\n        uint funds;\n        //maps investors to investment status- current investors return true, non-investors return false\n        mapping (address => bool) investors;\n        //maps investors to their virtual balances in the strategy\n        mapping (address => uint) balances;\n        //will need to add IPFS hash eventually to verify code\n\n    }\n\n    //Events\n    event StrategyCreated(\n        uint stratNum,\n        address stratOwner\n    );\n\n    constructor() public {\n        owner = msg.sender;\n        //initialize strategy count to 0\n        stratCount = 0;\n    }\n\n    function initializeStrat(bytes32 _name) public payable {\n        //initialize strat name to _name\n        strategies[stratCount].name = _name;\n        //Strat owner is message sender\n        strategies[stratCount].stratOwner =  msg.sender;\n        //Initial funds are the msg.value\n        strategies[stratCount].funds = msg.value;\n        //set stratOwner to also be an investor\n        strategies[stratCount].investors[msg.sender] = true;\n        //set stratOwner's investor balance to the msg. value\n        strategies[stratCount].balances[msg.sender] = msg.value;\n        //Emit Event\n        emit StrategyCreated(stratCount, msg.sender);\n        //Increment stratCount\n        stratCount++;\n\n    }\n  \n}\n",
  "sourcePath": "/home/bryherbz/Documents/final-project-bryanherbert/contracts/StrategyHub.sol",
  "compiler": {
    "name": "solc",
    "version": "0.4.24+commit.e67f0147.Emscripten.clang"
  },
  "schemaVersion": "2.0.1",
  "updatedAt": "2018-12-11T03:09:44.926Z"
}