{
  "contractName": "StrategyHub",
  "abi": [
    {
      "constant": true,
      "inputs": [
        {
          "name": "",
          "type": "bytes32"
        }
      ],
      "name": "strategies",
      "outputs": [
        {
          "name": "name",
          "type": "bytes32"
        },
        {
          "name": "stratOwner",
          "type": "address"
        },
        {
          "name": "funds",
          "type": "uint256"
        },
        {
          "name": "feeRate",
          "type": "uint256"
        },
        {
          "name": "paymentCycle",
          "type": "uint256"
        }
      ],
      "payable": false,
      "stateMutability": "view",
      "type": "function"
    },
    {
      "inputs": [],
      "payable": false,
      "stateMutability": "nonpayable",
      "type": "constructor"
    },
    {
      "anonymous": false,
      "inputs": [
        {
          "indexed": false,
          "name": "name",
          "type": "bytes32"
        },
        {
          "indexed": false,
          "name": "stratNum",
          "type": "uint256"
        },
        {
          "indexed": false,
          "name": "stratOwner",
          "type": "address"
        }
      ],
      "name": "StrategyCreated",
      "type": "event"
    },
    {
      "anonymous": false,
      "inputs": [
        {
          "indexed": false,
          "name": "name",
          "type": "bytes32"
        },
        {
          "indexed": false,
          "name": "investor",
          "type": "address"
        },
        {
          "indexed": false,
          "name": "investment",
          "type": "uint256"
        }
      ],
      "name": "Investment",
      "type": "event"
    },
    {
      "anonymous": false,
      "inputs": [
        {
          "indexed": false,
          "name": "name",
          "type": "bytes32"
        },
        {
          "indexed": false,
          "name": "investor",
          "type": "address"
        },
        {
          "indexed": false,
          "name": "fee",
          "type": "uint256"
        }
      ],
      "name": "FeesPaid",
      "type": "event"
    },
    {
      "anonymous": false,
      "inputs": [
        {
          "indexed": false,
          "name": "name",
          "type": "bytes32"
        },
        {
          "indexed": false,
          "name": "fee",
          "type": "uint256"
        }
      ],
      "name": "FeesCollected",
      "type": "event"
    },
    {
      "anonymous": false,
      "inputs": [
        {
          "indexed": false,
          "name": "name",
          "type": "bytes32"
        },
        {
          "indexed": false,
          "name": "investor",
          "type": "address"
        },
        {
          "indexed": false,
          "name": "investment",
          "type": "uint256"
        },
        {
          "indexed": false,
          "name": "fees",
          "type": "uint256"
        }
      ],
      "name": "FundsWithdrawn",
      "type": "event"
    },
    {
      "constant": false,
      "inputs": [
        {
          "name": "_name",
          "type": "bytes32"
        },
        {
          "name": "_investment",
          "type": "uint256"
        },
        {
          "name": "_feeRate",
          "type": "uint256"
        },
        {
          "name": "_paymentCycle",
          "type": "uint256"
        }
      ],
      "name": "initializeStrat",
      "outputs": [],
      "payable": true,
      "stateMutability": "payable",
      "type": "function"
    },
    {
      "constant": true,
      "inputs": [
        {
          "name": "_name",
          "type": "bytes32"
        }
      ],
      "name": "isInvestor",
      "outputs": [
        {
          "name": "",
          "type": "bool"
        }
      ],
      "payable": false,
      "stateMutability": "view",
      "type": "function"
    },
    {
      "constant": false,
      "inputs": [
        {
          "name": "_name",
          "type": "bytes32"
        },
        {
          "name": "_investment",
          "type": "uint256"
        }
      ],
      "name": "Invest",
      "outputs": [
        {
          "name": "",
          "type": "bool"
        }
      ],
      "payable": true,
      "stateMutability": "payable",
      "type": "function"
    },
    {
      "constant": true,
      "inputs": [
        {
          "name": "_name",
          "type": "bytes32"
        }
      ],
      "name": "checkFeeRate",
      "outputs": [
        {
          "name": "",
          "type": "uint256"
        }
      ],
      "payable": false,
      "stateMutability": "view",
      "type": "function"
    },
    {
      "constant": false,
      "inputs": [
        {
          "name": "_name",
          "type": "bytes32"
        },
        {
          "name": "_timePeriod",
          "type": "uint256"
        }
      ],
      "name": "payFee",
      "outputs": [],
      "payable": false,
      "stateMutability": "nonpayable",
      "type": "function"
    },
    {
      "constant": false,
      "inputs": [
        {
          "name": "_name",
          "type": "bytes32"
        }
      ],
      "name": "collectFees",
      "outputs": [],
      "payable": false,
      "stateMutability": "nonpayable",
      "type": "function"
    },
    {
      "constant": false,
      "inputs": [
        {
          "name": "_name",
          "type": "bytes32"
        }
      ],
      "name": "withdrawFunds",
      "outputs": [],
      "payable": false,
      "stateMutability": "nonpayable",
      "type": "function"
    },
    {
      "constant": true,
      "inputs": [
        {
          "name": "_name",
          "type": "bytes32"
        }
      ],
      "name": "getStratDetails",
      "outputs": [
        {
          "name": "",
          "type": "bytes32"
        },
        {
          "name": "",
          "type": "address"
        },
        {
          "name": "",
          "type": "uint256"
        },
        {
          "name": "",
          "type": "uint256"
        }
      ],
      "payable": false,
      "stateMutability": "view",
      "type": "function"
    },
    {
      "constant": true,
      "inputs": [
        {
          "name": "_name",
          "type": "bytes32"
        },
        {
          "name": "_addr",
          "type": "address"
        }
      ],
      "name": "getStratDetails2",
      "outputs": [
        {
          "name": "",
          "type": "uint256"
        },
        {
          "name": "",
          "type": "bool"
        },
        {
          "name": "",
          "type": "uint256"
        },
        {
          "name": "",
          "type": "uint256"
        }
      ],
      "payable": false,
      "stateMutability": "view",
      "type": "function"
    }
  ],
  "bytecode": "0x608060405234801561001057600080fd5b50336000806101000a81548173ffffffffffffffffffffffffffffffffffffffff021916908373ffffffffffffffffffffffffffffffffffffffff1602179055506000600281905550611a90806100686000396000f3006080604052600436106100a4576000357c0100000000000000000000000000000000000000000000000000000000900463ffffffff1680632ecc2823146100a95780633ff34eb9146101275780636e2b54ee146101bc578063817db73b146101ed57806381bb2b201461021e578063b09223dc14610259578063c174335b1461029b578063cfe9b4e714610329578063f5859d641461036e578063fb0c50e0146103b7575b600080fd5b3480156100b557600080fd5b506100f86004803603810190808035600019169060200190929190803573ffffffffffffffffffffffffffffffffffffffff1690602001909291905050506103fd565b604051808581526020018415151515815260200183815260200182815260200194505050505060405180910390f35b34801561013357600080fd5b506101566004803603810190808035600019169060200190929190505050610554565b6040518086600019166000191681526020018573ffffffffffffffffffffffffffffffffffffffff1673ffffffffffffffffffffffffffffffffffffffff1681526020018481526020018381526020018281526020019550505050505060405180910390f35b3480156101c857600080fd5b506101eb60048036038101908080356000191690602001909291905050506105aa565b005b3480156101f957600080fd5b5061021c60048036038101908080356000191690602001909291905050506109a8565b005b34801561022a57600080fd5b50610257600480360381019080803560001916906020019092919080359060200190929190505050610c04565b005b6102996004803603810190808035600019169060200190929190803590602001909291908035906020019092919080359060200190929190505050611246565b005b3480156102a757600080fd5b506102ca60048036038101908080356000191690602001909291905050506114fc565b6040518085600019166000191681526020018473ffffffffffffffffffffffffffffffffffffffff1673ffffffffffffffffffffffffffffffffffffffff16815260200183815260200182815260200194505050505060405180910390f35b34801561033557600080fd5b5061035860048036038101908080356000191690602001909291905050506115ad565b6040518082815260200191505060405180910390f35b34801561037a57600080fd5b5061039d60048036038101908080356000191690602001909291905050506115e1565b604051808215151515815260200191505060405180910390f35b6103e3600480360381019080803560001916906020019092919080359060200190929190505050611653565b604051808215151515815260200191505060405180910390f35b6000806000806001600087600019166000191681526020019081526020016000206004015460016000886000191660001916815260200190815260200160002060050160008773ffffffffffffffffffffffffffffffffffffffff1673ffffffffffffffffffffffffffffffffffffffff16815260200190815260200160002060009054906101000a900460ff1660016000896000191660001916815260200190815260200160002060060160008873ffffffffffffffffffffffffffffffffffffffff1673ffffffffffffffffffffffffffffffffffffffff16815260200190815260200160002054600160008a6000191660001916815260200190815260200160002060070160008973ffffffffffffffffffffffffffffffffffffffff1673ffffffffffffffffffffffffffffffffffffffff16815260200190815260200160002054935093509350935092959194509250565b60016020528060005260406000206000915090508060000154908060010160009054906101000a900473ffffffffffffffffffffffffffffffffffffffff16908060020154908060030154908060040154905085565b600080826001806000836000191660001916815260200190815260200160002060050160003373ffffffffffffffffffffffffffffffffffffffff1673ffffffffffffffffffffffffffffffffffffffff16815260200190815260200160002060006101000a81548160ff021916908315150217905515156106ba576040517f08c379a00000000000000000000000000000000000000000000000000000000081526004018080602001828103825260218152602001807f4d6573736167652053656e646572206973206e6f7420616e20696e766573746f81526020017f720000000000000000000000000000000000000000000000000000000000000081525060400191505060405180910390fd5b60016000856000191660001916815260200190815260200160002060060160003373ffffffffffffffffffffffffffffffffffffffff1673ffffffffffffffffffffffffffffffffffffffff16815260200190815260200160002054925060016000856000191660001916815260200190815260200160002060070160003373ffffffffffffffffffffffffffffffffffffffff1673ffffffffffffffffffffffffffffffffffffffff1681526020019081526020016000205491508260016000866000191660001916815260200190815260200160002060020160008282540392505081905550600060016000866000191660001916815260200190815260200160002060060160003373ffffffffffffffffffffffffffffffffffffffff1673ffffffffffffffffffffffffffffffffffffffff168152602001908152602001600020819055503373ffffffffffffffffffffffffffffffffffffffff166108fc839081150290604051600060405180830381858888f19350505050158015610849573d6000803e3d6000fd5b50600060016000866000191660001916815260200190815260200160002060070160003373ffffffffffffffffffffffffffffffffffffffff1673ffffffffffffffffffffffffffffffffffffffff16815260200190815260200160002081905550600060016000866000191660001916815260200190815260200160002060050160003373ffffffffffffffffffffffffffffffffffffffff1673ffffffffffffffffffffffffffffffffffffffff16815260200190815260200160002060006101000a81548160ff0219169083151502179055507f37daaf23d820d50582a4a4cd7248e83c1dfb8d1369a837254b34c62378139017843385856040518085600019166000191681526020018473ffffffffffffffffffffffffffffffffffffffff1673ffffffffffffffffffffffffffffffffffffffff16815260200183815260200182815260200194505050505060405180910390a150505050565b6000813373ffffffffffffffffffffffffffffffffffffffff1660016000836000191660001916815260200190815260200160002060010160009054906101000a900473ffffffffffffffffffffffffffffffffffffffff1673ffffffffffffffffffffffffffffffffffffffff16141515610ab2576040517f08c379a00000000000000000000000000000000000000000000000000000000081526004018080602001828103825260248152602001807f4d6573736167652053656e64657220646f6573206e6f74206f776e207374726181526020017f746567790000000000000000000000000000000000000000000000000000000081525060400191505060405180910390fd5b60016000846000191660001916815260200190815260200160002060070160003373ffffffffffffffffffffffffffffffffffffffff1673ffffffffffffffffffffffffffffffffffffffff168152602001908152602001600020549150600060016000856000191660001916815260200190815260200160002060070160003373ffffffffffffffffffffffffffffffffffffffff1673ffffffffffffffffffffffffffffffffffffffff168152602001908152602001600020819055503373ffffffffffffffffffffffffffffffffffffffff166108fc839081150290604051600060405180830381858888f19350505050158015610bb7573d6000803e3d6000fd5b507f381ff38e2fec0d64b5d6f95156decdb3e229ef47c184126bbb5511a7bf32cf1083836040518083600019166000191681526020018281526020019250505060405180910390a1505050565b600080836001806000836000191660001916815260200190815260200160002060050160003373ffffffffffffffffffffffffffffffffffffffff1673ffffffffffffffffffffffffffffffffffffffff16815260200190815260200160002060006101000a81548160ff02191690831515021790551515610d14576040517f08c379a00000000000000000000000000000000000000000000000000000000081526004018080602001828103825260218152602001807f4d6573736167652053656e646572206973206e6f7420616e20696e766573746f81526020017f720000000000000000000000000000000000000000000000000000000000000081525060400191505060405180910390fd5b8484600081610d22846115ad565b60016000866000191660001916815260200190815260200160002060060160003373ffffffffffffffffffffffffffffffffffffffff1673ffffffffffffffffffffffffffffffffffffffff16815260200190815260200160002054811515610d8757fe5b04811515610d9157fe5b0490508060016000856000191660001916815260200190815260200160002060070160003373ffffffffffffffffffffffffffffffffffffffff1673ffffffffffffffffffffffffffffffffffffffff16815260200190815260200160002054111515610eb2576040517f08c379a000000000000000000000000000000000000000000000000000000000815260040180806020018281038252604c8152602001807f4665652062616c616e636520697320696e73756666696369656e7420746f206d81526020017f616b65207061796d656e74206f72207061796d656e74206379636c652069732081526020017f6e6f7420636f6d706c657465000000000000000000000000000000000000000081525060600191505060405180910390fd5b8762015180600160008360001916600019168152602001908152602001600020600401540260016000836000191660001916815260200190815260200160002060080160003373ffffffffffffffffffffffffffffffffffffffff1673ffffffffffffffffffffffffffffffffffffffff16815260200190815260200160002054014210151515610fd1576040517f08c379a00000000000000000000000000000000000000000000000000000000081526004018080602001828103825260218152602001807f4379636c65206973206e6f7420636f6d706c6574652c206e6f2066656520647581526020017f650000000000000000000000000000000000000000000000000000000000000081525060400191505060405180910390fd5b87610fdb8a6115ad565b600160008c6000191660001916815260200190815260200160002060060160003373ffffffffffffffffffffffffffffffffffffffff1673ffffffffffffffffffffffffffffffffffffffff1681526020019081526020016000205481151561104057fe5b0481151561104a57fe5b049650600160008a6000191660001916815260200190815260200160002060010160009054906101000a900473ffffffffffffffffffffffffffffffffffffffff16955086600160008b6000191660001916815260200190815260200160002060070160003373ffffffffffffffffffffffffffffffffffffffff1673ffffffffffffffffffffffffffffffffffffffff1681526020019081526020016000206000828254039250508190555086600160008b6000191660001916815260200190815260200160002060070160008873ffffffffffffffffffffffffffffffffffffffff1673ffffffffffffffffffffffffffffffffffffffff1681526020019081526020016000206000828254019250508190555042600160008b6000191660001916815260200190815260200160002060080160003373ffffffffffffffffffffffffffffffffffffffff1673ffffffffffffffffffffffffffffffffffffffff168152602001908152602001600020819055507fcdaf268fff4093ca2f3a0c5457f2a78a56c4da37c292d3a66a9d8e645d2b78018933896040518084600019166000191681526020018373ffffffffffffffffffffffffffffffffffffffff1673ffffffffffffffffffffffffffffffffffffffff168152602001828152602001935050505060405180910390a1505050505050505050565b8360016000866000191660001916815260200190815260200160002060000181600019169055503360016000866000191660001916815260200190815260200160002060010160006101000a81548173ffffffffffffffffffffffffffffffffffffffff021916908373ffffffffffffffffffffffffffffffffffffffff1602179055508260016000866000191660001916815260200190815260200160002060020181905550816001600086600019166000191681526020019081526020016000206003018190555080600160008660001916600019168152602001908152602001600020600401819055506001806000866000191660001916815260200190815260200160002060050160003373ffffffffffffffffffffffffffffffffffffffff1673ffffffffffffffffffffffffffffffffffffffff16815260200190815260200160002060006101000a81548160ff0219169083151502179055508260016000866000191660001916815260200190815260200160002060060160003373ffffffffffffffffffffffffffffffffffffffff1673ffffffffffffffffffffffffffffffffffffffff16815260200190815260200160002081905550600060016000866000191660001916815260200190815260200160002060070160003373ffffffffffffffffffffffffffffffffffffffff1673ffffffffffffffffffffffffffffffffffffffff168152602001908152602001600020819055507f2a9caf06919b256307ce3b631504313a67f6455b6068307ee9663e981904bd2484600254336040518084600019166000191681526020018381526020018273ffffffffffffffffffffffffffffffffffffffff1673ffffffffffffffffffffffffffffffffffffffff168152602001935050505060405180910390a160026000815480929190600101919050555050505050565b6000806000806001600086600019166000191681526020019081526020016000206000015460016000876000191660001916815260200190815260200160002060010160009054906101000a900473ffffffffffffffffffffffffffffffffffffffff16600160008860001916600019168152602001908152602001600020600201546001600089600019166000191681526020019081526020016000206003015493509350935093509193509193565b60006001600083600019166000191681526020019081526020016000206003015460648115156115d957fe5b049050919050565b600060016000836000191660001916815260200190815260200160002060050160003373ffffffffffffffffffffffffffffffffffffffff1673ffffffffffffffffffffffffffffffffffffffff16815260200190815260200160002060009054906101000a900460ff169050919050565b600082826000611662836115ad565b8281151561166c57fe5b0490508082013373ffffffffffffffffffffffffffffffffffffffff1631111515611725576040517f08c379a000000000000000000000000000000000000000000000000000000000815260040180806020018281038252602d8152602001807f53656e64657220646f6573206e6f74206861766520656e6f7567682062616c6181526020017f6e636520746f20696e766573740000000000000000000000000000000000000081525060400191505060405180910390fd5b858534611731836115ad565b8281151561173b57fe5b0481101515156117b3576040517f08c379a00000000000000000000000000000000000000000000000000000000081526004018080602001828103825260128152602001807f46656520697320696e737566666963656e74000000000000000000000000000081525060200191505060405180910390fd5b87600160008b600019166000191681526020019081526020016000206002016000828254019250508190555060018060008b6000191660001916815260200190815260200160002060050160003373ffffffffffffffffffffffffffffffffffffffff1673ffffffffffffffffffffffffffffffffffffffff16815260200190815260200160002060006101000a81548160ff02191690831515021790555087600160008b6000191660001916815260200190815260200160002060060160003373ffffffffffffffffffffffffffffffffffffffff1673ffffffffffffffffffffffffffffffffffffffff1681526020019081526020016000208190555034600160008b6000191660001916815260200190815260200160002060070160003373ffffffffffffffffffffffffffffffffffffffff1673ffffffffffffffffffffffffffffffffffffffff1681526020019081526020016000208190555042600160008b6000191660001916815260200190815260200160002060080160003373ffffffffffffffffffffffffffffffffffffffff1673ffffffffffffffffffffffffffffffffffffffff168152602001908152602001600020819055507f2b158127221737cd431395104f48aa6534ed782d1c9c8b2ac852d925c0c1e9c189338a6040518084600019166000191681526020018373ffffffffffffffffffffffffffffffffffffffff1673ffffffffffffffffffffffffffffffffffffffff168152602001828152602001935050505060405180910390a1600160008a6000191660001916815260200190815260200160002060050160003373ffffffffffffffffffffffffffffffffffffffff1673ffffffffffffffffffffffffffffffffffffffff16815260200190815260200160002060009054906101000a900460ff169650505050505050929150505600a165627a7a72305820acb9d64b87660b83cef02ba7696e6fe296479f4b22a285e243726fcd52389a1a0029",
  "source": "pragma solidity ^0.4.24;\n\ncontract StrategyHub {\n    //State Variables\n    address owner;\n    //maybe change uint to name of strategy\n    mapping(bytes32 => Strategy) public strategies;\n    uint stratCount;\n\n    struct Strategy {\n        //Name of strategy\n        bytes32 name;\n        //Quant who initialized the strategy\n        address stratOwner;\n        //amount of funds the strategy is virtually managing\n        uint funds;\n        //Add fee that quant can set- in whole number, i.e. 2% is represented as 2\n        uint feeRate;\n        //Number of days in Payment Cycle\n        uint paymentCycle;\n        //maps investors to investment status- current investors return true, non-investors return false\n        mapping (address => bool) investors;\n        //maps investors to their virtual balances in the strategy\n        mapping (address => uint) virtualBalances;\n        //maps investors to the actual fee they have stored in the Strategy Hub contract\n        //fees are paid into stratOwner fee account and paid from investor fee account\n        mapping (address => uint) fees;\n        //Adoption Times for each investor\n        mapping(address => uint) paymentCycleStart;\n        //will need to add IPFS hash eventually to verify code\n\n    }\n\n    //Events\n    event StrategyCreated(\n        bytes32 name,\n        uint stratNum,\n        address stratOwner\n    );\n\n    event Investment(\n        bytes32 name,\n        address investor,\n        uint investment\n    );\n    \n    event FeesPaid(\n        bytes32 name,\n        address investor,\n        uint fee\n    );\n\n    event FeesCollected(\n        bytes32 name,\n        uint fee\n    );\n\n    event FundsWithdrawn(\n        bytes32 name,\n        address investor,\n        uint investment,\n        uint fees\n    );\n\n    //Modifiers\n    modifier verifyBalance(bytes32 _name, uint _investment){\n        //Account Balance must be greater than investment + Fees\n        //Not sure this correct- want it to represent ~2%\n        uint fee = _investment/checkFeeRate(_name);\n        require(\n            msg.sender.balance > _investment + fee,\n            \"Sender does not have enough balance to invest\"\n        );\n        _;\n    }\n\n    modifier verifyFee(bytes32 _name, uint _investment, uint _proposedFee) {\n        //Verify that the msg.value > fee\n        require(\n            _proposedFee >= _investment/checkFeeRate(_name),\n            \"Fee is insufficent\"\n        );\n        _;\n    }\n\n    modifier checkFeePayment(bytes32 _name, uint _timePeriod) {\n        uint payment = (strategies[_name].virtualBalances[msg.sender]/checkFeeRate(_name))/_timePeriod;\n        require(\n            //Check that msg.sender has enough in fees to make payment installment\n            strategies[_name].fees[msg.sender] > payment,\n            \"Fee balance is insufficient to make payment or payment cycle is not complete\"\n        );\n        _;\n    }\n\n    modifier verifyInvestmentStatus(bytes32 _name){\n        //check that msg.sender is an investor\n        require(\n            strategies[_name].investors[msg.sender] = true,\n            \"Message Sender is not an investor\"\n        );\n        _;\n    }\n\n    //Can replace this with ethpm code\n    modifier isOwner(bytes32 _name){\n        require(\n            strategies[_name].stratOwner == msg.sender,\n            \"Message Sender does not own strategy\"\n        );\n        _;\n    }\n\n    modifier cycleComplete(bytes32 _name){\n        require(\n            now >= strategies[_name].paymentCycleStart[msg.sender] + strategies[_name].paymentCycle * 1 days,\n            \"Cycle is not complete, no fee due\"\n        );\n        _;\n    }\n\n    constructor() public {\n        owner = msg.sender;\n        //initialize strategy count to 0\n        stratCount = 0;\n    }\n\n    function initializeStrat(bytes32 _name, uint _investment, uint _feeRate, uint _paymentCycle) public payable {\n        //initialize strat name to _name\n        strategies[_name].name = _name;\n        //Strat owner is message sender\n        strategies[_name].stratOwner = msg.sender;\n        //Initial funds are the msg.value\n        strategies[_name].funds = _investment;\n        //Set fee rate\n        strategies[_name].feeRate = _feeRate;\n        //Set payment cycle\n        strategies[_name].paymentCycle = _paymentCycle;\n        //set stratOwner to also be an investor\n        strategies[_name].investors[msg.sender] = true;\n        //set stratOwner's investor balance to the msg.value\n        strategies[_name].virtualBalances[msg.sender] = _investment;\n        //set stratOwner's fees to zero\n        strategies[_name].fees[msg.sender] = 0;\n        //Emit Event\n        emit StrategyCreated(_name, stratCount, msg.sender);\n        //Increment stratCount\n        stratCount++;\n\n    }\n\n    //Check to see if an account is an investor in a strategy\n    function isInvestor(bytes32 _name) public view returns (bool) {\n        return strategies[_name].investors[msg.sender];\n    }\n\n    //Make investment into particular fund\n    //Must have required funds\n    function Invest(bytes32 _name, uint _investment) public payable \n    verifyBalance(_name, _investment) \n    verifyFee(_name, _investment, msg.value) \n    returns (bool) {\n        strategies[_name].funds += _investment;\n        strategies[_name].investors[msg.sender] = true;\n        strategies[_name].virtualBalances[msg.sender] = _investment;\n        strategies[_name].fees[msg.sender] = msg.value;\n        strategies[_name].paymentCycleStart[msg.sender] = now;\n        //Emit event\n        emit Investment(_name, msg.sender, _investment);\n        return strategies[_name].investors[msg.sender];\n    }\n\n    //check fee rate\n    function checkFeeRate(bytes32 _name) public view returns (uint) {\n        return 100/strategies[_name].feeRate;\n    }\n\n    //One-time pay fee function\n    function payFee(bytes32 _name, uint _timePeriod) public\n    verifyInvestmentStatus(_name)\n    checkFeePayment(_name, _timePeriod)\n    cycleComplete(_name)\n    {\n        //Calculate payment\n        uint payment = (strategies[_name].virtualBalances[msg.sender]/checkFeeRate(_name))/_timePeriod;\n        //Owner fees account\n        address stratOwner = strategies[_name].stratOwner;\n        //Subtract payment from investor fees\n        strategies[_name].fees[msg.sender] -= payment;\n        strategies[_name].fees[stratOwner] += payment;\n        strategies[_name].paymentCycleStart[msg.sender] = now;\n        emit FeesPaid(_name, msg.sender, payment);\n    }\n\n    //Owner of Strategy Collects Fees\n    function collectFees(bytes32 _name) public\n    isOwner(_name)\n    {\n        uint feesCollected = strategies[_name].fees[msg.sender];\n        strategies[_name].fees[msg.sender] = 0;\n        msg.sender.transfer(feesCollected);\n        emit FeesCollected(_name, feesCollected);\n    }\n\n    function withdrawFunds(bytes32 _name) public\n    verifyInvestmentStatus(_name) \n    {\n        //Need to make sure this matches up with withdraw philosophy\n        //Temporary Balance and Fees\n        uint bal = strategies[_name].virtualBalances[msg.sender];\n        uint fees = strategies[_name].fees[msg.sender];\n        //subtract virtual balance from total funds\n        strategies[_name].funds -= bal;\n        //zero out virtual Balance\n        strategies[_name].virtualBalances[msg.sender] = 0;\n        //transfer fees back to investor\n        msg.sender.transfer(fees);\n        //Zero out fees\n        strategies[_name].fees[msg.sender] = 0;\n        //set investor status to faslse\n        strategies[_name].investors[msg.sender] = false;\n        emit FundsWithdrawn(_name, msg.sender, bal, fees);\n    }\n\n    //not a permanent function\n    function getStratDetails(bytes32 _name) public view returns (bytes32, address, uint, uint){\n        return (strategies[_name].name, \n        strategies[_name].stratOwner, \n        strategies[_name].funds, \n        strategies[_name].feeRate);\n    }\n    //need two functions because of stack height\n    function getStratDetails2(bytes32 _name, address _addr) public view returns (uint, bool, uint, uint){\n        return(strategies[_name].paymentCycle,\n        strategies[_name].investors[_addr], \n        strategies[_name].virtualBalances[_addr],\n        strategies[_name].fees[_addr]);\n    }\n}\n",
  "sourcePath": "/home/bryherbz/Documents/final-project-bryanherbert/contracts/StrategyHub.sol",
  "compiler": {
    "name": "solc",
    "version": "0.4.24+commit.e67f0147.Emscripten.clang"
  },
  "schemaVersion": "2.0.1",
  "updatedAt": "2018-12-20T00:29:58.384Z"
}