{
  "contractName": "WithdrawFundsLib",
  "abi": [
    {
      "constant": false,
      "inputs": [
        {
          "name": "self",
          "type": "StructLib.Data storage"
        },
        {
          "name": "_name",
          "type": "bytes32"
        },
        {
          "name": "_investor",
          "type": "address"
        }
      ],
      "name": "withdrawFunds",
      "outputs": [
        {
          "name": "",
          "type": "uint256"
        },
        {
          "name": "",
          "type": "uint256"
        }
      ],
      "payable": false,
      "stateMutability": "nonpayable",
      "type": "function"
    }
  ],
  "bytecode": "0x610386610030600b82828239805160001a6073146000811461002057610022565bfe5b5030600052607381538281f3007300000000000000000000000000000000000000003014608060405260043610610058576000357c0100000000000000000000000000000000000000000000000000000000900463ffffffff168063bc855c761461005d575b600080fd5b81801561006957600080fd5b506100b6600480360381019080803590602001909291908035600019169060200190929190803573ffffffffffffffffffffffffffffffffffffffff1690602001909291905050506100d3565b604051808381526020018281526020019250505060405180910390f35b600080600080866000016000876000191660001916815260200190815260200160002060070160008673ffffffffffffffffffffffffffffffffffffffff1673ffffffffffffffffffffffffffffffffffffffff168152602001908152602001600020549150866000016000876000191660001916815260200190815260200160002060080160008673ffffffffffffffffffffffffffffffffffffffff1673ffffffffffffffffffffffffffffffffffffffff168152602001908152602001600020549050818760000160008860001916600019168152602001908152602001600020600201600082825403925050819055506000876000016000886000191660001916815260200190815260200160002060070160008773ffffffffffffffffffffffffffffffffffffffff1673ffffffffffffffffffffffffffffffffffffffff168152602001908152602001600020819055508473ffffffffffffffffffffffffffffffffffffffff166108fc829081150290604051600060405180830381858888f19350505050158015610270573d6000803e3d6000fd5b506000876000016000886000191660001916815260200190815260200160002060080160008773ffffffffffffffffffffffffffffffffffffffff1673ffffffffffffffffffffffffffffffffffffffff168152602001908152602001600020819055506000876000016000886000191660001916815260200190815260200160002060060160008773ffffffffffffffffffffffffffffffffffffffff1673ffffffffffffffffffffffffffffffffffffffff16815260200190815260200160002060006101000a81548160ff02191690831515021790555081819350935050509350939150505600a165627a7a72305820623b7389c4273664bfccbd1a46878e48b49d5130cebace45a8f8019d06b07c200029",
  "source": "pragma solidity ^0.4.24;\n\nimport \"../contracts/StructLib.sol\";\n\nlibrary WithdrawFundsLib {\n\n    function withdrawFunds(StructLib.Data storage self, bytes32 _name, address _investor)\n    public\n    returns (uint, uint)\n    {\n        //Need to make sure this matches up with withdraw philosophy\n        //Temporary Balance and Fees\n        uint bal = self.list[_name].virtualBalances[_investor];\n        uint fees = self.list[_name].fees[_investor];\n        //subtract virtual balance from total funds\n        self.list[_name].totalBalance -= bal;\n        //zero out virtual Balance\n        self.list[_name].virtualBalances[_investor] = 0;\n        //transfer fees back to investor\n        _investor.transfer(fees);\n        //Zero out fees\n        self.list[_name].fees[_investor] = 0;\n        //set investor status to faslse\n        self.list[_name].investors[_investor] = false;\n        return (bal, fees);\n    }\n}",
  "sourcePath": "/home/bryherbz/Documents/final-project-bryanherbert/contracts/WithdrawFundsLib.sol",
  "compiler": {
    "name": "solc",
    "version": "0.4.24+commit.e67f0147.Emscripten.clang"
  },
  "schemaVersion": "2.0.1",
  "updatedAt": "2018-12-31T02:10:21.792Z"
}