{
  "contractName": "WithdrawFundsLib",
  "abi": [
    {
      "constant": false,
      "inputs": [
        {
          "name": "self",
          "type": "StructLib.Data storage"
        },
        {
          "name": "_fundNum",
          "type": "uint256"
        },
        {
          "name": "_investor",
          "type": "address"
        },
        {
          "name": "_amount",
          "type": "uint256"
        }
      ],
      "name": "withdrawFunds",
      "outputs": [
        {
          "name": "",
          "type": "uint256"
        },
        {
          "name": "",
          "type": "uint256"
        }
      ],
      "payable": false,
      "stateMutability": "nonpayable",
      "type": "function"
    }
  ],
  "bytecode": "0x6105a9610030600b82828239805160001a6073146000811461002057610022565bfe5b5030600052607381538281f3fe7300000000000000000000000000000000000000003014608060405260043610610058576000357c0100000000000000000000000000000000000000000000000000000000900463ffffffff1680635f03d5241461005d575b600080fd5b81801561006957600080fd5b506100ca6004803603608081101561008057600080fd5b810190808035906020019092919080359060200190929190803573ffffffffffffffffffffffffffffffffffffffff169060200190929190803590602001909291905050506100e7565b604051808381526020018281526020019250505060405180910390f35b6000808585858583600001600084815260200190815260200160002060080160008373ffffffffffffffffffffffffffffffffffffffff1673ffffffffffffffffffffffffffffffffffffffff1681526020019081526020016000205481111515156101e1576040517f08c379a000000000000000000000000000000000000000000000000000000000815260040180806020018281038252603f8152602001807f4572726f723a20496e766573746f7220697320747279696e6720746f2077697481526020017f6864726177206d6f7265207468616e206163636f756e742062616c616e63650081525060400191505060405180910390fd5b3373ffffffffffffffffffffffffffffffffffffffff168873ffffffffffffffffffffffffffffffffffffffff161415156102aa576040517f08c379a000000000000000000000000000000000000000000000000000000000815260040180806020018281038252603d8152602001807f5468652073656e64657220747279696e6720746f20657865637574652074686581526020017f2066756e6374696f6e206973206e6f742074686520696e766573746f7200000081525060400191505060405180910390fd5b6000808b60000160008c815260200190815260200160002060080160008b73ffffffffffffffffffffffffffffffffffffffff1673ffffffffffffffffffffffffffffffffffffffff1681526020019081526020016000205489141561042d578b60000160008c815260200190815260200160002060080160008b73ffffffffffffffffffffffffffffffffffffffff1673ffffffffffffffffffffffffffffffffffffffff1681526020019081526020016000205491508b60000160008c815260200190815260200160002060090160008b73ffffffffffffffffffffffffffffffffffffffff1673ffffffffffffffffffffffffffffffffffffffff16815260200190815260200160002054905060008c60000160008d815260200190815260200160002060070160008c73ffffffffffffffffffffffffffffffffffffffff1673ffffffffffffffffffffffffffffffffffffffff16815260200190815260200160002060006101000a81548160ff021916908315150217905550610435565b889150600090505b818c60000160008d815260200190815260200160002060030160008282540392505081905550818c60000160008d815260200190815260200160002060080160008c73ffffffffffffffffffffffffffffffffffffffff1673ffffffffffffffffffffffffffffffffffffffff168152602001908152602001600020600082825403925050819055508973ffffffffffffffffffffffffffffffffffffffff166108fc829081150290604051600060405180830381858888f19350505050158015610504573d6000803e3d6000fd5b50808c60000160008d815260200190815260200160002060090160008c73ffffffffffffffffffffffffffffffffffffffff1673ffffffffffffffffffffffffffffffffffffffff168152602001908152602001600020600082825403925050819055508181975097505050505050509450949250505056fea165627a7a723058200f4ff04ab29d8b1ebd9dfdcbe1ea7792f9dfa64d12d9a84ff977336f77514fbf0029",
  "source": "pragma solidity ^0.5.0;\n\nimport \"../contracts/StructLib.sol\";\n\n/** @title Withdraw Funds Library\n  * @author Bryan Herbert\n  * @notice Functionality to make state changes and ether transfers when an investor withdraws funds\n  */\nlibrary WithdrawFundsLib {\n\n    /** @dev Modifier that limits an investor from withdrawing an amount greater than their virtual balance\n      * @param self Data struct that contains fund information\n      * @param _fundNum Fund Number\n      * @param _investor investor address\n      * @param _amount amount requested to be withdrawn\n      */\n    modifier maxWithdraw(StructLib.Data storage self,\n     uint _fundNum, \n     address _investor, \n     uint _amount){\n        require(\n            //amount to withdraw is not more than balance in account\n            _amount <= self.list[_fundNum].virtualBalances[_investor],\n            \"Error: Investor is trying to withdraw more than account balance\"\n        );\n        _;\n    }\n\n    /** @dev Makes state changes and ether transfers correspnding to a new withdrawal request\n      * @param self Data struct with fund information\n      * @param _fundNum Fund Number\n      * @param _investor investor address\n      * @param _amount amount requested to be withdrawn\n      * @return uint virtual balance withdrwan\n      * @return uint fees withdrawn\n      */\n    function withdrawFunds(StructLib.Data storage self, \n    uint _fundNum, \n    address payable _investor, \n    uint _amount)\n    public\n    maxWithdraw(self, _fundNum, _investor, _amount)\n    returns (uint, uint)\n    {\n        require(\n            _investor == msg.sender,\n            \"The sender trying to execute the function is not the investor\"\n        );\n        uint bal;\n        uint fees;\n        //Check for total or partial withdrawal\n        //total withdrawal\n        if(_amount == self.list[_fundNum].virtualBalances[_investor]){\n            //Need to make sure this matches up with withdraw philosophy\n            //Temporary Balance and Fees\n            bal = self.list[_fundNum].virtualBalances[_investor];\n            fees = self.list[_fundNum].fees[_investor];\n            //set investor status to faslse\n            self.list[_fundNum].investors[_investor] = false;\n        } else{\n            //partial withdrawal\n            bal = _amount;\n            //Need to think about how to handle fees in this case\n            //Right now fees will not be withdrawn unless in the case of total withdrawal\n            fees = 0;\n        }\n        //subtract virtual balance from total funds\n        self.list[_fundNum].totalCapital -= bal;\n        //Subtract out balance\n        self.list[_fundNum].virtualBalances[_investor] -= bal;\n        //transfer fees back to investor\n        _investor.transfer(fees);\n        //Substract out fees\n        self.list[_fundNum].fees[_investor] -= fees;\n        return (bal, fees);\n    }\n}",
  "sourcePath": "/home/bryan/final-project-bryanherbert/contracts/WithdrawFundsLib.sol",
  "compiler": {
    "name": "solc",
    "version": "0.5.0+commit.1d4f565a.Emscripten.clang"
  },
  "schemaVersion": "3.0.1",
  "updatedAt": "2019-01-28T09:16:56.054Z",
  "devdoc": {
    "author": "Bryan Herbert",
    "methods": {
      "withdrawFunds(StructLib.Data storage,uint256,address,uint256)": {
        "details": "Makes state changes and ether transfers correspnding to a new withdrawal request",
        "params": {
          "_amount": "amount requested to be withdrawn",
          "_fundNum": "Fund Number",
          "_investor": "investor address",
          "self": "Data struct with fund information"
        },
        "return": "uint virtual balance withdrwanuint fees withdrawn"
      }
    },
    "title": "Withdraw Funds Library"
  },
  "userdoc": {
    "methods": {},
    "notice": "Functionality to make state changes and ether transfers when an investor withdraws funds"
  }
}