{
  "contractName": "WithdrawFundsLib",
  "abi": [
    {
      "constant": false,
      "inputs": [
        {
          "name": "self",
          "type": "StructLib.Data storage"
        },
        {
          "name": "_name",
          "type": "bytes32"
        },
        {
          "name": "_investor",
          "type": "address"
        },
        {
          "name": "_amount",
          "type": "uint256"
        }
      ],
      "name": "withdrawFunds",
      "outputs": [
        {
          "name": "",
          "type": "uint256"
        },
        {
          "name": "",
          "type": "uint256"
        }
      ],
      "payable": false,
      "stateMutability": "nonpayable",
      "type": "function"
    }
  ],
  "bytecode": "0x610516610030600b82828239805160001a6073146000811461002057610022565bfe5b5030600052607381538281f3007300000000000000000000000000000000000000003014608060405260043610610058576000357c0100000000000000000000000000000000000000000000000000000000900463ffffffff1680636a2e5b881461005d575b600080fd5b81801561006957600080fd5b506100c0600480360381019080803590602001909291908035600019169060200190929190803573ffffffffffffffffffffffffffffffffffffffff169060200190929190803590602001909291905050506100dd565b604051808381526020018281526020019250505060405180910390f35b60008060008087878787836000016000846000191660001916815260200190815260200160002060070160008373ffffffffffffffffffffffffffffffffffffffff1673ffffffffffffffffffffffffffffffffffffffff1681526020019081526020016000205481111515156101e2576040517f08c379a000000000000000000000000000000000000000000000000000000000815260040180806020018281038252603f8152602001807f4572726f723a20496e766573746f7220697320747279696e6720746f2077697481526020017f6864726177206d6f7265207468616e206163636f756e742062616c616e63650081525060400191505060405180910390fd5b8b60000160008c6000191660001916815260200190815260200160002060070160008b73ffffffffffffffffffffffffffffffffffffffff1673ffffffffffffffffffffffffffffffffffffffff16815260200190815260200160002054891415610382578b60000160008c6000191660001916815260200190815260200160002060070160008b73ffffffffffffffffffffffffffffffffffffffff1673ffffffffffffffffffffffffffffffffffffffff1681526020019081526020016000205495508b60000160008c6000191660001916815260200190815260200160002060080160008b73ffffffffffffffffffffffffffffffffffffffff1673ffffffffffffffffffffffffffffffffffffffff16815260200190815260200160002054945060008c60000160008d6000191660001916815260200190815260200160002060060160008c73ffffffffffffffffffffffffffffffffffffffff1673ffffffffffffffffffffffffffffffffffffffff16815260200190815260200160002060006101000a81548160ff02191690831515021790555061038a565b889550600094505b858c60000160008d6000191660001916815260200190815260200160002060020160008282540392505081905550858c60000160008d6000191660001916815260200190815260200160002060070160008c73ffffffffffffffffffffffffffffffffffffffff1673ffffffffffffffffffffffffffffffffffffffff168152602001908152602001600020600082825403925050819055508973ffffffffffffffffffffffffffffffffffffffff166108fc869081150290604051600060405180830381858888f19350505050158015610469573d6000803e3d6000fd5b50848c60000160008d6000191660001916815260200190815260200160002060080160008c73ffffffffffffffffffffffffffffffffffffffff1673ffffffffffffffffffffffffffffffffffffffff16815260200190815260200160002060008282540392505081905550858597509750505050505050945094925050505600a165627a7a72305820807a9496ff8e1f5d32d9644b43a5b70898d8894499409c28ee14b0f0121e1d300029",
  "source": "pragma solidity ^0.4.24;\n\nimport \"../contracts/StructLib.sol\";\n\nlibrary WithdrawFundsLib {\n\n    modifier maxWithdraw(StructLib.Data storage self, bytes32 _name, address _investor, uint _amount){\n        require(\n            //amount to withdraw is not more than balance in account\n            _amount <= self.list[_name].virtualBalances[_investor],\n            \"Error: Investor is trying to withdraw more than account balance\"\n        );\n        _;\n    }\n\n    function withdrawFunds(StructLib.Data storage self, bytes32 _name, address _investor, uint _amount)\n    public\n    maxWithdraw(self, _name, _investor, _amount)\n    returns (uint, uint)\n    {\n        uint bal;\n        uint fees;\n        //Check for total or partial withdrawal\n        //total withdrawal\n        if(_amount == self.list[_name].virtualBalances[_investor]){\n            //Need to make sure this matches up with withdraw philosophy\n            //Temporary Balance and Fees\n            bal = self.list[_name].virtualBalances[_investor];\n            fees = self.list[_name].fees[_investor];\n            //set investor status to faslse\n            self.list[_name].investors[_investor] = false;\n        } else{\n            //partial withdrawal\n            bal = _amount;\n            //Need to think about how to handle fees in this case\n            //Right now fees will not be withdrawn unless in the case of total withdrawal\n            fees = 0;\n        }\n        //subtract virtual balance from total funds\n        self.list[_name].totalCapital -= bal;\n        //Subtract out balance\n        self.list[_name].virtualBalances[_investor] -= bal;\n        //transfer fees back to investor\n        _investor.transfer(fees);\n        //Substract out fees\n        self.list[_name].fees[_investor] -= fees;\n        return (bal, fees);\n    }\n}",
  "sourcePath": "/home/bryherbz/Documents/final-project-bryanherbert/contracts/WithdrawFundsLib.sol",
  "compiler": {
    "name": "solc",
    "version": "0.4.24+commit.e67f0147.Emscripten.clang"
  },
  "schemaVersion": "2.0.1",
  "updatedAt": "2019-01-09T22:10:05.089Z"
}