{
  "contractName": "WithdrawFundsLib",
  "abi": [
    {
      "constant": false,
      "inputs": [
        {
          "name": "self",
          "type": "StructLib.Data storage"
        },
        {
          "name": "_fundNum",
          "type": "uint256"
        },
        {
          "name": "_investor",
          "type": "address"
        },
        {
          "name": "_amount",
          "type": "uint256"
        }
      ],
      "name": "withdrawFunds",
      "outputs": [
        {
          "name": "",
          "type": "uint256"
        },
        {
          "name": "",
          "type": "uint256"
        }
      ],
      "payable": false,
      "stateMutability": "nonpayable",
      "type": "function",
      "signature": "0x5f03d524"
    }
  ],
  "bytecode": "0x6104e0610030600b82828239805160001a6073146000811461002057610022565bfe5b5030600052607381538281f3fe7300000000000000000000000000000000000000003014608060405260043610610058576000357c0100000000000000000000000000000000000000000000000000000000900463ffffffff1680635f03d5241461005d575b600080fd5b81801561006957600080fd5b506100ca6004803603608081101561008057600080fd5b810190808035906020019092919080359060200190929190803573ffffffffffffffffffffffffffffffffffffffff169060200190929190803590602001909291905050506100e7565b604051808381526020018281526020019250505060405180910390f35b6000808585858583600001600084815260200190815260200160002060080160008373ffffffffffffffffffffffffffffffffffffffff1673ffffffffffffffffffffffffffffffffffffffff1681526020019081526020016000205481111515156101e1576040517f08c379a000000000000000000000000000000000000000000000000000000000815260040180806020018281038252603f8152602001807f4572726f723a20496e766573746f7220697320747279696e6720746f2077697481526020017f6864726177206d6f7265207468616e206163636f756e742062616c616e63650081525060400191505060405180910390fd5b6000808b60000160008c815260200190815260200160002060080160008b73ffffffffffffffffffffffffffffffffffffffff1673ffffffffffffffffffffffffffffffffffffffff16815260200190815260200160002054891415610364578b60000160008c815260200190815260200160002060080160008b73ffffffffffffffffffffffffffffffffffffffff1673ffffffffffffffffffffffffffffffffffffffff1681526020019081526020016000205491508b60000160008c815260200190815260200160002060090160008b73ffffffffffffffffffffffffffffffffffffffff1673ffffffffffffffffffffffffffffffffffffffff16815260200190815260200160002054905060008c60000160008d815260200190815260200160002060070160008c73ffffffffffffffffffffffffffffffffffffffff1673ffffffffffffffffffffffffffffffffffffffff16815260200190815260200160002060006101000a81548160ff02191690831515021790555061036c565b889150600090505b818c60000160008d815260200190815260200160002060030160008282540392505081905550818c60000160008d815260200190815260200160002060080160008c73ffffffffffffffffffffffffffffffffffffffff1673ffffffffffffffffffffffffffffffffffffffff168152602001908152602001600020600082825403925050819055508973ffffffffffffffffffffffffffffffffffffffff166108fc829081150290604051600060405180830381858888f1935050505015801561043b573d6000803e3d6000fd5b50808c60000160008d815260200190815260200160002060090160008c73ffffffffffffffffffffffffffffffffffffffff1673ffffffffffffffffffffffffffffffffffffffff168152602001908152602001600020600082825403925050819055508181975097505050505050509450949250505056fea165627a7a723058201a382888fc39a7c63f46fc97e37f287d68d7fbd473154a6fd934a8656c8de7c20029",
  "source": "pragma solidity ^0.5.0;\n\nimport \"../contracts/StructLib.sol\";\n\nlibrary WithdrawFundsLib {\n\n    modifier maxWithdraw(StructLib.Data storage self, uint _fundNum, address _investor, uint _amount){\n        require(\n            //amount to withdraw is not more than balance in account\n            _amount <= self.list[_fundNum].virtualBalances[_investor],\n            \"Error: Investor is trying to withdraw more than account balance\"\n        );\n        _;\n    }\n\n    function withdrawFunds(StructLib.Data storage self, uint _fundNum, address payable _investor, uint _amount)\n    public\n    maxWithdraw(self, _fundNum, _investor, _amount)\n    returns (uint, uint)\n    {\n        uint bal;\n        uint fees;\n        //Check for total or partial withdrawal\n        //total withdrawal\n        if(_amount == self.list[_fundNum].virtualBalances[_investor]){\n            //Need to make sure this matches up with withdraw philosophy\n            //Temporary Balance and Fees\n            bal = self.list[_fundNum].virtualBalances[_investor];\n            fees = self.list[_fundNum].fees[_investor];\n            //set investor status to faslse\n            self.list[_fundNum].investors[_investor] = false;\n        } else{\n            //partial withdrawal\n            bal = _amount;\n            //Need to think about how to handle fees in this case\n            //Right now fees will not be withdrawn unless in the case of total withdrawal\n            fees = 0;\n        }\n        //subtract virtual balance from total funds\n        self.list[_fundNum].totalCapital -= bal;\n        //Subtract out balance\n        self.list[_fundNum].virtualBalances[_investor] -= bal;\n        //transfer fees back to investor\n        _investor.transfer(fees);\n        //Substract out fees\n        self.list[_fundNum].fees[_investor] -= fees;\n        return (bal, fees);\n    }\n}",
  "sourcePath": "/home/bryan/final-project-bryanherbert/contracts/WithdrawFundsLib.sol",
  "compiler": {
    "name": "solc",
    "version": "0.5.0+commit.1d4f565a.Emscripten.clang"
  },
  "schemaVersion": "3.0.1",
  "updatedAt": "2019-01-27T08:25:12.172Z",
  "devdoc": {
    "methods": {}
  },
  "userdoc": {
    "methods": {}
  }
}